{
	"data": {
		"bytecode": {
			"linkReferences": {},
			"object": "608060405234801561001057600080fd5b506118d4806100206000396000f3fe608060405234801561001057600080fd5b50600436106100f55760003560e01c8063997da8d411610097578063bb734c4e11610066578063bb734c4e1461028c578063c11b8ad7146102bc578063e7a48839146102da578063eeeac01e146102f8576100f5565b8063997da8d4146101f05780639b4cdcd31461020e5780639f13f76d1461023e578063aca8f56e1461025c576100f5565b806329038545116100d357806329038545146101785780634e93d4a2146101965780635727dc5c146101b45780637a308a4c146101d2576100f5565b806303a507be146100fa5780631177a4a4146101185780631c51df7b14610148575b600080fd5b610102610316565b60405161010f9190611340565b60405180910390f35b610132600480360381019061012d91906114dd565b61033a565b60405161013f91906115c8565b60405180910390f35b610162600480360381019061015d91906114dd565b6103f7565b60405161016f91906115c8565b60405180910390f35b6101806104b4565b60405161018d9190611340565b60405180910390f35b61019e6104d8565b6040516101ab9190611340565b60405180910390f35b6101bc6104fc565b6040516101c99190611340565b60405180910390f35b6101da610501565b6040516101e79190611340565b60405180910390f35b6101f8610525565b6040516102059190611340565b60405180910390f35b610228600480360381019061022391906115e3565b61052a565b60405161023591906115c8565b60405180910390f35b6102466105c5565b6040516102539190611340565b60405180910390f35b61027660048036038101906102719190611610565b6105e9565b60405161028391906115c8565b60405180910390f35b6102a660048036038101906102a191906115e3565b610675565b6040516102b391906115c8565b60405180910390f35b6102c4610710565b6040516102d19190611340565b60405180910390f35b6102e2610734565b6040516102ef9190611340565b60405180910390f35b610300610758565b60405161030d9190611340565b60405180910390f35b7f6fb13b7e8ab1c7d191d16197c1bf7f8dc7992412e1266155b3fb3ac8b30f3ed881565b6103426112e3565b6000806103d48560006002811061035c5761035b611650565b5b60200201518660016002811061037557610374611650565b5b60200201518660006002811061038e5761038d611650565b5b6020020151876001600281106103a7576103a6611650565b5b602002015160007ffffffffffffffffffffffffffffffffffffffffffffffffffffffffefffffc2f61077c565b915091506040518060400160405280838152602001828152509250505092915050565b6103ff6112e3565b6000806104918560006002811061041957610418611650565b5b60200201518660016002811061043257610431611650565b5b60200201518660006002811061044b5761044a611650565b5b60200201518760016002811061046457610463611650565b5b602002015160007ffffffffffffffffffffffffffffffffffffffffffffffffffffffffefffffc2f61080f565b915091506040518060400160405280838152602001828152509250505092915050565b7f483ada7726a3c4655da4fbfc0e1108a8fd17b448a68554199c47d08ffb10d4b881565b7fd209f7c16cdb6d3559bea88c7d920f8ff077406c615da8adfecdeef604cb40a681565b600781565b7f2e1eb77bd89505113819600b395e0475d102c4788a3280a583d9d82625ed853381565b600081565b6105326112e3565b6000806105a3847f07cd9ee748a0b26773d9d29361f75594964106d13e1cad67cfe2df503ee3e90e7fd209f7c16cdb6d3559bea88c7d920f8ff077406c615da8adfecdeef604cb40a660007ffffffffffffffffffffffffffffffffffffffffffffffffffffffffefffffc2f610843565b9150915060405180604001604052808381526020018281525092505050919050565b7ffffffffffffffffffffffffffffffffebaaedce6af48a03bbfd25e8cd036414181565b6105f16112e3565b600080610652848660006002811061060c5761060b611650565b5b60200201518760016002811061062557610624611650565b5b602002015160007ffffffffffffffffffffffffffffffffffffffffffffffffffffffffefffffc2f610843565b915091506040518060400160405280838152602001828152509250505092915050565b61067d6112e3565b6000806106ee847f6fb13b7e8ab1c7d191d16197c1bf7f8dc7992412e1266155b3fb3ac8b30f3ed87f2e1eb77bd89505113819600b395e0475d102c4788a3280a583d9d82625ed853360007ffffffffffffffffffffffffffffffffffffffffffffffffffffffffefffffc2f610843565b9150915060405180604001604052808381526020018281525092505050919050565b7f07cd9ee748a0b26773d9d29361f75594964106d13e1cad67cfe2df503ee3e90e81565b7f79be667ef9dcbbac55a06295ce870b07029bfcdb2dce28d959f2815b16f8179881565b7ffffffffffffffffffffffffffffffffffffffffffffffffffffffffefffffc2f81565b6000806000806000888b036107d2576000868061079c5761079b61167f565b5b898c08036107b35760008094509450505050610804565b6107c18b8b60018a8a61087d565b8093508194508295505050506107f0565b6107e38b8b60018c8c60018c610a3b565b8093508194508295505050505b6107fc838383896110ba565b945094505050505b965096945050505050565b600080600080610820888887611131565b915091506108328a8a84848a8a61077c565b935093505050965096945050505050565b600080600080600061085a8a8a8a60018b8b611158565b92509250925061086c838383896110ba565b945094505050509550959350505050565b600080600080860361089757878787925092509250610a30565b600084806108a8576108a761167f565b5b898a099050600085806108be576108bd61167f565b5b898a099050600086806108d4576108d361167f565b5b898a099050600087806108ea576108e961167f565b5b88806108f9576108f861167f565b5b848e096004099050600088806109125761091161167f565b5b89806109215761092061167f565b5b8a806109305761092f61167f565b5b8586098c098a806109445761094361167f565b5b87600309089050888061095a5761095961167f565b5b89806109695761096861167f565b5b8384088a61097791906116dd565b8a806109865761098561167f565b5b838409089450888061099b5761099a61167f565b5b89806109aa576109a961167f565b5b8a806109b9576109b861167f565b5b8687096008098a6109ca91906116dd565b8a806109d9576109d861167f565b5b8b806109e8576109e761167f565b5b888d6109f491906116dd565b860884090893508880610a0a57610a0961167f565b5b8980610a1957610a1861167f565b5b8c8e09600209925084848497509750975050505050505b955095509592505050565b6000806000808a148015610a4f5750600089145b15610a62578686869250925092506110ad565b600087148015610a725750600086145b15610a85578989899250925092506110ad565b610a8d611305565b8480610a9c57610a9b61167f565b5b898a0981600060048110610ab357610ab2611650565b5b6020020181815250508480610acb57610aca61167f565b5b81600060048110610adf57610ade611650565b5b60200201518a0981600160048110610afa57610af9611650565b5b6020020181815250508480610b1257610b1161167f565b5b86870981600260048110610b2957610b28611650565b5b6020020181815250508480610b4157610b4061167f565b5b81600260048110610b5557610b54611650565b5b6020020151870981600360048110610b7057610b6f611650565b5b60200201818152505060405180608001604052808680610b9357610b9261167f565b5b83600260048110610ba757610ba6611650565b5b60200201518e0981526020018680610bc257610bc161167f565b5b83600360048110610bd657610bd5611650565b5b60200201518d0981526020018680610bf157610bf061167f565b5b83600060048110610c0557610c04611650565b5b60200201518b0981526020018680610c2057610c1f61167f565b5b83600160048110610c3457610c33611650565b5b60200201518a09815250905080600260048110610c5457610c53611650565b5b602002015181600060048110610c6d57610c6c611650565b5b6020020151141580610caf575080600360048110610c8e57610c8d611650565b5b602002015181600160048110610ca757610ca6611650565b5b602002015114155b610cee576040517f08c379a0000000000000000000000000000000000000000000000000000000008152600401610ce59061176e565b60405180910390fd5b610cf6611305565b8580610d0557610d0461167f565b5b82600060048110610d1957610d18611650565b5b602002015187610d2991906116dd565b83600260048110610d3d57610d3c611650565b5b60200201510881600060048110610d5757610d56611650565b5b6020020181815250508580610d6f57610d6e61167f565b5b82600160048110610d8357610d82611650565b5b602002015187610d9391906116dd565b83600360048110610da757610da6611650565b5b60200201510881600160048110610dc157610dc0611650565b5b6020020181815250508580610dd957610dd861167f565b5b81600060048110610ded57610dec611650565b5b602002015182600060048110610e0657610e05611650565b5b60200201510981600260048110610e2057610e1f611650565b5b6020020181815250508580610e3857610e3761167f565b5b81600060048110610e4c57610e4b611650565b5b602002015182600260048110610e6557610e64611650565b5b60200201510981600360048110610e7f57610e7e611650565b5b60200201818152505060008680610e9957610e9861167f565b5b82600360048110610ead57610eac611650565b5b602002015188610ebd91906116dd565b8880610ecc57610ecb61167f565b5b84600160048110610ee057610edf611650565b5b602002015185600160048110610ef957610ef8611650565b5b6020020151090890508680610f1157610f1061167f565b5b8780610f2057610f1f61167f565b5b8880610f2f57610f2e61167f565b5b84600260048110610f4357610f42611650565b5b602002015186600060048110610f5c57610f5b611650565b5b60200201510960020988610f7091906116dd565b8208905060008780610f8557610f8461167f565b5b8880610f9457610f9361167f565b5b838a610fa091906116dd565b8a80610faf57610fae61167f565b5b86600260048110610fc357610fc2611650565b5b602002015188600060048110610fdc57610fdb611650565b5b6020020151090884600160048110610ff757610ff6611650565b5b6020020151099050878061100e5761100d61167f565b5b888061101d5761101c61167f565b5b8460036004811061103157611030611650565b5b60200201518660016004811061104a57611049611650565b5b6020020151098961105b91906116dd565b82089050600088806110705761106f61167f565b5b898061107f5761107e61167f565b5b8b8f098560006004811061109657611095611650565b5b602002015109905082828297509750975050505050505b9750975097945050505050565b60008060006110c985856111f7565b9050600084806110dc576110db61167f565b5b8283099050600085806110f2576110f161167f565b5b828a099050600086806111085761110761167f565b5b87806111175761111661167f565b5b8486098a0990508181955095505050505094509492505050565b6000808483858561114291906116dd565b61114c919061178e565b91509150935093915050565b6000806000808903611172578787879250925092506111eb565b60008990506000806000600190505b600084146111dd57600060018516146111b0576111a38383838f8f8f8e610a3b565b8093508194508295505050505b6002846111bd91906117bf565b93506111cc8c8c8c8c8c61087d565b809c50819d50829e50505050611181565b828282965096509650505050505b96509650969350505050565b60008083141580156112095750818314155b8015611216575060008214155b611255576040517f08c379a000000000000000000000000000000000000000000000000000000000815260040161124c9061183c565b60405180910390fd5b60008060019050600084905060005b600087146112d657868261127891906117bf565b905082868061128a5761128961167f565b5b87806112995761129861167f565b5b858409886112a791906116dd565b860880945081955050508687826112be919061185c565b836112c991906116dd565b8098508193505050611264565b8394505050505092915050565b6040518060400160405280600290602082028036833780820191505090505090565b6040518060800160405280600490602082028036833780820191505090505090565b6000819050919050565b61133a81611327565b82525050565b60006020820190506113556000830184611331565b92915050565b6000604051905090565b600080fd5b600080fd5b6000601f19601f8301169050919050565b7f4e487b7100000000000000000000000000000000000000000000000000000000600052604160045260246000fd5b6113b88261136f565b810181811067ffffffffffffffff821117156113d7576113d6611380565b5b80604052505050565b60006113ea61135b565b90506113f682826113af565b919050565b600067ffffffffffffffff82111561141657611415611380565b5b602082029050919050565b600080fd5b61142f81611327565b811461143a57600080fd5b50565b60008135905061144c81611426565b92915050565b6000611465611460846113fb565b6113e0565b9050806020840283018581111561147f5761147e611421565b5b835b818110156114a85780611494888261143d565b845260208401935050602081019050611481565b5050509392505050565b600082601f8301126114c7576114c661136a565b5b60026114d4848285611452565b91505092915050565b600080608083850312156114f4576114f3611365565b5b6000611502858286016114b2565b9250506040611513858286016114b2565b9150509250929050565b600060029050919050565b600081905092915050565b6000819050919050565b61154681611327565b82525050565b6000611558838361153d565b60208301905092915050565b6000602082019050919050565b61157a8161151d565b6115848184611528565b925061158f82611533565b8060005b838110156115c05781516115a7878261154c565b96506115b283611564565b925050600181019050611593565b505050505050565b60006040820190506115dd6000830184611571565b92915050565b6000602082840312156115f9576115f8611365565b5b60006116078482850161143d565b91505092915050565b6000806060838503121561162757611626611365565b5b6000611635858286016114b2565b92505060406116468582860161143d565b9150509250929050565b7f4e487b7100000000000000000000000000000000000000000000000000000000600052603260045260246000fd5b7f4e487b7100000000000000000000000000000000000000000000000000000000600052601260045260246000fd5b7f4e487b7100000000000000000000000000000000000000000000000000000000600052601160045260246000fd5b60006116e882611327565b91506116f383611327565b925082820390508181111561170b5761170a6116ae565b5b92915050565b600082825260208201905092915050565b7f557365206a6163446f75626c652066756e6374696f6e20696e73746561640000600082015250565b6000611758601e83611711565b915061176382611722565b602082019050919050565b600060208201905081810360008301526117878161174b565b9050919050565b600061179982611327565b91506117a483611327565b9250826117b4576117b361167f565b5b828206905092915050565b60006117ca82611327565b91506117d583611327565b9250826117e5576117e461167f565b5b828204905092915050565b7f496e76616c6964206e756d626572000000000000000000000000000000000000600082015250565b6000611826600e83611711565b9150611831826117f0565b602082019050919050565b6000602082019050818103600083015261185581611819565b9050919050565b600061186782611327565b915061187283611327565b925082820261188081611327565b91508282048414831517611897576118966116ae565b5b509291505056fea2646970667358221220e48f35ee20bc4da02fc612e2266e9501b7f05cc7e9f290541156cd38c902734a64736f6c63430008130033",
			"opcodes": "PUSH1 0x80 PUSH1 0x40 MSTORE CALLVALUE DUP1 ISZERO PUSH2 0x10 JUMPI PUSH1 0x0 DUP1 REVERT JUMPDEST POP PUSH2 0x18D4 DUP1 PUSH2 0x20 PUSH1 0x0 CODECOPY PUSH1 0x0 RETURN INVALID PUSH1 0x80 PUSH1 0x40 MSTORE CALLVALUE DUP1 ISZERO PUSH2 0x10 JUMPI PUSH1 0x0 DUP1 REVERT JUMPDEST POP PUSH1 0x4 CALLDATASIZE LT PUSH2 0xF5 JUMPI PUSH1 0x0 CALLDATALOAD PUSH1 0xE0 SHR DUP1 PUSH4 0x997DA8D4 GT PUSH2 0x97 JUMPI DUP1 PUSH4 0xBB734C4E GT PUSH2 0x66 JUMPI DUP1 PUSH4 0xBB734C4E EQ PUSH2 0x28C JUMPI DUP1 PUSH4 0xC11B8AD7 EQ PUSH2 0x2BC JUMPI DUP1 PUSH4 0xE7A48839 EQ PUSH2 0x2DA JUMPI DUP1 PUSH4 0xEEEAC01E EQ PUSH2 0x2F8 JUMPI PUSH2 0xF5 JUMP JUMPDEST DUP1 PUSH4 0x997DA8D4 EQ PUSH2 0x1F0 JUMPI DUP1 PUSH4 0x9B4CDCD3 EQ PUSH2 0x20E JUMPI DUP1 PUSH4 0x9F13F76D EQ PUSH2 0x23E JUMPI DUP1 PUSH4 0xACA8F56E EQ PUSH2 0x25C JUMPI PUSH2 0xF5 JUMP JUMPDEST DUP1 PUSH4 0x29038545 GT PUSH2 0xD3 JUMPI DUP1 PUSH4 0x29038545 EQ PUSH2 0x178 JUMPI DUP1 PUSH4 0x4E93D4A2 EQ PUSH2 0x196 JUMPI DUP1 PUSH4 0x5727DC5C EQ PUSH2 0x1B4 JUMPI DUP1 PUSH4 0x7A308A4C EQ PUSH2 0x1D2 JUMPI PUSH2 0xF5 JUMP JUMPDEST DUP1 PUSH4 0x3A507BE EQ PUSH2 0xFA JUMPI DUP1 PUSH4 0x1177A4A4 EQ PUSH2 0x118 JUMPI DUP1 PUSH4 0x1C51DF7B EQ PUSH2 0x148 JUMPI JUMPDEST PUSH1 0x0 DUP1 REVERT JUMPDEST PUSH2 0x102 PUSH2 0x316 JUMP JUMPDEST PUSH1 0x40 MLOAD PUSH2 0x10F SWAP2 SWAP1 PUSH2 0x1340 JUMP JUMPDEST PUSH1 0x40 MLOAD DUP1 SWAP2 SUB SWAP1 RETURN JUMPDEST PUSH2 0x132 PUSH1 0x4 DUP1 CALLDATASIZE SUB DUP2 ADD SWAP1 PUSH2 0x12D SWAP2 SWAP1 PUSH2 0x14DD JUMP JUMPDEST PUSH2 0x33A JUMP JUMPDEST PUSH1 0x40 MLOAD PUSH2 0x13F SWAP2 SWAP1 PUSH2 0x15C8 JUMP JUMPDEST PUSH1 0x40 MLOAD DUP1 SWAP2 SUB SWAP1 RETURN JUMPDEST PUSH2 0x162 PUSH1 0x4 DUP1 CALLDATASIZE SUB DUP2 ADD SWAP1 PUSH2 0x15D SWAP2 SWAP1 PUSH2 0x14DD JUMP JUMPDEST PUSH2 0x3F7 JUMP JUMPDEST PUSH1 0x40 MLOAD PUSH2 0x16F SWAP2 SWAP1 PUSH2 0x15C8 JUMP JUMPDEST PUSH1 0x40 MLOAD DUP1 SWAP2 SUB SWAP1 RETURN JUMPDEST PUSH2 0x180 PUSH2 0x4B4 JUMP JUMPDEST PUSH1 0x40 MLOAD PUSH2 0x18D SWAP2 SWAP1 PUSH2 0x1340 JUMP JUMPDEST PUSH1 0x40 MLOAD DUP1 SWAP2 SUB SWAP1 RETURN JUMPDEST PUSH2 0x19E PUSH2 0x4D8 JUMP JUMPDEST PUSH1 0x40 MLOAD PUSH2 0x1AB SWAP2 SWAP1 PUSH2 0x1340 JUMP JUMPDEST PUSH1 0x40 MLOAD DUP1 SWAP2 SUB SWAP1 RETURN JUMPDEST PUSH2 0x1BC PUSH2 0x4FC JUMP JUMPDEST PUSH1 0x40 MLOAD PUSH2 0x1C9 SWAP2 SWAP1 PUSH2 0x1340 JUMP JUMPDEST PUSH1 0x40 MLOAD DUP1 SWAP2 SUB SWAP1 RETURN JUMPDEST PUSH2 0x1DA PUSH2 0x501 JUMP JUMPDEST PUSH1 0x40 MLOAD PUSH2 0x1E7 SWAP2 SWAP1 PUSH2 0x1340 JUMP JUMPDEST PUSH1 0x40 MLOAD DUP1 SWAP2 SUB SWAP1 RETURN JUMPDEST PUSH2 0x1F8 PUSH2 0x525 JUMP JUMPDEST PUSH1 0x40 MLOAD PUSH2 0x205 SWAP2 SWAP1 PUSH2 0x1340 JUMP JUMPDEST PUSH1 0x40 MLOAD DUP1 SWAP2 SUB SWAP1 RETURN JUMPDEST PUSH2 0x228 PUSH1 0x4 DUP1 CALLDATASIZE SUB DUP2 ADD SWAP1 PUSH2 0x223 SWAP2 SWAP1 PUSH2 0x15E3 JUMP JUMPDEST PUSH2 0x52A JUMP JUMPDEST PUSH1 0x40 MLOAD PUSH2 0x235 SWAP2 SWAP1 PUSH2 0x15C8 JUMP JUMPDEST PUSH1 0x40 MLOAD DUP1 SWAP2 SUB SWAP1 RETURN JUMPDEST PUSH2 0x246 PUSH2 0x5C5 JUMP JUMPDEST PUSH1 0x40 MLOAD PUSH2 0x253 SWAP2 SWAP1 PUSH2 0x1340 JUMP JUMPDEST PUSH1 0x40 MLOAD DUP1 SWAP2 SUB SWAP1 RETURN JUMPDEST PUSH2 0x276 PUSH1 0x4 DUP1 CALLDATASIZE SUB DUP2 ADD SWAP1 PUSH2 0x271 SWAP2 SWAP1 PUSH2 0x1610 JUMP JUMPDEST PUSH2 0x5E9 JUMP JUMPDEST PUSH1 0x40 MLOAD PUSH2 0x283 SWAP2 SWAP1 PUSH2 0x15C8 JUMP JUMPDEST PUSH1 0x40 MLOAD DUP1 SWAP2 SUB SWAP1 RETURN JUMPDEST PUSH2 0x2A6 PUSH1 0x4 DUP1 CALLDATASIZE SUB DUP2 ADD SWAP1 PUSH2 0x2A1 SWAP2 SWAP1 PUSH2 0x15E3 JUMP JUMPDEST PUSH2 0x675 JUMP JUMPDEST PUSH1 0x40 MLOAD PUSH2 0x2B3 SWAP2 SWAP1 PUSH2 0x15C8 JUMP JUMPDEST PUSH1 0x40 MLOAD DUP1 SWAP2 SUB SWAP1 RETURN JUMPDEST PUSH2 0x2C4 PUSH2 0x710 JUMP JUMPDEST PUSH1 0x40 MLOAD PUSH2 0x2D1 SWAP2 SWAP1 PUSH2 0x1340 JUMP JUMPDEST PUSH1 0x40 MLOAD DUP1 SWAP2 SUB SWAP1 RETURN JUMPDEST PUSH2 0x2E2 PUSH2 0x734 JUMP JUMPDEST PUSH1 0x40 MLOAD PUSH2 0x2EF SWAP2 SWAP1 PUSH2 0x1340 JUMP JUMPDEST PUSH1 0x40 MLOAD DUP1 SWAP2 SUB SWAP1 RETURN JUMPDEST PUSH2 0x300 PUSH2 0x758 JUMP JUMPDEST PUSH1 0x40 MLOAD PUSH2 0x30D SWAP2 SWAP1 PUSH2 0x1340 JUMP JUMPDEST PUSH1 0x40 MLOAD DUP1 SWAP2 SUB SWAP1 RETURN JUMPDEST PUSH32 0x6FB13B7E8AB1C7D191D16197C1BF7F8DC7992412E1266155B3FB3AC8B30F3ED8 DUP2 JUMP JUMPDEST PUSH2 0x342 PUSH2 0x12E3 JUMP JUMPDEST PUSH1 0x0 DUP1 PUSH2 0x3D4 DUP6 PUSH1 0x0 PUSH1 0x2 DUP2 LT PUSH2 0x35C JUMPI PUSH2 0x35B PUSH2 0x1650 JUMP JUMPDEST JUMPDEST PUSH1 0x20 MUL ADD MLOAD DUP7 PUSH1 0x1 PUSH1 0x2 DUP2 LT PUSH2 0x375 JUMPI PUSH2 0x374 PUSH2 0x1650 JUMP JUMPDEST JUMPDEST PUSH1 0x20 MUL ADD MLOAD DUP7 PUSH1 0x0 PUSH1 0x2 DUP2 LT PUSH2 0x38E JUMPI PUSH2 0x38D PUSH2 0x1650 JUMP JUMPDEST JUMPDEST PUSH1 0x20 MUL ADD MLOAD DUP8 PUSH1 0x1 PUSH1 0x2 DUP2 LT PUSH2 0x3A7 JUMPI PUSH2 0x3A6 PUSH2 0x1650 JUMP JUMPDEST JUMPDEST PUSH1 0x20 MUL ADD MLOAD PUSH1 0x0 PUSH32 0xFFFFFFFFFFFFFFFFFFFFFFFFFFFFFFFFFFFFFFFFFFFFFFFFFFFFFFFEFFFFFC2F PUSH2 0x77C JUMP JUMPDEST SWAP2 POP SWAP2 POP PUSH1 0x40 MLOAD DUP1 PUSH1 0x40 ADD PUSH1 0x40 MSTORE DUP1 DUP4 DUP2 MSTORE PUSH1 0x20 ADD DUP3 DUP2 MSTORE POP SWAP3 POP POP POP SWAP3 SWAP2 POP POP JUMP JUMPDEST PUSH2 0x3FF PUSH2 0x12E3 JUMP JUMPDEST PUSH1 0x0 DUP1 PUSH2 0x491 DUP6 PUSH1 0x0 PUSH1 0x2 DUP2 LT PUSH2 0x419 JUMPI PUSH2 0x418 PUSH2 0x1650 JUMP JUMPDEST JUMPDEST PUSH1 0x20 MUL ADD MLOAD DUP7 PUSH1 0x1 PUSH1 0x2 DUP2 LT PUSH2 0x432 JUMPI PUSH2 0x431 PUSH2 0x1650 JUMP JUMPDEST JUMPDEST PUSH1 0x20 MUL ADD MLOAD DUP7 PUSH1 0x0 PUSH1 0x2 DUP2 LT PUSH2 0x44B JUMPI PUSH2 0x44A PUSH2 0x1650 JUMP JUMPDEST JUMPDEST PUSH1 0x20 MUL ADD MLOAD DUP8 PUSH1 0x1 PUSH1 0x2 DUP2 LT PUSH2 0x464 JUMPI PUSH2 0x463 PUSH2 0x1650 JUMP JUMPDEST JUMPDEST PUSH1 0x20 MUL ADD MLOAD PUSH1 0x0 PUSH32 0xFFFFFFFFFFFFFFFFFFFFFFFFFFFFFFFFFFFFFFFFFFFFFFFFFFFFFFFEFFFFFC2F PUSH2 0x80F JUMP JUMPDEST SWAP2 POP SWAP2 POP PUSH1 0x40 MLOAD DUP1 PUSH1 0x40 ADD PUSH1 0x40 MSTORE DUP1 DUP4 DUP2 MSTORE PUSH1 0x20 ADD DUP3 DUP2 MSTORE POP SWAP3 POP POP POP SWAP3 SWAP2 POP POP JUMP JUMPDEST PUSH32 0x483ADA7726A3C4655DA4FBFC0E1108A8FD17B448A68554199C47D08FFB10D4B8 DUP2 JUMP JUMPDEST PUSH32 0xD209F7C16CDB6D3559BEA88C7D920F8FF077406C615DA8ADFECDEEF604CB40A6 DUP2 JUMP JUMPDEST PUSH1 0x7 DUP2 JUMP JUMPDEST PUSH32 0x2E1EB77BD89505113819600B395E0475D102C4788A3280A583D9D82625ED8533 DUP2 JUMP JUMPDEST PUSH1 0x0 DUP2 JUMP JUMPDEST PUSH2 0x532 PUSH2 0x12E3 JUMP JUMPDEST PUSH1 0x0 DUP1 PUSH2 0x5A3 DUP5 PUSH32 0x7CD9EE748A0B26773D9D29361F75594964106D13E1CAD67CFE2DF503EE3E90E PUSH32 0xD209F7C16CDB6D3559BEA88C7D920F8FF077406C615DA8ADFECDEEF604CB40A6 PUSH1 0x0 PUSH32 0xFFFFFFFFFFFFFFFFFFFFFFFFFFFFFFFFFFFFFFFFFFFFFFFFFFFFFFFEFFFFFC2F PUSH2 0x843 JUMP JUMPDEST SWAP2 POP SWAP2 POP PUSH1 0x40 MLOAD DUP1 PUSH1 0x40 ADD PUSH1 0x40 MSTORE DUP1 DUP4 DUP2 MSTORE PUSH1 0x20 ADD DUP3 DUP2 MSTORE POP SWAP3 POP POP POP SWAP2 SWAP1 POP JUMP JUMPDEST PUSH32 0xFFFFFFFFFFFFFFFFFFFFFFFFFFFFFFFEBAAEDCE6AF48A03BBFD25E8CD0364141 DUP2 JUMP JUMPDEST PUSH2 0x5F1 PUSH2 0x12E3 JUMP JUMPDEST PUSH1 0x0 DUP1 PUSH2 0x652 DUP5 DUP7 PUSH1 0x0 PUSH1 0x2 DUP2 LT PUSH2 0x60C JUMPI PUSH2 0x60B PUSH2 0x1650 JUMP JUMPDEST JUMPDEST PUSH1 0x20 MUL ADD MLOAD DUP8 PUSH1 0x1 PUSH1 0x2 DUP2 LT PUSH2 0x625 JUMPI PUSH2 0x624 PUSH2 0x1650 JUMP JUMPDEST JUMPDEST PUSH1 0x20 MUL ADD MLOAD PUSH1 0x0 PUSH32 0xFFFFFFFFFFFFFFFFFFFFFFFFFFFFFFFFFFFFFFFFFFFFFFFFFFFFFFFEFFFFFC2F PUSH2 0x843 JUMP JUMPDEST SWAP2 POP SWAP2 POP PUSH1 0x40 MLOAD DUP1 PUSH1 0x40 ADD PUSH1 0x40 MSTORE DUP1 DUP4 DUP2 MSTORE PUSH1 0x20 ADD DUP3 DUP2 MSTORE POP SWAP3 POP POP POP SWAP3 SWAP2 POP POP JUMP JUMPDEST PUSH2 0x67D PUSH2 0x12E3 JUMP JUMPDEST PUSH1 0x0 DUP1 PUSH2 0x6EE DUP5 PUSH32 0x6FB13B7E8AB1C7D191D16197C1BF7F8DC7992412E1266155B3FB3AC8B30F3ED8 PUSH32 0x2E1EB77BD89505113819600B395E0475D102C4788A3280A583D9D82625ED8533 PUSH1 0x0 PUSH32 0xFFFFFFFFFFFFFFFFFFFFFFFFFFFFFFFFFFFFFFFFFFFFFFFFFFFFFFFEFFFFFC2F PUSH2 0x843 JUMP JUMPDEST SWAP2 POP SWAP2 POP PUSH1 0x40 MLOAD DUP1 PUSH1 0x40 ADD PUSH1 0x40 MSTORE DUP1 DUP4 DUP2 MSTORE PUSH1 0x20 ADD DUP3 DUP2 MSTORE POP SWAP3 POP POP POP SWAP2 SWAP1 POP JUMP JUMPDEST PUSH32 0x7CD9EE748A0B26773D9D29361F75594964106D13E1CAD67CFE2DF503EE3E90E DUP2 JUMP JUMPDEST PUSH32 0x79BE667EF9DCBBAC55A06295CE870B07029BFCDB2DCE28D959F2815B16F81798 DUP2 JUMP JUMPDEST PUSH32 0xFFFFFFFFFFFFFFFFFFFFFFFFFFFFFFFFFFFFFFFFFFFFFFFFFFFFFFFEFFFFFC2F DUP2 JUMP JUMPDEST PUSH1 0x0 DUP1 PUSH1 0x0 DUP1 PUSH1 0x0 DUP9 DUP12 SUB PUSH2 0x7D2 JUMPI PUSH1 0x0 DUP7 DUP1 PUSH2 0x79C JUMPI PUSH2 0x79B PUSH2 0x167F JUMP JUMPDEST JUMPDEST DUP10 DUP13 ADDMOD SUB PUSH2 0x7B3 JUMPI PUSH1 0x0 DUP1 SWAP5 POP SWAP5 POP POP POP POP PUSH2 0x804 JUMP JUMPDEST PUSH2 0x7C1 DUP12 DUP12 PUSH1 0x1 DUP11 DUP11 PUSH2 0x87D JUMP JUMPDEST DUP1 SWAP4 POP DUP2 SWAP5 POP DUP3 SWAP6 POP POP POP POP PUSH2 0x7F0 JUMP JUMPDEST PUSH2 0x7E3 DUP12 DUP12 PUSH1 0x1 DUP13 DUP13 PUSH1 0x1 DUP13 PUSH2 0xA3B JUMP JUMPDEST DUP1 SWAP4 POP DUP2 SWAP5 POP DUP3 SWAP6 POP POP POP POP JUMPDEST PUSH2 0x7FC DUP4 DUP4 DUP4 DUP10 PUSH2 0x10BA JUMP JUMPDEST SWAP5 POP SWAP5 POP POP POP POP JUMPDEST SWAP7 POP SWAP7 SWAP5 POP POP POP POP POP JUMP JUMPDEST PUSH1 0x0 DUP1 PUSH1 0x0 DUP1 PUSH2 0x820 DUP9 DUP9 DUP8 PUSH2 0x1131 JUMP JUMPDEST SWAP2 POP SWAP2 POP PUSH2 0x832 DUP11 DUP11 DUP5 DUP5 DUP11 DUP11 PUSH2 0x77C JUMP JUMPDEST SWAP4 POP SWAP4 POP POP POP SWAP7 POP SWAP7 SWAP5 POP POP POP POP POP JUMP JUMPDEST PUSH1 0x0 DUP1 PUSH1 0x0 DUP1 PUSH1 0x0 PUSH2 0x85A DUP11 DUP11 DUP11 PUSH1 0x1 DUP12 DUP12 PUSH2 0x1158 JUMP JUMPDEST SWAP3 POP SWAP3 POP SWAP3 POP PUSH2 0x86C DUP4 DUP4 DUP4 DUP10 PUSH2 0x10BA JUMP JUMPDEST SWAP5 POP SWAP5 POP POP POP POP SWAP6 POP SWAP6 SWAP4 POP POP POP POP JUMP JUMPDEST PUSH1 0x0 DUP1 PUSH1 0x0 DUP1 DUP7 SUB PUSH2 0x897 JUMPI DUP8 DUP8 DUP8 SWAP3 POP SWAP3 POP SWAP3 POP PUSH2 0xA30 JUMP JUMPDEST PUSH1 0x0 DUP5 DUP1 PUSH2 0x8A8 JUMPI PUSH2 0x8A7 PUSH2 0x167F JUMP JUMPDEST JUMPDEST DUP10 DUP11 MULMOD SWAP1 POP PUSH1 0x0 DUP6 DUP1 PUSH2 0x8BE JUMPI PUSH2 0x8BD PUSH2 0x167F JUMP JUMPDEST JUMPDEST DUP10 DUP11 MULMOD SWAP1 POP PUSH1 0x0 DUP7 DUP1 PUSH2 0x8D4 JUMPI PUSH2 0x8D3 PUSH2 0x167F JUMP JUMPDEST JUMPDEST DUP10 DUP11 MULMOD SWAP1 POP PUSH1 0x0 DUP8 DUP1 PUSH2 0x8EA JUMPI PUSH2 0x8E9 PUSH2 0x167F JUMP JUMPDEST JUMPDEST DUP9 DUP1 PUSH2 0x8F9 JUMPI PUSH2 0x8F8 PUSH2 0x167F JUMP JUMPDEST JUMPDEST DUP5 DUP15 MULMOD PUSH1 0x4 MULMOD SWAP1 POP PUSH1 0x0 DUP9 DUP1 PUSH2 0x912 JUMPI PUSH2 0x911 PUSH2 0x167F JUMP JUMPDEST JUMPDEST DUP10 DUP1 PUSH2 0x921 JUMPI PUSH2 0x920 PUSH2 0x167F JUMP JUMPDEST JUMPDEST DUP11 DUP1 PUSH2 0x930 JUMPI PUSH2 0x92F PUSH2 0x167F JUMP JUMPDEST JUMPDEST DUP6 DUP7 MULMOD DUP13 MULMOD DUP11 DUP1 PUSH2 0x944 JUMPI PUSH2 0x943 PUSH2 0x167F JUMP JUMPDEST JUMPDEST DUP8 PUSH1 0x3 MULMOD ADDMOD SWAP1 POP DUP9 DUP1 PUSH2 0x95A JUMPI PUSH2 0x959 PUSH2 0x167F JUMP JUMPDEST JUMPDEST DUP10 DUP1 PUSH2 0x969 JUMPI PUSH2 0x968 PUSH2 0x167F JUMP JUMPDEST JUMPDEST DUP4 DUP5 ADDMOD DUP11 PUSH2 0x977 SWAP2 SWAP1 PUSH2 0x16DD JUMP JUMPDEST DUP11 DUP1 PUSH2 0x986 JUMPI PUSH2 0x985 PUSH2 0x167F JUMP JUMPDEST JUMPDEST DUP4 DUP5 MULMOD ADDMOD SWAP5 POP DUP9 DUP1 PUSH2 0x99B JUMPI PUSH2 0x99A PUSH2 0x167F JUMP JUMPDEST JUMPDEST DUP10 DUP1 PUSH2 0x9AA JUMPI PUSH2 0x9A9 PUSH2 0x167F JUMP JUMPDEST JUMPDEST DUP11 DUP1 PUSH2 0x9B9 JUMPI PUSH2 0x9B8 PUSH2 0x167F JUMP JUMPDEST JUMPDEST DUP7 DUP8 MULMOD PUSH1 0x8 MULMOD DUP11 PUSH2 0x9CA SWAP2 SWAP1 PUSH2 0x16DD JUMP JUMPDEST DUP11 DUP1 PUSH2 0x9D9 JUMPI PUSH2 0x9D8 PUSH2 0x167F JUMP JUMPDEST JUMPDEST DUP12 DUP1 PUSH2 0x9E8 JUMPI PUSH2 0x9E7 PUSH2 0x167F JUMP JUMPDEST JUMPDEST DUP9 DUP14 PUSH2 0x9F4 SWAP2 SWAP1 PUSH2 0x16DD JUMP JUMPDEST DUP7 ADDMOD DUP5 MULMOD ADDMOD SWAP4 POP DUP9 DUP1 PUSH2 0xA0A JUMPI PUSH2 0xA09 PUSH2 0x167F JUMP JUMPDEST JUMPDEST DUP10 DUP1 PUSH2 0xA19 JUMPI PUSH2 0xA18 PUSH2 0x167F JUMP JUMPDEST JUMPDEST DUP13 DUP15 MULMOD PUSH1 0x2 MULMOD SWAP3 POP DUP5 DUP5 DUP5 SWAP8 POP SWAP8 POP SWAP8 POP POP POP POP POP POP JUMPDEST SWAP6 POP SWAP6 POP SWAP6 SWAP3 POP POP POP JUMP JUMPDEST PUSH1 0x0 DUP1 PUSH1 0x0 DUP1 DUP11 EQ DUP1 ISZERO PUSH2 0xA4F JUMPI POP PUSH1 0x0 DUP10 EQ JUMPDEST ISZERO PUSH2 0xA62 JUMPI DUP7 DUP7 DUP7 SWAP3 POP SWAP3 POP SWAP3 POP PUSH2 0x10AD JUMP JUMPDEST PUSH1 0x0 DUP8 EQ DUP1 ISZERO PUSH2 0xA72 JUMPI POP PUSH1 0x0 DUP7 EQ JUMPDEST ISZERO PUSH2 0xA85 JUMPI DUP10 DUP10 DUP10 SWAP3 POP SWAP3 POP SWAP3 POP PUSH2 0x10AD JUMP JUMPDEST PUSH2 0xA8D PUSH2 0x1305 JUMP JUMPDEST DUP5 DUP1 PUSH2 0xA9C JUMPI PUSH2 0xA9B PUSH2 0x167F JUMP JUMPDEST JUMPDEST DUP10 DUP11 MULMOD DUP2 PUSH1 0x0 PUSH1 0x4 DUP2 LT PUSH2 0xAB3 JUMPI PUSH2 0xAB2 PUSH2 0x1650 JUMP JUMPDEST JUMPDEST PUSH1 0x20 MUL ADD DUP2 DUP2 MSTORE POP POP DUP5 DUP1 PUSH2 0xACB JUMPI PUSH2 0xACA PUSH2 0x167F JUMP JUMPDEST JUMPDEST DUP2 PUSH1 0x0 PUSH1 0x4 DUP2 LT PUSH2 0xADF JUMPI PUSH2 0xADE PUSH2 0x1650 JUMP JUMPDEST JUMPDEST PUSH1 0x20 MUL ADD MLOAD DUP11 MULMOD DUP2 PUSH1 0x1 PUSH1 0x4 DUP2 LT PUSH2 0xAFA JUMPI PUSH2 0xAF9 PUSH2 0x1650 JUMP JUMPDEST JUMPDEST PUSH1 0x20 MUL ADD DUP2 DUP2 MSTORE POP POP DUP5 DUP1 PUSH2 0xB12 JUMPI PUSH2 0xB11 PUSH2 0x167F JUMP JUMPDEST JUMPDEST DUP7 DUP8 MULMOD DUP2 PUSH1 0x2 PUSH1 0x4 DUP2 LT PUSH2 0xB29 JUMPI PUSH2 0xB28 PUSH2 0x1650 JUMP JUMPDEST JUMPDEST PUSH1 0x20 MUL ADD DUP2 DUP2 MSTORE POP POP DUP5 DUP1 PUSH2 0xB41 JUMPI PUSH2 0xB40 PUSH2 0x167F JUMP JUMPDEST JUMPDEST DUP2 PUSH1 0x2 PUSH1 0x4 DUP2 LT PUSH2 0xB55 JUMPI PUSH2 0xB54 PUSH2 0x1650 JUMP JUMPDEST JUMPDEST PUSH1 0x20 MUL ADD MLOAD DUP8 MULMOD DUP2 PUSH1 0x3 PUSH1 0x4 DUP2 LT PUSH2 0xB70 JUMPI PUSH2 0xB6F PUSH2 0x1650 JUMP JUMPDEST JUMPDEST PUSH1 0x20 MUL ADD DUP2 DUP2 MSTORE POP POP PUSH1 0x40 MLOAD DUP1 PUSH1 0x80 ADD PUSH1 0x40 MSTORE DUP1 DUP7 DUP1 PUSH2 0xB93 JUMPI PUSH2 0xB92 PUSH2 0x167F JUMP JUMPDEST JUMPDEST DUP4 PUSH1 0x2 PUSH1 0x4 DUP2 LT PUSH2 0xBA7 JUMPI PUSH2 0xBA6 PUSH2 0x1650 JUMP JUMPDEST JUMPDEST PUSH1 0x20 MUL ADD MLOAD DUP15 MULMOD DUP2 MSTORE PUSH1 0x20 ADD DUP7 DUP1 PUSH2 0xBC2 JUMPI PUSH2 0xBC1 PUSH2 0x167F JUMP JUMPDEST JUMPDEST DUP4 PUSH1 0x3 PUSH1 0x4 DUP2 LT PUSH2 0xBD6 JUMPI PUSH2 0xBD5 PUSH2 0x1650 JUMP JUMPDEST JUMPDEST PUSH1 0x20 MUL ADD MLOAD DUP14 MULMOD DUP2 MSTORE PUSH1 0x20 ADD DUP7 DUP1 PUSH2 0xBF1 JUMPI PUSH2 0xBF0 PUSH2 0x167F JUMP JUMPDEST JUMPDEST DUP4 PUSH1 0x0 PUSH1 0x4 DUP2 LT PUSH2 0xC05 JUMPI PUSH2 0xC04 PUSH2 0x1650 JUMP JUMPDEST JUMPDEST PUSH1 0x20 MUL ADD MLOAD DUP12 MULMOD DUP2 MSTORE PUSH1 0x20 ADD DUP7 DUP1 PUSH2 0xC20 JUMPI PUSH2 0xC1F PUSH2 0x167F JUMP JUMPDEST JUMPDEST DUP4 PUSH1 0x1 PUSH1 0x4 DUP2 LT PUSH2 0xC34 JUMPI PUSH2 0xC33 PUSH2 0x1650 JUMP JUMPDEST JUMPDEST PUSH1 0x20 MUL ADD MLOAD DUP11 MULMOD DUP2 MSTORE POP SWAP1 POP DUP1 PUSH1 0x2 PUSH1 0x4 DUP2 LT PUSH2 0xC54 JUMPI PUSH2 0xC53 PUSH2 0x1650 JUMP JUMPDEST JUMPDEST PUSH1 0x20 MUL ADD MLOAD DUP2 PUSH1 0x0 PUSH1 0x4 DUP2 LT PUSH2 0xC6D JUMPI PUSH2 0xC6C PUSH2 0x1650 JUMP JUMPDEST JUMPDEST PUSH1 0x20 MUL ADD MLOAD EQ ISZERO DUP1 PUSH2 0xCAF JUMPI POP DUP1 PUSH1 0x3 PUSH1 0x4 DUP2 LT PUSH2 0xC8E JUMPI PUSH2 0xC8D PUSH2 0x1650 JUMP JUMPDEST JUMPDEST PUSH1 0x20 MUL ADD MLOAD DUP2 PUSH1 0x1 PUSH1 0x4 DUP2 LT PUSH2 0xCA7 JUMPI PUSH2 0xCA6 PUSH2 0x1650 JUMP JUMPDEST JUMPDEST PUSH1 0x20 MUL ADD MLOAD EQ ISZERO JUMPDEST PUSH2 0xCEE JUMPI PUSH1 0x40 MLOAD PUSH32 0x8C379A000000000000000000000000000000000000000000000000000000000 DUP2 MSTORE PUSH1 0x4 ADD PUSH2 0xCE5 SWAP1 PUSH2 0x176E JUMP JUMPDEST PUSH1 0x40 MLOAD DUP1 SWAP2 SUB SWAP1 REVERT JUMPDEST PUSH2 0xCF6 PUSH2 0x1305 JUMP JUMPDEST DUP6 DUP1 PUSH2 0xD05 JUMPI PUSH2 0xD04 PUSH2 0x167F JUMP JUMPDEST JUMPDEST DUP3 PUSH1 0x0 PUSH1 0x4 DUP2 LT PUSH2 0xD19 JUMPI PUSH2 0xD18 PUSH2 0x1650 JUMP JUMPDEST JUMPDEST PUSH1 0x20 MUL ADD MLOAD DUP8 PUSH2 0xD29 SWAP2 SWAP1 PUSH2 0x16DD JUMP JUMPDEST DUP4 PUSH1 0x2 PUSH1 0x4 DUP2 LT PUSH2 0xD3D JUMPI PUSH2 0xD3C PUSH2 0x1650 JUMP JUMPDEST JUMPDEST PUSH1 0x20 MUL ADD MLOAD ADDMOD DUP2 PUSH1 0x0 PUSH1 0x4 DUP2 LT PUSH2 0xD57 JUMPI PUSH2 0xD56 PUSH2 0x1650 JUMP JUMPDEST JUMPDEST PUSH1 0x20 MUL ADD DUP2 DUP2 MSTORE POP POP DUP6 DUP1 PUSH2 0xD6F JUMPI PUSH2 0xD6E PUSH2 0x167F JUMP JUMPDEST JUMPDEST DUP3 PUSH1 0x1 PUSH1 0x4 DUP2 LT PUSH2 0xD83 JUMPI PUSH2 0xD82 PUSH2 0x1650 JUMP JUMPDEST JUMPDEST PUSH1 0x20 MUL ADD MLOAD DUP8 PUSH2 0xD93 SWAP2 SWAP1 PUSH2 0x16DD JUMP JUMPDEST DUP4 PUSH1 0x3 PUSH1 0x4 DUP2 LT PUSH2 0xDA7 JUMPI PUSH2 0xDA6 PUSH2 0x1650 JUMP JUMPDEST JUMPDEST PUSH1 0x20 MUL ADD MLOAD ADDMOD DUP2 PUSH1 0x1 PUSH1 0x4 DUP2 LT PUSH2 0xDC1 JUMPI PUSH2 0xDC0 PUSH2 0x1650 JUMP JUMPDEST JUMPDEST PUSH1 0x20 MUL ADD DUP2 DUP2 MSTORE POP POP DUP6 DUP1 PUSH2 0xDD9 JUMPI PUSH2 0xDD8 PUSH2 0x167F JUMP JUMPDEST JUMPDEST DUP2 PUSH1 0x0 PUSH1 0x4 DUP2 LT PUSH2 0xDED JUMPI PUSH2 0xDEC PUSH2 0x1650 JUMP JUMPDEST JUMPDEST PUSH1 0x20 MUL ADD MLOAD DUP3 PUSH1 0x0 PUSH1 0x4 DUP2 LT PUSH2 0xE06 JUMPI PUSH2 0xE05 PUSH2 0x1650 JUMP JUMPDEST JUMPDEST PUSH1 0x20 MUL ADD MLOAD MULMOD DUP2 PUSH1 0x2 PUSH1 0x4 DUP2 LT PUSH2 0xE20 JUMPI PUSH2 0xE1F PUSH2 0x1650 JUMP JUMPDEST JUMPDEST PUSH1 0x20 MUL ADD DUP2 DUP2 MSTORE POP POP DUP6 DUP1 PUSH2 0xE38 JUMPI PUSH2 0xE37 PUSH2 0x167F JUMP JUMPDEST JUMPDEST DUP2 PUSH1 0x0 PUSH1 0x4 DUP2 LT PUSH2 0xE4C JUMPI PUSH2 0xE4B PUSH2 0x1650 JUMP JUMPDEST JUMPDEST PUSH1 0x20 MUL ADD MLOAD DUP3 PUSH1 0x2 PUSH1 0x4 DUP2 LT PUSH2 0xE65 JUMPI PUSH2 0xE64 PUSH2 0x1650 JUMP JUMPDEST JUMPDEST PUSH1 0x20 MUL ADD MLOAD MULMOD DUP2 PUSH1 0x3 PUSH1 0x4 DUP2 LT PUSH2 0xE7F JUMPI PUSH2 0xE7E PUSH2 0x1650 JUMP JUMPDEST JUMPDEST PUSH1 0x20 MUL ADD DUP2 DUP2 MSTORE POP POP PUSH1 0x0 DUP7 DUP1 PUSH2 0xE99 JUMPI PUSH2 0xE98 PUSH2 0x167F JUMP JUMPDEST JUMPDEST DUP3 PUSH1 0x3 PUSH1 0x4 DUP2 LT PUSH2 0xEAD JUMPI PUSH2 0xEAC PUSH2 0x1650 JUMP JUMPDEST JUMPDEST PUSH1 0x20 MUL ADD MLOAD DUP9 PUSH2 0xEBD SWAP2 SWAP1 PUSH2 0x16DD JUMP JUMPDEST DUP9 DUP1 PUSH2 0xECC JUMPI PUSH2 0xECB PUSH2 0x167F JUMP JUMPDEST JUMPDEST DUP5 PUSH1 0x1 PUSH1 0x4 DUP2 LT PUSH2 0xEE0 JUMPI PUSH2 0xEDF PUSH2 0x1650 JUMP JUMPDEST JUMPDEST PUSH1 0x20 MUL ADD MLOAD DUP6 PUSH1 0x1 PUSH1 0x4 DUP2 LT PUSH2 0xEF9 JUMPI PUSH2 0xEF8 PUSH2 0x1650 JUMP JUMPDEST JUMPDEST PUSH1 0x20 MUL ADD MLOAD MULMOD ADDMOD SWAP1 POP DUP7 DUP1 PUSH2 0xF11 JUMPI PUSH2 0xF10 PUSH2 0x167F JUMP JUMPDEST JUMPDEST DUP8 DUP1 PUSH2 0xF20 JUMPI PUSH2 0xF1F PUSH2 0x167F JUMP JUMPDEST JUMPDEST DUP9 DUP1 PUSH2 0xF2F JUMPI PUSH2 0xF2E PUSH2 0x167F JUMP JUMPDEST JUMPDEST DUP5 PUSH1 0x2 PUSH1 0x4 DUP2 LT PUSH2 0xF43 JUMPI PUSH2 0xF42 PUSH2 0x1650 JUMP JUMPDEST JUMPDEST PUSH1 0x20 MUL ADD MLOAD DUP7 PUSH1 0x0 PUSH1 0x4 DUP2 LT PUSH2 0xF5C JUMPI PUSH2 0xF5B PUSH2 0x1650 JUMP JUMPDEST JUMPDEST PUSH1 0x20 MUL ADD MLOAD MULMOD PUSH1 0x2 MULMOD DUP9 PUSH2 0xF70 SWAP2 SWAP1 PUSH2 0x16DD JUMP JUMPDEST DUP3 ADDMOD SWAP1 POP PUSH1 0x0 DUP8 DUP1 PUSH2 0xF85 JUMPI PUSH2 0xF84 PUSH2 0x167F JUMP JUMPDEST JUMPDEST DUP9 DUP1 PUSH2 0xF94 JUMPI PUSH2 0xF93 PUSH2 0x167F JUMP JUMPDEST JUMPDEST DUP4 DUP11 PUSH2 0xFA0 SWAP2 SWAP1 PUSH2 0x16DD JUMP JUMPDEST DUP11 DUP1 PUSH2 0xFAF JUMPI PUSH2 0xFAE PUSH2 0x167F JUMP JUMPDEST JUMPDEST DUP7 PUSH1 0x2 PUSH1 0x4 DUP2 LT PUSH2 0xFC3 JUMPI PUSH2 0xFC2 PUSH2 0x1650 JUMP JUMPDEST JUMPDEST PUSH1 0x20 MUL ADD MLOAD DUP9 PUSH1 0x0 PUSH1 0x4 DUP2 LT PUSH2 0xFDC JUMPI PUSH2 0xFDB PUSH2 0x1650 JUMP JUMPDEST JUMPDEST PUSH1 0x20 MUL ADD MLOAD MULMOD ADDMOD DUP5 PUSH1 0x1 PUSH1 0x4 DUP2 LT PUSH2 0xFF7 JUMPI PUSH2 0xFF6 PUSH2 0x1650 JUMP JUMPDEST JUMPDEST PUSH1 0x20 MUL ADD MLOAD MULMOD SWAP1 POP DUP8 DUP1 PUSH2 0x100E JUMPI PUSH2 0x100D PUSH2 0x167F JUMP JUMPDEST JUMPDEST DUP9 DUP1 PUSH2 0x101D JUMPI PUSH2 0x101C PUSH2 0x167F JUMP JUMPDEST JUMPDEST DUP5 PUSH1 0x3 PUSH1 0x4 DUP2 LT PUSH2 0x1031 JUMPI PUSH2 0x1030 PUSH2 0x1650 JUMP JUMPDEST JUMPDEST PUSH1 0x20 MUL ADD MLOAD DUP7 PUSH1 0x1 PUSH1 0x4 DUP2 LT PUSH2 0x104A JUMPI PUSH2 0x1049 PUSH2 0x1650 JUMP JUMPDEST JUMPDEST PUSH1 0x20 MUL ADD MLOAD MULMOD DUP10 PUSH2 0x105B SWAP2 SWAP1 PUSH2 0x16DD JUMP JUMPDEST DUP3 ADDMOD SWAP1 POP PUSH1 0x0 DUP9 DUP1 PUSH2 0x1070 JUMPI PUSH2 0x106F PUSH2 0x167F JUMP JUMPDEST JUMPDEST DUP10 DUP1 PUSH2 0x107F JUMPI PUSH2 0x107E PUSH2 0x167F JUMP JUMPDEST JUMPDEST DUP12 DUP16 MULMOD DUP6 PUSH1 0x0 PUSH1 0x4 DUP2 LT PUSH2 0x1096 JUMPI PUSH2 0x1095 PUSH2 0x1650 JUMP JUMPDEST JUMPDEST PUSH1 0x20 MUL ADD MLOAD MULMOD SWAP1 POP DUP3 DUP3 DUP3 SWAP8 POP SWAP8 POP SWAP8 POP POP POP POP POP POP JUMPDEST SWAP8 POP SWAP8 POP SWAP8 SWAP5 POP POP POP POP POP JUMP JUMPDEST PUSH1 0x0 DUP1 PUSH1 0x0 PUSH2 0x10C9 DUP6 DUP6 PUSH2 0x11F7 JUMP JUMPDEST SWAP1 POP PUSH1 0x0 DUP5 DUP1 PUSH2 0x10DC JUMPI PUSH2 0x10DB PUSH2 0x167F JUMP JUMPDEST JUMPDEST DUP3 DUP4 MULMOD SWAP1 POP PUSH1 0x0 DUP6 DUP1 PUSH2 0x10F2 JUMPI PUSH2 0x10F1 PUSH2 0x167F JUMP JUMPDEST JUMPDEST DUP3 DUP11 MULMOD SWAP1 POP PUSH1 0x0 DUP7 DUP1 PUSH2 0x1108 JUMPI PUSH2 0x1107 PUSH2 0x167F JUMP JUMPDEST JUMPDEST DUP8 DUP1 PUSH2 0x1117 JUMPI PUSH2 0x1116 PUSH2 0x167F JUMP JUMPDEST JUMPDEST DUP5 DUP7 MULMOD DUP11 MULMOD SWAP1 POP DUP2 DUP2 SWAP6 POP SWAP6 POP POP POP POP POP SWAP5 POP SWAP5 SWAP3 POP POP POP JUMP JUMPDEST PUSH1 0x0 DUP1 DUP5 DUP4 DUP6 DUP6 PUSH2 0x1142 SWAP2 SWAP1 PUSH2 0x16DD JUMP JUMPDEST PUSH2 0x114C SWAP2 SWAP1 PUSH2 0x178E JUMP JUMPDEST SWAP2 POP SWAP2 POP SWAP4 POP SWAP4 SWAP2 POP POP JUMP JUMPDEST PUSH1 0x0 DUP1 PUSH1 0x0 DUP1 DUP10 SUB PUSH2 0x1172 JUMPI DUP8 DUP8 DUP8 SWAP3 POP SWAP3 POP SWAP3 POP PUSH2 0x11EB JUMP JUMPDEST PUSH1 0x0 DUP10 SWAP1 POP PUSH1 0x0 DUP1 PUSH1 0x0 PUSH1 0x1 SWAP1 POP JUMPDEST PUSH1 0x0 DUP5 EQ PUSH2 0x11DD JUMPI PUSH1 0x0 PUSH1 0x1 DUP6 AND EQ PUSH2 0x11B0 JUMPI PUSH2 0x11A3 DUP4 DUP4 DUP4 DUP16 DUP16 DUP16 DUP15 PUSH2 0xA3B JUMP JUMPDEST DUP1 SWAP4 POP DUP2 SWAP5 POP DUP3 SWAP6 POP POP POP POP JUMPDEST PUSH1 0x2 DUP5 PUSH2 0x11BD SWAP2 SWAP1 PUSH2 0x17BF JUMP JUMPDEST SWAP4 POP PUSH2 0x11CC DUP13 DUP13 DUP13 DUP13 DUP13 PUSH2 0x87D JUMP JUMPDEST DUP1 SWAP13 POP DUP2 SWAP14 POP DUP3 SWAP15 POP POP POP POP PUSH2 0x1181 JUMP JUMPDEST DUP3 DUP3 DUP3 SWAP7 POP SWAP7 POP SWAP7 POP POP POP POP POP JUMPDEST SWAP7 POP SWAP7 POP SWAP7 SWAP4 POP POP POP POP JUMP JUMPDEST PUSH1 0x0 DUP1 DUP4 EQ ISZERO DUP1 ISZERO PUSH2 0x1209 JUMPI POP DUP2 DUP4 EQ ISZERO JUMPDEST DUP1 ISZERO PUSH2 0x1216 JUMPI POP PUSH1 0x0 DUP3 EQ ISZERO JUMPDEST PUSH2 0x1255 JUMPI PUSH1 0x40 MLOAD PUSH32 0x8C379A000000000000000000000000000000000000000000000000000000000 DUP2 MSTORE PUSH1 0x4 ADD PUSH2 0x124C SWAP1 PUSH2 0x183C JUMP JUMPDEST PUSH1 0x40 MLOAD DUP1 SWAP2 SUB SWAP1 REVERT JUMPDEST PUSH1 0x0 DUP1 PUSH1 0x1 SWAP1 POP PUSH1 0x0 DUP5 SWAP1 POP PUSH1 0x0 JUMPDEST PUSH1 0x0 DUP8 EQ PUSH2 0x12D6 JUMPI DUP7 DUP3 PUSH2 0x1278 SWAP2 SWAP1 PUSH2 0x17BF JUMP JUMPDEST SWAP1 POP DUP3 DUP7 DUP1 PUSH2 0x128A JUMPI PUSH2 0x1289 PUSH2 0x167F JUMP JUMPDEST JUMPDEST DUP8 DUP1 PUSH2 0x1299 JUMPI PUSH2 0x1298 PUSH2 0x167F JUMP JUMPDEST JUMPDEST DUP6 DUP5 MULMOD DUP9 PUSH2 0x12A7 SWAP2 SWAP1 PUSH2 0x16DD JUMP JUMPDEST DUP7 ADDMOD DUP1 SWAP5 POP DUP2 SWAP6 POP POP POP DUP7 DUP8 DUP3 PUSH2 0x12BE SWAP2 SWAP1 PUSH2 0x185C JUMP JUMPDEST DUP4 PUSH2 0x12C9 SWAP2 SWAP1 PUSH2 0x16DD JUMP JUMPDEST DUP1 SWAP9 POP DUP2 SWAP4 POP POP POP PUSH2 0x1264 JUMP JUMPDEST DUP4 SWAP5 POP POP POP POP POP SWAP3 SWAP2 POP POP JUMP JUMPDEST PUSH1 0x40 MLOAD DUP1 PUSH1 0x40 ADD PUSH1 0x40 MSTORE DUP1 PUSH1 0x2 SWAP1 PUSH1 0x20 DUP3 MUL DUP1 CALLDATASIZE DUP4 CALLDATACOPY DUP1 DUP3 ADD SWAP2 POP POP SWAP1 POP POP SWAP1 JUMP JUMPDEST PUSH1 0x40 MLOAD DUP1 PUSH1 0x80 ADD PUSH1 0x40 MSTORE DUP1 PUSH1 0x4 SWAP1 PUSH1 0x20 DUP3 MUL DUP1 CALLDATASIZE DUP4 CALLDATACOPY DUP1 DUP3 ADD SWAP2 POP POP SWAP1 POP POP SWAP1 JUMP JUMPDEST PUSH1 0x0 DUP2 SWAP1 POP SWAP2 SWAP1 POP JUMP JUMPDEST PUSH2 0x133A DUP2 PUSH2 0x1327 JUMP JUMPDEST DUP3 MSTORE POP POP JUMP JUMPDEST PUSH1 0x0 PUSH1 0x20 DUP3 ADD SWAP1 POP PUSH2 0x1355 PUSH1 0x0 DUP4 ADD DUP5 PUSH2 0x1331 JUMP JUMPDEST SWAP3 SWAP2 POP POP JUMP JUMPDEST PUSH1 0x0 PUSH1 0x40 MLOAD SWAP1 POP SWAP1 JUMP JUMPDEST PUSH1 0x0 DUP1 REVERT JUMPDEST PUSH1 0x0 DUP1 REVERT JUMPDEST PUSH1 0x0 PUSH1 0x1F NOT PUSH1 0x1F DUP4 ADD AND SWAP1 POP SWAP2 SWAP1 POP JUMP JUMPDEST PUSH32 0x4E487B7100000000000000000000000000000000000000000000000000000000 PUSH1 0x0 MSTORE PUSH1 0x41 PUSH1 0x4 MSTORE PUSH1 0x24 PUSH1 0x0 REVERT JUMPDEST PUSH2 0x13B8 DUP3 PUSH2 0x136F JUMP JUMPDEST DUP2 ADD DUP2 DUP2 LT PUSH8 0xFFFFFFFFFFFFFFFF DUP3 GT OR ISZERO PUSH2 0x13D7 JUMPI PUSH2 0x13D6 PUSH2 0x1380 JUMP JUMPDEST JUMPDEST DUP1 PUSH1 0x40 MSTORE POP POP POP JUMP JUMPDEST PUSH1 0x0 PUSH2 0x13EA PUSH2 0x135B JUMP JUMPDEST SWAP1 POP PUSH2 0x13F6 DUP3 DUP3 PUSH2 0x13AF JUMP JUMPDEST SWAP2 SWAP1 POP JUMP JUMPDEST PUSH1 0x0 PUSH8 0xFFFFFFFFFFFFFFFF DUP3 GT ISZERO PUSH2 0x1416 JUMPI PUSH2 0x1415 PUSH2 0x1380 JUMP JUMPDEST JUMPDEST PUSH1 0x20 DUP3 MUL SWAP1 POP SWAP2 SWAP1 POP JUMP JUMPDEST PUSH1 0x0 DUP1 REVERT JUMPDEST PUSH2 0x142F DUP2 PUSH2 0x1327 JUMP JUMPDEST DUP2 EQ PUSH2 0x143A JUMPI PUSH1 0x0 DUP1 REVERT JUMPDEST POP JUMP JUMPDEST PUSH1 0x0 DUP2 CALLDATALOAD SWAP1 POP PUSH2 0x144C DUP2 PUSH2 0x1426 JUMP JUMPDEST SWAP3 SWAP2 POP POP JUMP JUMPDEST PUSH1 0x0 PUSH2 0x1465 PUSH2 0x1460 DUP5 PUSH2 0x13FB JUMP JUMPDEST PUSH2 0x13E0 JUMP JUMPDEST SWAP1 POP DUP1 PUSH1 0x20 DUP5 MUL DUP4 ADD DUP6 DUP2 GT ISZERO PUSH2 0x147F JUMPI PUSH2 0x147E PUSH2 0x1421 JUMP JUMPDEST JUMPDEST DUP4 JUMPDEST DUP2 DUP2 LT ISZERO PUSH2 0x14A8 JUMPI DUP1 PUSH2 0x1494 DUP9 DUP3 PUSH2 0x143D JUMP JUMPDEST DUP5 MSTORE PUSH1 0x20 DUP5 ADD SWAP4 POP POP PUSH1 0x20 DUP2 ADD SWAP1 POP PUSH2 0x1481 JUMP JUMPDEST POP POP POP SWAP4 SWAP3 POP POP POP JUMP JUMPDEST PUSH1 0x0 DUP3 PUSH1 0x1F DUP4 ADD SLT PUSH2 0x14C7 JUMPI PUSH2 0x14C6 PUSH2 0x136A JUMP JUMPDEST JUMPDEST PUSH1 0x2 PUSH2 0x14D4 DUP5 DUP3 DUP6 PUSH2 0x1452 JUMP JUMPDEST SWAP2 POP POP SWAP3 SWAP2 POP POP JUMP JUMPDEST PUSH1 0x0 DUP1 PUSH1 0x80 DUP4 DUP6 SUB SLT ISZERO PUSH2 0x14F4 JUMPI PUSH2 0x14F3 PUSH2 0x1365 JUMP JUMPDEST JUMPDEST PUSH1 0x0 PUSH2 0x1502 DUP6 DUP3 DUP7 ADD PUSH2 0x14B2 JUMP JUMPDEST SWAP3 POP POP PUSH1 0x40 PUSH2 0x1513 DUP6 DUP3 DUP7 ADD PUSH2 0x14B2 JUMP JUMPDEST SWAP2 POP POP SWAP3 POP SWAP3 SWAP1 POP JUMP JUMPDEST PUSH1 0x0 PUSH1 0x2 SWAP1 POP SWAP2 SWAP1 POP JUMP JUMPDEST PUSH1 0x0 DUP2 SWAP1 POP SWAP3 SWAP2 POP POP JUMP JUMPDEST PUSH1 0x0 DUP2 SWAP1 POP SWAP2 SWAP1 POP JUMP JUMPDEST PUSH2 0x1546 DUP2 PUSH2 0x1327 JUMP JUMPDEST DUP3 MSTORE POP POP JUMP JUMPDEST PUSH1 0x0 PUSH2 0x1558 DUP4 DUP4 PUSH2 0x153D JUMP JUMPDEST PUSH1 0x20 DUP4 ADD SWAP1 POP SWAP3 SWAP2 POP POP JUMP JUMPDEST PUSH1 0x0 PUSH1 0x20 DUP3 ADD SWAP1 POP SWAP2 SWAP1 POP JUMP JUMPDEST PUSH2 0x157A DUP2 PUSH2 0x151D JUMP JUMPDEST PUSH2 0x1584 DUP2 DUP5 PUSH2 0x1528 JUMP JUMPDEST SWAP3 POP PUSH2 0x158F DUP3 PUSH2 0x1533 JUMP JUMPDEST DUP1 PUSH1 0x0 JUMPDEST DUP4 DUP2 LT ISZERO PUSH2 0x15C0 JUMPI DUP2 MLOAD PUSH2 0x15A7 DUP8 DUP3 PUSH2 0x154C JUMP JUMPDEST SWAP7 POP PUSH2 0x15B2 DUP4 PUSH2 0x1564 JUMP JUMPDEST SWAP3 POP POP PUSH1 0x1 DUP2 ADD SWAP1 POP PUSH2 0x1593 JUMP JUMPDEST POP POP POP POP POP POP JUMP JUMPDEST PUSH1 0x0 PUSH1 0x40 DUP3 ADD SWAP1 POP PUSH2 0x15DD PUSH1 0x0 DUP4 ADD DUP5 PUSH2 0x1571 JUMP JUMPDEST SWAP3 SWAP2 POP POP JUMP JUMPDEST PUSH1 0x0 PUSH1 0x20 DUP3 DUP5 SUB SLT ISZERO PUSH2 0x15F9 JUMPI PUSH2 0x15F8 PUSH2 0x1365 JUMP JUMPDEST JUMPDEST PUSH1 0x0 PUSH2 0x1607 DUP5 DUP3 DUP6 ADD PUSH2 0x143D JUMP JUMPDEST SWAP2 POP POP SWAP3 SWAP2 POP POP JUMP JUMPDEST PUSH1 0x0 DUP1 PUSH1 0x60 DUP4 DUP6 SUB SLT ISZERO PUSH2 0x1627 JUMPI PUSH2 0x1626 PUSH2 0x1365 JUMP JUMPDEST JUMPDEST PUSH1 0x0 PUSH2 0x1635 DUP6 DUP3 DUP7 ADD PUSH2 0x14B2 JUMP JUMPDEST SWAP3 POP POP PUSH1 0x40 PUSH2 0x1646 DUP6 DUP3 DUP7 ADD PUSH2 0x143D JUMP JUMPDEST SWAP2 POP POP SWAP3 POP SWAP3 SWAP1 POP JUMP JUMPDEST PUSH32 0x4E487B7100000000000000000000000000000000000000000000000000000000 PUSH1 0x0 MSTORE PUSH1 0x32 PUSH1 0x4 MSTORE PUSH1 0x24 PUSH1 0x0 REVERT JUMPDEST PUSH32 0x4E487B7100000000000000000000000000000000000000000000000000000000 PUSH1 0x0 MSTORE PUSH1 0x12 PUSH1 0x4 MSTORE PUSH1 0x24 PUSH1 0x0 REVERT JUMPDEST PUSH32 0x4E487B7100000000000000000000000000000000000000000000000000000000 PUSH1 0x0 MSTORE PUSH1 0x11 PUSH1 0x4 MSTORE PUSH1 0x24 PUSH1 0x0 REVERT JUMPDEST PUSH1 0x0 PUSH2 0x16E8 DUP3 PUSH2 0x1327 JUMP JUMPDEST SWAP2 POP PUSH2 0x16F3 DUP4 PUSH2 0x1327 JUMP JUMPDEST SWAP3 POP DUP3 DUP3 SUB SWAP1 POP DUP2 DUP2 GT ISZERO PUSH2 0x170B JUMPI PUSH2 0x170A PUSH2 0x16AE JUMP JUMPDEST JUMPDEST SWAP3 SWAP2 POP POP JUMP JUMPDEST PUSH1 0x0 DUP3 DUP3 MSTORE PUSH1 0x20 DUP3 ADD SWAP1 POP SWAP3 SWAP2 POP POP JUMP JUMPDEST PUSH32 0x557365206A6163446F75626C652066756E6374696F6E20696E73746561640000 PUSH1 0x0 DUP3 ADD MSTORE POP JUMP JUMPDEST PUSH1 0x0 PUSH2 0x1758 PUSH1 0x1E DUP4 PUSH2 0x1711 JUMP JUMPDEST SWAP2 POP PUSH2 0x1763 DUP3 PUSH2 0x1722 JUMP JUMPDEST PUSH1 0x20 DUP3 ADD SWAP1 POP SWAP2 SWAP1 POP JUMP JUMPDEST PUSH1 0x0 PUSH1 0x20 DUP3 ADD SWAP1 POP DUP2 DUP2 SUB PUSH1 0x0 DUP4 ADD MSTORE PUSH2 0x1787 DUP2 PUSH2 0x174B JUMP JUMPDEST SWAP1 POP SWAP2 SWAP1 POP JUMP JUMPDEST PUSH1 0x0 PUSH2 0x1799 DUP3 PUSH2 0x1327 JUMP JUMPDEST SWAP2 POP PUSH2 0x17A4 DUP4 PUSH2 0x1327 JUMP JUMPDEST SWAP3 POP DUP3 PUSH2 0x17B4 JUMPI PUSH2 0x17B3 PUSH2 0x167F JUMP JUMPDEST JUMPDEST DUP3 DUP3 MOD SWAP1 POP SWAP3 SWAP2 POP POP JUMP JUMPDEST PUSH1 0x0 PUSH2 0x17CA DUP3 PUSH2 0x1327 JUMP JUMPDEST SWAP2 POP PUSH2 0x17D5 DUP4 PUSH2 0x1327 JUMP JUMPDEST SWAP3 POP DUP3 PUSH2 0x17E5 JUMPI PUSH2 0x17E4 PUSH2 0x167F JUMP JUMPDEST JUMPDEST DUP3 DUP3 DIV SWAP1 POP SWAP3 SWAP2 POP POP JUMP JUMPDEST PUSH32 0x496E76616C6964206E756D626572000000000000000000000000000000000000 PUSH1 0x0 DUP3 ADD MSTORE POP JUMP JUMPDEST PUSH1 0x0 PUSH2 0x1826 PUSH1 0xE DUP4 PUSH2 0x1711 JUMP JUMPDEST SWAP2 POP PUSH2 0x1831 DUP3 PUSH2 0x17F0 JUMP JUMPDEST PUSH1 0x20 DUP3 ADD SWAP1 POP SWAP2 SWAP1 POP JUMP JUMPDEST PUSH1 0x0 PUSH1 0x20 DUP3 ADD SWAP1 POP DUP2 DUP2 SUB PUSH1 0x0 DUP4 ADD MSTORE PUSH2 0x1855 DUP2 PUSH2 0x1819 JUMP JUMPDEST SWAP1 POP SWAP2 SWAP1 POP JUMP JUMPDEST PUSH1 0x0 PUSH2 0x1867 DUP3 PUSH2 0x1327 JUMP JUMPDEST SWAP2 POP PUSH2 0x1872 DUP4 PUSH2 0x1327 JUMP JUMPDEST SWAP3 POP DUP3 DUP3 MUL PUSH2 0x1880 DUP2 PUSH2 0x1327 JUMP JUMPDEST SWAP2 POP DUP3 DUP3 DIV DUP5 EQ DUP4 ISZERO OR PUSH2 0x1897 JUMPI PUSH2 0x1896 PUSH2 0x16AE JUMP JUMPDEST JUMPDEST POP SWAP3 SWAP2 POP POP JUMP INVALID LOG2 PUSH5 0x6970667358 0x22 SLT KECCAK256 0xE4 DUP16 CALLDATALOAD 0xEE KECCAK256 0xBC 0x4D LOG0 0x2F 0xC6 SLT 0xE2 0x26 PUSH15 0x9501B7F05CC7E9F290541156CD38C9 MUL PUSH20 0x4A64736F6C634300081300330000000000000000 "
		},
		"gasEstimates": {
			"creation": {
				"codeDepositCost": "1271200",
				"executionCost": "1322",
				"totalCost": "1272522"
			},
			"external": {
				"AA()": "352",
				"BB()": "396",
				"GX()": "353",
				"GY()": "418",
				"GeneratorX()": "395",
				"GeneratorY()": "352",
				"HX()": "373",
				"HY()": "374",
				"L()": "396",
				"PP()": "417",
				"addPoints(uint256[2],uint256[2])": "infinite",
				"mulG(uint256)": "infinite",
				"mulH(uint256)": "infinite",
				"mulPoint(uint256[2],uint256)": "infinite",
				"subPoints(uint256[2],uint256[2])": "infinite"
			}
		},
		"methodIdentifiers": {
			"AA()": "997da8d4",
			"BB()": "5727dc5c",
			"GX()": "03a507be",
			"GY()": "7a308a4c",
			"GeneratorX()": "e7a48839",
			"GeneratorY()": "29038545",
			"HX()": "c11b8ad7",
			"HY()": "4e93d4a2",
			"L()": "9f13f76d",
			"PP()": "eeeac01e",
			"addPoints(uint256[2],uint256[2])": "1177a4a4",
			"mulG(uint256)": "bb734c4e",
			"mulH(uint256)": "9b4cdcd3",
			"mulPoint(uint256[2],uint256)": "aca8f56e",
			"subPoints(uint256[2],uint256[2])": "1c51df7b"
		}
	},
	"abi": [
		{
			"inputs": [],
			"name": "AA",
			"outputs": [
				{
					"internalType": "uint256",
					"name": "",
					"type": "uint256"
				}
			],
			"stateMutability": "view",
			"type": "function"
		},
		{
			"inputs": [],
			"name": "BB",
			"outputs": [
				{
					"internalType": "uint256",
					"name": "",
					"type": "uint256"
				}
			],
			"stateMutability": "view",
			"type": "function"
		},
		{
			"inputs": [],
			"name": "GX",
			"outputs": [
				{
					"internalType": "uint256",
					"name": "",
					"type": "uint256"
				}
			],
			"stateMutability": "view",
			"type": "function"
		},
		{
			"inputs": [],
			"name": "GY",
			"outputs": [
				{
					"internalType": "uint256",
					"name": "",
					"type": "uint256"
				}
			],
			"stateMutability": "view",
			"type": "function"
		},
		{
			"inputs": [],
			"name": "GeneratorX",
			"outputs": [
				{
					"internalType": "uint256",
					"name": "",
					"type": "uint256"
				}
			],
			"stateMutability": "view",
			"type": "function"
		},
		{
			"inputs": [],
			"name": "GeneratorY",
			"outputs": [
				{
					"internalType": "uint256",
					"name": "",
					"type": "uint256"
				}
			],
			"stateMutability": "view",
			"type": "function"
		},
		{
			"inputs": [],
			"name": "HX",
			"outputs": [
				{
					"internalType": "uint256",
					"name": "",
					"type": "uint256"
				}
			],
			"stateMutability": "view",
			"type": "function"
		},
		{
			"inputs": [],
			"name": "HY",
			"outputs": [
				{
					"internalType": "uint256",
					"name": "",
					"type": "uint256"
				}
			],
			"stateMutability": "view",
			"type": "function"
		},
		{
			"inputs": [],
			"name": "L",
			"outputs": [
				{
					"internalType": "uint256",
					"name": "",
					"type": "uint256"
				}
			],
			"stateMutability": "view",
			"type": "function"
		},
		{
			"inputs": [],
			"name": "PP",
			"outputs": [
				{
					"internalType": "uint256",
					"name": "",
					"type": "uint256"
				}
			],
			"stateMutability": "view",
			"type": "function"
		},
		{
			"inputs": [
				{
					"internalType": "uint256[2]",
					"name": "_a",
					"type": "uint256[2]"
				},
				{
					"internalType": "uint256[2]",
					"name": "_b",
					"type": "uint256[2]"
				}
			],
			"name": "addPoints",
			"outputs": [
				{
					"internalType": "uint256[2]",
					"name": "",
					"type": "uint256[2]"
				}
			],
			"stateMutability": "pure",
			"type": "function"
		},
		{
			"inputs": [
				{
					"internalType": "uint256",
					"name": "_scalar",
					"type": "uint256"
				}
			],
			"name": "mulG",
			"outputs": [
				{
					"internalType": "uint256[2]",
					"name": "",
					"type": "uint256[2]"
				}
			],
			"stateMutability": "pure",
			"type": "function"
		},
		{
			"inputs": [
				{
					"internalType": "uint256",
					"name": "_scalar",
					"type": "uint256"
				}
			],
			"name": "mulH",
			"outputs": [
				{
					"internalType": "uint256[2]",
					"name": "",
					"type": "uint256[2]"
				}
			],
			"stateMutability": "pure",
			"type": "function"
		},
		{
			"inputs": [
				{
					"internalType": "uint256[2]",
					"name": "_a",
					"type": "uint256[2]"
				},
				{
					"internalType": "uint256",
					"name": "_scalar",
					"type": "uint256"
				}
			],
			"name": "mulPoint",
			"outputs": [
				{
					"internalType": "uint256[2]",
					"name": "",
					"type": "uint256[2]"
				}
			],
			"stateMutability": "pure",
			"type": "function"
		},
		{
			"inputs": [
				{
					"internalType": "uint256[2]",
					"name": "_a",
					"type": "uint256[2]"
				},
				{
					"internalType": "uint256[2]",
					"name": "_b",
					"type": "uint256[2]"
				}
			],
			"name": "subPoints",
			"outputs": [
				{
					"internalType": "uint256[2]",
					"name": "",
					"type": "uint256[2]"
				}
			],
			"stateMutability": "pure",
			"type": "function"
		}
	]
}