{
	"data": {
		"bytecode": {
			"linkReferences": {},
			"object": "60806040526040518060400160405280600781526020017f4d6574656f726100000000000000000000000000000000000000000000000000815250600490816200004a9190620003da565b506040518060400160405280600381526020017f4d4554000000000000000000000000000000000000000000000000000000000081525060059081620000919190620003da565b50604051620000a09062000152565b604051809103906000f080158015620000bd573d6000803e3d6000fd5b50600660006101000a81548173ffffffffffffffffffffffffffffffffffffffff021916908373ffffffffffffffffffffffffffffffffffffffff1602179055503480156200010b57600080fd5b50336000806101000a81548173ffffffffffffffffffffffffffffffffffffffff021916908373ffffffffffffffffffffffffffffffffffffffff160217905550620004c1565b61197580620035fa83390190565b600081519050919050565b7f4e487b7100000000000000000000000000000000000000000000000000000000600052604160045260246000fd5b7f4e487b7100000000000000000000000000000000000000000000000000000000600052602260045260246000fd5b60006002820490506001821680620001e257607f821691505b602082108103620001f857620001f76200019a565b5b50919050565b60008190508160005260206000209050919050565b60006020601f8301049050919050565b600082821b905092915050565b600060088302620002627fffffffffffffffffffffffffffffffffffffffffffffffffffffffffffffffff8262000223565b6200026e868362000223565b95508019841693508086168417925050509392505050565b6000819050919050565b6000819050919050565b6000620002bb620002b5620002af8462000286565b62000290565b62000286565b9050919050565b6000819050919050565b620002d7836200029a565b620002ef620002e682620002c2565b84845462000230565b825550505050565b600090565b62000306620002f7565b62000313818484620002cc565b505050565b5b818110156200033b576200032f600082620002fc565b60018101905062000319565b5050565b601f8211156200038a576200035481620001fe565b6200035f8462000213565b810160208510156200036f578190505b620003876200037e8562000213565b83018262000318565b50505b505050565b600082821c905092915050565b6000620003af600019846008026200038f565b1980831691505092915050565b6000620003ca83836200039c565b9150826002028217905092915050565b620003e58262000160565b67ffffffffffffffff8111156200040157620004006200016b565b5b6200040d8254620001c9565b6200041a8282856200033f565b600060209050601f8311600181146200045257600084156200043d578287015190505b620004498582620003bc565b865550620004b9565b601f1984166200046286620001fe565b60005b828110156200048c5784890151825560018201915060208501945060208101905062000465565b86831015620004ac5784890151620004a8601f8916826200039c565b8355505b6001600288020188555050505b505050505050565b61312980620004d16000396000f3fe608060405234801561001057600080fd5b506004361061009e5760003560e01c80638784b518116100665780638784b51814610181578063a8660c1f146101b1578063ac63a7ed146101e1578063c01da18b146101ff578063f80e3e001461021d5761009e565b806307f51a9a146100a35780630d47535f146100d35780635a9b0b891461010357806361df00b1146101215780636cc4275614610151575b600080fd5b6100bd60048036038101906100b89190611e5f565b61024d565b6040516100ca9190611f66565b60405180910390f35b6100ed60048036038101906100e89190611fea565b610257565b6040516100fa91906120cc565b60405180910390f35b61010b610267565b604051610118919061216d565b60405180910390f35b61013b600480360381019061013691906124cc565b6102a4565b6040516101489190612790565b60405180910390f35b61016b600480360381019061016691906127e6565b6102b4565b60405161017891906128bb565b60405180910390f35b61019b600480360381019061019691906128d6565b6104e1565b6040516101a891906128bb565b60405180910390f35b6101cb60048036038101906101c69190612903565b6105f9565b6040516101d891906128bb565b60405180910390f35b6101e96115d2565b6040516101f691906129db565b60405180910390f35b610207611662565b6040516102149190612afd565b60405180910390f35b61023760048036038101906102329190612b1f565b611730565b6040516102449190612b5b565b60405180910390f35b6060819050919050565b61025f611af8565b819050919050565b60606040518060400160405280600b81526020017f48656c6c6f20576f726c64000000000000000000000000000000000000000000815250905090565b6102ac611b0b565b819050919050565b60006102be611b0b565b888160000181815250508781602001819052508681604001819052508581606001819052503073ffffffffffffffffffffffffffffffffffffffff16638784b518896040518263ffffffff1660e01b815260040161031c9190612bd8565b602060405180830381865afa158015610339573d6000803e3d6000fd5b505050506040513d601f19601f8201168201806040525081019061035d9190612c1f565b61039c576040517f08c379a000000000000000000000000000000000000000000000000000000000815260040161039390612cbe565b60405180910390fd5b3073ffffffffffffffffffffffffffffffffffffffff1663a8660c1f8b836040518363ffffffff1660e01b81526004016103d7929190612cde565b6020604051808303816000875af11580156103f6573d6000803e3d6000fd5b505050506040513d601f19601f8201168201806040525081019061041a9190612c1f565b610459576040517f08c379a000000000000000000000000000000000000000000000000000000000815260040161045090612da0565b60405180910390fd5b600381602001519080600181540180825580915050600190039060005260206000209060020201600090919091909150906002610497929190611b45565b507f1440c4dd67b4344ea1905ec0318995133b550f168b4ee959a0da6b503d7d2414607b6040516104c89190612e05565b60405180910390a1600191505098975050505050505050565b60006104eb611b85565b60005b6003805490508110156105ed5760036000815481106105105761050f612e20565b5b9060005260206000209060020201600280602002604051908101604052809291908260028015610555576020028201915b815481526020019060010190808311610541575b50505050509150816000600281106105705761056f612e20565b5b60200201518460006002811061058957610588612e20565b5b60200201511480156105ca5750816001600281106105aa576105a9612e20565b5b6020020151846001600281106105c3576105c2612e20565b5b6020020151145b156105da576000925050506105f4565b80806105e590612e7e565b9150506104ee565b5060019150505b919050565b6000610603611ba7565b61060b611c01565b60008460200151905060008560600151905085600001518360006003811061063657610635612e20565b5b6020020181815250506000808061064b611b85565b610653611b85565b606060005b60028d6040015150600461066c9190612ec6565b811015610e23576040518060200160405280600081525091508c60400151816004811061069c5761069b612e20565b5b602002015195508c604001516001826106b59190612efa565b600481106106c6576106c5612e20565b5b602002015194508787600281106106e0576106df612e20565b5b60200201516000600281106106f8576106f7612e20565b5b6020020151935087876002811061071257610711612e20565b5b602002015160016002811061072a57610729612e20565b5b60200201519250600660009054906101000a900473ffffffffffffffffffffffffffffffffffffffff1673ffffffffffffffffffffffffffffffffffffffff1663bb734c4e876040518263ffffffff1660e01b815260040161078c9190612b5b565b6040805180830381865afa1580156107a8573d6000803e3d6000fd5b505050506040513d601f19601f820116820180604052508101906107cc9190612fce565b8b60000181905250600660009054906101000a900473ffffffffffffffffffffffffffffffffffffffff1673ffffffffffffffffffffffffffffffffffffffff1663aca8f56e858c8a6003811061082657610825612e20565b5b60200201516040518363ffffffff1660e01b8152600401610848929190612ffb565b6040805180830381865afa158015610864573d6000803e3d6000fd5b505050506040513d601f19601f820116820180604052508101906108889190612fce565b8b60200181905250600660009054906101000a900473ffffffffffffffffffffffffffffffffffffffff1673ffffffffffffffffffffffffffffffffffffffff1663aca8f56e6108d78661173a565b886040518363ffffffff1660e01b81526004016108f5929190612ffb565b6040805180830381865afa158015610911573d6000803e3d6000fd5b505050506040513d601f19601f820116820180604052508101906109359190612fce565b8b60400181905250600660009054906101000a900473ffffffffffffffffffffffffffffffffffffffff1673ffffffffffffffffffffffffffffffffffffffff1663aca8f56e8a8c8a6003811061098f5761098e612e20565b5b60200201516040518363ffffffff1660e01b81526004016109b1929190612ffb565b6040805180830381865afa1580156109cd573d6000803e3d6000fd5b505050506040513d601f19601f820116820180604052508101906109f19190612fce565b8b60600181905250600660009054906101000a900473ffffffffffffffffffffffffffffffffffffffff1673ffffffffffffffffffffffffffffffffffffffff1663bb734c4e866040518263ffffffff1660e01b8152600401610a549190612b5b565b6040805180830381865afa158015610a70573d6000803e3d6000fd5b505050506040513d601f19601f82011682018060405250810190610a949190612fce565b8b60800181905250600660009054906101000a900473ffffffffffffffffffffffffffffffffffffffff1673ffffffffffffffffffffffffffffffffffffffff1663aca8f56e848c8a60038110610aee57610aed612e20565b5b60200201516040518363ffffffff1660e01b8152600401610b10929190612ffb565b6040805180830381865afa158015610b2c573d6000803e3d6000fd5b505050506040513d601f19601f82011682018060405250810190610b509190612fce565b8b60a00181905250610b618e611760565b610c0e600660009054906101000a900473ffffffffffffffffffffffffffffffffffffffff1673ffffffffffffffffffffffffffffffffffffffff16631177a4a48e600001518f602001516040518363ffffffff1660e01b8152600401610bc9929190613024565b6040805180830381865afa158015610be5573d6000803e3d6000fd5b505050506040513d601f19601f82011682018060405250810190610c099190612fce565b61182e565b604051602001610c1f929190613089565b604051602081830303815290604052915081610cde600660009054906101000a900473ffffffffffffffffffffffffffffffffffffffff1673ffffffffffffffffffffffffffffffffffffffff16631177a4a48e604001518f606001516040518363ffffffff1660e01b8152600401610c99929190613024565b6040805180830381865afa158015610cb5573d6000803e3d6000fd5b505050506040513d601f19601f82011682018060405250810190610cd99190612fce565b61182e565b604051602001610cef929190613089565b604051602081830303815290604052915081610dae600660009054906101000a900473ffffffffffffffffffffffffffffffffffffffff1673ffffffffffffffffffffffffffffffffffffffff16631177a4a48e608001518f60a001516040518363ffffffff1660e01b8152600401610d69929190613024565b6040805180830381865afa158015610d85573d6000803e3d6000fd5b505050506040513d601f19601f82011682018060405250810190610da99190612fce565b61182e565b604051602001610dbf929190613089565b6040516020818303038152906040529150610dd982611899565b8a600189610de79190612efa565b60038110610df857610df7612e20565b5b6020020181815250508680610e0c90612e7e565b975050600281610e1c9190612efa565b9050610658565b60405180602001604052806000815250915060028d60400151506004610e499190612ec6565b90508c604001518160048110610e6257610e61612e20565b5b602002015195508c60400151600182610e7b9190612efa565b60048110610e8c57610e8b612e20565b5b60200201519450878760028110610ea657610ea5612e20565b5b6020020151600060028110610ebe57610ebd612e20565b5b60200201519350878760028110610ed857610ed7612e20565b5b6020020151600160028110610ef057610eef612e20565b5b60200201519250600660009054906101000a900473ffffffffffffffffffffffffffffffffffffffff1673ffffffffffffffffffffffffffffffffffffffff1663bb734c4e876040518263ffffffff1660e01b8152600401610f529190612b5b565b6040805180830381865afa158015610f6e573d6000803e3d6000fd5b505050506040513d601f19601f82011682018060405250810190610f929190612fce565b8b60000181905250600660009054906101000a900473ffffffffffffffffffffffffffffffffffffffff1673ffffffffffffffffffffffffffffffffffffffff1663aca8f56e858c8a60038110610fec57610feb612e20565b5b60200201516040518363ffffffff1660e01b815260040161100e929190612ffb565b6040805180830381865afa15801561102a573d6000803e3d6000fd5b505050506040513d601f19601f8201168201806040525081019061104e9190612fce565b8b60200181905250600660009054906101000a900473ffffffffffffffffffffffffffffffffffffffff1673ffffffffffffffffffffffffffffffffffffffff1663aca8f56e61109d8661173a565b886040518363ffffffff1660e01b81526004016110bb929190612ffb565b6040805180830381865afa1580156110d7573d6000803e3d6000fd5b505050506040513d601f19601f820116820180604052508101906110fb9190612fce565b8b60400181905250600660009054906101000a900473ffffffffffffffffffffffffffffffffffffffff1673ffffffffffffffffffffffffffffffffffffffff1663aca8f56e8a8c8a6003811061115557611154612e20565b5b60200201516040518363ffffffff1660e01b8152600401611177929190612ffb565b6040805180830381865afa158015611193573d6000803e3d6000fd5b505050506040513d601f19601f820116820180604052508101906111b79190612fce565b8b60600181905250600660009054906101000a900473ffffffffffffffffffffffffffffffffffffffff1673ffffffffffffffffffffffffffffffffffffffff1663bb734c4e866040518263ffffffff1660e01b815260040161121a9190612b5b565b6040805180830381865afa158015611236573d6000803e3d6000fd5b505050506040513d601f19601f8201168201806040525081019061125a9190612fce565b8b60800181905250600660009054906101000a900473ffffffffffffffffffffffffffffffffffffffff1673ffffffffffffffffffffffffffffffffffffffff1663aca8f56e848c8a600381106112b4576112b3612e20565b5b60200201516040518363ffffffff1660e01b81526004016112d6929190612ffb565b6040805180830381865afa1580156112f2573d6000803e3d6000fd5b505050506040513d601f19601f820116820180604052508101906113169190612fce565b8b60a001819052506113278e611760565b6113d4600660009054906101000a900473ffffffffffffffffffffffffffffffffffffffff1673ffffffffffffffffffffffffffffffffffffffff16631177a4a48e600001518f602001516040518363ffffffff1660e01b815260040161138f929190613024565b6040805180830381865afa1580156113ab573d6000803e3d6000fd5b505050506040513d601f19601f820116820180604052508101906113cf9190612fce565b61182e565b6040516020016113e5929190613089565b6040516020818303038152906040529150816114a4600660009054906101000a900473ffffffffffffffffffffffffffffffffffffffff1673ffffffffffffffffffffffffffffffffffffffff16631177a4a48e604001518f606001516040518363ffffffff1660e01b815260040161145f929190613024565b6040805180830381865afa15801561147b573d6000803e3d6000fd5b505050506040513d601f19601f8201168201806040525081019061149f9190612fce565b61182e565b6040516020016114b5929190613089565b604051602081830303815290604052915081611574600660009054906101000a900473ffffffffffffffffffffffffffffffffffffffff1673ffffffffffffffffffffffffffffffffffffffff16631177a4a48e608001518f60a001516040518363ffffffff1660e01b815260040161152f929190613024565b6040805180830381865afa15801561154b573d6000803e3d6000fd5b505050506040513d601f19601f8201168201806040525081019061156f9190612fce565b61182e565b604051602001611585929190613089565b604051602081830303815290604052915060006115a183611899565b9050808b6000600381106115b8576115b7612e20565b5b6020020151149c5050505050505050505050505092915050565b60606003805480602002602001604051908101604052809291908181526020016000905b828210156116595783829060005260206000209060020201600280602002604051908101604052809291908260028015611645576020028201915b815481526020019060010190808311611631575b5050505050815260200190600101906115f6565b50505050905090565b60606002805480602002602001604051908101604052809291908181526020016000905b82821015611727578382906000526020600020906004020160405180606001604052908160008201548152602001600182016002806020026040519081016040528092919082600280156116ef576020028201915b8154815260200190600101908083116116db575b505050505081526020016003820160009054906101000a900461ffff1661ffff1661ffff168152505081526020019060010190611686565b50505050905090565b6000819050919050565b611742611b85565b600061174d8361182e565b9050611758816118cc565b915050919050565b60606000600161176f846119a5565b01905060008167ffffffffffffffff81111561178e5761178d611ce6565b5b6040519080825280601f01601f1916602001820160405280156117c05781602001600182028036833780820191505090505b509050600082602001820190505b600115611823578080600190039150507f3031323334353637383961626364656600000000000000000000000000000000600a86061a8153600a8581611817576118166130ad565b5b049450600085036117ce575b819350505050919050565b60606118518260006002811061184757611846612e20565b5b6020020151611760565b6118728360016002811061186857611867612e20565b5b6020020151611760565b604051602001611883929190613089565b6040516020818303038152906040529050919050565b6000816040516020016118ac91906130dc565b6040516020818303038152906040528051906020012060001c9050919050565b6118d4611b85565b6000826040516020016118e791906130dc565b6040516020818303038152906040528051906020012060001c9050600660009054906101000a900473ffffffffffffffffffffffffffffffffffffffff1673ffffffffffffffffffffffffffffffffffffffff1663bb734c4e826040518263ffffffff1660e01b815260040161195d9190612b5b565b6040805180830381865afa158015611979573d6000803e3d6000fd5b505050506040513d601f19601f8201168201806040525081019061199d9190612fce565b915050919050565b600080600090507a184f03e93ff9f4daa797ed6e38ed64bf6a1f0100000000000000008310611a03577a184f03e93ff9f4daa797ed6e38ed64bf6a1f01000000000000000083816119f9576119f86130ad565b5b0492506040810190505b6d04ee2d6d415b85acef81000000008310611a40576d04ee2d6d415b85acef81000000008381611a3657611a356130ad565b5b0492506020810190505b662386f26fc100008310611a6f57662386f26fc100008381611a6557611a646130ad565b5b0492506010810190505b6305f5e1008310611a98576305f5e1008381611a8e57611a8d6130ad565b5b0492506008810190505b6127108310611abd576127108381611ab357611ab26130ad565b5b0492506004810190505b60648310611ae05760648381611ad657611ad56130ad565b5b0492506002810190505b600a8310611aef576001810190505b80915050919050565b6040518060200160405280606081525090565b604051806080016040528060008152602001611b25611b85565b8152602001611b32611c23565b8152602001611b3f611c45565b81525090565b8260028101928215611b74579160200282015b82811115611b73578251825591602001919060010190611b58565b5b509050611b819190611c72565b5090565b6040518060400160405280600290602082028036833780820191505090505090565b6040518060c00160405280611bba611b85565b8152602001611bc7611b85565b8152602001611bd4611b85565b8152602001611be1611b85565b8152602001611bee611b85565b8152602001611bfb611b85565b81525090565b6040518060600160405280600390602082028036833780820191505090505090565b6040518060800160405280600490602082028036833780820191505090505090565b60405180604001604052806002905b611c5c611c8f565b815260200190600190039081611c545790505090565b5b80821115611c8b576000816000905550600101611c73565b5090565b60405180604001604052806002905b611ca6611b85565b815260200190600190039081611c9e5790505090565b6000604051905090565b600080fd5b600080fd5b600080fd5b6000601f19601f8301169050919050565b7f4e487b7100000000000000000000000000000000000000000000000000000000600052604160045260246000fd5b611d1e82611cd5565b810181811067ffffffffffffffff82111715611d3d57611d3c611ce6565b5b80604052505050565b6000611d50611cbc565b9050611d5c8282611d15565b919050565b600067ffffffffffffffff821115611d7c57611d7b611ce6565b5b602082029050602081019050919050565b600080fd5b6000819050919050565b611da581611d92565b8114611db057600080fd5b50565b600081359050611dc281611d9c565b92915050565b6000611ddb611dd684611d61565b611d46565b90508083825260208201905060208402830185811115611dfe57611dfd611d8d565b5b835b81811015611e275780611e138882611db3565b845260208401935050602081019050611e00565b5050509392505050565b600082601f830112611e4657611e45611cd0565b5b8135611e56848260208601611dc8565b91505092915050565b600060208284031215611e7557611e74611cc6565b5b600082013567ffffffffffffffff811115611e9357611e92611ccb565b5b611e9f84828501611e31565b91505092915050565b600081519050919050565b600082825260208201905092915050565b6000819050602082019050919050565b611edd81611d92565b82525050565b6000611eef8383611ed4565b60208301905092915050565b6000602082019050919050565b6000611f1382611ea8565b611f1d8185611eb3565b9350611f2883611ec4565b8060005b83811015611f59578151611f408882611ee3565b9750611f4b83611efb565b925050600181019050611f2c565b5085935050505092915050565b60006020820190508181036000830152611f808184611f08565b905092915050565b600080fd5b600080fd5b600060208284031215611fa857611fa7611f88565b5b611fb26020611d46565b9050600082013567ffffffffffffffff811115611fd257611fd1611f8d565b5b611fde84828501611e31565b60008301525092915050565b60006020828403121561200057611fff611cc6565b5b600082013567ffffffffffffffff81111561201e5761201d611ccb565b5b61202a84828501611f92565b91505092915050565b600082825260208201905092915050565b600061204f82611ea8565b6120598185612033565b935061206483611ec4565b8060005b8381101561209557815161207c8882611ee3565b975061208783611efb565b925050600181019050612068565b5085935050505092915050565b600060208301600083015184820360008601526120bf8282612044565b9150508091505092915050565b600060208201905081810360008301526120e681846120a2565b905092915050565b600081519050919050565b600082825260208201905092915050565b60005b8381101561212857808201518184015260208101905061210d565b60008484015250505050565b600061213f826120ee565b61214981856120f9565b935061215981856020860161210a565b61216281611cd5565b840191505092915050565b600060208201905081810360008301526121878184612134565b905092915050565b600067ffffffffffffffff8211156121aa576121a9611ce6565b5b602082029050919050565b60006121c86121c38461218f565b611d46565b905080602084028301858111156121e2576121e1611d8d565b5b835b8181101561220b57806121f78882611db3565b8452602084019350506020810190506121e4565b5050509392505050565b600082601f83011261222a57612229611cd0565b5b60026122378482856121b5565b91505092915050565b600067ffffffffffffffff82111561225b5761225a611ce6565b5b602082029050919050565b600061227961227484612240565b611d46565b9050806020840283018581111561229357612292611d8d565b5b835b818110156122bc57806122a88882611db3565b845260208401935050602081019050612295565b5050509392505050565b600082601f8301126122db576122da611cd0565b5b60046122e8848285612266565b91505092915050565b600067ffffffffffffffff82111561230c5761230b611ce6565b5b602082029050919050565b600067ffffffffffffffff82111561233257612331611ce6565b5b602082029050919050565b600061235061234b84612317565b611d46565b9050806040840283018581111561236a57612369611d8d565b5b835b81811015612393578061237f8882612215565b84526020840193505060408101905061236c565b5050509392505050565b600082601f8301126123b2576123b1611cd0565b5b60026123bf84828561233d565b91505092915050565b60006123db6123d6846122f1565b611d46565b905080608084028301858111156123f5576123f4611d8d565b5b835b8181101561241e578061240a888261239d565b8452602084019350506080810190506123f7565b5050509392505050565b600082601f83011261243d5761243c611cd0565b5b600261244a8482856123c8565b91505092915050565b60006101e0828403121561246a57612469611f88565b5b6124746080611d46565b9050600061248484828501611db3565b600083015250602061249884828501612215565b60208301525060606124ac848285016122c6565b60408301525060e06124c084828501612428565b60608301525092915050565b60006101e082840312156124e3576124e2611cc6565b5b60006124f184828501612453565b91505092915050565b600060029050919050565b600081905092915050565b6000819050919050565b6000602082019050919050565b612530816124fa565b61253a8184612505565b925061254582612510565b8060005b8381101561257657815161255d8782611ee3565b96506125688361251a565b925050600181019050612549565b505050505050565b600060049050919050565b600081905092915050565b6000819050919050565b6000602082019050919050565b6125b48161257e565b6125be8184612589565b92506125c982612594565b8060005b838110156125fa5781516125e18782611ee3565b96506125ec8361259e565b9250506001810190506125cd565b505050505050565b600060029050919050565b600081905092915050565b6000819050919050565b600060029050919050565b600081905092915050565b6000819050919050565b600061264e8383612527565b60408301905092915050565b6000602082019050919050565b61267081612622565b61267a818461262d565b925061268582612638565b8060005b838110156126b657815161269d8782612642565b96506126a88361265a565b925050600181019050612689565b505050505050565b60006126ca8383612667565b60808301905092915050565b6000602082019050919050565b6126ec81612602565b6126f6818461260d565b925061270182612618565b8060005b8381101561273257815161271987826126be565b9650612724836126d6565b925050600181019050612705565b505050505050565b6101e0820160008201516127516000850182611ed4565b5060208201516127646020850182612527565b50604082015161277760608501826125ab565b50606082015161278a60e08501826126e3565b50505050565b60006101e0820190506127a6600083018461273a565b92915050565b600061ffff82169050919050565b6127c3816127ac565b81146127ce57600080fd5b50565b6000813590506127e0816127ba565b92915050565b600080600080600080600080610280898b03121561280757612806611cc6565b5b60006128158b828c01611db3565b98505060206128268b828c01611db3565b97505060406128378b828c01612215565b96505060806128488b828c016122c6565b95505061010061285a8b828c01612428565b94505061020061286c8b828c01611db3565b93505061022061287e8b828c01612215565b9250506102606128908b828c016127d1565b9150509295985092959890939650565b60008115159050919050565b6128b5816128a0565b82525050565b60006020820190506128d060008301846128ac565b92915050565b6000604082840312156128ec576128eb611cc6565b5b60006128fa84828501612215565b91505092915050565b600080610200838503121561291b5761291a611cc6565b5b600061292985828601611db3565b925050602061293a85828601612453565b9150509250929050565b600081519050919050565b600082825260208201905092915050565b6000819050602082019050919050565b6000602082019050919050565b600061298882612944565b612992818561294f565b935061299d83612960565b8060005b838110156129ce5781516129b58882612642565b97506129c083612970565b9250506001810190506129a1565b5085935050505092915050565b600060208201905081810360008301526129f5818461297d565b905092915050565b600081519050919050565b600082825260208201905092915050565b6000819050602082019050919050565b612a32816127ac565b82525050565b608082016000820151612a4e6000850182611ed4565b506020820151612a616020850182612527565b506040820151612a746060850182612a29565b50505050565b6000612a868383612a38565b60808301905092915050565b6000602082019050919050565b6000612aaa826129fd565b612ab48185612a08565b9350612abf83612a19565b8060005b83811015612af0578151612ad78882612a7a565b9750612ae283612a92565b925050600181019050612ac3565b5085935050505092915050565b60006020820190508181036000830152612b178184612a9f565b905092915050565b600060208284031215612b3557612b34611cc6565b5b6000612b4384828501611db3565b91505092915050565b612b5581611d92565b82525050565b6000602082019050612b706000830184612b4c565b92915050565b600081905092915050565b612b8a816124fa565b612b948184612b76565b9250612b9f82612510565b8060005b83811015612bd0578151612bb78782611ee3565b9650612bc28361251a565b925050600181019050612ba3565b505050505050565b6000604082019050612bed6000830184612b81565b92915050565b612bfc816128a0565b8114612c0757600080fd5b50565b600081519050612c1981612bf3565b92915050565b600060208284031215612c3557612c34611cc6565b5b6000612c4384828501612c0a565b91505092915050565b7f5468652070726f7669646564206b6579496d61676520686173206265656e207560008201527f736564206265666f726521000000000000000000000000000000000000000000602082015250565b6000612ca8602b836120f9565b9150612cb382612c4c565b604082019050919050565b60006020820190508181036000830152612cd781612c9b565b9050919050565b600061020082019050612cf46000830185612b4c565b612d01602083018461273a565b9392505050565b7f5468652070726f7669646564207369676e617475726573207765726520696e6360008201527f6f727265637421200a20546865207472616e73616374696f6e2077696c6c206260208201527f652063616e63656c65642e200000000000000000000000000000000000000000604082015250565b6000612d8a604c836120f9565b9150612d9582612d08565b606082019050919050565b60006020820190508181036000830152612db981612d7d565b9050919050565b6000819050919050565b6000819050919050565b6000612def612dea612de584612dc0565b612dca565b611d92565b9050919050565b612dff81612dd4565b82525050565b6000602082019050612e1a6000830184612df6565b92915050565b7f4e487b7100000000000000000000000000000000000000000000000000000000600052603260045260246000fd5b7f4e487b7100000000000000000000000000000000000000000000000000000000600052601160045260246000fd5b6000612e8982611d92565b91507fffffffffffffffffffffffffffffffffffffffffffffffffffffffffffffffff8203612ebb57612eba612e4f565b5b600182019050919050565b6000612ed182611d92565b9150612edc83611d92565b9250828203905081811115612ef457612ef3612e4f565b5b92915050565b6000612f0582611d92565b9150612f1083611d92565b9250828201905080821115612f2857612f27612e4f565b5b92915050565b600081519050612f3d81611d9c565b92915050565b6000612f56612f518461218f565b611d46565b90508060208402830185811115612f7057612f6f611d8d565b5b835b81811015612f995780612f858882612f2e565b845260208401935050602081019050612f72565b5050509392505050565b600082601f830112612fb857612fb7611cd0565b5b6002612fc5848285612f43565b91505092915050565b600060408284031215612fe457612fe3611cc6565b5b6000612ff284828501612fa3565b91505092915050565b60006060820190506130106000830185612b81565b61301d6040830184612b4c565b9392505050565b60006080820190506130396000830185612b81565b6130466040830184612b81565b9392505050565b600081905092915050565b6000613063826120ee565b61306d818561304d565b935061307d81856020860161210a565b80840191505092915050565b60006130958285613058565b91506130a18284613058565b91508190509392505050565b7f4e487b7100000000000000000000000000000000000000000000000000000000600052601260045260246000fd5b60006130e88284613058565b91508190509291505056fea264697066735822122017d9228a7a3f399519b839aa67d2fe2df3ef622f3c3007aa5ac3e5a7a521789464736f6c63430008130033608060405234801561001057600080fd5b50611955806100206000396000f3fe608060405234801561001057600080fd5b50600436106100f55760003560e01c8063997da8d411610097578063bb734c4e11610066578063bb734c4e1461028c578063c11b8ad7146102bc578063e7a48839146102da578063eeeac01e146102f8576100f5565b8063997da8d4146101f05780639b4cdcd31461020e5780639f13f76d1461023e578063aca8f56e1461025c576100f5565b806329038545116100d357806329038545146101785780634e93d4a2146101965780635727dc5c146101b45780637a308a4c146101d2576100f5565b806303a507be146100fa5780631177a4a4146101185780631c51df7b14610148575b600080fd5b610102610316565b60405161010f91906113c1565b60405180910390f35b610132600480360381019061012d919061155e565b61033a565b60405161013f9190611649565b60405180910390f35b610162600480360381019061015d919061155e565b6103f7565b60405161016f9190611649565b60405180910390f35b6101806104b4565b60405161018d91906113c1565b60405180910390f35b61019e6104d8565b6040516101ab91906113c1565b60405180910390f35b6101bc6104fc565b6040516101c991906113c1565b60405180910390f35b6101da610501565b6040516101e791906113c1565b60405180910390f35b6101f8610525565b60405161020591906113c1565b60405180910390f35b61022860048036038101906102239190611664565b61052a565b6040516102359190611649565b60405180910390f35b6102466105f0565b60405161025391906113c1565b60405180910390f35b61027660048036038101906102719190611691565b610614565b6040516102839190611649565b60405180910390f35b6102a660048036038101906102a19190611664565b6106cb565b6040516102b39190611649565b60405180910390f35b6102c4610791565b6040516102d191906113c1565b60405180910390f35b6102e26107b5565b6040516102ef91906113c1565b60405180910390f35b6103006107d9565b60405161030d91906113c1565b60405180910390f35b7f6fb13b7e8ab1c7d191d16197c1bf7f8dc7992412e1266155b3fb3ac8b30f3ed881565b610342611364565b6000806103d48560006002811061035c5761035b6116d1565b5b602002015186600160028110610375576103746116d1565b5b60200201518660006002811061038e5761038d6116d1565b5b6020020151876001600281106103a7576103a66116d1565b5b602002015160007ffffffffffffffffffffffffffffffffffffffffffffffffffffffffefffffc2f6107fd565b915091506040518060400160405280838152602001828152509250505092915050565b6103ff611364565b60008061049185600060028110610419576104186116d1565b5b602002015186600160028110610432576104316116d1565b5b60200201518660006002811061044b5761044a6116d1565b5b602002015187600160028110610464576104636116d1565b5b602002015160007ffffffffffffffffffffffffffffffffffffffffffffffffffffffffefffffc2f610890565b915091506040518060400160405280838152602001828152509250505092915050565b7f483ada7726a3c4655da4fbfc0e1108a8fd17b448a68554199c47d08ffb10d4b881565b7fd209f7c16cdb6d3559bea88c7d920f8ff077406c615da8adfecdeef604cb40a681565b600781565b7f2e1eb77bd89505113819600b395e0475d102c4788a3280a583d9d82625ed853381565b600081565b610532611364565b6000806105ce7ffffffffffffffffffffffffffffffffebaaedce6af48a03bbfd25e8cd036414185610564919061172f565b7f07cd9ee748a0b26773d9d29361f75594964106d13e1cad67cfe2df503ee3e90e7fd209f7c16cdb6d3559bea88c7d920f8ff077406c615da8adfecdeef604cb40a660007ffffffffffffffffffffffffffffffffffffffffffffffffffffffffefffffc2f6108c4565b9150915060405180604001604052808381526020018281525092505050919050565b7ffffffffffffffffffffffffffffffffebaaedce6af48a03bbfd25e8cd036414181565b61061c611364565b6000806106a87ffffffffffffffffffffffffffffffffebaaedce6af48a03bbfd25e8cd03641418561064e919061172f565b86600060028110610662576106616116d1565b5b60200201518760016002811061067b5761067a6116d1565b5b602002015160007ffffffffffffffffffffffffffffffffffffffffffffffffffffffffefffffc2f6108c4565b915091506040518060400160405280838152602001828152509250505092915050565b6106d3611364565b60008061076f7ffffffffffffffffffffffffffffffffebaaedce6af48a03bbfd25e8cd036414185610705919061172f565b7f6fb13b7e8ab1c7d191d16197c1bf7f8dc7992412e1266155b3fb3ac8b30f3ed87f2e1eb77bd89505113819600b395e0475d102c4788a3280a583d9d82625ed853360007ffffffffffffffffffffffffffffffffffffffffffffffffffffffffefffffc2f6108c4565b9150915060405180604001604052808381526020018281525092505050919050565b7f07cd9ee748a0b26773d9d29361f75594964106d13e1cad67cfe2df503ee3e90e81565b7f79be667ef9dcbbac55a06295ce870b07029bfcdb2dce28d959f2815b16f8179881565b7ffffffffffffffffffffffffffffffffffffffffffffffffffffffffefffffc2f81565b6000806000806000888b03610853576000868061081d5761081c611700565b5b898c08036108345760008094509450505050610885565b6108428b8b60018a8a6108fe565b809350819450829550505050610871565b6108648b8b60018c8c60018c610abc565b8093508194508295505050505b61087d8383838961113b565b945094505050505b965096945050505050565b6000806000806108a18888876111b2565b915091506108b38a8a84848a8a6107fd565b935093505050965096945050505050565b60008060008060006108db8a8a8a60018b8b6111d9565b9250925092506108ed8383838961113b565b945094505050509550959350505050565b600080600080860361091857878787925092509250610ab1565b6000848061092957610928611700565b5b898a0990506000858061093f5761093e611700565b5b898a0990506000868061095557610954611700565b5b898a0990506000878061096b5761096a611700565b5b888061097a57610979611700565b5b848e0960040990506000888061099357610992611700565b5b89806109a2576109a1611700565b5b8a806109b1576109b0611700565b5b8586098c098a806109c5576109c4611700565b5b8760030908905088806109db576109da611700565b5b89806109ea576109e9611700565b5b8384088a6109f8919061178f565b8a80610a0757610a06611700565b5b8384090894508880610a1c57610a1b611700565b5b8980610a2b57610a2a611700565b5b8a80610a3a57610a39611700565b5b8687096008098a610a4b919061178f565b8a80610a5a57610a59611700565b5b8b80610a6957610a68611700565b5b888d610a75919061178f565b860884090893508880610a8b57610a8a611700565b5b8980610a9a57610a99611700565b5b8c8e09600209925084848497509750975050505050505b955095509592505050565b6000806000808a148015610ad05750600089145b15610ae35786868692509250925061112e565b600087148015610af35750600086145b15610b065789898992509250925061112e565b610b0e611386565b8480610b1d57610b1c611700565b5b898a0981600060048110610b3457610b336116d1565b5b6020020181815250508480610b4c57610b4b611700565b5b81600060048110610b6057610b5f6116d1565b5b60200201518a0981600160048110610b7b57610b7a6116d1565b5b6020020181815250508480610b9357610b92611700565b5b86870981600260048110610baa57610ba96116d1565b5b6020020181815250508480610bc257610bc1611700565b5b81600260048110610bd657610bd56116d1565b5b6020020151870981600360048110610bf157610bf06116d1565b5b60200201818152505060405180608001604052808680610c1457610c13611700565b5b83600260048110610c2857610c276116d1565b5b60200201518e0981526020018680610c4357610c42611700565b5b83600360048110610c5757610c566116d1565b5b60200201518d0981526020018680610c7257610c71611700565b5b83600060048110610c8657610c856116d1565b5b60200201518b0981526020018680610ca157610ca0611700565b5b83600160048110610cb557610cb46116d1565b5b60200201518a09815250905080600260048110610cd557610cd46116d1565b5b602002015181600060048110610cee57610ced6116d1565b5b6020020151141580610d30575080600360048110610d0f57610d0e6116d1565b5b602002015181600160048110610d2857610d276116d1565b5b602002015114155b610d6f576040517f08c379a0000000000000000000000000000000000000000000000000000000008152600401610d6690611820565b60405180910390fd5b610d77611386565b8580610d8657610d85611700565b5b82600060048110610d9a57610d996116d1565b5b602002015187610daa919061178f565b83600260048110610dbe57610dbd6116d1565b5b60200201510881600060048110610dd857610dd76116d1565b5b6020020181815250508580610df057610def611700565b5b82600160048110610e0457610e036116d1565b5b602002015187610e14919061178f565b83600360048110610e2857610e276116d1565b5b60200201510881600160048110610e4257610e416116d1565b5b6020020181815250508580610e5a57610e59611700565b5b81600060048110610e6e57610e6d6116d1565b5b602002015182600060048110610e8757610e866116d1565b5b60200201510981600260048110610ea157610ea06116d1565b5b6020020181815250508580610eb957610eb8611700565b5b81600060048110610ecd57610ecc6116d1565b5b602002015182600260048110610ee657610ee56116d1565b5b60200201510981600360048110610f0057610eff6116d1565b5b60200201818152505060008680610f1a57610f19611700565b5b82600360048110610f2e57610f2d6116d1565b5b602002015188610f3e919061178f565b8880610f4d57610f4c611700565b5b84600160048110610f6157610f606116d1565b5b602002015185600160048110610f7a57610f796116d1565b5b6020020151090890508680610f9257610f91611700565b5b8780610fa157610fa0611700565b5b8880610fb057610faf611700565b5b84600260048110610fc457610fc36116d1565b5b602002015186600060048110610fdd57610fdc6116d1565b5b60200201510960020988610ff1919061178f565b820890506000878061100657611005611700565b5b888061101557611014611700565b5b838a611021919061178f565b8a806110305761102f611700565b5b86600260048110611044576110436116d1565b5b60200201518860006004811061105d5761105c6116d1565b5b6020020151090884600160048110611078576110776116d1565b5b6020020151099050878061108f5761108e611700565b5b888061109e5761109d611700565b5b846003600481106110b2576110b16116d1565b5b6020020151866001600481106110cb576110ca6116d1565b5b602002015109896110dc919061178f565b82089050600088806110f1576110f0611700565b5b8980611100576110ff611700565b5b8b8f0985600060048110611117576111166116d1565b5b602002015109905082828297509750975050505050505b9750975097945050505050565b600080600061114a8585611278565b90506000848061115d5761115c611700565b5b82830990506000858061117357611172611700565b5b828a0990506000868061118957611188611700565b5b878061119857611197611700565b5b8486098a0990508181955095505050505094509492505050565b600080848385856111c3919061178f565b6111cd919061172f565b91509150935093915050565b60008060008089036111f35787878792509250925061126c565b60008990506000806000600190505b6000841461125e5760006001851614611231576112248383838f8f8f8e610abc565b8093508194508295505050505b60028461123e9190611840565b935061124d8c8c8c8c8c6108fe565b809c50819d50829e50505050611202565b828282965096509650505050505b96509650969350505050565b600080831415801561128a5750818314155b8015611297575060008214155b6112d6576040517f08c379a00000000000000000000000000000000000000000000000000000000081526004016112cd906118bd565b60405180910390fd5b60008060019050600084905060005b600087146113575786826112f99190611840565b905082868061130b5761130a611700565b5b878061131a57611319611700565b5b85840988611328919061178f565b8608809450819550505086878261133f91906118dd565b8361134a919061178f565b80985081935050506112e5565b8394505050505092915050565b6040518060400160405280600290602082028036833780820191505090505090565b6040518060800160405280600490602082028036833780820191505090505090565b6000819050919050565b6113bb816113a8565b82525050565b60006020820190506113d660008301846113b2565b92915050565b6000604051905090565b600080fd5b600080fd5b6000601f19601f8301169050919050565b7f4e487b7100000000000000000000000000000000000000000000000000000000600052604160045260246000fd5b611439826113f0565b810181811067ffffffffffffffff8211171561145857611457611401565b5b80604052505050565b600061146b6113dc565b90506114778282611430565b919050565b600067ffffffffffffffff82111561149757611496611401565b5b602082029050919050565b600080fd5b6114b0816113a8565b81146114bb57600080fd5b50565b6000813590506114cd816114a7565b92915050565b60006114e66114e18461147c565b611461565b90508060208402830185811115611500576114ff6114a2565b5b835b81811015611529578061151588826114be565b845260208401935050602081019050611502565b5050509392505050565b600082601f830112611548576115476113eb565b5b60026115558482856114d3565b91505092915050565b60008060808385031215611575576115746113e6565b5b600061158385828601611533565b925050604061159485828601611533565b9150509250929050565b600060029050919050565b600081905092915050565b6000819050919050565b6115c7816113a8565b82525050565b60006115d983836115be565b60208301905092915050565b6000602082019050919050565b6115fb8161159e565b61160581846115a9565b9250611610826115b4565b8060005b8381101561164157815161162887826115cd565b9650611633836115e5565b925050600181019050611614565b505050505050565b600060408201905061165e60008301846115f2565b92915050565b60006020828403121561167a576116796113e6565b5b6000611688848285016114be565b91505092915050565b600080606083850312156116a8576116a76113e6565b5b60006116b685828601611533565b92505060406116c7858286016114be565b9150509250929050565b7f4e487b7100000000000000000000000000000000000000000000000000000000600052603260045260246000fd5b7f4e487b7100000000000000000000000000000000000000000000000000000000600052601260045260246000fd5b600061173a826113a8565b9150611745836113a8565b92508261175557611754611700565b5b828206905092915050565b7f4e487b7100000000000000000000000000000000000000000000000000000000600052601160045260246000fd5b600061179a826113a8565b91506117a5836113a8565b92508282039050818111156117bd576117bc611760565b5b92915050565b600082825260208201905092915050565b7f557365206a6163446f75626c652066756e6374696f6e20696e73746561640000600082015250565b600061180a601e836117c3565b9150611815826117d4565b602082019050919050565b60006020820190508181036000830152611839816117fd565b9050919050565b600061184b826113a8565b9150611856836113a8565b92508261186657611865611700565b5b828204905092915050565b7f496e76616c6964206e756d626572000000000000000000000000000000000000600082015250565b60006118a7600e836117c3565b91506118b282611871565b602082019050919050565b600060208201905081810360008301526118d68161189a565b9050919050565b60006118e8826113a8565b91506118f3836113a8565b9250828202611901816113a8565b9150828204841483151761191857611917611760565b5b509291505056fea2646970667358221220b2153529f324e2f8a8a3fcc42dc239e50e6d31595fb0d45b6e10c4722cb09f5e64736f6c63430008130033",
			"opcodes": "PUSH1 0x80 PUSH1 0x40 MSTORE PUSH1 0x40 MLOAD DUP1 PUSH1 0x40 ADD PUSH1 0x40 MSTORE DUP1 PUSH1 0x7 DUP2 MSTORE PUSH1 0x20 ADD PUSH32 0x4D6574656F726100000000000000000000000000000000000000000000000000 DUP2 MSTORE POP PUSH1 0x4 SWAP1 DUP2 PUSH3 0x4A SWAP2 SWAP1 PUSH3 0x3DA JUMP JUMPDEST POP PUSH1 0x40 MLOAD DUP1 PUSH1 0x40 ADD PUSH1 0x40 MSTORE DUP1 PUSH1 0x3 DUP2 MSTORE PUSH1 0x20 ADD PUSH32 0x4D45540000000000000000000000000000000000000000000000000000000000 DUP2 MSTORE POP PUSH1 0x5 SWAP1 DUP2 PUSH3 0x91 SWAP2 SWAP1 PUSH3 0x3DA JUMP JUMPDEST POP PUSH1 0x40 MLOAD PUSH3 0xA0 SWAP1 PUSH3 0x152 JUMP JUMPDEST PUSH1 0x40 MLOAD DUP1 SWAP2 SUB SWAP1 PUSH1 0x0 CREATE DUP1 ISZERO DUP1 ISZERO PUSH3 0xBD JUMPI RETURNDATASIZE PUSH1 0x0 DUP1 RETURNDATACOPY RETURNDATASIZE PUSH1 0x0 REVERT JUMPDEST POP PUSH1 0x6 PUSH1 0x0 PUSH2 0x100 EXP DUP2 SLOAD DUP2 PUSH20 0xFFFFFFFFFFFFFFFFFFFFFFFFFFFFFFFFFFFFFFFF MUL NOT AND SWAP1 DUP4 PUSH20 0xFFFFFFFFFFFFFFFFFFFFFFFFFFFFFFFFFFFFFFFF AND MUL OR SWAP1 SSTORE POP CALLVALUE DUP1 ISZERO PUSH3 0x10B JUMPI PUSH1 0x0 DUP1 REVERT JUMPDEST POP CALLER PUSH1 0x0 DUP1 PUSH2 0x100 EXP DUP2 SLOAD DUP2 PUSH20 0xFFFFFFFFFFFFFFFFFFFFFFFFFFFFFFFFFFFFFFFF MUL NOT AND SWAP1 DUP4 PUSH20 0xFFFFFFFFFFFFFFFFFFFFFFFFFFFFFFFFFFFFFFFF AND MUL OR SWAP1 SSTORE POP PUSH3 0x4C1 JUMP JUMPDEST PUSH2 0x1975 DUP1 PUSH3 0x35FA DUP4 CODECOPY ADD SWAP1 JUMP JUMPDEST PUSH1 0x0 DUP2 MLOAD SWAP1 POP SWAP2 SWAP1 POP JUMP JUMPDEST PUSH32 0x4E487B7100000000000000000000000000000000000000000000000000000000 PUSH1 0x0 MSTORE PUSH1 0x41 PUSH1 0x4 MSTORE PUSH1 0x24 PUSH1 0x0 REVERT JUMPDEST PUSH32 0x4E487B7100000000000000000000000000000000000000000000000000000000 PUSH1 0x0 MSTORE PUSH1 0x22 PUSH1 0x4 MSTORE PUSH1 0x24 PUSH1 0x0 REVERT JUMPDEST PUSH1 0x0 PUSH1 0x2 DUP3 DIV SWAP1 POP PUSH1 0x1 DUP3 AND DUP1 PUSH3 0x1E2 JUMPI PUSH1 0x7F DUP3 AND SWAP2 POP JUMPDEST PUSH1 0x20 DUP3 LT DUP2 SUB PUSH3 0x1F8 JUMPI PUSH3 0x1F7 PUSH3 0x19A JUMP JUMPDEST JUMPDEST POP SWAP2 SWAP1 POP JUMP JUMPDEST PUSH1 0x0 DUP2 SWAP1 POP DUP2 PUSH1 0x0 MSTORE PUSH1 0x20 PUSH1 0x0 KECCAK256 SWAP1 POP SWAP2 SWAP1 POP JUMP JUMPDEST PUSH1 0x0 PUSH1 0x20 PUSH1 0x1F DUP4 ADD DIV SWAP1 POP SWAP2 SWAP1 POP JUMP JUMPDEST PUSH1 0x0 DUP3 DUP3 SHL SWAP1 POP SWAP3 SWAP2 POP POP JUMP JUMPDEST PUSH1 0x0 PUSH1 0x8 DUP4 MUL PUSH3 0x262 PUSH32 0xFFFFFFFFFFFFFFFFFFFFFFFFFFFFFFFFFFFFFFFFFFFFFFFFFFFFFFFFFFFFFFFF DUP3 PUSH3 0x223 JUMP JUMPDEST PUSH3 0x26E DUP7 DUP4 PUSH3 0x223 JUMP JUMPDEST SWAP6 POP DUP1 NOT DUP5 AND SWAP4 POP DUP1 DUP7 AND DUP5 OR SWAP3 POP POP POP SWAP4 SWAP3 POP POP POP JUMP JUMPDEST PUSH1 0x0 DUP2 SWAP1 POP SWAP2 SWAP1 POP JUMP JUMPDEST PUSH1 0x0 DUP2 SWAP1 POP SWAP2 SWAP1 POP JUMP JUMPDEST PUSH1 0x0 PUSH3 0x2BB PUSH3 0x2B5 PUSH3 0x2AF DUP5 PUSH3 0x286 JUMP JUMPDEST PUSH3 0x290 JUMP JUMPDEST PUSH3 0x286 JUMP JUMPDEST SWAP1 POP SWAP2 SWAP1 POP JUMP JUMPDEST PUSH1 0x0 DUP2 SWAP1 POP SWAP2 SWAP1 POP JUMP JUMPDEST PUSH3 0x2D7 DUP4 PUSH3 0x29A JUMP JUMPDEST PUSH3 0x2EF PUSH3 0x2E6 DUP3 PUSH3 0x2C2 JUMP JUMPDEST DUP5 DUP5 SLOAD PUSH3 0x230 JUMP JUMPDEST DUP3 SSTORE POP POP POP POP JUMP JUMPDEST PUSH1 0x0 SWAP1 JUMP JUMPDEST PUSH3 0x306 PUSH3 0x2F7 JUMP JUMPDEST PUSH3 0x313 DUP2 DUP5 DUP5 PUSH3 0x2CC JUMP JUMPDEST POP POP POP JUMP JUMPDEST JUMPDEST DUP2 DUP2 LT ISZERO PUSH3 0x33B JUMPI PUSH3 0x32F PUSH1 0x0 DUP3 PUSH3 0x2FC JUMP JUMPDEST PUSH1 0x1 DUP2 ADD SWAP1 POP PUSH3 0x319 JUMP JUMPDEST POP POP JUMP JUMPDEST PUSH1 0x1F DUP3 GT ISZERO PUSH3 0x38A JUMPI PUSH3 0x354 DUP2 PUSH3 0x1FE JUMP JUMPDEST PUSH3 0x35F DUP5 PUSH3 0x213 JUMP JUMPDEST DUP2 ADD PUSH1 0x20 DUP6 LT ISZERO PUSH3 0x36F JUMPI DUP2 SWAP1 POP JUMPDEST PUSH3 0x387 PUSH3 0x37E DUP6 PUSH3 0x213 JUMP JUMPDEST DUP4 ADD DUP3 PUSH3 0x318 JUMP JUMPDEST POP POP JUMPDEST POP POP POP JUMP JUMPDEST PUSH1 0x0 DUP3 DUP3 SHR SWAP1 POP SWAP3 SWAP2 POP POP JUMP JUMPDEST PUSH1 0x0 PUSH3 0x3AF PUSH1 0x0 NOT DUP5 PUSH1 0x8 MUL PUSH3 0x38F JUMP JUMPDEST NOT DUP1 DUP4 AND SWAP2 POP POP SWAP3 SWAP2 POP POP JUMP JUMPDEST PUSH1 0x0 PUSH3 0x3CA DUP4 DUP4 PUSH3 0x39C JUMP JUMPDEST SWAP2 POP DUP3 PUSH1 0x2 MUL DUP3 OR SWAP1 POP SWAP3 SWAP2 POP POP JUMP JUMPDEST PUSH3 0x3E5 DUP3 PUSH3 0x160 JUMP JUMPDEST PUSH8 0xFFFFFFFFFFFFFFFF DUP2 GT ISZERO PUSH3 0x401 JUMPI PUSH3 0x400 PUSH3 0x16B JUMP JUMPDEST JUMPDEST PUSH3 0x40D DUP3 SLOAD PUSH3 0x1C9 JUMP JUMPDEST PUSH3 0x41A DUP3 DUP3 DUP6 PUSH3 0x33F JUMP JUMPDEST PUSH1 0x0 PUSH1 0x20 SWAP1 POP PUSH1 0x1F DUP4 GT PUSH1 0x1 DUP2 EQ PUSH3 0x452 JUMPI PUSH1 0x0 DUP5 ISZERO PUSH3 0x43D JUMPI DUP3 DUP8 ADD MLOAD SWAP1 POP JUMPDEST PUSH3 0x449 DUP6 DUP3 PUSH3 0x3BC JUMP JUMPDEST DUP7 SSTORE POP PUSH3 0x4B9 JUMP JUMPDEST PUSH1 0x1F NOT DUP5 AND PUSH3 0x462 DUP7 PUSH3 0x1FE JUMP JUMPDEST PUSH1 0x0 JUMPDEST DUP3 DUP2 LT ISZERO PUSH3 0x48C JUMPI DUP5 DUP10 ADD MLOAD DUP3 SSTORE PUSH1 0x1 DUP3 ADD SWAP2 POP PUSH1 0x20 DUP6 ADD SWAP5 POP PUSH1 0x20 DUP2 ADD SWAP1 POP PUSH3 0x465 JUMP JUMPDEST DUP7 DUP4 LT ISZERO PUSH3 0x4AC JUMPI DUP5 DUP10 ADD MLOAD PUSH3 0x4A8 PUSH1 0x1F DUP10 AND DUP3 PUSH3 0x39C JUMP JUMPDEST DUP4 SSTORE POP JUMPDEST PUSH1 0x1 PUSH1 0x2 DUP9 MUL ADD DUP9 SSTORE POP POP POP JUMPDEST POP POP POP POP POP POP JUMP JUMPDEST PUSH2 0x3129 DUP1 PUSH3 0x4D1 PUSH1 0x0 CODECOPY PUSH1 0x0 RETURN INVALID PUSH1 0x80 PUSH1 0x40 MSTORE CALLVALUE DUP1 ISZERO PUSH2 0x10 JUMPI PUSH1 0x0 DUP1 REVERT JUMPDEST POP PUSH1 0x4 CALLDATASIZE LT PUSH2 0x9E JUMPI PUSH1 0x0 CALLDATALOAD PUSH1 0xE0 SHR DUP1 PUSH4 0x8784B518 GT PUSH2 0x66 JUMPI DUP1 PUSH4 0x8784B518 EQ PUSH2 0x181 JUMPI DUP1 PUSH4 0xA8660C1F EQ PUSH2 0x1B1 JUMPI DUP1 PUSH4 0xAC63A7ED EQ PUSH2 0x1E1 JUMPI DUP1 PUSH4 0xC01DA18B EQ PUSH2 0x1FF JUMPI DUP1 PUSH4 0xF80E3E00 EQ PUSH2 0x21D JUMPI PUSH2 0x9E JUMP JUMPDEST DUP1 PUSH4 0x7F51A9A EQ PUSH2 0xA3 JUMPI DUP1 PUSH4 0xD47535F EQ PUSH2 0xD3 JUMPI DUP1 PUSH4 0x5A9B0B89 EQ PUSH2 0x103 JUMPI DUP1 PUSH4 0x61DF00B1 EQ PUSH2 0x121 JUMPI DUP1 PUSH4 0x6CC42756 EQ PUSH2 0x151 JUMPI JUMPDEST PUSH1 0x0 DUP1 REVERT JUMPDEST PUSH2 0xBD PUSH1 0x4 DUP1 CALLDATASIZE SUB DUP2 ADD SWAP1 PUSH2 0xB8 SWAP2 SWAP1 PUSH2 0x1E5F JUMP JUMPDEST PUSH2 0x24D JUMP JUMPDEST PUSH1 0x40 MLOAD PUSH2 0xCA SWAP2 SWAP1 PUSH2 0x1F66 JUMP JUMPDEST PUSH1 0x40 MLOAD DUP1 SWAP2 SUB SWAP1 RETURN JUMPDEST PUSH2 0xED PUSH1 0x4 DUP1 CALLDATASIZE SUB DUP2 ADD SWAP1 PUSH2 0xE8 SWAP2 SWAP1 PUSH2 0x1FEA JUMP JUMPDEST PUSH2 0x257 JUMP JUMPDEST PUSH1 0x40 MLOAD PUSH2 0xFA SWAP2 SWAP1 PUSH2 0x20CC JUMP JUMPDEST PUSH1 0x40 MLOAD DUP1 SWAP2 SUB SWAP1 RETURN JUMPDEST PUSH2 0x10B PUSH2 0x267 JUMP JUMPDEST PUSH1 0x40 MLOAD PUSH2 0x118 SWAP2 SWAP1 PUSH2 0x216D JUMP JUMPDEST PUSH1 0x40 MLOAD DUP1 SWAP2 SUB SWAP1 RETURN JUMPDEST PUSH2 0x13B PUSH1 0x4 DUP1 CALLDATASIZE SUB DUP2 ADD SWAP1 PUSH2 0x136 SWAP2 SWAP1 PUSH2 0x24CC JUMP JUMPDEST PUSH2 0x2A4 JUMP JUMPDEST PUSH1 0x40 MLOAD PUSH2 0x148 SWAP2 SWAP1 PUSH2 0x2790 JUMP JUMPDEST PUSH1 0x40 MLOAD DUP1 SWAP2 SUB SWAP1 RETURN JUMPDEST PUSH2 0x16B PUSH1 0x4 DUP1 CALLDATASIZE SUB DUP2 ADD SWAP1 PUSH2 0x166 SWAP2 SWAP1 PUSH2 0x27E6 JUMP JUMPDEST PUSH2 0x2B4 JUMP JUMPDEST PUSH1 0x40 MLOAD PUSH2 0x178 SWAP2 SWAP1 PUSH2 0x28BB JUMP JUMPDEST PUSH1 0x40 MLOAD DUP1 SWAP2 SUB SWAP1 RETURN JUMPDEST PUSH2 0x19B PUSH1 0x4 DUP1 CALLDATASIZE SUB DUP2 ADD SWAP1 PUSH2 0x196 SWAP2 SWAP1 PUSH2 0x28D6 JUMP JUMPDEST PUSH2 0x4E1 JUMP JUMPDEST PUSH1 0x40 MLOAD PUSH2 0x1A8 SWAP2 SWAP1 PUSH2 0x28BB JUMP JUMPDEST PUSH1 0x40 MLOAD DUP1 SWAP2 SUB SWAP1 RETURN JUMPDEST PUSH2 0x1CB PUSH1 0x4 DUP1 CALLDATASIZE SUB DUP2 ADD SWAP1 PUSH2 0x1C6 SWAP2 SWAP1 PUSH2 0x2903 JUMP JUMPDEST PUSH2 0x5F9 JUMP JUMPDEST PUSH1 0x40 MLOAD PUSH2 0x1D8 SWAP2 SWAP1 PUSH2 0x28BB JUMP JUMPDEST PUSH1 0x40 MLOAD DUP1 SWAP2 SUB SWAP1 RETURN JUMPDEST PUSH2 0x1E9 PUSH2 0x15D2 JUMP JUMPDEST PUSH1 0x40 MLOAD PUSH2 0x1F6 SWAP2 SWAP1 PUSH2 0x29DB JUMP JUMPDEST PUSH1 0x40 MLOAD DUP1 SWAP2 SUB SWAP1 RETURN JUMPDEST PUSH2 0x207 PUSH2 0x1662 JUMP JUMPDEST PUSH1 0x40 MLOAD PUSH2 0x214 SWAP2 SWAP1 PUSH2 0x2AFD JUMP JUMPDEST PUSH1 0x40 MLOAD DUP1 SWAP2 SUB SWAP1 RETURN JUMPDEST PUSH2 0x237 PUSH1 0x4 DUP1 CALLDATASIZE SUB DUP2 ADD SWAP1 PUSH2 0x232 SWAP2 SWAP1 PUSH2 0x2B1F JUMP JUMPDEST PUSH2 0x1730 JUMP JUMPDEST PUSH1 0x40 MLOAD PUSH2 0x244 SWAP2 SWAP1 PUSH2 0x2B5B JUMP JUMPDEST PUSH1 0x40 MLOAD DUP1 SWAP2 SUB SWAP1 RETURN JUMPDEST PUSH1 0x60 DUP2 SWAP1 POP SWAP2 SWAP1 POP JUMP JUMPDEST PUSH2 0x25F PUSH2 0x1AF8 JUMP JUMPDEST DUP2 SWAP1 POP SWAP2 SWAP1 POP JUMP JUMPDEST PUSH1 0x60 PUSH1 0x40 MLOAD DUP1 PUSH1 0x40 ADD PUSH1 0x40 MSTORE DUP1 PUSH1 0xB DUP2 MSTORE PUSH1 0x20 ADD PUSH32 0x48656C6C6F20576F726C64000000000000000000000000000000000000000000 DUP2 MSTORE POP SWAP1 POP SWAP1 JUMP JUMPDEST PUSH2 0x2AC PUSH2 0x1B0B JUMP JUMPDEST DUP2 SWAP1 POP SWAP2 SWAP1 POP JUMP JUMPDEST PUSH1 0x0 PUSH2 0x2BE PUSH2 0x1B0B JUMP JUMPDEST DUP9 DUP2 PUSH1 0x0 ADD DUP2 DUP2 MSTORE POP POP DUP8 DUP2 PUSH1 0x20 ADD DUP2 SWAP1 MSTORE POP DUP7 DUP2 PUSH1 0x40 ADD DUP2 SWAP1 MSTORE POP DUP6 DUP2 PUSH1 0x60 ADD DUP2 SWAP1 MSTORE POP ADDRESS PUSH20 0xFFFFFFFFFFFFFFFFFFFFFFFFFFFFFFFFFFFFFFFF AND PUSH4 0x8784B518 DUP10 PUSH1 0x40 MLOAD DUP3 PUSH4 0xFFFFFFFF AND PUSH1 0xE0 SHL DUP2 MSTORE PUSH1 0x4 ADD PUSH2 0x31C SWAP2 SWAP1 PUSH2 0x2BD8 JUMP JUMPDEST PUSH1 0x20 PUSH1 0x40 MLOAD DUP1 DUP4 SUB DUP2 DUP7 GAS STATICCALL ISZERO DUP1 ISZERO PUSH2 0x339 JUMPI RETURNDATASIZE PUSH1 0x0 DUP1 RETURNDATACOPY RETURNDATASIZE PUSH1 0x0 REVERT JUMPDEST POP POP POP POP PUSH1 0x40 MLOAD RETURNDATASIZE PUSH1 0x1F NOT PUSH1 0x1F DUP3 ADD AND DUP3 ADD DUP1 PUSH1 0x40 MSTORE POP DUP2 ADD SWAP1 PUSH2 0x35D SWAP2 SWAP1 PUSH2 0x2C1F JUMP JUMPDEST PUSH2 0x39C JUMPI PUSH1 0x40 MLOAD PUSH32 0x8C379A000000000000000000000000000000000000000000000000000000000 DUP2 MSTORE PUSH1 0x4 ADD PUSH2 0x393 SWAP1 PUSH2 0x2CBE JUMP JUMPDEST PUSH1 0x40 MLOAD DUP1 SWAP2 SUB SWAP1 REVERT JUMPDEST ADDRESS PUSH20 0xFFFFFFFFFFFFFFFFFFFFFFFFFFFFFFFFFFFFFFFF AND PUSH4 0xA8660C1F DUP12 DUP4 PUSH1 0x40 MLOAD DUP4 PUSH4 0xFFFFFFFF AND PUSH1 0xE0 SHL DUP2 MSTORE PUSH1 0x4 ADD PUSH2 0x3D7 SWAP3 SWAP2 SWAP1 PUSH2 0x2CDE JUMP JUMPDEST PUSH1 0x20 PUSH1 0x40 MLOAD DUP1 DUP4 SUB DUP2 PUSH1 0x0 DUP8 GAS CALL ISZERO DUP1 ISZERO PUSH2 0x3F6 JUMPI RETURNDATASIZE PUSH1 0x0 DUP1 RETURNDATACOPY RETURNDATASIZE PUSH1 0x0 REVERT JUMPDEST POP POP POP POP PUSH1 0x40 MLOAD RETURNDATASIZE PUSH1 0x1F NOT PUSH1 0x1F DUP3 ADD AND DUP3 ADD DUP1 PUSH1 0x40 MSTORE POP DUP2 ADD SWAP1 PUSH2 0x41A SWAP2 SWAP1 PUSH2 0x2C1F JUMP JUMPDEST PUSH2 0x459 JUMPI PUSH1 0x40 MLOAD PUSH32 0x8C379A000000000000000000000000000000000000000000000000000000000 DUP2 MSTORE PUSH1 0x4 ADD PUSH2 0x450 SWAP1 PUSH2 0x2DA0 JUMP JUMPDEST PUSH1 0x40 MLOAD DUP1 SWAP2 SUB SWAP1 REVERT JUMPDEST PUSH1 0x3 DUP2 PUSH1 0x20 ADD MLOAD SWAP1 DUP1 PUSH1 0x1 DUP2 SLOAD ADD DUP1 DUP3 SSTORE DUP1 SWAP2 POP POP PUSH1 0x1 SWAP1 SUB SWAP1 PUSH1 0x0 MSTORE PUSH1 0x20 PUSH1 0x0 KECCAK256 SWAP1 PUSH1 0x2 MUL ADD PUSH1 0x0 SWAP1 SWAP2 SWAP1 SWAP2 SWAP1 SWAP2 POP SWAP1 PUSH1 0x2 PUSH2 0x497 SWAP3 SWAP2 SWAP1 PUSH2 0x1B45 JUMP JUMPDEST POP PUSH32 0x1440C4DD67B4344EA1905EC0318995133B550F168B4EE959A0DA6B503D7D2414 PUSH1 0x7B PUSH1 0x40 MLOAD PUSH2 0x4C8 SWAP2 SWAP1 PUSH2 0x2E05 JUMP JUMPDEST PUSH1 0x40 MLOAD DUP1 SWAP2 SUB SWAP1 LOG1 PUSH1 0x1 SWAP2 POP POP SWAP9 SWAP8 POP POP POP POP POP POP POP POP JUMP JUMPDEST PUSH1 0x0 PUSH2 0x4EB PUSH2 0x1B85 JUMP JUMPDEST PUSH1 0x0 JUMPDEST PUSH1 0x3 DUP1 SLOAD SWAP1 POP DUP2 LT ISZERO PUSH2 0x5ED JUMPI PUSH1 0x3 PUSH1 0x0 DUP2 SLOAD DUP2 LT PUSH2 0x510 JUMPI PUSH2 0x50F PUSH2 0x2E20 JUMP JUMPDEST JUMPDEST SWAP1 PUSH1 0x0 MSTORE PUSH1 0x20 PUSH1 0x0 KECCAK256 SWAP1 PUSH1 0x2 MUL ADD PUSH1 0x2 DUP1 PUSH1 0x20 MUL PUSH1 0x40 MLOAD SWAP1 DUP2 ADD PUSH1 0x40 MSTORE DUP1 SWAP3 SWAP2 SWAP1 DUP3 PUSH1 0x2 DUP1 ISZERO PUSH2 0x555 JUMPI PUSH1 0x20 MUL DUP3 ADD SWAP2 JUMPDEST DUP2 SLOAD DUP2 MSTORE PUSH1 0x20 ADD SWAP1 PUSH1 0x1 ADD SWAP1 DUP1 DUP4 GT PUSH2 0x541 JUMPI JUMPDEST POP POP POP POP POP SWAP2 POP DUP2 PUSH1 0x0 PUSH1 0x2 DUP2 LT PUSH2 0x570 JUMPI PUSH2 0x56F PUSH2 0x2E20 JUMP JUMPDEST JUMPDEST PUSH1 0x20 MUL ADD MLOAD DUP5 PUSH1 0x0 PUSH1 0x2 DUP2 LT PUSH2 0x589 JUMPI PUSH2 0x588 PUSH2 0x2E20 JUMP JUMPDEST JUMPDEST PUSH1 0x20 MUL ADD MLOAD EQ DUP1 ISZERO PUSH2 0x5CA JUMPI POP DUP2 PUSH1 0x1 PUSH1 0x2 DUP2 LT PUSH2 0x5AA JUMPI PUSH2 0x5A9 PUSH2 0x2E20 JUMP JUMPDEST JUMPDEST PUSH1 0x20 MUL ADD MLOAD DUP5 PUSH1 0x1 PUSH1 0x2 DUP2 LT PUSH2 0x5C3 JUMPI PUSH2 0x5C2 PUSH2 0x2E20 JUMP JUMPDEST JUMPDEST PUSH1 0x20 MUL ADD MLOAD EQ JUMPDEST ISZERO PUSH2 0x5DA JUMPI PUSH1 0x0 SWAP3 POP POP POP PUSH2 0x5F4 JUMP JUMPDEST DUP1 DUP1 PUSH2 0x5E5 SWAP1 PUSH2 0x2E7E JUMP JUMPDEST SWAP2 POP POP PUSH2 0x4EE JUMP JUMPDEST POP PUSH1 0x1 SWAP2 POP POP JUMPDEST SWAP2 SWAP1 POP JUMP JUMPDEST PUSH1 0x0 PUSH2 0x603 PUSH2 0x1BA7 JUMP JUMPDEST PUSH2 0x60B PUSH2 0x1C01 JUMP JUMPDEST PUSH1 0x0 DUP5 PUSH1 0x20 ADD MLOAD SWAP1 POP PUSH1 0x0 DUP6 PUSH1 0x60 ADD MLOAD SWAP1 POP DUP6 PUSH1 0x0 ADD MLOAD DUP4 PUSH1 0x0 PUSH1 0x3 DUP2 LT PUSH2 0x636 JUMPI PUSH2 0x635 PUSH2 0x2E20 JUMP JUMPDEST JUMPDEST PUSH1 0x20 MUL ADD DUP2 DUP2 MSTORE POP POP PUSH1 0x0 DUP1 DUP1 PUSH2 0x64B PUSH2 0x1B85 JUMP JUMPDEST PUSH2 0x653 PUSH2 0x1B85 JUMP JUMPDEST PUSH1 0x60 PUSH1 0x0 JUMPDEST PUSH1 0x2 DUP14 PUSH1 0x40 ADD MLOAD POP PUSH1 0x4 PUSH2 0x66C SWAP2 SWAP1 PUSH2 0x2EC6 JUMP JUMPDEST DUP2 LT ISZERO PUSH2 0xE23 JUMPI PUSH1 0x40 MLOAD DUP1 PUSH1 0x20 ADD PUSH1 0x40 MSTORE DUP1 PUSH1 0x0 DUP2 MSTORE POP SWAP2 POP DUP13 PUSH1 0x40 ADD MLOAD DUP2 PUSH1 0x4 DUP2 LT PUSH2 0x69C JUMPI PUSH2 0x69B PUSH2 0x2E20 JUMP JUMPDEST JUMPDEST PUSH1 0x20 MUL ADD MLOAD SWAP6 POP DUP13 PUSH1 0x40 ADD MLOAD PUSH1 0x1 DUP3 PUSH2 0x6B5 SWAP2 SWAP1 PUSH2 0x2EFA JUMP JUMPDEST PUSH1 0x4 DUP2 LT PUSH2 0x6C6 JUMPI PUSH2 0x6C5 PUSH2 0x2E20 JUMP JUMPDEST JUMPDEST PUSH1 0x20 MUL ADD MLOAD SWAP5 POP DUP8 DUP8 PUSH1 0x2 DUP2 LT PUSH2 0x6E0 JUMPI PUSH2 0x6DF PUSH2 0x2E20 JUMP JUMPDEST JUMPDEST PUSH1 0x20 MUL ADD MLOAD PUSH1 0x0 PUSH1 0x2 DUP2 LT PUSH2 0x6F8 JUMPI PUSH2 0x6F7 PUSH2 0x2E20 JUMP JUMPDEST JUMPDEST PUSH1 0x20 MUL ADD MLOAD SWAP4 POP DUP8 DUP8 PUSH1 0x2 DUP2 LT PUSH2 0x712 JUMPI PUSH2 0x711 PUSH2 0x2E20 JUMP JUMPDEST JUMPDEST PUSH1 0x20 MUL ADD MLOAD PUSH1 0x1 PUSH1 0x2 DUP2 LT PUSH2 0x72A JUMPI PUSH2 0x729 PUSH2 0x2E20 JUMP JUMPDEST JUMPDEST PUSH1 0x20 MUL ADD MLOAD SWAP3 POP PUSH1 0x6 PUSH1 0x0 SWAP1 SLOAD SWAP1 PUSH2 0x100 EXP SWAP1 DIV PUSH20 0xFFFFFFFFFFFFFFFFFFFFFFFFFFFFFFFFFFFFFFFF AND PUSH20 0xFFFFFFFFFFFFFFFFFFFFFFFFFFFFFFFFFFFFFFFF AND PUSH4 0xBB734C4E DUP8 PUSH1 0x40 MLOAD DUP3 PUSH4 0xFFFFFFFF AND PUSH1 0xE0 SHL DUP2 MSTORE PUSH1 0x4 ADD PUSH2 0x78C SWAP2 SWAP1 PUSH2 0x2B5B JUMP JUMPDEST PUSH1 0x40 DUP1 MLOAD DUP1 DUP4 SUB DUP2 DUP7 GAS STATICCALL ISZERO DUP1 ISZERO PUSH2 0x7A8 JUMPI RETURNDATASIZE PUSH1 0x0 DUP1 RETURNDATACOPY RETURNDATASIZE PUSH1 0x0 REVERT JUMPDEST POP POP POP POP PUSH1 0x40 MLOAD RETURNDATASIZE PUSH1 0x1F NOT PUSH1 0x1F DUP3 ADD AND DUP3 ADD DUP1 PUSH1 0x40 MSTORE POP DUP2 ADD SWAP1 PUSH2 0x7CC SWAP2 SWAP1 PUSH2 0x2FCE JUMP JUMPDEST DUP12 PUSH1 0x0 ADD DUP2 SWAP1 MSTORE POP PUSH1 0x6 PUSH1 0x0 SWAP1 SLOAD SWAP1 PUSH2 0x100 EXP SWAP1 DIV PUSH20 0xFFFFFFFFFFFFFFFFFFFFFFFFFFFFFFFFFFFFFFFF AND PUSH20 0xFFFFFFFFFFFFFFFFFFFFFFFFFFFFFFFFFFFFFFFF AND PUSH4 0xACA8F56E DUP6 DUP13 DUP11 PUSH1 0x3 DUP2 LT PUSH2 0x826 JUMPI PUSH2 0x825 PUSH2 0x2E20 JUMP JUMPDEST JUMPDEST PUSH1 0x20 MUL ADD MLOAD PUSH1 0x40 MLOAD DUP4 PUSH4 0xFFFFFFFF AND PUSH1 0xE0 SHL DUP2 MSTORE PUSH1 0x4 ADD PUSH2 0x848 SWAP3 SWAP2 SWAP1 PUSH2 0x2FFB JUMP JUMPDEST PUSH1 0x40 DUP1 MLOAD DUP1 DUP4 SUB DUP2 DUP7 GAS STATICCALL ISZERO DUP1 ISZERO PUSH2 0x864 JUMPI RETURNDATASIZE PUSH1 0x0 DUP1 RETURNDATACOPY RETURNDATASIZE PUSH1 0x0 REVERT JUMPDEST POP POP POP POP PUSH1 0x40 MLOAD RETURNDATASIZE PUSH1 0x1F NOT PUSH1 0x1F DUP3 ADD AND DUP3 ADD DUP1 PUSH1 0x40 MSTORE POP DUP2 ADD SWAP1 PUSH2 0x888 SWAP2 SWAP1 PUSH2 0x2FCE JUMP JUMPDEST DUP12 PUSH1 0x20 ADD DUP2 SWAP1 MSTORE POP PUSH1 0x6 PUSH1 0x0 SWAP1 SLOAD SWAP1 PUSH2 0x100 EXP SWAP1 DIV PUSH20 0xFFFFFFFFFFFFFFFFFFFFFFFFFFFFFFFFFFFFFFFF AND PUSH20 0xFFFFFFFFFFFFFFFFFFFFFFFFFFFFFFFFFFFFFFFF AND PUSH4 0xACA8F56E PUSH2 0x8D7 DUP7 PUSH2 0x173A JUMP JUMPDEST DUP9 PUSH1 0x40 MLOAD DUP4 PUSH4 0xFFFFFFFF AND PUSH1 0xE0 SHL DUP2 MSTORE PUSH1 0x4 ADD PUSH2 0x8F5 SWAP3 SWAP2 SWAP1 PUSH2 0x2FFB JUMP JUMPDEST PUSH1 0x40 DUP1 MLOAD DUP1 DUP4 SUB DUP2 DUP7 GAS STATICCALL ISZERO DUP1 ISZERO PUSH2 0x911 JUMPI RETURNDATASIZE PUSH1 0x0 DUP1 RETURNDATACOPY RETURNDATASIZE PUSH1 0x0 REVERT JUMPDEST POP POP POP POP PUSH1 0x40 MLOAD RETURNDATASIZE PUSH1 0x1F NOT PUSH1 0x1F DUP3 ADD AND DUP3 ADD DUP1 PUSH1 0x40 MSTORE POP DUP2 ADD SWAP1 PUSH2 0x935 SWAP2 SWAP1 PUSH2 0x2FCE JUMP JUMPDEST DUP12 PUSH1 0x40 ADD DUP2 SWAP1 MSTORE POP PUSH1 0x6 PUSH1 0x0 SWAP1 SLOAD SWAP1 PUSH2 0x100 EXP SWAP1 DIV PUSH20 0xFFFFFFFFFFFFFFFFFFFFFFFFFFFFFFFFFFFFFFFF AND PUSH20 0xFFFFFFFFFFFFFFFFFFFFFFFFFFFFFFFFFFFFFFFF AND PUSH4 0xACA8F56E DUP11 DUP13 DUP11 PUSH1 0x3 DUP2 LT PUSH2 0x98F JUMPI PUSH2 0x98E PUSH2 0x2E20 JUMP JUMPDEST JUMPDEST PUSH1 0x20 MUL ADD MLOAD PUSH1 0x40 MLOAD DUP4 PUSH4 0xFFFFFFFF AND PUSH1 0xE0 SHL DUP2 MSTORE PUSH1 0x4 ADD PUSH2 0x9B1 SWAP3 SWAP2 SWAP1 PUSH2 0x2FFB JUMP JUMPDEST PUSH1 0x40 DUP1 MLOAD DUP1 DUP4 SUB DUP2 DUP7 GAS STATICCALL ISZERO DUP1 ISZERO PUSH2 0x9CD JUMPI RETURNDATASIZE PUSH1 0x0 DUP1 RETURNDATACOPY RETURNDATASIZE PUSH1 0x0 REVERT JUMPDEST POP POP POP POP PUSH1 0x40 MLOAD RETURNDATASIZE PUSH1 0x1F NOT PUSH1 0x1F DUP3 ADD AND DUP3 ADD DUP1 PUSH1 0x40 MSTORE POP DUP2 ADD SWAP1 PUSH2 0x9F1 SWAP2 SWAP1 PUSH2 0x2FCE JUMP JUMPDEST DUP12 PUSH1 0x60 ADD DUP2 SWAP1 MSTORE POP PUSH1 0x6 PUSH1 0x0 SWAP1 SLOAD SWAP1 PUSH2 0x100 EXP SWAP1 DIV PUSH20 0xFFFFFFFFFFFFFFFFFFFFFFFFFFFFFFFFFFFFFFFF AND PUSH20 0xFFFFFFFFFFFFFFFFFFFFFFFFFFFFFFFFFFFFFFFF AND PUSH4 0xBB734C4E DUP7 PUSH1 0x40 MLOAD DUP3 PUSH4 0xFFFFFFFF AND PUSH1 0xE0 SHL DUP2 MSTORE PUSH1 0x4 ADD PUSH2 0xA54 SWAP2 SWAP1 PUSH2 0x2B5B JUMP JUMPDEST PUSH1 0x40 DUP1 MLOAD DUP1 DUP4 SUB DUP2 DUP7 GAS STATICCALL ISZERO DUP1 ISZERO PUSH2 0xA70 JUMPI RETURNDATASIZE PUSH1 0x0 DUP1 RETURNDATACOPY RETURNDATASIZE PUSH1 0x0 REVERT JUMPDEST POP POP POP POP PUSH1 0x40 MLOAD RETURNDATASIZE PUSH1 0x1F NOT PUSH1 0x1F DUP3 ADD AND DUP3 ADD DUP1 PUSH1 0x40 MSTORE POP DUP2 ADD SWAP1 PUSH2 0xA94 SWAP2 SWAP1 PUSH2 0x2FCE JUMP JUMPDEST DUP12 PUSH1 0x80 ADD DUP2 SWAP1 MSTORE POP PUSH1 0x6 PUSH1 0x0 SWAP1 SLOAD SWAP1 PUSH2 0x100 EXP SWAP1 DIV PUSH20 0xFFFFFFFFFFFFFFFFFFFFFFFFFFFFFFFFFFFFFFFF AND PUSH20 0xFFFFFFFFFFFFFFFFFFFFFFFFFFFFFFFFFFFFFFFF AND PUSH4 0xACA8F56E DUP5 DUP13 DUP11 PUSH1 0x3 DUP2 LT PUSH2 0xAEE JUMPI PUSH2 0xAED PUSH2 0x2E20 JUMP JUMPDEST JUMPDEST PUSH1 0x20 MUL ADD MLOAD PUSH1 0x40 MLOAD DUP4 PUSH4 0xFFFFFFFF AND PUSH1 0xE0 SHL DUP2 MSTORE PUSH1 0x4 ADD PUSH2 0xB10 SWAP3 SWAP2 SWAP1 PUSH2 0x2FFB JUMP JUMPDEST PUSH1 0x40 DUP1 MLOAD DUP1 DUP4 SUB DUP2 DUP7 GAS STATICCALL ISZERO DUP1 ISZERO PUSH2 0xB2C JUMPI RETURNDATASIZE PUSH1 0x0 DUP1 RETURNDATACOPY RETURNDATASIZE PUSH1 0x0 REVERT JUMPDEST POP POP POP POP PUSH1 0x40 MLOAD RETURNDATASIZE PUSH1 0x1F NOT PUSH1 0x1F DUP3 ADD AND DUP3 ADD DUP1 PUSH1 0x40 MSTORE POP DUP2 ADD SWAP1 PUSH2 0xB50 SWAP2 SWAP1 PUSH2 0x2FCE JUMP JUMPDEST DUP12 PUSH1 0xA0 ADD DUP2 SWAP1 MSTORE POP PUSH2 0xB61 DUP15 PUSH2 0x1760 JUMP JUMPDEST PUSH2 0xC0E PUSH1 0x6 PUSH1 0x0 SWAP1 SLOAD SWAP1 PUSH2 0x100 EXP SWAP1 DIV PUSH20 0xFFFFFFFFFFFFFFFFFFFFFFFFFFFFFFFFFFFFFFFF AND PUSH20 0xFFFFFFFFFFFFFFFFFFFFFFFFFFFFFFFFFFFFFFFF AND PUSH4 0x1177A4A4 DUP15 PUSH1 0x0 ADD MLOAD DUP16 PUSH1 0x20 ADD MLOAD PUSH1 0x40 MLOAD DUP4 PUSH4 0xFFFFFFFF AND PUSH1 0xE0 SHL DUP2 MSTORE PUSH1 0x4 ADD PUSH2 0xBC9 SWAP3 SWAP2 SWAP1 PUSH2 0x3024 JUMP JUMPDEST PUSH1 0x40 DUP1 MLOAD DUP1 DUP4 SUB DUP2 DUP7 GAS STATICCALL ISZERO DUP1 ISZERO PUSH2 0xBE5 JUMPI RETURNDATASIZE PUSH1 0x0 DUP1 RETURNDATACOPY RETURNDATASIZE PUSH1 0x0 REVERT JUMPDEST POP POP POP POP PUSH1 0x40 MLOAD RETURNDATASIZE PUSH1 0x1F NOT PUSH1 0x1F DUP3 ADD AND DUP3 ADD DUP1 PUSH1 0x40 MSTORE POP DUP2 ADD SWAP1 PUSH2 0xC09 SWAP2 SWAP1 PUSH2 0x2FCE JUMP JUMPDEST PUSH2 0x182E JUMP JUMPDEST PUSH1 0x40 MLOAD PUSH1 0x20 ADD PUSH2 0xC1F SWAP3 SWAP2 SWAP1 PUSH2 0x3089 JUMP JUMPDEST PUSH1 0x40 MLOAD PUSH1 0x20 DUP2 DUP4 SUB SUB DUP2 MSTORE SWAP1 PUSH1 0x40 MSTORE SWAP2 POP DUP2 PUSH2 0xCDE PUSH1 0x6 PUSH1 0x0 SWAP1 SLOAD SWAP1 PUSH2 0x100 EXP SWAP1 DIV PUSH20 0xFFFFFFFFFFFFFFFFFFFFFFFFFFFFFFFFFFFFFFFF AND PUSH20 0xFFFFFFFFFFFFFFFFFFFFFFFFFFFFFFFFFFFFFFFF AND PUSH4 0x1177A4A4 DUP15 PUSH1 0x40 ADD MLOAD DUP16 PUSH1 0x60 ADD MLOAD PUSH1 0x40 MLOAD DUP4 PUSH4 0xFFFFFFFF AND PUSH1 0xE0 SHL DUP2 MSTORE PUSH1 0x4 ADD PUSH2 0xC99 SWAP3 SWAP2 SWAP1 PUSH2 0x3024 JUMP JUMPDEST PUSH1 0x40 DUP1 MLOAD DUP1 DUP4 SUB DUP2 DUP7 GAS STATICCALL ISZERO DUP1 ISZERO PUSH2 0xCB5 JUMPI RETURNDATASIZE PUSH1 0x0 DUP1 RETURNDATACOPY RETURNDATASIZE PUSH1 0x0 REVERT JUMPDEST POP POP POP POP PUSH1 0x40 MLOAD RETURNDATASIZE PUSH1 0x1F NOT PUSH1 0x1F DUP3 ADD AND DUP3 ADD DUP1 PUSH1 0x40 MSTORE POP DUP2 ADD SWAP1 PUSH2 0xCD9 SWAP2 SWAP1 PUSH2 0x2FCE JUMP JUMPDEST PUSH2 0x182E JUMP JUMPDEST PUSH1 0x40 MLOAD PUSH1 0x20 ADD PUSH2 0xCEF SWAP3 SWAP2 SWAP1 PUSH2 0x3089 JUMP JUMPDEST PUSH1 0x40 MLOAD PUSH1 0x20 DUP2 DUP4 SUB SUB DUP2 MSTORE SWAP1 PUSH1 0x40 MSTORE SWAP2 POP DUP2 PUSH2 0xDAE PUSH1 0x6 PUSH1 0x0 SWAP1 SLOAD SWAP1 PUSH2 0x100 EXP SWAP1 DIV PUSH20 0xFFFFFFFFFFFFFFFFFFFFFFFFFFFFFFFFFFFFFFFF AND PUSH20 0xFFFFFFFFFFFFFFFFFFFFFFFFFFFFFFFFFFFFFFFF AND PUSH4 0x1177A4A4 DUP15 PUSH1 0x80 ADD MLOAD DUP16 PUSH1 0xA0 ADD MLOAD PUSH1 0x40 MLOAD DUP4 PUSH4 0xFFFFFFFF AND PUSH1 0xE0 SHL DUP2 MSTORE PUSH1 0x4 ADD PUSH2 0xD69 SWAP3 SWAP2 SWAP1 PUSH2 0x3024 JUMP JUMPDEST PUSH1 0x40 DUP1 MLOAD DUP1 DUP4 SUB DUP2 DUP7 GAS STATICCALL ISZERO DUP1 ISZERO PUSH2 0xD85 JUMPI RETURNDATASIZE PUSH1 0x0 DUP1 RETURNDATACOPY RETURNDATASIZE PUSH1 0x0 REVERT JUMPDEST POP POP POP POP PUSH1 0x40 MLOAD RETURNDATASIZE PUSH1 0x1F NOT PUSH1 0x1F DUP3 ADD AND DUP3 ADD DUP1 PUSH1 0x40 MSTORE POP DUP2 ADD SWAP1 PUSH2 0xDA9 SWAP2 SWAP1 PUSH2 0x2FCE JUMP JUMPDEST PUSH2 0x182E JUMP JUMPDEST PUSH1 0x40 MLOAD PUSH1 0x20 ADD PUSH2 0xDBF SWAP3 SWAP2 SWAP1 PUSH2 0x3089 JUMP JUMPDEST PUSH1 0x40 MLOAD PUSH1 0x20 DUP2 DUP4 SUB SUB DUP2 MSTORE SWAP1 PUSH1 0x40 MSTORE SWAP2 POP PUSH2 0xDD9 DUP3 PUSH2 0x1899 JUMP JUMPDEST DUP11 PUSH1 0x1 DUP10 PUSH2 0xDE7 SWAP2 SWAP1 PUSH2 0x2EFA JUMP JUMPDEST PUSH1 0x3 DUP2 LT PUSH2 0xDF8 JUMPI PUSH2 0xDF7 PUSH2 0x2E20 JUMP JUMPDEST JUMPDEST PUSH1 0x20 MUL ADD DUP2 DUP2 MSTORE POP POP DUP7 DUP1 PUSH2 0xE0C SWAP1 PUSH2 0x2E7E JUMP JUMPDEST SWAP8 POP POP PUSH1 0x2 DUP2 PUSH2 0xE1C SWAP2 SWAP1 PUSH2 0x2EFA JUMP JUMPDEST SWAP1 POP PUSH2 0x658 JUMP JUMPDEST PUSH1 0x40 MLOAD DUP1 PUSH1 0x20 ADD PUSH1 0x40 MSTORE DUP1 PUSH1 0x0 DUP2 MSTORE POP SWAP2 POP PUSH1 0x2 DUP14 PUSH1 0x40 ADD MLOAD POP PUSH1 0x4 PUSH2 0xE49 SWAP2 SWAP1 PUSH2 0x2EC6 JUMP JUMPDEST SWAP1 POP DUP13 PUSH1 0x40 ADD MLOAD DUP2 PUSH1 0x4 DUP2 LT PUSH2 0xE62 JUMPI PUSH2 0xE61 PUSH2 0x2E20 JUMP JUMPDEST JUMPDEST PUSH1 0x20 MUL ADD MLOAD SWAP6 POP DUP13 PUSH1 0x40 ADD MLOAD PUSH1 0x1 DUP3 PUSH2 0xE7B SWAP2 SWAP1 PUSH2 0x2EFA JUMP JUMPDEST PUSH1 0x4 DUP2 LT PUSH2 0xE8C JUMPI PUSH2 0xE8B PUSH2 0x2E20 JUMP JUMPDEST JUMPDEST PUSH1 0x20 MUL ADD MLOAD SWAP5 POP DUP8 DUP8 PUSH1 0x2 DUP2 LT PUSH2 0xEA6 JUMPI PUSH2 0xEA5 PUSH2 0x2E20 JUMP JUMPDEST JUMPDEST PUSH1 0x20 MUL ADD MLOAD PUSH1 0x0 PUSH1 0x2 DUP2 LT PUSH2 0xEBE JUMPI PUSH2 0xEBD PUSH2 0x2E20 JUMP JUMPDEST JUMPDEST PUSH1 0x20 MUL ADD MLOAD SWAP4 POP DUP8 DUP8 PUSH1 0x2 DUP2 LT PUSH2 0xED8 JUMPI PUSH2 0xED7 PUSH2 0x2E20 JUMP JUMPDEST JUMPDEST PUSH1 0x20 MUL ADD MLOAD PUSH1 0x1 PUSH1 0x2 DUP2 LT PUSH2 0xEF0 JUMPI PUSH2 0xEEF PUSH2 0x2E20 JUMP JUMPDEST JUMPDEST PUSH1 0x20 MUL ADD MLOAD SWAP3 POP PUSH1 0x6 PUSH1 0x0 SWAP1 SLOAD SWAP1 PUSH2 0x100 EXP SWAP1 DIV PUSH20 0xFFFFFFFFFFFFFFFFFFFFFFFFFFFFFFFFFFFFFFFF AND PUSH20 0xFFFFFFFFFFFFFFFFFFFFFFFFFFFFFFFFFFFFFFFF AND PUSH4 0xBB734C4E DUP8 PUSH1 0x40 MLOAD DUP3 PUSH4 0xFFFFFFFF AND PUSH1 0xE0 SHL DUP2 MSTORE PUSH1 0x4 ADD PUSH2 0xF52 SWAP2 SWAP1 PUSH2 0x2B5B JUMP JUMPDEST PUSH1 0x40 DUP1 MLOAD DUP1 DUP4 SUB DUP2 DUP7 GAS STATICCALL ISZERO DUP1 ISZERO PUSH2 0xF6E JUMPI RETURNDATASIZE PUSH1 0x0 DUP1 RETURNDATACOPY RETURNDATASIZE PUSH1 0x0 REVERT JUMPDEST POP POP POP POP PUSH1 0x40 MLOAD RETURNDATASIZE PUSH1 0x1F NOT PUSH1 0x1F DUP3 ADD AND DUP3 ADD DUP1 PUSH1 0x40 MSTORE POP DUP2 ADD SWAP1 PUSH2 0xF92 SWAP2 SWAP1 PUSH2 0x2FCE JUMP JUMPDEST DUP12 PUSH1 0x0 ADD DUP2 SWAP1 MSTORE POP PUSH1 0x6 PUSH1 0x0 SWAP1 SLOAD SWAP1 PUSH2 0x100 EXP SWAP1 DIV PUSH20 0xFFFFFFFFFFFFFFFFFFFFFFFFFFFFFFFFFFFFFFFF AND PUSH20 0xFFFFFFFFFFFFFFFFFFFFFFFFFFFFFFFFFFFFFFFF AND PUSH4 0xACA8F56E DUP6 DUP13 DUP11 PUSH1 0x3 DUP2 LT PUSH2 0xFEC JUMPI PUSH2 0xFEB PUSH2 0x2E20 JUMP JUMPDEST JUMPDEST PUSH1 0x20 MUL ADD MLOAD PUSH1 0x40 MLOAD DUP4 PUSH4 0xFFFFFFFF AND PUSH1 0xE0 SHL DUP2 MSTORE PUSH1 0x4 ADD PUSH2 0x100E SWAP3 SWAP2 SWAP1 PUSH2 0x2FFB JUMP JUMPDEST PUSH1 0x40 DUP1 MLOAD DUP1 DUP4 SUB DUP2 DUP7 GAS STATICCALL ISZERO DUP1 ISZERO PUSH2 0x102A JUMPI RETURNDATASIZE PUSH1 0x0 DUP1 RETURNDATACOPY RETURNDATASIZE PUSH1 0x0 REVERT JUMPDEST POP POP POP POP PUSH1 0x40 MLOAD RETURNDATASIZE PUSH1 0x1F NOT PUSH1 0x1F DUP3 ADD AND DUP3 ADD DUP1 PUSH1 0x40 MSTORE POP DUP2 ADD SWAP1 PUSH2 0x104E SWAP2 SWAP1 PUSH2 0x2FCE JUMP JUMPDEST DUP12 PUSH1 0x20 ADD DUP2 SWAP1 MSTORE POP PUSH1 0x6 PUSH1 0x0 SWAP1 SLOAD SWAP1 PUSH2 0x100 EXP SWAP1 DIV PUSH20 0xFFFFFFFFFFFFFFFFFFFFFFFFFFFFFFFFFFFFFFFF AND PUSH20 0xFFFFFFFFFFFFFFFFFFFFFFFFFFFFFFFFFFFFFFFF AND PUSH4 0xACA8F56E PUSH2 0x109D DUP7 PUSH2 0x173A JUMP JUMPDEST DUP9 PUSH1 0x40 MLOAD DUP4 PUSH4 0xFFFFFFFF AND PUSH1 0xE0 SHL DUP2 MSTORE PUSH1 0x4 ADD PUSH2 0x10BB SWAP3 SWAP2 SWAP1 PUSH2 0x2FFB JUMP JUMPDEST PUSH1 0x40 DUP1 MLOAD DUP1 DUP4 SUB DUP2 DUP7 GAS STATICCALL ISZERO DUP1 ISZERO PUSH2 0x10D7 JUMPI RETURNDATASIZE PUSH1 0x0 DUP1 RETURNDATACOPY RETURNDATASIZE PUSH1 0x0 REVERT JUMPDEST POP POP POP POP PUSH1 0x40 MLOAD RETURNDATASIZE PUSH1 0x1F NOT PUSH1 0x1F DUP3 ADD AND DUP3 ADD DUP1 PUSH1 0x40 MSTORE POP DUP2 ADD SWAP1 PUSH2 0x10FB SWAP2 SWAP1 PUSH2 0x2FCE JUMP JUMPDEST DUP12 PUSH1 0x40 ADD DUP2 SWAP1 MSTORE POP PUSH1 0x6 PUSH1 0x0 SWAP1 SLOAD SWAP1 PUSH2 0x100 EXP SWAP1 DIV PUSH20 0xFFFFFFFFFFFFFFFFFFFFFFFFFFFFFFFFFFFFFFFF AND PUSH20 0xFFFFFFFFFFFFFFFFFFFFFFFFFFFFFFFFFFFFFFFF AND PUSH4 0xACA8F56E DUP11 DUP13 DUP11 PUSH1 0x3 DUP2 LT PUSH2 0x1155 JUMPI PUSH2 0x1154 PUSH2 0x2E20 JUMP JUMPDEST JUMPDEST PUSH1 0x20 MUL ADD MLOAD PUSH1 0x40 MLOAD DUP4 PUSH4 0xFFFFFFFF AND PUSH1 0xE0 SHL DUP2 MSTORE PUSH1 0x4 ADD PUSH2 0x1177 SWAP3 SWAP2 SWAP1 PUSH2 0x2FFB JUMP JUMPDEST PUSH1 0x40 DUP1 MLOAD DUP1 DUP4 SUB DUP2 DUP7 GAS STATICCALL ISZERO DUP1 ISZERO PUSH2 0x1193 JUMPI RETURNDATASIZE PUSH1 0x0 DUP1 RETURNDATACOPY RETURNDATASIZE PUSH1 0x0 REVERT JUMPDEST POP POP POP POP PUSH1 0x40 MLOAD RETURNDATASIZE PUSH1 0x1F NOT PUSH1 0x1F DUP3 ADD AND DUP3 ADD DUP1 PUSH1 0x40 MSTORE POP DUP2 ADD SWAP1 PUSH2 0x11B7 SWAP2 SWAP1 PUSH2 0x2FCE JUMP JUMPDEST DUP12 PUSH1 0x60 ADD DUP2 SWAP1 MSTORE POP PUSH1 0x6 PUSH1 0x0 SWAP1 SLOAD SWAP1 PUSH2 0x100 EXP SWAP1 DIV PUSH20 0xFFFFFFFFFFFFFFFFFFFFFFFFFFFFFFFFFFFFFFFF AND PUSH20 0xFFFFFFFFFFFFFFFFFFFFFFFFFFFFFFFFFFFFFFFF AND PUSH4 0xBB734C4E DUP7 PUSH1 0x40 MLOAD DUP3 PUSH4 0xFFFFFFFF AND PUSH1 0xE0 SHL DUP2 MSTORE PUSH1 0x4 ADD PUSH2 0x121A SWAP2 SWAP1 PUSH2 0x2B5B JUMP JUMPDEST PUSH1 0x40 DUP1 MLOAD DUP1 DUP4 SUB DUP2 DUP7 GAS STATICCALL ISZERO DUP1 ISZERO PUSH2 0x1236 JUMPI RETURNDATASIZE PUSH1 0x0 DUP1 RETURNDATACOPY RETURNDATASIZE PUSH1 0x0 REVERT JUMPDEST POP POP POP POP PUSH1 0x40 MLOAD RETURNDATASIZE PUSH1 0x1F NOT PUSH1 0x1F DUP3 ADD AND DUP3 ADD DUP1 PUSH1 0x40 MSTORE POP DUP2 ADD SWAP1 PUSH2 0x125A SWAP2 SWAP1 PUSH2 0x2FCE JUMP JUMPDEST DUP12 PUSH1 0x80 ADD DUP2 SWAP1 MSTORE POP PUSH1 0x6 PUSH1 0x0 SWAP1 SLOAD SWAP1 PUSH2 0x100 EXP SWAP1 DIV PUSH20 0xFFFFFFFFFFFFFFFFFFFFFFFFFFFFFFFFFFFFFFFF AND PUSH20 0xFFFFFFFFFFFFFFFFFFFFFFFFFFFFFFFFFFFFFFFF AND PUSH4 0xACA8F56E DUP5 DUP13 DUP11 PUSH1 0x3 DUP2 LT PUSH2 0x12B4 JUMPI PUSH2 0x12B3 PUSH2 0x2E20 JUMP JUMPDEST JUMPDEST PUSH1 0x20 MUL ADD MLOAD PUSH1 0x40 MLOAD DUP4 PUSH4 0xFFFFFFFF AND PUSH1 0xE0 SHL DUP2 MSTORE PUSH1 0x4 ADD PUSH2 0x12D6 SWAP3 SWAP2 SWAP1 PUSH2 0x2FFB JUMP JUMPDEST PUSH1 0x40 DUP1 MLOAD DUP1 DUP4 SUB DUP2 DUP7 GAS STATICCALL ISZERO DUP1 ISZERO PUSH2 0x12F2 JUMPI RETURNDATASIZE PUSH1 0x0 DUP1 RETURNDATACOPY RETURNDATASIZE PUSH1 0x0 REVERT JUMPDEST POP POP POP POP PUSH1 0x40 MLOAD RETURNDATASIZE PUSH1 0x1F NOT PUSH1 0x1F DUP3 ADD AND DUP3 ADD DUP1 PUSH1 0x40 MSTORE POP DUP2 ADD SWAP1 PUSH2 0x1316 SWAP2 SWAP1 PUSH2 0x2FCE JUMP JUMPDEST DUP12 PUSH1 0xA0 ADD DUP2 SWAP1 MSTORE POP PUSH2 0x1327 DUP15 PUSH2 0x1760 JUMP JUMPDEST PUSH2 0x13D4 PUSH1 0x6 PUSH1 0x0 SWAP1 SLOAD SWAP1 PUSH2 0x100 EXP SWAP1 DIV PUSH20 0xFFFFFFFFFFFFFFFFFFFFFFFFFFFFFFFFFFFFFFFF AND PUSH20 0xFFFFFFFFFFFFFFFFFFFFFFFFFFFFFFFFFFFFFFFF AND PUSH4 0x1177A4A4 DUP15 PUSH1 0x0 ADD MLOAD DUP16 PUSH1 0x20 ADD MLOAD PUSH1 0x40 MLOAD DUP4 PUSH4 0xFFFFFFFF AND PUSH1 0xE0 SHL DUP2 MSTORE PUSH1 0x4 ADD PUSH2 0x138F SWAP3 SWAP2 SWAP1 PUSH2 0x3024 JUMP JUMPDEST PUSH1 0x40 DUP1 MLOAD DUP1 DUP4 SUB DUP2 DUP7 GAS STATICCALL ISZERO DUP1 ISZERO PUSH2 0x13AB JUMPI RETURNDATASIZE PUSH1 0x0 DUP1 RETURNDATACOPY RETURNDATASIZE PUSH1 0x0 REVERT JUMPDEST POP POP POP POP PUSH1 0x40 MLOAD RETURNDATASIZE PUSH1 0x1F NOT PUSH1 0x1F DUP3 ADD AND DUP3 ADD DUP1 PUSH1 0x40 MSTORE POP DUP2 ADD SWAP1 PUSH2 0x13CF SWAP2 SWAP1 PUSH2 0x2FCE JUMP JUMPDEST PUSH2 0x182E JUMP JUMPDEST PUSH1 0x40 MLOAD PUSH1 0x20 ADD PUSH2 0x13E5 SWAP3 SWAP2 SWAP1 PUSH2 0x3089 JUMP JUMPDEST PUSH1 0x40 MLOAD PUSH1 0x20 DUP2 DUP4 SUB SUB DUP2 MSTORE SWAP1 PUSH1 0x40 MSTORE SWAP2 POP DUP2 PUSH2 0x14A4 PUSH1 0x6 PUSH1 0x0 SWAP1 SLOAD SWAP1 PUSH2 0x100 EXP SWAP1 DIV PUSH20 0xFFFFFFFFFFFFFFFFFFFFFFFFFFFFFFFFFFFFFFFF AND PUSH20 0xFFFFFFFFFFFFFFFFFFFFFFFFFFFFFFFFFFFFFFFF AND PUSH4 0x1177A4A4 DUP15 PUSH1 0x40 ADD MLOAD DUP16 PUSH1 0x60 ADD MLOAD PUSH1 0x40 MLOAD DUP4 PUSH4 0xFFFFFFFF AND PUSH1 0xE0 SHL DUP2 MSTORE PUSH1 0x4 ADD PUSH2 0x145F SWAP3 SWAP2 SWAP1 PUSH2 0x3024 JUMP JUMPDEST PUSH1 0x40 DUP1 MLOAD DUP1 DUP4 SUB DUP2 DUP7 GAS STATICCALL ISZERO DUP1 ISZERO PUSH2 0x147B JUMPI RETURNDATASIZE PUSH1 0x0 DUP1 RETURNDATACOPY RETURNDATASIZE PUSH1 0x0 REVERT JUMPDEST POP POP POP POP PUSH1 0x40 MLOAD RETURNDATASIZE PUSH1 0x1F NOT PUSH1 0x1F DUP3 ADD AND DUP3 ADD DUP1 PUSH1 0x40 MSTORE POP DUP2 ADD SWAP1 PUSH2 0x149F SWAP2 SWAP1 PUSH2 0x2FCE JUMP JUMPDEST PUSH2 0x182E JUMP JUMPDEST PUSH1 0x40 MLOAD PUSH1 0x20 ADD PUSH2 0x14B5 SWAP3 SWAP2 SWAP1 PUSH2 0x3089 JUMP JUMPDEST PUSH1 0x40 MLOAD PUSH1 0x20 DUP2 DUP4 SUB SUB DUP2 MSTORE SWAP1 PUSH1 0x40 MSTORE SWAP2 POP DUP2 PUSH2 0x1574 PUSH1 0x6 PUSH1 0x0 SWAP1 SLOAD SWAP1 PUSH2 0x100 EXP SWAP1 DIV PUSH20 0xFFFFFFFFFFFFFFFFFFFFFFFFFFFFFFFFFFFFFFFF AND PUSH20 0xFFFFFFFFFFFFFFFFFFFFFFFFFFFFFFFFFFFFFFFF AND PUSH4 0x1177A4A4 DUP15 PUSH1 0x80 ADD MLOAD DUP16 PUSH1 0xA0 ADD MLOAD PUSH1 0x40 MLOAD DUP4 PUSH4 0xFFFFFFFF AND PUSH1 0xE0 SHL DUP2 MSTORE PUSH1 0x4 ADD PUSH2 0x152F SWAP3 SWAP2 SWAP1 PUSH2 0x3024 JUMP JUMPDEST PUSH1 0x40 DUP1 MLOAD DUP1 DUP4 SUB DUP2 DUP7 GAS STATICCALL ISZERO DUP1 ISZERO PUSH2 0x154B JUMPI RETURNDATASIZE PUSH1 0x0 DUP1 RETURNDATACOPY RETURNDATASIZE PUSH1 0x0 REVERT JUMPDEST POP POP POP POP PUSH1 0x40 MLOAD RETURNDATASIZE PUSH1 0x1F NOT PUSH1 0x1F DUP3 ADD AND DUP3 ADD DUP1 PUSH1 0x40 MSTORE POP DUP2 ADD SWAP1 PUSH2 0x156F SWAP2 SWAP1 PUSH2 0x2FCE JUMP JUMPDEST PUSH2 0x182E JUMP JUMPDEST PUSH1 0x40 MLOAD PUSH1 0x20 ADD PUSH2 0x1585 SWAP3 SWAP2 SWAP1 PUSH2 0x3089 JUMP JUMPDEST PUSH1 0x40 MLOAD PUSH1 0x20 DUP2 DUP4 SUB SUB DUP2 MSTORE SWAP1 PUSH1 0x40 MSTORE SWAP2 POP PUSH1 0x0 PUSH2 0x15A1 DUP4 PUSH2 0x1899 JUMP JUMPDEST SWAP1 POP DUP1 DUP12 PUSH1 0x0 PUSH1 0x3 DUP2 LT PUSH2 0x15B8 JUMPI PUSH2 0x15B7 PUSH2 0x2E20 JUMP JUMPDEST JUMPDEST PUSH1 0x20 MUL ADD MLOAD EQ SWAP13 POP POP POP POP POP POP POP POP POP POP POP POP POP SWAP3 SWAP2 POP POP JUMP JUMPDEST PUSH1 0x60 PUSH1 0x3 DUP1 SLOAD DUP1 PUSH1 0x20 MUL PUSH1 0x20 ADD PUSH1 0x40 MLOAD SWAP1 DUP2 ADD PUSH1 0x40 MSTORE DUP1 SWAP3 SWAP2 SWAP1 DUP2 DUP2 MSTORE PUSH1 0x20 ADD PUSH1 0x0 SWAP1 JUMPDEST DUP3 DUP3 LT ISZERO PUSH2 0x1659 JUMPI DUP4 DUP3 SWAP1 PUSH1 0x0 MSTORE PUSH1 0x20 PUSH1 0x0 KECCAK256 SWAP1 PUSH1 0x2 MUL ADD PUSH1 0x2 DUP1 PUSH1 0x20 MUL PUSH1 0x40 MLOAD SWAP1 DUP2 ADD PUSH1 0x40 MSTORE DUP1 SWAP3 SWAP2 SWAP1 DUP3 PUSH1 0x2 DUP1 ISZERO PUSH2 0x1645 JUMPI PUSH1 0x20 MUL DUP3 ADD SWAP2 JUMPDEST DUP2 SLOAD DUP2 MSTORE PUSH1 0x20 ADD SWAP1 PUSH1 0x1 ADD SWAP1 DUP1 DUP4 GT PUSH2 0x1631 JUMPI JUMPDEST POP POP POP POP POP DUP2 MSTORE PUSH1 0x20 ADD SWAP1 PUSH1 0x1 ADD SWAP1 PUSH2 0x15F6 JUMP JUMPDEST POP POP POP POP SWAP1 POP SWAP1 JUMP JUMPDEST PUSH1 0x60 PUSH1 0x2 DUP1 SLOAD DUP1 PUSH1 0x20 MUL PUSH1 0x20 ADD PUSH1 0x40 MLOAD SWAP1 DUP2 ADD PUSH1 0x40 MSTORE DUP1 SWAP3 SWAP2 SWAP1 DUP2 DUP2 MSTORE PUSH1 0x20 ADD PUSH1 0x0 SWAP1 JUMPDEST DUP3 DUP3 LT ISZERO PUSH2 0x1727 JUMPI DUP4 DUP3 SWAP1 PUSH1 0x0 MSTORE PUSH1 0x20 PUSH1 0x0 KECCAK256 SWAP1 PUSH1 0x4 MUL ADD PUSH1 0x40 MLOAD DUP1 PUSH1 0x60 ADD PUSH1 0x40 MSTORE SWAP1 DUP2 PUSH1 0x0 DUP3 ADD SLOAD DUP2 MSTORE PUSH1 0x20 ADD PUSH1 0x1 DUP3 ADD PUSH1 0x2 DUP1 PUSH1 0x20 MUL PUSH1 0x40 MLOAD SWAP1 DUP2 ADD PUSH1 0x40 MSTORE DUP1 SWAP3 SWAP2 SWAP1 DUP3 PUSH1 0x2 DUP1 ISZERO PUSH2 0x16EF JUMPI PUSH1 0x20 MUL DUP3 ADD SWAP2 JUMPDEST DUP2 SLOAD DUP2 MSTORE PUSH1 0x20 ADD SWAP1 PUSH1 0x1 ADD SWAP1 DUP1 DUP4 GT PUSH2 0x16DB JUMPI JUMPDEST POP POP POP POP POP DUP2 MSTORE PUSH1 0x20 ADD PUSH1 0x3 DUP3 ADD PUSH1 0x0 SWAP1 SLOAD SWAP1 PUSH2 0x100 EXP SWAP1 DIV PUSH2 0xFFFF AND PUSH2 0xFFFF AND PUSH2 0xFFFF AND DUP2 MSTORE POP POP DUP2 MSTORE PUSH1 0x20 ADD SWAP1 PUSH1 0x1 ADD SWAP1 PUSH2 0x1686 JUMP JUMPDEST POP POP POP POP SWAP1 POP SWAP1 JUMP JUMPDEST PUSH1 0x0 DUP2 SWAP1 POP SWAP2 SWAP1 POP JUMP JUMPDEST PUSH2 0x1742 PUSH2 0x1B85 JUMP JUMPDEST PUSH1 0x0 PUSH2 0x174D DUP4 PUSH2 0x182E JUMP JUMPDEST SWAP1 POP PUSH2 0x1758 DUP2 PUSH2 0x18CC JUMP JUMPDEST SWAP2 POP POP SWAP2 SWAP1 POP JUMP JUMPDEST PUSH1 0x60 PUSH1 0x0 PUSH1 0x1 PUSH2 0x176F DUP5 PUSH2 0x19A5 JUMP JUMPDEST ADD SWAP1 POP PUSH1 0x0 DUP2 PUSH8 0xFFFFFFFFFFFFFFFF DUP2 GT ISZERO PUSH2 0x178E JUMPI PUSH2 0x178D PUSH2 0x1CE6 JUMP JUMPDEST JUMPDEST PUSH1 0x40 MLOAD SWAP1 DUP1 DUP3 MSTORE DUP1 PUSH1 0x1F ADD PUSH1 0x1F NOT AND PUSH1 0x20 ADD DUP3 ADD PUSH1 0x40 MSTORE DUP1 ISZERO PUSH2 0x17C0 JUMPI DUP2 PUSH1 0x20 ADD PUSH1 0x1 DUP3 MUL DUP1 CALLDATASIZE DUP4 CALLDATACOPY DUP1 DUP3 ADD SWAP2 POP POP SWAP1 POP JUMPDEST POP SWAP1 POP PUSH1 0x0 DUP3 PUSH1 0x20 ADD DUP3 ADD SWAP1 POP JUMPDEST PUSH1 0x1 ISZERO PUSH2 0x1823 JUMPI DUP1 DUP1 PUSH1 0x1 SWAP1 SUB SWAP2 POP POP PUSH32 0x3031323334353637383961626364656600000000000000000000000000000000 PUSH1 0xA DUP7 MOD BYTE DUP2 MSTORE8 PUSH1 0xA DUP6 DUP2 PUSH2 0x1817 JUMPI PUSH2 0x1816 PUSH2 0x30AD JUMP JUMPDEST JUMPDEST DIV SWAP5 POP PUSH1 0x0 DUP6 SUB PUSH2 0x17CE JUMPI JUMPDEST DUP2 SWAP4 POP POP POP POP SWAP2 SWAP1 POP JUMP JUMPDEST PUSH1 0x60 PUSH2 0x1851 DUP3 PUSH1 0x0 PUSH1 0x2 DUP2 LT PUSH2 0x1847 JUMPI PUSH2 0x1846 PUSH2 0x2E20 JUMP JUMPDEST JUMPDEST PUSH1 0x20 MUL ADD MLOAD PUSH2 0x1760 JUMP JUMPDEST PUSH2 0x1872 DUP4 PUSH1 0x1 PUSH1 0x2 DUP2 LT PUSH2 0x1868 JUMPI PUSH2 0x1867 PUSH2 0x2E20 JUMP JUMPDEST JUMPDEST PUSH1 0x20 MUL ADD MLOAD PUSH2 0x1760 JUMP JUMPDEST PUSH1 0x40 MLOAD PUSH1 0x20 ADD PUSH2 0x1883 SWAP3 SWAP2 SWAP1 PUSH2 0x3089 JUMP JUMPDEST PUSH1 0x40 MLOAD PUSH1 0x20 DUP2 DUP4 SUB SUB DUP2 MSTORE SWAP1 PUSH1 0x40 MSTORE SWAP1 POP SWAP2 SWAP1 POP JUMP JUMPDEST PUSH1 0x0 DUP2 PUSH1 0x40 MLOAD PUSH1 0x20 ADD PUSH2 0x18AC SWAP2 SWAP1 PUSH2 0x30DC JUMP JUMPDEST PUSH1 0x40 MLOAD PUSH1 0x20 DUP2 DUP4 SUB SUB DUP2 MSTORE SWAP1 PUSH1 0x40 MSTORE DUP1 MLOAD SWAP1 PUSH1 0x20 ADD KECCAK256 PUSH1 0x0 SHR SWAP1 POP SWAP2 SWAP1 POP JUMP JUMPDEST PUSH2 0x18D4 PUSH2 0x1B85 JUMP JUMPDEST PUSH1 0x0 DUP3 PUSH1 0x40 MLOAD PUSH1 0x20 ADD PUSH2 0x18E7 SWAP2 SWAP1 PUSH2 0x30DC JUMP JUMPDEST PUSH1 0x40 MLOAD PUSH1 0x20 DUP2 DUP4 SUB SUB DUP2 MSTORE SWAP1 PUSH1 0x40 MSTORE DUP1 MLOAD SWAP1 PUSH1 0x20 ADD KECCAK256 PUSH1 0x0 SHR SWAP1 POP PUSH1 0x6 PUSH1 0x0 SWAP1 SLOAD SWAP1 PUSH2 0x100 EXP SWAP1 DIV PUSH20 0xFFFFFFFFFFFFFFFFFFFFFFFFFFFFFFFFFFFFFFFF AND PUSH20 0xFFFFFFFFFFFFFFFFFFFFFFFFFFFFFFFFFFFFFFFF AND PUSH4 0xBB734C4E DUP3 PUSH1 0x40 MLOAD DUP3 PUSH4 0xFFFFFFFF AND PUSH1 0xE0 SHL DUP2 MSTORE PUSH1 0x4 ADD PUSH2 0x195D SWAP2 SWAP1 PUSH2 0x2B5B JUMP JUMPDEST PUSH1 0x40 DUP1 MLOAD DUP1 DUP4 SUB DUP2 DUP7 GAS STATICCALL ISZERO DUP1 ISZERO PUSH2 0x1979 JUMPI RETURNDATASIZE PUSH1 0x0 DUP1 RETURNDATACOPY RETURNDATASIZE PUSH1 0x0 REVERT JUMPDEST POP POP POP POP PUSH1 0x40 MLOAD RETURNDATASIZE PUSH1 0x1F NOT PUSH1 0x1F DUP3 ADD AND DUP3 ADD DUP1 PUSH1 0x40 MSTORE POP DUP2 ADD SWAP1 PUSH2 0x199D SWAP2 SWAP1 PUSH2 0x2FCE JUMP JUMPDEST SWAP2 POP POP SWAP2 SWAP1 POP JUMP JUMPDEST PUSH1 0x0 DUP1 PUSH1 0x0 SWAP1 POP PUSH27 0x184F03E93FF9F4DAA797ED6E38ED64BF6A1F010000000000000000 DUP4 LT PUSH2 0x1A03 JUMPI PUSH27 0x184F03E93FF9F4DAA797ED6E38ED64BF6A1F010000000000000000 DUP4 DUP2 PUSH2 0x19F9 JUMPI PUSH2 0x19F8 PUSH2 0x30AD JUMP JUMPDEST JUMPDEST DIV SWAP3 POP PUSH1 0x40 DUP2 ADD SWAP1 POP JUMPDEST PUSH14 0x4EE2D6D415B85ACEF8100000000 DUP4 LT PUSH2 0x1A40 JUMPI PUSH14 0x4EE2D6D415B85ACEF8100000000 DUP4 DUP2 PUSH2 0x1A36 JUMPI PUSH2 0x1A35 PUSH2 0x30AD JUMP JUMPDEST JUMPDEST DIV SWAP3 POP PUSH1 0x20 DUP2 ADD SWAP1 POP JUMPDEST PUSH7 0x2386F26FC10000 DUP4 LT PUSH2 0x1A6F JUMPI PUSH7 0x2386F26FC10000 DUP4 DUP2 PUSH2 0x1A65 JUMPI PUSH2 0x1A64 PUSH2 0x30AD JUMP JUMPDEST JUMPDEST DIV SWAP3 POP PUSH1 0x10 DUP2 ADD SWAP1 POP JUMPDEST PUSH4 0x5F5E100 DUP4 LT PUSH2 0x1A98 JUMPI PUSH4 0x5F5E100 DUP4 DUP2 PUSH2 0x1A8E JUMPI PUSH2 0x1A8D PUSH2 0x30AD JUMP JUMPDEST JUMPDEST DIV SWAP3 POP PUSH1 0x8 DUP2 ADD SWAP1 POP JUMPDEST PUSH2 0x2710 DUP4 LT PUSH2 0x1ABD JUMPI PUSH2 0x2710 DUP4 DUP2 PUSH2 0x1AB3 JUMPI PUSH2 0x1AB2 PUSH2 0x30AD JUMP JUMPDEST JUMPDEST DIV SWAP3 POP PUSH1 0x4 DUP2 ADD SWAP1 POP JUMPDEST PUSH1 0x64 DUP4 LT PUSH2 0x1AE0 JUMPI PUSH1 0x64 DUP4 DUP2 PUSH2 0x1AD6 JUMPI PUSH2 0x1AD5 PUSH2 0x30AD JUMP JUMPDEST JUMPDEST DIV SWAP3 POP PUSH1 0x2 DUP2 ADD SWAP1 POP JUMPDEST PUSH1 0xA DUP4 LT PUSH2 0x1AEF JUMPI PUSH1 0x1 DUP2 ADD SWAP1 POP JUMPDEST DUP1 SWAP2 POP POP SWAP2 SWAP1 POP JUMP JUMPDEST PUSH1 0x40 MLOAD DUP1 PUSH1 0x20 ADD PUSH1 0x40 MSTORE DUP1 PUSH1 0x60 DUP2 MSTORE POP SWAP1 JUMP JUMPDEST PUSH1 0x40 MLOAD DUP1 PUSH1 0x80 ADD PUSH1 0x40 MSTORE DUP1 PUSH1 0x0 DUP2 MSTORE PUSH1 0x20 ADD PUSH2 0x1B25 PUSH2 0x1B85 JUMP JUMPDEST DUP2 MSTORE PUSH1 0x20 ADD PUSH2 0x1B32 PUSH2 0x1C23 JUMP JUMPDEST DUP2 MSTORE PUSH1 0x20 ADD PUSH2 0x1B3F PUSH2 0x1C45 JUMP JUMPDEST DUP2 MSTORE POP SWAP1 JUMP JUMPDEST DUP3 PUSH1 0x2 DUP2 ADD SWAP3 DUP3 ISZERO PUSH2 0x1B74 JUMPI SWAP2 PUSH1 0x20 MUL DUP3 ADD JUMPDEST DUP3 DUP2 GT ISZERO PUSH2 0x1B73 JUMPI DUP3 MLOAD DUP3 SSTORE SWAP2 PUSH1 0x20 ADD SWAP2 SWAP1 PUSH1 0x1 ADD SWAP1 PUSH2 0x1B58 JUMP JUMPDEST JUMPDEST POP SWAP1 POP PUSH2 0x1B81 SWAP2 SWAP1 PUSH2 0x1C72 JUMP JUMPDEST POP SWAP1 JUMP JUMPDEST PUSH1 0x40 MLOAD DUP1 PUSH1 0x40 ADD PUSH1 0x40 MSTORE DUP1 PUSH1 0x2 SWAP1 PUSH1 0x20 DUP3 MUL DUP1 CALLDATASIZE DUP4 CALLDATACOPY DUP1 DUP3 ADD SWAP2 POP POP SWAP1 POP POP SWAP1 JUMP JUMPDEST PUSH1 0x40 MLOAD DUP1 PUSH1 0xC0 ADD PUSH1 0x40 MSTORE DUP1 PUSH2 0x1BBA PUSH2 0x1B85 JUMP JUMPDEST DUP2 MSTORE PUSH1 0x20 ADD PUSH2 0x1BC7 PUSH2 0x1B85 JUMP JUMPDEST DUP2 MSTORE PUSH1 0x20 ADD PUSH2 0x1BD4 PUSH2 0x1B85 JUMP JUMPDEST DUP2 MSTORE PUSH1 0x20 ADD PUSH2 0x1BE1 PUSH2 0x1B85 JUMP JUMPDEST DUP2 MSTORE PUSH1 0x20 ADD PUSH2 0x1BEE PUSH2 0x1B85 JUMP JUMPDEST DUP2 MSTORE PUSH1 0x20 ADD PUSH2 0x1BFB PUSH2 0x1B85 JUMP JUMPDEST DUP2 MSTORE POP SWAP1 JUMP JUMPDEST PUSH1 0x40 MLOAD DUP1 PUSH1 0x60 ADD PUSH1 0x40 MSTORE DUP1 PUSH1 0x3 SWAP1 PUSH1 0x20 DUP3 MUL DUP1 CALLDATASIZE DUP4 CALLDATACOPY DUP1 DUP3 ADD SWAP2 POP POP SWAP1 POP POP SWAP1 JUMP JUMPDEST PUSH1 0x40 MLOAD DUP1 PUSH1 0x80 ADD PUSH1 0x40 MSTORE DUP1 PUSH1 0x4 SWAP1 PUSH1 0x20 DUP3 MUL DUP1 CALLDATASIZE DUP4 CALLDATACOPY DUP1 DUP3 ADD SWAP2 POP POP SWAP1 POP POP SWAP1 JUMP JUMPDEST PUSH1 0x40 MLOAD DUP1 PUSH1 0x40 ADD PUSH1 0x40 MSTORE DUP1 PUSH1 0x2 SWAP1 JUMPDEST PUSH2 0x1C5C PUSH2 0x1C8F JUMP JUMPDEST DUP2 MSTORE PUSH1 0x20 ADD SWAP1 PUSH1 0x1 SWAP1 SUB SWAP1 DUP2 PUSH2 0x1C54 JUMPI SWAP1 POP POP SWAP1 JUMP JUMPDEST JUMPDEST DUP1 DUP3 GT ISZERO PUSH2 0x1C8B JUMPI PUSH1 0x0 DUP2 PUSH1 0x0 SWAP1 SSTORE POP PUSH1 0x1 ADD PUSH2 0x1C73 JUMP JUMPDEST POP SWAP1 JUMP JUMPDEST PUSH1 0x40 MLOAD DUP1 PUSH1 0x40 ADD PUSH1 0x40 MSTORE DUP1 PUSH1 0x2 SWAP1 JUMPDEST PUSH2 0x1CA6 PUSH2 0x1B85 JUMP JUMPDEST DUP2 MSTORE PUSH1 0x20 ADD SWAP1 PUSH1 0x1 SWAP1 SUB SWAP1 DUP2 PUSH2 0x1C9E JUMPI SWAP1 POP POP SWAP1 JUMP JUMPDEST PUSH1 0x0 PUSH1 0x40 MLOAD SWAP1 POP SWAP1 JUMP JUMPDEST PUSH1 0x0 DUP1 REVERT JUMPDEST PUSH1 0x0 DUP1 REVERT JUMPDEST PUSH1 0x0 DUP1 REVERT JUMPDEST PUSH1 0x0 PUSH1 0x1F NOT PUSH1 0x1F DUP4 ADD AND SWAP1 POP SWAP2 SWAP1 POP JUMP JUMPDEST PUSH32 0x4E487B7100000000000000000000000000000000000000000000000000000000 PUSH1 0x0 MSTORE PUSH1 0x41 PUSH1 0x4 MSTORE PUSH1 0x24 PUSH1 0x0 REVERT JUMPDEST PUSH2 0x1D1E DUP3 PUSH2 0x1CD5 JUMP JUMPDEST DUP2 ADD DUP2 DUP2 LT PUSH8 0xFFFFFFFFFFFFFFFF DUP3 GT OR ISZERO PUSH2 0x1D3D JUMPI PUSH2 0x1D3C PUSH2 0x1CE6 JUMP JUMPDEST JUMPDEST DUP1 PUSH1 0x40 MSTORE POP POP POP JUMP JUMPDEST PUSH1 0x0 PUSH2 0x1D50 PUSH2 0x1CBC JUMP JUMPDEST SWAP1 POP PUSH2 0x1D5C DUP3 DUP3 PUSH2 0x1D15 JUMP JUMPDEST SWAP2 SWAP1 POP JUMP JUMPDEST PUSH1 0x0 PUSH8 0xFFFFFFFFFFFFFFFF DUP3 GT ISZERO PUSH2 0x1D7C JUMPI PUSH2 0x1D7B PUSH2 0x1CE6 JUMP JUMPDEST JUMPDEST PUSH1 0x20 DUP3 MUL SWAP1 POP PUSH1 0x20 DUP2 ADD SWAP1 POP SWAP2 SWAP1 POP JUMP JUMPDEST PUSH1 0x0 DUP1 REVERT JUMPDEST PUSH1 0x0 DUP2 SWAP1 POP SWAP2 SWAP1 POP JUMP JUMPDEST PUSH2 0x1DA5 DUP2 PUSH2 0x1D92 JUMP JUMPDEST DUP2 EQ PUSH2 0x1DB0 JUMPI PUSH1 0x0 DUP1 REVERT JUMPDEST POP JUMP JUMPDEST PUSH1 0x0 DUP2 CALLDATALOAD SWAP1 POP PUSH2 0x1DC2 DUP2 PUSH2 0x1D9C JUMP JUMPDEST SWAP3 SWAP2 POP POP JUMP JUMPDEST PUSH1 0x0 PUSH2 0x1DDB PUSH2 0x1DD6 DUP5 PUSH2 0x1D61 JUMP JUMPDEST PUSH2 0x1D46 JUMP JUMPDEST SWAP1 POP DUP1 DUP4 DUP3 MSTORE PUSH1 0x20 DUP3 ADD SWAP1 POP PUSH1 0x20 DUP5 MUL DUP4 ADD DUP6 DUP2 GT ISZERO PUSH2 0x1DFE JUMPI PUSH2 0x1DFD PUSH2 0x1D8D JUMP JUMPDEST JUMPDEST DUP4 JUMPDEST DUP2 DUP2 LT ISZERO PUSH2 0x1E27 JUMPI DUP1 PUSH2 0x1E13 DUP9 DUP3 PUSH2 0x1DB3 JUMP JUMPDEST DUP5 MSTORE PUSH1 0x20 DUP5 ADD SWAP4 POP POP PUSH1 0x20 DUP2 ADD SWAP1 POP PUSH2 0x1E00 JUMP JUMPDEST POP POP POP SWAP4 SWAP3 POP POP POP JUMP JUMPDEST PUSH1 0x0 DUP3 PUSH1 0x1F DUP4 ADD SLT PUSH2 0x1E46 JUMPI PUSH2 0x1E45 PUSH2 0x1CD0 JUMP JUMPDEST JUMPDEST DUP2 CALLDATALOAD PUSH2 0x1E56 DUP5 DUP3 PUSH1 0x20 DUP7 ADD PUSH2 0x1DC8 JUMP JUMPDEST SWAP2 POP POP SWAP3 SWAP2 POP POP JUMP JUMPDEST PUSH1 0x0 PUSH1 0x20 DUP3 DUP5 SUB SLT ISZERO PUSH2 0x1E75 JUMPI PUSH2 0x1E74 PUSH2 0x1CC6 JUMP JUMPDEST JUMPDEST PUSH1 0x0 DUP3 ADD CALLDATALOAD PUSH8 0xFFFFFFFFFFFFFFFF DUP2 GT ISZERO PUSH2 0x1E93 JUMPI PUSH2 0x1E92 PUSH2 0x1CCB JUMP JUMPDEST JUMPDEST PUSH2 0x1E9F DUP5 DUP3 DUP6 ADD PUSH2 0x1E31 JUMP JUMPDEST SWAP2 POP POP SWAP3 SWAP2 POP POP JUMP JUMPDEST PUSH1 0x0 DUP2 MLOAD SWAP1 POP SWAP2 SWAP1 POP JUMP JUMPDEST PUSH1 0x0 DUP3 DUP3 MSTORE PUSH1 0x20 DUP3 ADD SWAP1 POP SWAP3 SWAP2 POP POP JUMP JUMPDEST PUSH1 0x0 DUP2 SWAP1 POP PUSH1 0x20 DUP3 ADD SWAP1 POP SWAP2 SWAP1 POP JUMP JUMPDEST PUSH2 0x1EDD DUP2 PUSH2 0x1D92 JUMP JUMPDEST DUP3 MSTORE POP POP JUMP JUMPDEST PUSH1 0x0 PUSH2 0x1EEF DUP4 DUP4 PUSH2 0x1ED4 JUMP JUMPDEST PUSH1 0x20 DUP4 ADD SWAP1 POP SWAP3 SWAP2 POP POP JUMP JUMPDEST PUSH1 0x0 PUSH1 0x20 DUP3 ADD SWAP1 POP SWAP2 SWAP1 POP JUMP JUMPDEST PUSH1 0x0 PUSH2 0x1F13 DUP3 PUSH2 0x1EA8 JUMP JUMPDEST PUSH2 0x1F1D DUP2 DUP6 PUSH2 0x1EB3 JUMP JUMPDEST SWAP4 POP PUSH2 0x1F28 DUP4 PUSH2 0x1EC4 JUMP JUMPDEST DUP1 PUSH1 0x0 JUMPDEST DUP4 DUP2 LT ISZERO PUSH2 0x1F59 JUMPI DUP2 MLOAD PUSH2 0x1F40 DUP9 DUP3 PUSH2 0x1EE3 JUMP JUMPDEST SWAP8 POP PUSH2 0x1F4B DUP4 PUSH2 0x1EFB JUMP JUMPDEST SWAP3 POP POP PUSH1 0x1 DUP2 ADD SWAP1 POP PUSH2 0x1F2C JUMP JUMPDEST POP DUP6 SWAP4 POP POP POP POP SWAP3 SWAP2 POP POP JUMP JUMPDEST PUSH1 0x0 PUSH1 0x20 DUP3 ADD SWAP1 POP DUP2 DUP2 SUB PUSH1 0x0 DUP4 ADD MSTORE PUSH2 0x1F80 DUP2 DUP5 PUSH2 0x1F08 JUMP JUMPDEST SWAP1 POP SWAP3 SWAP2 POP POP JUMP JUMPDEST PUSH1 0x0 DUP1 REVERT JUMPDEST PUSH1 0x0 DUP1 REVERT JUMPDEST PUSH1 0x0 PUSH1 0x20 DUP3 DUP5 SUB SLT ISZERO PUSH2 0x1FA8 JUMPI PUSH2 0x1FA7 PUSH2 0x1F88 JUMP JUMPDEST JUMPDEST PUSH2 0x1FB2 PUSH1 0x20 PUSH2 0x1D46 JUMP JUMPDEST SWAP1 POP PUSH1 0x0 DUP3 ADD CALLDATALOAD PUSH8 0xFFFFFFFFFFFFFFFF DUP2 GT ISZERO PUSH2 0x1FD2 JUMPI PUSH2 0x1FD1 PUSH2 0x1F8D JUMP JUMPDEST JUMPDEST PUSH2 0x1FDE DUP5 DUP3 DUP6 ADD PUSH2 0x1E31 JUMP JUMPDEST PUSH1 0x0 DUP4 ADD MSTORE POP SWAP3 SWAP2 POP POP JUMP JUMPDEST PUSH1 0x0 PUSH1 0x20 DUP3 DUP5 SUB SLT ISZERO PUSH2 0x2000 JUMPI PUSH2 0x1FFF PUSH2 0x1CC6 JUMP JUMPDEST JUMPDEST PUSH1 0x0 DUP3 ADD CALLDATALOAD PUSH8 0xFFFFFFFFFFFFFFFF DUP2 GT ISZERO PUSH2 0x201E JUMPI PUSH2 0x201D PUSH2 0x1CCB JUMP JUMPDEST JUMPDEST PUSH2 0x202A DUP5 DUP3 DUP6 ADD PUSH2 0x1F92 JUMP JUMPDEST SWAP2 POP POP SWAP3 SWAP2 POP POP JUMP JUMPDEST PUSH1 0x0 DUP3 DUP3 MSTORE PUSH1 0x20 DUP3 ADD SWAP1 POP SWAP3 SWAP2 POP POP JUMP JUMPDEST PUSH1 0x0 PUSH2 0x204F DUP3 PUSH2 0x1EA8 JUMP JUMPDEST PUSH2 0x2059 DUP2 DUP6 PUSH2 0x2033 JUMP JUMPDEST SWAP4 POP PUSH2 0x2064 DUP4 PUSH2 0x1EC4 JUMP JUMPDEST DUP1 PUSH1 0x0 JUMPDEST DUP4 DUP2 LT ISZERO PUSH2 0x2095 JUMPI DUP2 MLOAD PUSH2 0x207C DUP9 DUP3 PUSH2 0x1EE3 JUMP JUMPDEST SWAP8 POP PUSH2 0x2087 DUP4 PUSH2 0x1EFB JUMP JUMPDEST SWAP3 POP POP PUSH1 0x1 DUP2 ADD SWAP1 POP PUSH2 0x2068 JUMP JUMPDEST POP DUP6 SWAP4 POP POP POP POP SWAP3 SWAP2 POP POP JUMP JUMPDEST PUSH1 0x0 PUSH1 0x20 DUP4 ADD PUSH1 0x0 DUP4 ADD MLOAD DUP5 DUP3 SUB PUSH1 0x0 DUP7 ADD MSTORE PUSH2 0x20BF DUP3 DUP3 PUSH2 0x2044 JUMP JUMPDEST SWAP2 POP POP DUP1 SWAP2 POP POP SWAP3 SWAP2 POP POP JUMP JUMPDEST PUSH1 0x0 PUSH1 0x20 DUP3 ADD SWAP1 POP DUP2 DUP2 SUB PUSH1 0x0 DUP4 ADD MSTORE PUSH2 0x20E6 DUP2 DUP5 PUSH2 0x20A2 JUMP JUMPDEST SWAP1 POP SWAP3 SWAP2 POP POP JUMP JUMPDEST PUSH1 0x0 DUP2 MLOAD SWAP1 POP SWAP2 SWAP1 POP JUMP JUMPDEST PUSH1 0x0 DUP3 DUP3 MSTORE PUSH1 0x20 DUP3 ADD SWAP1 POP SWAP3 SWAP2 POP POP JUMP JUMPDEST PUSH1 0x0 JUMPDEST DUP4 DUP2 LT ISZERO PUSH2 0x2128 JUMPI DUP1 DUP3 ADD MLOAD DUP2 DUP5 ADD MSTORE PUSH1 0x20 DUP2 ADD SWAP1 POP PUSH2 0x210D JUMP JUMPDEST PUSH1 0x0 DUP5 DUP5 ADD MSTORE POP POP POP POP JUMP JUMPDEST PUSH1 0x0 PUSH2 0x213F DUP3 PUSH2 0x20EE JUMP JUMPDEST PUSH2 0x2149 DUP2 DUP6 PUSH2 0x20F9 JUMP JUMPDEST SWAP4 POP PUSH2 0x2159 DUP2 DUP6 PUSH1 0x20 DUP7 ADD PUSH2 0x210A JUMP JUMPDEST PUSH2 0x2162 DUP2 PUSH2 0x1CD5 JUMP JUMPDEST DUP5 ADD SWAP2 POP POP SWAP3 SWAP2 POP POP JUMP JUMPDEST PUSH1 0x0 PUSH1 0x20 DUP3 ADD SWAP1 POP DUP2 DUP2 SUB PUSH1 0x0 DUP4 ADD MSTORE PUSH2 0x2187 DUP2 DUP5 PUSH2 0x2134 JUMP JUMPDEST SWAP1 POP SWAP3 SWAP2 POP POP JUMP JUMPDEST PUSH1 0x0 PUSH8 0xFFFFFFFFFFFFFFFF DUP3 GT ISZERO PUSH2 0x21AA JUMPI PUSH2 0x21A9 PUSH2 0x1CE6 JUMP JUMPDEST JUMPDEST PUSH1 0x20 DUP3 MUL SWAP1 POP SWAP2 SWAP1 POP JUMP JUMPDEST PUSH1 0x0 PUSH2 0x21C8 PUSH2 0x21C3 DUP5 PUSH2 0x218F JUMP JUMPDEST PUSH2 0x1D46 JUMP JUMPDEST SWAP1 POP DUP1 PUSH1 0x20 DUP5 MUL DUP4 ADD DUP6 DUP2 GT ISZERO PUSH2 0x21E2 JUMPI PUSH2 0x21E1 PUSH2 0x1D8D JUMP JUMPDEST JUMPDEST DUP4 JUMPDEST DUP2 DUP2 LT ISZERO PUSH2 0x220B JUMPI DUP1 PUSH2 0x21F7 DUP9 DUP3 PUSH2 0x1DB3 JUMP JUMPDEST DUP5 MSTORE PUSH1 0x20 DUP5 ADD SWAP4 POP POP PUSH1 0x20 DUP2 ADD SWAP1 POP PUSH2 0x21E4 JUMP JUMPDEST POP POP POP SWAP4 SWAP3 POP POP POP JUMP JUMPDEST PUSH1 0x0 DUP3 PUSH1 0x1F DUP4 ADD SLT PUSH2 0x222A JUMPI PUSH2 0x2229 PUSH2 0x1CD0 JUMP JUMPDEST JUMPDEST PUSH1 0x2 PUSH2 0x2237 DUP5 DUP3 DUP6 PUSH2 0x21B5 JUMP JUMPDEST SWAP2 POP POP SWAP3 SWAP2 POP POP JUMP JUMPDEST PUSH1 0x0 PUSH8 0xFFFFFFFFFFFFFFFF DUP3 GT ISZERO PUSH2 0x225B JUMPI PUSH2 0x225A PUSH2 0x1CE6 JUMP JUMPDEST JUMPDEST PUSH1 0x20 DUP3 MUL SWAP1 POP SWAP2 SWAP1 POP JUMP JUMPDEST PUSH1 0x0 PUSH2 0x2279 PUSH2 0x2274 DUP5 PUSH2 0x2240 JUMP JUMPDEST PUSH2 0x1D46 JUMP JUMPDEST SWAP1 POP DUP1 PUSH1 0x20 DUP5 MUL DUP4 ADD DUP6 DUP2 GT ISZERO PUSH2 0x2293 JUMPI PUSH2 0x2292 PUSH2 0x1D8D JUMP JUMPDEST JUMPDEST DUP4 JUMPDEST DUP2 DUP2 LT ISZERO PUSH2 0x22BC JUMPI DUP1 PUSH2 0x22A8 DUP9 DUP3 PUSH2 0x1DB3 JUMP JUMPDEST DUP5 MSTORE PUSH1 0x20 DUP5 ADD SWAP4 POP POP PUSH1 0x20 DUP2 ADD SWAP1 POP PUSH2 0x2295 JUMP JUMPDEST POP POP POP SWAP4 SWAP3 POP POP POP JUMP JUMPDEST PUSH1 0x0 DUP3 PUSH1 0x1F DUP4 ADD SLT PUSH2 0x22DB JUMPI PUSH2 0x22DA PUSH2 0x1CD0 JUMP JUMPDEST JUMPDEST PUSH1 0x4 PUSH2 0x22E8 DUP5 DUP3 DUP6 PUSH2 0x2266 JUMP JUMPDEST SWAP2 POP POP SWAP3 SWAP2 POP POP JUMP JUMPDEST PUSH1 0x0 PUSH8 0xFFFFFFFFFFFFFFFF DUP3 GT ISZERO PUSH2 0x230C JUMPI PUSH2 0x230B PUSH2 0x1CE6 JUMP JUMPDEST JUMPDEST PUSH1 0x20 DUP3 MUL SWAP1 POP SWAP2 SWAP1 POP JUMP JUMPDEST PUSH1 0x0 PUSH8 0xFFFFFFFFFFFFFFFF DUP3 GT ISZERO PUSH2 0x2332 JUMPI PUSH2 0x2331 PUSH2 0x1CE6 JUMP JUMPDEST JUMPDEST PUSH1 0x20 DUP3 MUL SWAP1 POP SWAP2 SWAP1 POP JUMP JUMPDEST PUSH1 0x0 PUSH2 0x2350 PUSH2 0x234B DUP5 PUSH2 0x2317 JUMP JUMPDEST PUSH2 0x1D46 JUMP JUMPDEST SWAP1 POP DUP1 PUSH1 0x40 DUP5 MUL DUP4 ADD DUP6 DUP2 GT ISZERO PUSH2 0x236A JUMPI PUSH2 0x2369 PUSH2 0x1D8D JUMP JUMPDEST JUMPDEST DUP4 JUMPDEST DUP2 DUP2 LT ISZERO PUSH2 0x2393 JUMPI DUP1 PUSH2 0x237F DUP9 DUP3 PUSH2 0x2215 JUMP JUMPDEST DUP5 MSTORE PUSH1 0x20 DUP5 ADD SWAP4 POP POP PUSH1 0x40 DUP2 ADD SWAP1 POP PUSH2 0x236C JUMP JUMPDEST POP POP POP SWAP4 SWAP3 POP POP POP JUMP JUMPDEST PUSH1 0x0 DUP3 PUSH1 0x1F DUP4 ADD SLT PUSH2 0x23B2 JUMPI PUSH2 0x23B1 PUSH2 0x1CD0 JUMP JUMPDEST JUMPDEST PUSH1 0x2 PUSH2 0x23BF DUP5 DUP3 DUP6 PUSH2 0x233D JUMP JUMPDEST SWAP2 POP POP SWAP3 SWAP2 POP POP JUMP JUMPDEST PUSH1 0x0 PUSH2 0x23DB PUSH2 0x23D6 DUP5 PUSH2 0x22F1 JUMP JUMPDEST PUSH2 0x1D46 JUMP JUMPDEST SWAP1 POP DUP1 PUSH1 0x80 DUP5 MUL DUP4 ADD DUP6 DUP2 GT ISZERO PUSH2 0x23F5 JUMPI PUSH2 0x23F4 PUSH2 0x1D8D JUMP JUMPDEST JUMPDEST DUP4 JUMPDEST DUP2 DUP2 LT ISZERO PUSH2 0x241E JUMPI DUP1 PUSH2 0x240A DUP9 DUP3 PUSH2 0x239D JUMP JUMPDEST DUP5 MSTORE PUSH1 0x20 DUP5 ADD SWAP4 POP POP PUSH1 0x80 DUP2 ADD SWAP1 POP PUSH2 0x23F7 JUMP JUMPDEST POP POP POP SWAP4 SWAP3 POP POP POP JUMP JUMPDEST PUSH1 0x0 DUP3 PUSH1 0x1F DUP4 ADD SLT PUSH2 0x243D JUMPI PUSH2 0x243C PUSH2 0x1CD0 JUMP JUMPDEST JUMPDEST PUSH1 0x2 PUSH2 0x244A DUP5 DUP3 DUP6 PUSH2 0x23C8 JUMP JUMPDEST SWAP2 POP POP SWAP3 SWAP2 POP POP JUMP JUMPDEST PUSH1 0x0 PUSH2 0x1E0 DUP3 DUP5 SUB SLT ISZERO PUSH2 0x246A JUMPI PUSH2 0x2469 PUSH2 0x1F88 JUMP JUMPDEST JUMPDEST PUSH2 0x2474 PUSH1 0x80 PUSH2 0x1D46 JUMP JUMPDEST SWAP1 POP PUSH1 0x0 PUSH2 0x2484 DUP5 DUP3 DUP6 ADD PUSH2 0x1DB3 JUMP JUMPDEST PUSH1 0x0 DUP4 ADD MSTORE POP PUSH1 0x20 PUSH2 0x2498 DUP5 DUP3 DUP6 ADD PUSH2 0x2215 JUMP JUMPDEST PUSH1 0x20 DUP4 ADD MSTORE POP PUSH1 0x60 PUSH2 0x24AC DUP5 DUP3 DUP6 ADD PUSH2 0x22C6 JUMP JUMPDEST PUSH1 0x40 DUP4 ADD MSTORE POP PUSH1 0xE0 PUSH2 0x24C0 DUP5 DUP3 DUP6 ADD PUSH2 0x2428 JUMP JUMPDEST PUSH1 0x60 DUP4 ADD MSTORE POP SWAP3 SWAP2 POP POP JUMP JUMPDEST PUSH1 0x0 PUSH2 0x1E0 DUP3 DUP5 SUB SLT ISZERO PUSH2 0x24E3 JUMPI PUSH2 0x24E2 PUSH2 0x1CC6 JUMP JUMPDEST JUMPDEST PUSH1 0x0 PUSH2 0x24F1 DUP5 DUP3 DUP6 ADD PUSH2 0x2453 JUMP JUMPDEST SWAP2 POP POP SWAP3 SWAP2 POP POP JUMP JUMPDEST PUSH1 0x0 PUSH1 0x2 SWAP1 POP SWAP2 SWAP1 POP JUMP JUMPDEST PUSH1 0x0 DUP2 SWAP1 POP SWAP3 SWAP2 POP POP JUMP JUMPDEST PUSH1 0x0 DUP2 SWAP1 POP SWAP2 SWAP1 POP JUMP JUMPDEST PUSH1 0x0 PUSH1 0x20 DUP3 ADD SWAP1 POP SWAP2 SWAP1 POP JUMP JUMPDEST PUSH2 0x2530 DUP2 PUSH2 0x24FA JUMP JUMPDEST PUSH2 0x253A DUP2 DUP5 PUSH2 0x2505 JUMP JUMPDEST SWAP3 POP PUSH2 0x2545 DUP3 PUSH2 0x2510 JUMP JUMPDEST DUP1 PUSH1 0x0 JUMPDEST DUP4 DUP2 LT ISZERO PUSH2 0x2576 JUMPI DUP2 MLOAD PUSH2 0x255D DUP8 DUP3 PUSH2 0x1EE3 JUMP JUMPDEST SWAP7 POP PUSH2 0x2568 DUP4 PUSH2 0x251A JUMP JUMPDEST SWAP3 POP POP PUSH1 0x1 DUP2 ADD SWAP1 POP PUSH2 0x2549 JUMP JUMPDEST POP POP POP POP POP POP JUMP JUMPDEST PUSH1 0x0 PUSH1 0x4 SWAP1 POP SWAP2 SWAP1 POP JUMP JUMPDEST PUSH1 0x0 DUP2 SWAP1 POP SWAP3 SWAP2 POP POP JUMP JUMPDEST PUSH1 0x0 DUP2 SWAP1 POP SWAP2 SWAP1 POP JUMP JUMPDEST PUSH1 0x0 PUSH1 0x20 DUP3 ADD SWAP1 POP SWAP2 SWAP1 POP JUMP JUMPDEST PUSH2 0x25B4 DUP2 PUSH2 0x257E JUMP JUMPDEST PUSH2 0x25BE DUP2 DUP5 PUSH2 0x2589 JUMP JUMPDEST SWAP3 POP PUSH2 0x25C9 DUP3 PUSH2 0x2594 JUMP JUMPDEST DUP1 PUSH1 0x0 JUMPDEST DUP4 DUP2 LT ISZERO PUSH2 0x25FA JUMPI DUP2 MLOAD PUSH2 0x25E1 DUP8 DUP3 PUSH2 0x1EE3 JUMP JUMPDEST SWAP7 POP PUSH2 0x25EC DUP4 PUSH2 0x259E JUMP JUMPDEST SWAP3 POP POP PUSH1 0x1 DUP2 ADD SWAP1 POP PUSH2 0x25CD JUMP JUMPDEST POP POP POP POP POP POP JUMP JUMPDEST PUSH1 0x0 PUSH1 0x2 SWAP1 POP SWAP2 SWAP1 POP JUMP JUMPDEST PUSH1 0x0 DUP2 SWAP1 POP SWAP3 SWAP2 POP POP JUMP JUMPDEST PUSH1 0x0 DUP2 SWAP1 POP SWAP2 SWAP1 POP JUMP JUMPDEST PUSH1 0x0 PUSH1 0x2 SWAP1 POP SWAP2 SWAP1 POP JUMP JUMPDEST PUSH1 0x0 DUP2 SWAP1 POP SWAP3 SWAP2 POP POP JUMP JUMPDEST PUSH1 0x0 DUP2 SWAP1 POP SWAP2 SWAP1 POP JUMP JUMPDEST PUSH1 0x0 PUSH2 0x264E DUP4 DUP4 PUSH2 0x2527 JUMP JUMPDEST PUSH1 0x40 DUP4 ADD SWAP1 POP SWAP3 SWAP2 POP POP JUMP JUMPDEST PUSH1 0x0 PUSH1 0x20 DUP3 ADD SWAP1 POP SWAP2 SWAP1 POP JUMP JUMPDEST PUSH2 0x2670 DUP2 PUSH2 0x2622 JUMP JUMPDEST PUSH2 0x267A DUP2 DUP5 PUSH2 0x262D JUMP JUMPDEST SWAP3 POP PUSH2 0x2685 DUP3 PUSH2 0x2638 JUMP JUMPDEST DUP1 PUSH1 0x0 JUMPDEST DUP4 DUP2 LT ISZERO PUSH2 0x26B6 JUMPI DUP2 MLOAD PUSH2 0x269D DUP8 DUP3 PUSH2 0x2642 JUMP JUMPDEST SWAP7 POP PUSH2 0x26A8 DUP4 PUSH2 0x265A JUMP JUMPDEST SWAP3 POP POP PUSH1 0x1 DUP2 ADD SWAP1 POP PUSH2 0x2689 JUMP JUMPDEST POP POP POP POP POP POP JUMP JUMPDEST PUSH1 0x0 PUSH2 0x26CA DUP4 DUP4 PUSH2 0x2667 JUMP JUMPDEST PUSH1 0x80 DUP4 ADD SWAP1 POP SWAP3 SWAP2 POP POP JUMP JUMPDEST PUSH1 0x0 PUSH1 0x20 DUP3 ADD SWAP1 POP SWAP2 SWAP1 POP JUMP JUMPDEST PUSH2 0x26EC DUP2 PUSH2 0x2602 JUMP JUMPDEST PUSH2 0x26F6 DUP2 DUP5 PUSH2 0x260D JUMP JUMPDEST SWAP3 POP PUSH2 0x2701 DUP3 PUSH2 0x2618 JUMP JUMPDEST DUP1 PUSH1 0x0 JUMPDEST DUP4 DUP2 LT ISZERO PUSH2 0x2732 JUMPI DUP2 MLOAD PUSH2 0x2719 DUP8 DUP3 PUSH2 0x26BE JUMP JUMPDEST SWAP7 POP PUSH2 0x2724 DUP4 PUSH2 0x26D6 JUMP JUMPDEST SWAP3 POP POP PUSH1 0x1 DUP2 ADD SWAP1 POP PUSH2 0x2705 JUMP JUMPDEST POP POP POP POP POP POP JUMP JUMPDEST PUSH2 0x1E0 DUP3 ADD PUSH1 0x0 DUP3 ADD MLOAD PUSH2 0x2751 PUSH1 0x0 DUP6 ADD DUP3 PUSH2 0x1ED4 JUMP JUMPDEST POP PUSH1 0x20 DUP3 ADD MLOAD PUSH2 0x2764 PUSH1 0x20 DUP6 ADD DUP3 PUSH2 0x2527 JUMP JUMPDEST POP PUSH1 0x40 DUP3 ADD MLOAD PUSH2 0x2777 PUSH1 0x60 DUP6 ADD DUP3 PUSH2 0x25AB JUMP JUMPDEST POP PUSH1 0x60 DUP3 ADD MLOAD PUSH2 0x278A PUSH1 0xE0 DUP6 ADD DUP3 PUSH2 0x26E3 JUMP JUMPDEST POP POP POP POP JUMP JUMPDEST PUSH1 0x0 PUSH2 0x1E0 DUP3 ADD SWAP1 POP PUSH2 0x27A6 PUSH1 0x0 DUP4 ADD DUP5 PUSH2 0x273A JUMP JUMPDEST SWAP3 SWAP2 POP POP JUMP JUMPDEST PUSH1 0x0 PUSH2 0xFFFF DUP3 AND SWAP1 POP SWAP2 SWAP1 POP JUMP JUMPDEST PUSH2 0x27C3 DUP2 PUSH2 0x27AC JUMP JUMPDEST DUP2 EQ PUSH2 0x27CE JUMPI PUSH1 0x0 DUP1 REVERT JUMPDEST POP JUMP JUMPDEST PUSH1 0x0 DUP2 CALLDATALOAD SWAP1 POP PUSH2 0x27E0 DUP2 PUSH2 0x27BA JUMP JUMPDEST SWAP3 SWAP2 POP POP JUMP JUMPDEST PUSH1 0x0 DUP1 PUSH1 0x0 DUP1 PUSH1 0x0 DUP1 PUSH1 0x0 DUP1 PUSH2 0x280 DUP10 DUP12 SUB SLT ISZERO PUSH2 0x2807 JUMPI PUSH2 0x2806 PUSH2 0x1CC6 JUMP JUMPDEST JUMPDEST PUSH1 0x0 PUSH2 0x2815 DUP12 DUP3 DUP13 ADD PUSH2 0x1DB3 JUMP JUMPDEST SWAP9 POP POP PUSH1 0x20 PUSH2 0x2826 DUP12 DUP3 DUP13 ADD PUSH2 0x1DB3 JUMP JUMPDEST SWAP8 POP POP PUSH1 0x40 PUSH2 0x2837 DUP12 DUP3 DUP13 ADD PUSH2 0x2215 JUMP JUMPDEST SWAP7 POP POP PUSH1 0x80 PUSH2 0x2848 DUP12 DUP3 DUP13 ADD PUSH2 0x22C6 JUMP JUMPDEST SWAP6 POP POP PUSH2 0x100 PUSH2 0x285A DUP12 DUP3 DUP13 ADD PUSH2 0x2428 JUMP JUMPDEST SWAP5 POP POP PUSH2 0x200 PUSH2 0x286C DUP12 DUP3 DUP13 ADD PUSH2 0x1DB3 JUMP JUMPDEST SWAP4 POP POP PUSH2 0x220 PUSH2 0x287E DUP12 DUP3 DUP13 ADD PUSH2 0x2215 JUMP JUMPDEST SWAP3 POP POP PUSH2 0x260 PUSH2 0x2890 DUP12 DUP3 DUP13 ADD PUSH2 0x27D1 JUMP JUMPDEST SWAP2 POP POP SWAP3 SWAP6 SWAP9 POP SWAP3 SWAP6 SWAP9 SWAP1 SWAP4 SWAP7 POP JUMP JUMPDEST PUSH1 0x0 DUP2 ISZERO ISZERO SWAP1 POP SWAP2 SWAP1 POP JUMP JUMPDEST PUSH2 0x28B5 DUP2 PUSH2 0x28A0 JUMP JUMPDEST DUP3 MSTORE POP POP JUMP JUMPDEST PUSH1 0x0 PUSH1 0x20 DUP3 ADD SWAP1 POP PUSH2 0x28D0 PUSH1 0x0 DUP4 ADD DUP5 PUSH2 0x28AC JUMP JUMPDEST SWAP3 SWAP2 POP POP JUMP JUMPDEST PUSH1 0x0 PUSH1 0x40 DUP3 DUP5 SUB SLT ISZERO PUSH2 0x28EC JUMPI PUSH2 0x28EB PUSH2 0x1CC6 JUMP JUMPDEST JUMPDEST PUSH1 0x0 PUSH2 0x28FA DUP5 DUP3 DUP6 ADD PUSH2 0x2215 JUMP JUMPDEST SWAP2 POP POP SWAP3 SWAP2 POP POP JUMP JUMPDEST PUSH1 0x0 DUP1 PUSH2 0x200 DUP4 DUP6 SUB SLT ISZERO PUSH2 0x291B JUMPI PUSH2 0x291A PUSH2 0x1CC6 JUMP JUMPDEST JUMPDEST PUSH1 0x0 PUSH2 0x2929 DUP6 DUP3 DUP7 ADD PUSH2 0x1DB3 JUMP JUMPDEST SWAP3 POP POP PUSH1 0x20 PUSH2 0x293A DUP6 DUP3 DUP7 ADD PUSH2 0x2453 JUMP JUMPDEST SWAP2 POP POP SWAP3 POP SWAP3 SWAP1 POP JUMP JUMPDEST PUSH1 0x0 DUP2 MLOAD SWAP1 POP SWAP2 SWAP1 POP JUMP JUMPDEST PUSH1 0x0 DUP3 DUP3 MSTORE PUSH1 0x20 DUP3 ADD SWAP1 POP SWAP3 SWAP2 POP POP JUMP JUMPDEST PUSH1 0x0 DUP2 SWAP1 POP PUSH1 0x20 DUP3 ADD SWAP1 POP SWAP2 SWAP1 POP JUMP JUMPDEST PUSH1 0x0 PUSH1 0x20 DUP3 ADD SWAP1 POP SWAP2 SWAP1 POP JUMP JUMPDEST PUSH1 0x0 PUSH2 0x2988 DUP3 PUSH2 0x2944 JUMP JUMPDEST PUSH2 0x2992 DUP2 DUP6 PUSH2 0x294F JUMP JUMPDEST SWAP4 POP PUSH2 0x299D DUP4 PUSH2 0x2960 JUMP JUMPDEST DUP1 PUSH1 0x0 JUMPDEST DUP4 DUP2 LT ISZERO PUSH2 0x29CE JUMPI DUP2 MLOAD PUSH2 0x29B5 DUP9 DUP3 PUSH2 0x2642 JUMP JUMPDEST SWAP8 POP PUSH2 0x29C0 DUP4 PUSH2 0x2970 JUMP JUMPDEST SWAP3 POP POP PUSH1 0x1 DUP2 ADD SWAP1 POP PUSH2 0x29A1 JUMP JUMPDEST POP DUP6 SWAP4 POP POP POP POP SWAP3 SWAP2 POP POP JUMP JUMPDEST PUSH1 0x0 PUSH1 0x20 DUP3 ADD SWAP1 POP DUP2 DUP2 SUB PUSH1 0x0 DUP4 ADD MSTORE PUSH2 0x29F5 DUP2 DUP5 PUSH2 0x297D JUMP JUMPDEST SWAP1 POP SWAP3 SWAP2 POP POP JUMP JUMPDEST PUSH1 0x0 DUP2 MLOAD SWAP1 POP SWAP2 SWAP1 POP JUMP JUMPDEST PUSH1 0x0 DUP3 DUP3 MSTORE PUSH1 0x20 DUP3 ADD SWAP1 POP SWAP3 SWAP2 POP POP JUMP JUMPDEST PUSH1 0x0 DUP2 SWAP1 POP PUSH1 0x20 DUP3 ADD SWAP1 POP SWAP2 SWAP1 POP JUMP JUMPDEST PUSH2 0x2A32 DUP2 PUSH2 0x27AC JUMP JUMPDEST DUP3 MSTORE POP POP JUMP JUMPDEST PUSH1 0x80 DUP3 ADD PUSH1 0x0 DUP3 ADD MLOAD PUSH2 0x2A4E PUSH1 0x0 DUP6 ADD DUP3 PUSH2 0x1ED4 JUMP JUMPDEST POP PUSH1 0x20 DUP3 ADD MLOAD PUSH2 0x2A61 PUSH1 0x20 DUP6 ADD DUP3 PUSH2 0x2527 JUMP JUMPDEST POP PUSH1 0x40 DUP3 ADD MLOAD PUSH2 0x2A74 PUSH1 0x60 DUP6 ADD DUP3 PUSH2 0x2A29 JUMP JUMPDEST POP POP POP POP JUMP JUMPDEST PUSH1 0x0 PUSH2 0x2A86 DUP4 DUP4 PUSH2 0x2A38 JUMP JUMPDEST PUSH1 0x80 DUP4 ADD SWAP1 POP SWAP3 SWAP2 POP POP JUMP JUMPDEST PUSH1 0x0 PUSH1 0x20 DUP3 ADD SWAP1 POP SWAP2 SWAP1 POP JUMP JUMPDEST PUSH1 0x0 PUSH2 0x2AAA DUP3 PUSH2 0x29FD JUMP JUMPDEST PUSH2 0x2AB4 DUP2 DUP6 PUSH2 0x2A08 JUMP JUMPDEST SWAP4 POP PUSH2 0x2ABF DUP4 PUSH2 0x2A19 JUMP JUMPDEST DUP1 PUSH1 0x0 JUMPDEST DUP4 DUP2 LT ISZERO PUSH2 0x2AF0 JUMPI DUP2 MLOAD PUSH2 0x2AD7 DUP9 DUP3 PUSH2 0x2A7A JUMP JUMPDEST SWAP8 POP PUSH2 0x2AE2 DUP4 PUSH2 0x2A92 JUMP JUMPDEST SWAP3 POP POP PUSH1 0x1 DUP2 ADD SWAP1 POP PUSH2 0x2AC3 JUMP JUMPDEST POP DUP6 SWAP4 POP POP POP POP SWAP3 SWAP2 POP POP JUMP JUMPDEST PUSH1 0x0 PUSH1 0x20 DUP3 ADD SWAP1 POP DUP2 DUP2 SUB PUSH1 0x0 DUP4 ADD MSTORE PUSH2 0x2B17 DUP2 DUP5 PUSH2 0x2A9F JUMP JUMPDEST SWAP1 POP SWAP3 SWAP2 POP POP JUMP JUMPDEST PUSH1 0x0 PUSH1 0x20 DUP3 DUP5 SUB SLT ISZERO PUSH2 0x2B35 JUMPI PUSH2 0x2B34 PUSH2 0x1CC6 JUMP JUMPDEST JUMPDEST PUSH1 0x0 PUSH2 0x2B43 DUP5 DUP3 DUP6 ADD PUSH2 0x1DB3 JUMP JUMPDEST SWAP2 POP POP SWAP3 SWAP2 POP POP JUMP JUMPDEST PUSH2 0x2B55 DUP2 PUSH2 0x1D92 JUMP JUMPDEST DUP3 MSTORE POP POP JUMP JUMPDEST PUSH1 0x0 PUSH1 0x20 DUP3 ADD SWAP1 POP PUSH2 0x2B70 PUSH1 0x0 DUP4 ADD DUP5 PUSH2 0x2B4C JUMP JUMPDEST SWAP3 SWAP2 POP POP JUMP JUMPDEST PUSH1 0x0 DUP2 SWAP1 POP SWAP3 SWAP2 POP POP JUMP JUMPDEST PUSH2 0x2B8A DUP2 PUSH2 0x24FA JUMP JUMPDEST PUSH2 0x2B94 DUP2 DUP5 PUSH2 0x2B76 JUMP JUMPDEST SWAP3 POP PUSH2 0x2B9F DUP3 PUSH2 0x2510 JUMP JUMPDEST DUP1 PUSH1 0x0 JUMPDEST DUP4 DUP2 LT ISZERO PUSH2 0x2BD0 JUMPI DUP2 MLOAD PUSH2 0x2BB7 DUP8 DUP3 PUSH2 0x1EE3 JUMP JUMPDEST SWAP7 POP PUSH2 0x2BC2 DUP4 PUSH2 0x251A JUMP JUMPDEST SWAP3 POP POP PUSH1 0x1 DUP2 ADD SWAP1 POP PUSH2 0x2BA3 JUMP JUMPDEST POP POP POP POP POP POP JUMP JUMPDEST PUSH1 0x0 PUSH1 0x40 DUP3 ADD SWAP1 POP PUSH2 0x2BED PUSH1 0x0 DUP4 ADD DUP5 PUSH2 0x2B81 JUMP JUMPDEST SWAP3 SWAP2 POP POP JUMP JUMPDEST PUSH2 0x2BFC DUP2 PUSH2 0x28A0 JUMP JUMPDEST DUP2 EQ PUSH2 0x2C07 JUMPI PUSH1 0x0 DUP1 REVERT JUMPDEST POP JUMP JUMPDEST PUSH1 0x0 DUP2 MLOAD SWAP1 POP PUSH2 0x2C19 DUP2 PUSH2 0x2BF3 JUMP JUMPDEST SWAP3 SWAP2 POP POP JUMP JUMPDEST PUSH1 0x0 PUSH1 0x20 DUP3 DUP5 SUB SLT ISZERO PUSH2 0x2C35 JUMPI PUSH2 0x2C34 PUSH2 0x1CC6 JUMP JUMPDEST JUMPDEST PUSH1 0x0 PUSH2 0x2C43 DUP5 DUP3 DUP6 ADD PUSH2 0x2C0A JUMP JUMPDEST SWAP2 POP POP SWAP3 SWAP2 POP POP JUMP JUMPDEST PUSH32 0x5468652070726F7669646564206B6579496D61676520686173206265656E2075 PUSH1 0x0 DUP3 ADD MSTORE PUSH32 0x736564206265666F726521000000000000000000000000000000000000000000 PUSH1 0x20 DUP3 ADD MSTORE POP JUMP JUMPDEST PUSH1 0x0 PUSH2 0x2CA8 PUSH1 0x2B DUP4 PUSH2 0x20F9 JUMP JUMPDEST SWAP2 POP PUSH2 0x2CB3 DUP3 PUSH2 0x2C4C JUMP JUMPDEST PUSH1 0x40 DUP3 ADD SWAP1 POP SWAP2 SWAP1 POP JUMP JUMPDEST PUSH1 0x0 PUSH1 0x20 DUP3 ADD SWAP1 POP DUP2 DUP2 SUB PUSH1 0x0 DUP4 ADD MSTORE PUSH2 0x2CD7 DUP2 PUSH2 0x2C9B JUMP JUMPDEST SWAP1 POP SWAP2 SWAP1 POP JUMP JUMPDEST PUSH1 0x0 PUSH2 0x200 DUP3 ADD SWAP1 POP PUSH2 0x2CF4 PUSH1 0x0 DUP4 ADD DUP6 PUSH2 0x2B4C JUMP JUMPDEST PUSH2 0x2D01 PUSH1 0x20 DUP4 ADD DUP5 PUSH2 0x273A JUMP JUMPDEST SWAP4 SWAP3 POP POP POP JUMP JUMPDEST PUSH32 0x5468652070726F7669646564207369676E617475726573207765726520696E63 PUSH1 0x0 DUP3 ADD MSTORE PUSH32 0x6F727265637421200A20546865207472616E73616374696F6E2077696C6C2062 PUSH1 0x20 DUP3 ADD MSTORE PUSH32 0x652063616E63656C65642E200000000000000000000000000000000000000000 PUSH1 0x40 DUP3 ADD MSTORE POP JUMP JUMPDEST PUSH1 0x0 PUSH2 0x2D8A PUSH1 0x4C DUP4 PUSH2 0x20F9 JUMP JUMPDEST SWAP2 POP PUSH2 0x2D95 DUP3 PUSH2 0x2D08 JUMP JUMPDEST PUSH1 0x60 DUP3 ADD SWAP1 POP SWAP2 SWAP1 POP JUMP JUMPDEST PUSH1 0x0 PUSH1 0x20 DUP3 ADD SWAP1 POP DUP2 DUP2 SUB PUSH1 0x0 DUP4 ADD MSTORE PUSH2 0x2DB9 DUP2 PUSH2 0x2D7D JUMP JUMPDEST SWAP1 POP SWAP2 SWAP1 POP JUMP JUMPDEST PUSH1 0x0 DUP2 SWAP1 POP SWAP2 SWAP1 POP JUMP JUMPDEST PUSH1 0x0 DUP2 SWAP1 POP SWAP2 SWAP1 POP JUMP JUMPDEST PUSH1 0x0 PUSH2 0x2DEF PUSH2 0x2DEA PUSH2 0x2DE5 DUP5 PUSH2 0x2DC0 JUMP JUMPDEST PUSH2 0x2DCA JUMP JUMPDEST PUSH2 0x1D92 JUMP JUMPDEST SWAP1 POP SWAP2 SWAP1 POP JUMP JUMPDEST PUSH2 0x2DFF DUP2 PUSH2 0x2DD4 JUMP JUMPDEST DUP3 MSTORE POP POP JUMP JUMPDEST PUSH1 0x0 PUSH1 0x20 DUP3 ADD SWAP1 POP PUSH2 0x2E1A PUSH1 0x0 DUP4 ADD DUP5 PUSH2 0x2DF6 JUMP JUMPDEST SWAP3 SWAP2 POP POP JUMP JUMPDEST PUSH32 0x4E487B7100000000000000000000000000000000000000000000000000000000 PUSH1 0x0 MSTORE PUSH1 0x32 PUSH1 0x4 MSTORE PUSH1 0x24 PUSH1 0x0 REVERT JUMPDEST PUSH32 0x4E487B7100000000000000000000000000000000000000000000000000000000 PUSH1 0x0 MSTORE PUSH1 0x11 PUSH1 0x4 MSTORE PUSH1 0x24 PUSH1 0x0 REVERT JUMPDEST PUSH1 0x0 PUSH2 0x2E89 DUP3 PUSH2 0x1D92 JUMP JUMPDEST SWAP2 POP PUSH32 0xFFFFFFFFFFFFFFFFFFFFFFFFFFFFFFFFFFFFFFFFFFFFFFFFFFFFFFFFFFFFFFFF DUP3 SUB PUSH2 0x2EBB JUMPI PUSH2 0x2EBA PUSH2 0x2E4F JUMP JUMPDEST JUMPDEST PUSH1 0x1 DUP3 ADD SWAP1 POP SWAP2 SWAP1 POP JUMP JUMPDEST PUSH1 0x0 PUSH2 0x2ED1 DUP3 PUSH2 0x1D92 JUMP JUMPDEST SWAP2 POP PUSH2 0x2EDC DUP4 PUSH2 0x1D92 JUMP JUMPDEST SWAP3 POP DUP3 DUP3 SUB SWAP1 POP DUP2 DUP2 GT ISZERO PUSH2 0x2EF4 JUMPI PUSH2 0x2EF3 PUSH2 0x2E4F JUMP JUMPDEST JUMPDEST SWAP3 SWAP2 POP POP JUMP JUMPDEST PUSH1 0x0 PUSH2 0x2F05 DUP3 PUSH2 0x1D92 JUMP JUMPDEST SWAP2 POP PUSH2 0x2F10 DUP4 PUSH2 0x1D92 JUMP JUMPDEST SWAP3 POP DUP3 DUP3 ADD SWAP1 POP DUP1 DUP3 GT ISZERO PUSH2 0x2F28 JUMPI PUSH2 0x2F27 PUSH2 0x2E4F JUMP JUMPDEST JUMPDEST SWAP3 SWAP2 POP POP JUMP JUMPDEST PUSH1 0x0 DUP2 MLOAD SWAP1 POP PUSH2 0x2F3D DUP2 PUSH2 0x1D9C JUMP JUMPDEST SWAP3 SWAP2 POP POP JUMP JUMPDEST PUSH1 0x0 PUSH2 0x2F56 PUSH2 0x2F51 DUP5 PUSH2 0x218F JUMP JUMPDEST PUSH2 0x1D46 JUMP JUMPDEST SWAP1 POP DUP1 PUSH1 0x20 DUP5 MUL DUP4 ADD DUP6 DUP2 GT ISZERO PUSH2 0x2F70 JUMPI PUSH2 0x2F6F PUSH2 0x1D8D JUMP JUMPDEST JUMPDEST DUP4 JUMPDEST DUP2 DUP2 LT ISZERO PUSH2 0x2F99 JUMPI DUP1 PUSH2 0x2F85 DUP9 DUP3 PUSH2 0x2F2E JUMP JUMPDEST DUP5 MSTORE PUSH1 0x20 DUP5 ADD SWAP4 POP POP PUSH1 0x20 DUP2 ADD SWAP1 POP PUSH2 0x2F72 JUMP JUMPDEST POP POP POP SWAP4 SWAP3 POP POP POP JUMP JUMPDEST PUSH1 0x0 DUP3 PUSH1 0x1F DUP4 ADD SLT PUSH2 0x2FB8 JUMPI PUSH2 0x2FB7 PUSH2 0x1CD0 JUMP JUMPDEST JUMPDEST PUSH1 0x2 PUSH2 0x2FC5 DUP5 DUP3 DUP6 PUSH2 0x2F43 JUMP JUMPDEST SWAP2 POP POP SWAP3 SWAP2 POP POP JUMP JUMPDEST PUSH1 0x0 PUSH1 0x40 DUP3 DUP5 SUB SLT ISZERO PUSH2 0x2FE4 JUMPI PUSH2 0x2FE3 PUSH2 0x1CC6 JUMP JUMPDEST JUMPDEST PUSH1 0x0 PUSH2 0x2FF2 DUP5 DUP3 DUP6 ADD PUSH2 0x2FA3 JUMP JUMPDEST SWAP2 POP POP SWAP3 SWAP2 POP POP JUMP JUMPDEST PUSH1 0x0 PUSH1 0x60 DUP3 ADD SWAP1 POP PUSH2 0x3010 PUSH1 0x0 DUP4 ADD DUP6 PUSH2 0x2B81 JUMP JUMPDEST PUSH2 0x301D PUSH1 0x40 DUP4 ADD DUP5 PUSH2 0x2B4C JUMP JUMPDEST SWAP4 SWAP3 POP POP POP JUMP JUMPDEST PUSH1 0x0 PUSH1 0x80 DUP3 ADD SWAP1 POP PUSH2 0x3039 PUSH1 0x0 DUP4 ADD DUP6 PUSH2 0x2B81 JUMP JUMPDEST PUSH2 0x3046 PUSH1 0x40 DUP4 ADD DUP5 PUSH2 0x2B81 JUMP JUMPDEST SWAP4 SWAP3 POP POP POP JUMP JUMPDEST PUSH1 0x0 DUP2 SWAP1 POP SWAP3 SWAP2 POP POP JUMP JUMPDEST PUSH1 0x0 PUSH2 0x3063 DUP3 PUSH2 0x20EE JUMP JUMPDEST PUSH2 0x306D DUP2 DUP6 PUSH2 0x304D JUMP JUMPDEST SWAP4 POP PUSH2 0x307D DUP2 DUP6 PUSH1 0x20 DUP7 ADD PUSH2 0x210A JUMP JUMPDEST DUP1 DUP5 ADD SWAP2 POP POP SWAP3 SWAP2 POP POP JUMP JUMPDEST PUSH1 0x0 PUSH2 0x3095 DUP3 DUP6 PUSH2 0x3058 JUMP JUMPDEST SWAP2 POP PUSH2 0x30A1 DUP3 DUP5 PUSH2 0x3058 JUMP JUMPDEST SWAP2 POP DUP2 SWAP1 POP SWAP4 SWAP3 POP POP POP JUMP JUMPDEST PUSH32 0x4E487B7100000000000000000000000000000000000000000000000000000000 PUSH1 0x0 MSTORE PUSH1 0x12 PUSH1 0x4 MSTORE PUSH1 0x24 PUSH1 0x0 REVERT JUMPDEST PUSH1 0x0 PUSH2 0x30E8 DUP3 DUP5 PUSH2 0x3058 JUMP JUMPDEST SWAP2 POP DUP2 SWAP1 POP SWAP3 SWAP2 POP POP JUMP INVALID LOG2 PUSH5 0x6970667358 0x22 SLT KECCAK256 OR 0xD9 0x22 DUP11 PUSH27 0x3F399519B839AA67D2FE2DF3EF622F3C3007AA5AC3E5A7A5217894 PUSH5 0x736F6C6343 STOP ADDMOD SGT STOP CALLER PUSH1 0x80 PUSH1 0x40 MSTORE CALLVALUE DUP1 ISZERO PUSH2 0x10 JUMPI PUSH1 0x0 DUP1 REVERT JUMPDEST POP PUSH2 0x1955 DUP1 PUSH2 0x20 PUSH1 0x0 CODECOPY PUSH1 0x0 RETURN INVALID PUSH1 0x80 PUSH1 0x40 MSTORE CALLVALUE DUP1 ISZERO PUSH2 0x10 JUMPI PUSH1 0x0 DUP1 REVERT JUMPDEST POP PUSH1 0x4 CALLDATASIZE LT PUSH2 0xF5 JUMPI PUSH1 0x0 CALLDATALOAD PUSH1 0xE0 SHR DUP1 PUSH4 0x997DA8D4 GT PUSH2 0x97 JUMPI DUP1 PUSH4 0xBB734C4E GT PUSH2 0x66 JUMPI DUP1 PUSH4 0xBB734C4E EQ PUSH2 0x28C JUMPI DUP1 PUSH4 0xC11B8AD7 EQ PUSH2 0x2BC JUMPI DUP1 PUSH4 0xE7A48839 EQ PUSH2 0x2DA JUMPI DUP1 PUSH4 0xEEEAC01E EQ PUSH2 0x2F8 JUMPI PUSH2 0xF5 JUMP JUMPDEST DUP1 PUSH4 0x997DA8D4 EQ PUSH2 0x1F0 JUMPI DUP1 PUSH4 0x9B4CDCD3 EQ PUSH2 0x20E JUMPI DUP1 PUSH4 0x9F13F76D EQ PUSH2 0x23E JUMPI DUP1 PUSH4 0xACA8F56E EQ PUSH2 0x25C JUMPI PUSH2 0xF5 JUMP JUMPDEST DUP1 PUSH4 0x29038545 GT PUSH2 0xD3 JUMPI DUP1 PUSH4 0x29038545 EQ PUSH2 0x178 JUMPI DUP1 PUSH4 0x4E93D4A2 EQ PUSH2 0x196 JUMPI DUP1 PUSH4 0x5727DC5C EQ PUSH2 0x1B4 JUMPI DUP1 PUSH4 0x7A308A4C EQ PUSH2 0x1D2 JUMPI PUSH2 0xF5 JUMP JUMPDEST DUP1 PUSH4 0x3A507BE EQ PUSH2 0xFA JUMPI DUP1 PUSH4 0x1177A4A4 EQ PUSH2 0x118 JUMPI DUP1 PUSH4 0x1C51DF7B EQ PUSH2 0x148 JUMPI JUMPDEST PUSH1 0x0 DUP1 REVERT JUMPDEST PUSH2 0x102 PUSH2 0x316 JUMP JUMPDEST PUSH1 0x40 MLOAD PUSH2 0x10F SWAP2 SWAP1 PUSH2 0x13C1 JUMP JUMPDEST PUSH1 0x40 MLOAD DUP1 SWAP2 SUB SWAP1 RETURN JUMPDEST PUSH2 0x132 PUSH1 0x4 DUP1 CALLDATASIZE SUB DUP2 ADD SWAP1 PUSH2 0x12D SWAP2 SWAP1 PUSH2 0x155E JUMP JUMPDEST PUSH2 0x33A JUMP JUMPDEST PUSH1 0x40 MLOAD PUSH2 0x13F SWAP2 SWAP1 PUSH2 0x1649 JUMP JUMPDEST PUSH1 0x40 MLOAD DUP1 SWAP2 SUB SWAP1 RETURN JUMPDEST PUSH2 0x162 PUSH1 0x4 DUP1 CALLDATASIZE SUB DUP2 ADD SWAP1 PUSH2 0x15D SWAP2 SWAP1 PUSH2 0x155E JUMP JUMPDEST PUSH2 0x3F7 JUMP JUMPDEST PUSH1 0x40 MLOAD PUSH2 0x16F SWAP2 SWAP1 PUSH2 0x1649 JUMP JUMPDEST PUSH1 0x40 MLOAD DUP1 SWAP2 SUB SWAP1 RETURN JUMPDEST PUSH2 0x180 PUSH2 0x4B4 JUMP JUMPDEST PUSH1 0x40 MLOAD PUSH2 0x18D SWAP2 SWAP1 PUSH2 0x13C1 JUMP JUMPDEST PUSH1 0x40 MLOAD DUP1 SWAP2 SUB SWAP1 RETURN JUMPDEST PUSH2 0x19E PUSH2 0x4D8 JUMP JUMPDEST PUSH1 0x40 MLOAD PUSH2 0x1AB SWAP2 SWAP1 PUSH2 0x13C1 JUMP JUMPDEST PUSH1 0x40 MLOAD DUP1 SWAP2 SUB SWAP1 RETURN JUMPDEST PUSH2 0x1BC PUSH2 0x4FC JUMP JUMPDEST PUSH1 0x40 MLOAD PUSH2 0x1C9 SWAP2 SWAP1 PUSH2 0x13C1 JUMP JUMPDEST PUSH1 0x40 MLOAD DUP1 SWAP2 SUB SWAP1 RETURN JUMPDEST PUSH2 0x1DA PUSH2 0x501 JUMP JUMPDEST PUSH1 0x40 MLOAD PUSH2 0x1E7 SWAP2 SWAP1 PUSH2 0x13C1 JUMP JUMPDEST PUSH1 0x40 MLOAD DUP1 SWAP2 SUB SWAP1 RETURN JUMPDEST PUSH2 0x1F8 PUSH2 0x525 JUMP JUMPDEST PUSH1 0x40 MLOAD PUSH2 0x205 SWAP2 SWAP1 PUSH2 0x13C1 JUMP JUMPDEST PUSH1 0x40 MLOAD DUP1 SWAP2 SUB SWAP1 RETURN JUMPDEST PUSH2 0x228 PUSH1 0x4 DUP1 CALLDATASIZE SUB DUP2 ADD SWAP1 PUSH2 0x223 SWAP2 SWAP1 PUSH2 0x1664 JUMP JUMPDEST PUSH2 0x52A JUMP JUMPDEST PUSH1 0x40 MLOAD PUSH2 0x235 SWAP2 SWAP1 PUSH2 0x1649 JUMP JUMPDEST PUSH1 0x40 MLOAD DUP1 SWAP2 SUB SWAP1 RETURN JUMPDEST PUSH2 0x246 PUSH2 0x5F0 JUMP JUMPDEST PUSH1 0x40 MLOAD PUSH2 0x253 SWAP2 SWAP1 PUSH2 0x13C1 JUMP JUMPDEST PUSH1 0x40 MLOAD DUP1 SWAP2 SUB SWAP1 RETURN JUMPDEST PUSH2 0x276 PUSH1 0x4 DUP1 CALLDATASIZE SUB DUP2 ADD SWAP1 PUSH2 0x271 SWAP2 SWAP1 PUSH2 0x1691 JUMP JUMPDEST PUSH2 0x614 JUMP JUMPDEST PUSH1 0x40 MLOAD PUSH2 0x283 SWAP2 SWAP1 PUSH2 0x1649 JUMP JUMPDEST PUSH1 0x40 MLOAD DUP1 SWAP2 SUB SWAP1 RETURN JUMPDEST PUSH2 0x2A6 PUSH1 0x4 DUP1 CALLDATASIZE SUB DUP2 ADD SWAP1 PUSH2 0x2A1 SWAP2 SWAP1 PUSH2 0x1664 JUMP JUMPDEST PUSH2 0x6CB JUMP JUMPDEST PUSH1 0x40 MLOAD PUSH2 0x2B3 SWAP2 SWAP1 PUSH2 0x1649 JUMP JUMPDEST PUSH1 0x40 MLOAD DUP1 SWAP2 SUB SWAP1 RETURN JUMPDEST PUSH2 0x2C4 PUSH2 0x791 JUMP JUMPDEST PUSH1 0x40 MLOAD PUSH2 0x2D1 SWAP2 SWAP1 PUSH2 0x13C1 JUMP JUMPDEST PUSH1 0x40 MLOAD DUP1 SWAP2 SUB SWAP1 RETURN JUMPDEST PUSH2 0x2E2 PUSH2 0x7B5 JUMP JUMPDEST PUSH1 0x40 MLOAD PUSH2 0x2EF SWAP2 SWAP1 PUSH2 0x13C1 JUMP JUMPDEST PUSH1 0x40 MLOAD DUP1 SWAP2 SUB SWAP1 RETURN JUMPDEST PUSH2 0x300 PUSH2 0x7D9 JUMP JUMPDEST PUSH1 0x40 MLOAD PUSH2 0x30D SWAP2 SWAP1 PUSH2 0x13C1 JUMP JUMPDEST PUSH1 0x40 MLOAD DUP1 SWAP2 SUB SWAP1 RETURN JUMPDEST PUSH32 0x6FB13B7E8AB1C7D191D16197C1BF7F8DC7992412E1266155B3FB3AC8B30F3ED8 DUP2 JUMP JUMPDEST PUSH2 0x342 PUSH2 0x1364 JUMP JUMPDEST PUSH1 0x0 DUP1 PUSH2 0x3D4 DUP6 PUSH1 0x0 PUSH1 0x2 DUP2 LT PUSH2 0x35C JUMPI PUSH2 0x35B PUSH2 0x16D1 JUMP JUMPDEST JUMPDEST PUSH1 0x20 MUL ADD MLOAD DUP7 PUSH1 0x1 PUSH1 0x2 DUP2 LT PUSH2 0x375 JUMPI PUSH2 0x374 PUSH2 0x16D1 JUMP JUMPDEST JUMPDEST PUSH1 0x20 MUL ADD MLOAD DUP7 PUSH1 0x0 PUSH1 0x2 DUP2 LT PUSH2 0x38E JUMPI PUSH2 0x38D PUSH2 0x16D1 JUMP JUMPDEST JUMPDEST PUSH1 0x20 MUL ADD MLOAD DUP8 PUSH1 0x1 PUSH1 0x2 DUP2 LT PUSH2 0x3A7 JUMPI PUSH2 0x3A6 PUSH2 0x16D1 JUMP JUMPDEST JUMPDEST PUSH1 0x20 MUL ADD MLOAD PUSH1 0x0 PUSH32 0xFFFFFFFFFFFFFFFFFFFFFFFFFFFFFFFFFFFFFFFFFFFFFFFFFFFFFFFEFFFFFC2F PUSH2 0x7FD JUMP JUMPDEST SWAP2 POP SWAP2 POP PUSH1 0x40 MLOAD DUP1 PUSH1 0x40 ADD PUSH1 0x40 MSTORE DUP1 DUP4 DUP2 MSTORE PUSH1 0x20 ADD DUP3 DUP2 MSTORE POP SWAP3 POP POP POP SWAP3 SWAP2 POP POP JUMP JUMPDEST PUSH2 0x3FF PUSH2 0x1364 JUMP JUMPDEST PUSH1 0x0 DUP1 PUSH2 0x491 DUP6 PUSH1 0x0 PUSH1 0x2 DUP2 LT PUSH2 0x419 JUMPI PUSH2 0x418 PUSH2 0x16D1 JUMP JUMPDEST JUMPDEST PUSH1 0x20 MUL ADD MLOAD DUP7 PUSH1 0x1 PUSH1 0x2 DUP2 LT PUSH2 0x432 JUMPI PUSH2 0x431 PUSH2 0x16D1 JUMP JUMPDEST JUMPDEST PUSH1 0x20 MUL ADD MLOAD DUP7 PUSH1 0x0 PUSH1 0x2 DUP2 LT PUSH2 0x44B JUMPI PUSH2 0x44A PUSH2 0x16D1 JUMP JUMPDEST JUMPDEST PUSH1 0x20 MUL ADD MLOAD DUP8 PUSH1 0x1 PUSH1 0x2 DUP2 LT PUSH2 0x464 JUMPI PUSH2 0x463 PUSH2 0x16D1 JUMP JUMPDEST JUMPDEST PUSH1 0x20 MUL ADD MLOAD PUSH1 0x0 PUSH32 0xFFFFFFFFFFFFFFFFFFFFFFFFFFFFFFFFFFFFFFFFFFFFFFFFFFFFFFFEFFFFFC2F PUSH2 0x890 JUMP JUMPDEST SWAP2 POP SWAP2 POP PUSH1 0x40 MLOAD DUP1 PUSH1 0x40 ADD PUSH1 0x40 MSTORE DUP1 DUP4 DUP2 MSTORE PUSH1 0x20 ADD DUP3 DUP2 MSTORE POP SWAP3 POP POP POP SWAP3 SWAP2 POP POP JUMP JUMPDEST PUSH32 0x483ADA7726A3C4655DA4FBFC0E1108A8FD17B448A68554199C47D08FFB10D4B8 DUP2 JUMP JUMPDEST PUSH32 0xD209F7C16CDB6D3559BEA88C7D920F8FF077406C615DA8ADFECDEEF604CB40A6 DUP2 JUMP JUMPDEST PUSH1 0x7 DUP2 JUMP JUMPDEST PUSH32 0x2E1EB77BD89505113819600B395E0475D102C4788A3280A583D9D82625ED8533 DUP2 JUMP JUMPDEST PUSH1 0x0 DUP2 JUMP JUMPDEST PUSH2 0x532 PUSH2 0x1364 JUMP JUMPDEST PUSH1 0x0 DUP1 PUSH2 0x5CE PUSH32 0xFFFFFFFFFFFFFFFFFFFFFFFFFFFFFFFEBAAEDCE6AF48A03BBFD25E8CD0364141 DUP6 PUSH2 0x564 SWAP2 SWAP1 PUSH2 0x172F JUMP JUMPDEST PUSH32 0x7CD9EE748A0B26773D9D29361F75594964106D13E1CAD67CFE2DF503EE3E90E PUSH32 0xD209F7C16CDB6D3559BEA88C7D920F8FF077406C615DA8ADFECDEEF604CB40A6 PUSH1 0x0 PUSH32 0xFFFFFFFFFFFFFFFFFFFFFFFFFFFFFFFFFFFFFFFFFFFFFFFFFFFFFFFEFFFFFC2F PUSH2 0x8C4 JUMP JUMPDEST SWAP2 POP SWAP2 POP PUSH1 0x40 MLOAD DUP1 PUSH1 0x40 ADD PUSH1 0x40 MSTORE DUP1 DUP4 DUP2 MSTORE PUSH1 0x20 ADD DUP3 DUP2 MSTORE POP SWAP3 POP POP POP SWAP2 SWAP1 POP JUMP JUMPDEST PUSH32 0xFFFFFFFFFFFFFFFFFFFFFFFFFFFFFFFEBAAEDCE6AF48A03BBFD25E8CD0364141 DUP2 JUMP JUMPDEST PUSH2 0x61C PUSH2 0x1364 JUMP JUMPDEST PUSH1 0x0 DUP1 PUSH2 0x6A8 PUSH32 0xFFFFFFFFFFFFFFFFFFFFFFFFFFFFFFFEBAAEDCE6AF48A03BBFD25E8CD0364141 DUP6 PUSH2 0x64E SWAP2 SWAP1 PUSH2 0x172F JUMP JUMPDEST DUP7 PUSH1 0x0 PUSH1 0x2 DUP2 LT PUSH2 0x662 JUMPI PUSH2 0x661 PUSH2 0x16D1 JUMP JUMPDEST JUMPDEST PUSH1 0x20 MUL ADD MLOAD DUP8 PUSH1 0x1 PUSH1 0x2 DUP2 LT PUSH2 0x67B JUMPI PUSH2 0x67A PUSH2 0x16D1 JUMP JUMPDEST JUMPDEST PUSH1 0x20 MUL ADD MLOAD PUSH1 0x0 PUSH32 0xFFFFFFFFFFFFFFFFFFFFFFFFFFFFFFFFFFFFFFFFFFFFFFFFFFFFFFFEFFFFFC2F PUSH2 0x8C4 JUMP JUMPDEST SWAP2 POP SWAP2 POP PUSH1 0x40 MLOAD DUP1 PUSH1 0x40 ADD PUSH1 0x40 MSTORE DUP1 DUP4 DUP2 MSTORE PUSH1 0x20 ADD DUP3 DUP2 MSTORE POP SWAP3 POP POP POP SWAP3 SWAP2 POP POP JUMP JUMPDEST PUSH2 0x6D3 PUSH2 0x1364 JUMP JUMPDEST PUSH1 0x0 DUP1 PUSH2 0x76F PUSH32 0xFFFFFFFFFFFFFFFFFFFFFFFFFFFFFFFEBAAEDCE6AF48A03BBFD25E8CD0364141 DUP6 PUSH2 0x705 SWAP2 SWAP1 PUSH2 0x172F JUMP JUMPDEST PUSH32 0x6FB13B7E8AB1C7D191D16197C1BF7F8DC7992412E1266155B3FB3AC8B30F3ED8 PUSH32 0x2E1EB77BD89505113819600B395E0475D102C4788A3280A583D9D82625ED8533 PUSH1 0x0 PUSH32 0xFFFFFFFFFFFFFFFFFFFFFFFFFFFFFFFFFFFFFFFFFFFFFFFFFFFFFFFEFFFFFC2F PUSH2 0x8C4 JUMP JUMPDEST SWAP2 POP SWAP2 POP PUSH1 0x40 MLOAD DUP1 PUSH1 0x40 ADD PUSH1 0x40 MSTORE DUP1 DUP4 DUP2 MSTORE PUSH1 0x20 ADD DUP3 DUP2 MSTORE POP SWAP3 POP POP POP SWAP2 SWAP1 POP JUMP JUMPDEST PUSH32 0x7CD9EE748A0B26773D9D29361F75594964106D13E1CAD67CFE2DF503EE3E90E DUP2 JUMP JUMPDEST PUSH32 0x79BE667EF9DCBBAC55A06295CE870B07029BFCDB2DCE28D959F2815B16F81798 DUP2 JUMP JUMPDEST PUSH32 0xFFFFFFFFFFFFFFFFFFFFFFFFFFFFFFFFFFFFFFFFFFFFFFFFFFFFFFFEFFFFFC2F DUP2 JUMP JUMPDEST PUSH1 0x0 DUP1 PUSH1 0x0 DUP1 PUSH1 0x0 DUP9 DUP12 SUB PUSH2 0x853 JUMPI PUSH1 0x0 DUP7 DUP1 PUSH2 0x81D JUMPI PUSH2 0x81C PUSH2 0x1700 JUMP JUMPDEST JUMPDEST DUP10 DUP13 ADDMOD SUB PUSH2 0x834 JUMPI PUSH1 0x0 DUP1 SWAP5 POP SWAP5 POP POP POP POP PUSH2 0x885 JUMP JUMPDEST PUSH2 0x842 DUP12 DUP12 PUSH1 0x1 DUP11 DUP11 PUSH2 0x8FE JUMP JUMPDEST DUP1 SWAP4 POP DUP2 SWAP5 POP DUP3 SWAP6 POP POP POP POP PUSH2 0x871 JUMP JUMPDEST PUSH2 0x864 DUP12 DUP12 PUSH1 0x1 DUP13 DUP13 PUSH1 0x1 DUP13 PUSH2 0xABC JUMP JUMPDEST DUP1 SWAP4 POP DUP2 SWAP5 POP DUP3 SWAP6 POP POP POP POP JUMPDEST PUSH2 0x87D DUP4 DUP4 DUP4 DUP10 PUSH2 0x113B JUMP JUMPDEST SWAP5 POP SWAP5 POP POP POP POP JUMPDEST SWAP7 POP SWAP7 SWAP5 POP POP POP POP POP JUMP JUMPDEST PUSH1 0x0 DUP1 PUSH1 0x0 DUP1 PUSH2 0x8A1 DUP9 DUP9 DUP8 PUSH2 0x11B2 JUMP JUMPDEST SWAP2 POP SWAP2 POP PUSH2 0x8B3 DUP11 DUP11 DUP5 DUP5 DUP11 DUP11 PUSH2 0x7FD JUMP JUMPDEST SWAP4 POP SWAP4 POP POP POP SWAP7 POP SWAP7 SWAP5 POP POP POP POP POP JUMP JUMPDEST PUSH1 0x0 DUP1 PUSH1 0x0 DUP1 PUSH1 0x0 PUSH2 0x8DB DUP11 DUP11 DUP11 PUSH1 0x1 DUP12 DUP12 PUSH2 0x11D9 JUMP JUMPDEST SWAP3 POP SWAP3 POP SWAP3 POP PUSH2 0x8ED DUP4 DUP4 DUP4 DUP10 PUSH2 0x113B JUMP JUMPDEST SWAP5 POP SWAP5 POP POP POP POP SWAP6 POP SWAP6 SWAP4 POP POP POP POP JUMP JUMPDEST PUSH1 0x0 DUP1 PUSH1 0x0 DUP1 DUP7 SUB PUSH2 0x918 JUMPI DUP8 DUP8 DUP8 SWAP3 POP SWAP3 POP SWAP3 POP PUSH2 0xAB1 JUMP JUMPDEST PUSH1 0x0 DUP5 DUP1 PUSH2 0x929 JUMPI PUSH2 0x928 PUSH2 0x1700 JUMP JUMPDEST JUMPDEST DUP10 DUP11 MULMOD SWAP1 POP PUSH1 0x0 DUP6 DUP1 PUSH2 0x93F JUMPI PUSH2 0x93E PUSH2 0x1700 JUMP JUMPDEST JUMPDEST DUP10 DUP11 MULMOD SWAP1 POP PUSH1 0x0 DUP7 DUP1 PUSH2 0x955 JUMPI PUSH2 0x954 PUSH2 0x1700 JUMP JUMPDEST JUMPDEST DUP10 DUP11 MULMOD SWAP1 POP PUSH1 0x0 DUP8 DUP1 PUSH2 0x96B JUMPI PUSH2 0x96A PUSH2 0x1700 JUMP JUMPDEST JUMPDEST DUP9 DUP1 PUSH2 0x97A JUMPI PUSH2 0x979 PUSH2 0x1700 JUMP JUMPDEST JUMPDEST DUP5 DUP15 MULMOD PUSH1 0x4 MULMOD SWAP1 POP PUSH1 0x0 DUP9 DUP1 PUSH2 0x993 JUMPI PUSH2 0x992 PUSH2 0x1700 JUMP JUMPDEST JUMPDEST DUP10 DUP1 PUSH2 0x9A2 JUMPI PUSH2 0x9A1 PUSH2 0x1700 JUMP JUMPDEST JUMPDEST DUP11 DUP1 PUSH2 0x9B1 JUMPI PUSH2 0x9B0 PUSH2 0x1700 JUMP JUMPDEST JUMPDEST DUP6 DUP7 MULMOD DUP13 MULMOD DUP11 DUP1 PUSH2 0x9C5 JUMPI PUSH2 0x9C4 PUSH2 0x1700 JUMP JUMPDEST JUMPDEST DUP8 PUSH1 0x3 MULMOD ADDMOD SWAP1 POP DUP9 DUP1 PUSH2 0x9DB JUMPI PUSH2 0x9DA PUSH2 0x1700 JUMP JUMPDEST JUMPDEST DUP10 DUP1 PUSH2 0x9EA JUMPI PUSH2 0x9E9 PUSH2 0x1700 JUMP JUMPDEST JUMPDEST DUP4 DUP5 ADDMOD DUP11 PUSH2 0x9F8 SWAP2 SWAP1 PUSH2 0x178F JUMP JUMPDEST DUP11 DUP1 PUSH2 0xA07 JUMPI PUSH2 0xA06 PUSH2 0x1700 JUMP JUMPDEST JUMPDEST DUP4 DUP5 MULMOD ADDMOD SWAP5 POP DUP9 DUP1 PUSH2 0xA1C JUMPI PUSH2 0xA1B PUSH2 0x1700 JUMP JUMPDEST JUMPDEST DUP10 DUP1 PUSH2 0xA2B JUMPI PUSH2 0xA2A PUSH2 0x1700 JUMP JUMPDEST JUMPDEST DUP11 DUP1 PUSH2 0xA3A JUMPI PUSH2 0xA39 PUSH2 0x1700 JUMP JUMPDEST JUMPDEST DUP7 DUP8 MULMOD PUSH1 0x8 MULMOD DUP11 PUSH2 0xA4B SWAP2 SWAP1 PUSH2 0x178F JUMP JUMPDEST DUP11 DUP1 PUSH2 0xA5A JUMPI PUSH2 0xA59 PUSH2 0x1700 JUMP JUMPDEST JUMPDEST DUP12 DUP1 PUSH2 0xA69 JUMPI PUSH2 0xA68 PUSH2 0x1700 JUMP JUMPDEST JUMPDEST DUP9 DUP14 PUSH2 0xA75 SWAP2 SWAP1 PUSH2 0x178F JUMP JUMPDEST DUP7 ADDMOD DUP5 MULMOD ADDMOD SWAP4 POP DUP9 DUP1 PUSH2 0xA8B JUMPI PUSH2 0xA8A PUSH2 0x1700 JUMP JUMPDEST JUMPDEST DUP10 DUP1 PUSH2 0xA9A JUMPI PUSH2 0xA99 PUSH2 0x1700 JUMP JUMPDEST JUMPDEST DUP13 DUP15 MULMOD PUSH1 0x2 MULMOD SWAP3 POP DUP5 DUP5 DUP5 SWAP8 POP SWAP8 POP SWAP8 POP POP POP POP POP POP JUMPDEST SWAP6 POP SWAP6 POP SWAP6 SWAP3 POP POP POP JUMP JUMPDEST PUSH1 0x0 DUP1 PUSH1 0x0 DUP1 DUP11 EQ DUP1 ISZERO PUSH2 0xAD0 JUMPI POP PUSH1 0x0 DUP10 EQ JUMPDEST ISZERO PUSH2 0xAE3 JUMPI DUP7 DUP7 DUP7 SWAP3 POP SWAP3 POP SWAP3 POP PUSH2 0x112E JUMP JUMPDEST PUSH1 0x0 DUP8 EQ DUP1 ISZERO PUSH2 0xAF3 JUMPI POP PUSH1 0x0 DUP7 EQ JUMPDEST ISZERO PUSH2 0xB06 JUMPI DUP10 DUP10 DUP10 SWAP3 POP SWAP3 POP SWAP3 POP PUSH2 0x112E JUMP JUMPDEST PUSH2 0xB0E PUSH2 0x1386 JUMP JUMPDEST DUP5 DUP1 PUSH2 0xB1D JUMPI PUSH2 0xB1C PUSH2 0x1700 JUMP JUMPDEST JUMPDEST DUP10 DUP11 MULMOD DUP2 PUSH1 0x0 PUSH1 0x4 DUP2 LT PUSH2 0xB34 JUMPI PUSH2 0xB33 PUSH2 0x16D1 JUMP JUMPDEST JUMPDEST PUSH1 0x20 MUL ADD DUP2 DUP2 MSTORE POP POP DUP5 DUP1 PUSH2 0xB4C JUMPI PUSH2 0xB4B PUSH2 0x1700 JUMP JUMPDEST JUMPDEST DUP2 PUSH1 0x0 PUSH1 0x4 DUP2 LT PUSH2 0xB60 JUMPI PUSH2 0xB5F PUSH2 0x16D1 JUMP JUMPDEST JUMPDEST PUSH1 0x20 MUL ADD MLOAD DUP11 MULMOD DUP2 PUSH1 0x1 PUSH1 0x4 DUP2 LT PUSH2 0xB7B JUMPI PUSH2 0xB7A PUSH2 0x16D1 JUMP JUMPDEST JUMPDEST PUSH1 0x20 MUL ADD DUP2 DUP2 MSTORE POP POP DUP5 DUP1 PUSH2 0xB93 JUMPI PUSH2 0xB92 PUSH2 0x1700 JUMP JUMPDEST JUMPDEST DUP7 DUP8 MULMOD DUP2 PUSH1 0x2 PUSH1 0x4 DUP2 LT PUSH2 0xBAA JUMPI PUSH2 0xBA9 PUSH2 0x16D1 JUMP JUMPDEST JUMPDEST PUSH1 0x20 MUL ADD DUP2 DUP2 MSTORE POP POP DUP5 DUP1 PUSH2 0xBC2 JUMPI PUSH2 0xBC1 PUSH2 0x1700 JUMP JUMPDEST JUMPDEST DUP2 PUSH1 0x2 PUSH1 0x4 DUP2 LT PUSH2 0xBD6 JUMPI PUSH2 0xBD5 PUSH2 0x16D1 JUMP JUMPDEST JUMPDEST PUSH1 0x20 MUL ADD MLOAD DUP8 MULMOD DUP2 PUSH1 0x3 PUSH1 0x4 DUP2 LT PUSH2 0xBF1 JUMPI PUSH2 0xBF0 PUSH2 0x16D1 JUMP JUMPDEST JUMPDEST PUSH1 0x20 MUL ADD DUP2 DUP2 MSTORE POP POP PUSH1 0x40 MLOAD DUP1 PUSH1 0x80 ADD PUSH1 0x40 MSTORE DUP1 DUP7 DUP1 PUSH2 0xC14 JUMPI PUSH2 0xC13 PUSH2 0x1700 JUMP JUMPDEST JUMPDEST DUP4 PUSH1 0x2 PUSH1 0x4 DUP2 LT PUSH2 0xC28 JUMPI PUSH2 0xC27 PUSH2 0x16D1 JUMP JUMPDEST JUMPDEST PUSH1 0x20 MUL ADD MLOAD DUP15 MULMOD DUP2 MSTORE PUSH1 0x20 ADD DUP7 DUP1 PUSH2 0xC43 JUMPI PUSH2 0xC42 PUSH2 0x1700 JUMP JUMPDEST JUMPDEST DUP4 PUSH1 0x3 PUSH1 0x4 DUP2 LT PUSH2 0xC57 JUMPI PUSH2 0xC56 PUSH2 0x16D1 JUMP JUMPDEST JUMPDEST PUSH1 0x20 MUL ADD MLOAD DUP14 MULMOD DUP2 MSTORE PUSH1 0x20 ADD DUP7 DUP1 PUSH2 0xC72 JUMPI PUSH2 0xC71 PUSH2 0x1700 JUMP JUMPDEST JUMPDEST DUP4 PUSH1 0x0 PUSH1 0x4 DUP2 LT PUSH2 0xC86 JUMPI PUSH2 0xC85 PUSH2 0x16D1 JUMP JUMPDEST JUMPDEST PUSH1 0x20 MUL ADD MLOAD DUP12 MULMOD DUP2 MSTORE PUSH1 0x20 ADD DUP7 DUP1 PUSH2 0xCA1 JUMPI PUSH2 0xCA0 PUSH2 0x1700 JUMP JUMPDEST JUMPDEST DUP4 PUSH1 0x1 PUSH1 0x4 DUP2 LT PUSH2 0xCB5 JUMPI PUSH2 0xCB4 PUSH2 0x16D1 JUMP JUMPDEST JUMPDEST PUSH1 0x20 MUL ADD MLOAD DUP11 MULMOD DUP2 MSTORE POP SWAP1 POP DUP1 PUSH1 0x2 PUSH1 0x4 DUP2 LT PUSH2 0xCD5 JUMPI PUSH2 0xCD4 PUSH2 0x16D1 JUMP JUMPDEST JUMPDEST PUSH1 0x20 MUL ADD MLOAD DUP2 PUSH1 0x0 PUSH1 0x4 DUP2 LT PUSH2 0xCEE JUMPI PUSH2 0xCED PUSH2 0x16D1 JUMP JUMPDEST JUMPDEST PUSH1 0x20 MUL ADD MLOAD EQ ISZERO DUP1 PUSH2 0xD30 JUMPI POP DUP1 PUSH1 0x3 PUSH1 0x4 DUP2 LT PUSH2 0xD0F JUMPI PUSH2 0xD0E PUSH2 0x16D1 JUMP JUMPDEST JUMPDEST PUSH1 0x20 MUL ADD MLOAD DUP2 PUSH1 0x1 PUSH1 0x4 DUP2 LT PUSH2 0xD28 JUMPI PUSH2 0xD27 PUSH2 0x16D1 JUMP JUMPDEST JUMPDEST PUSH1 0x20 MUL ADD MLOAD EQ ISZERO JUMPDEST PUSH2 0xD6F JUMPI PUSH1 0x40 MLOAD PUSH32 0x8C379A000000000000000000000000000000000000000000000000000000000 DUP2 MSTORE PUSH1 0x4 ADD PUSH2 0xD66 SWAP1 PUSH2 0x1820 JUMP JUMPDEST PUSH1 0x40 MLOAD DUP1 SWAP2 SUB SWAP1 REVERT JUMPDEST PUSH2 0xD77 PUSH2 0x1386 JUMP JUMPDEST DUP6 DUP1 PUSH2 0xD86 JUMPI PUSH2 0xD85 PUSH2 0x1700 JUMP JUMPDEST JUMPDEST DUP3 PUSH1 0x0 PUSH1 0x4 DUP2 LT PUSH2 0xD9A JUMPI PUSH2 0xD99 PUSH2 0x16D1 JUMP JUMPDEST JUMPDEST PUSH1 0x20 MUL ADD MLOAD DUP8 PUSH2 0xDAA SWAP2 SWAP1 PUSH2 0x178F JUMP JUMPDEST DUP4 PUSH1 0x2 PUSH1 0x4 DUP2 LT PUSH2 0xDBE JUMPI PUSH2 0xDBD PUSH2 0x16D1 JUMP JUMPDEST JUMPDEST PUSH1 0x20 MUL ADD MLOAD ADDMOD DUP2 PUSH1 0x0 PUSH1 0x4 DUP2 LT PUSH2 0xDD8 JUMPI PUSH2 0xDD7 PUSH2 0x16D1 JUMP JUMPDEST JUMPDEST PUSH1 0x20 MUL ADD DUP2 DUP2 MSTORE POP POP DUP6 DUP1 PUSH2 0xDF0 JUMPI PUSH2 0xDEF PUSH2 0x1700 JUMP JUMPDEST JUMPDEST DUP3 PUSH1 0x1 PUSH1 0x4 DUP2 LT PUSH2 0xE04 JUMPI PUSH2 0xE03 PUSH2 0x16D1 JUMP JUMPDEST JUMPDEST PUSH1 0x20 MUL ADD MLOAD DUP8 PUSH2 0xE14 SWAP2 SWAP1 PUSH2 0x178F JUMP JUMPDEST DUP4 PUSH1 0x3 PUSH1 0x4 DUP2 LT PUSH2 0xE28 JUMPI PUSH2 0xE27 PUSH2 0x16D1 JUMP JUMPDEST JUMPDEST PUSH1 0x20 MUL ADD MLOAD ADDMOD DUP2 PUSH1 0x1 PUSH1 0x4 DUP2 LT PUSH2 0xE42 JUMPI PUSH2 0xE41 PUSH2 0x16D1 JUMP JUMPDEST JUMPDEST PUSH1 0x20 MUL ADD DUP2 DUP2 MSTORE POP POP DUP6 DUP1 PUSH2 0xE5A JUMPI PUSH2 0xE59 PUSH2 0x1700 JUMP JUMPDEST JUMPDEST DUP2 PUSH1 0x0 PUSH1 0x4 DUP2 LT PUSH2 0xE6E JUMPI PUSH2 0xE6D PUSH2 0x16D1 JUMP JUMPDEST JUMPDEST PUSH1 0x20 MUL ADD MLOAD DUP3 PUSH1 0x0 PUSH1 0x4 DUP2 LT PUSH2 0xE87 JUMPI PUSH2 0xE86 PUSH2 0x16D1 JUMP JUMPDEST JUMPDEST PUSH1 0x20 MUL ADD MLOAD MULMOD DUP2 PUSH1 0x2 PUSH1 0x4 DUP2 LT PUSH2 0xEA1 JUMPI PUSH2 0xEA0 PUSH2 0x16D1 JUMP JUMPDEST JUMPDEST PUSH1 0x20 MUL ADD DUP2 DUP2 MSTORE POP POP DUP6 DUP1 PUSH2 0xEB9 JUMPI PUSH2 0xEB8 PUSH2 0x1700 JUMP JUMPDEST JUMPDEST DUP2 PUSH1 0x0 PUSH1 0x4 DUP2 LT PUSH2 0xECD JUMPI PUSH2 0xECC PUSH2 0x16D1 JUMP JUMPDEST JUMPDEST PUSH1 0x20 MUL ADD MLOAD DUP3 PUSH1 0x2 PUSH1 0x4 DUP2 LT PUSH2 0xEE6 JUMPI PUSH2 0xEE5 PUSH2 0x16D1 JUMP JUMPDEST JUMPDEST PUSH1 0x20 MUL ADD MLOAD MULMOD DUP2 PUSH1 0x3 PUSH1 0x4 DUP2 LT PUSH2 0xF00 JUMPI PUSH2 0xEFF PUSH2 0x16D1 JUMP JUMPDEST JUMPDEST PUSH1 0x20 MUL ADD DUP2 DUP2 MSTORE POP POP PUSH1 0x0 DUP7 DUP1 PUSH2 0xF1A JUMPI PUSH2 0xF19 PUSH2 0x1700 JUMP JUMPDEST JUMPDEST DUP3 PUSH1 0x3 PUSH1 0x4 DUP2 LT PUSH2 0xF2E JUMPI PUSH2 0xF2D PUSH2 0x16D1 JUMP JUMPDEST JUMPDEST PUSH1 0x20 MUL ADD MLOAD DUP9 PUSH2 0xF3E SWAP2 SWAP1 PUSH2 0x178F JUMP JUMPDEST DUP9 DUP1 PUSH2 0xF4D JUMPI PUSH2 0xF4C PUSH2 0x1700 JUMP JUMPDEST JUMPDEST DUP5 PUSH1 0x1 PUSH1 0x4 DUP2 LT PUSH2 0xF61 JUMPI PUSH2 0xF60 PUSH2 0x16D1 JUMP JUMPDEST JUMPDEST PUSH1 0x20 MUL ADD MLOAD DUP6 PUSH1 0x1 PUSH1 0x4 DUP2 LT PUSH2 0xF7A JUMPI PUSH2 0xF79 PUSH2 0x16D1 JUMP JUMPDEST JUMPDEST PUSH1 0x20 MUL ADD MLOAD MULMOD ADDMOD SWAP1 POP DUP7 DUP1 PUSH2 0xF92 JUMPI PUSH2 0xF91 PUSH2 0x1700 JUMP JUMPDEST JUMPDEST DUP8 DUP1 PUSH2 0xFA1 JUMPI PUSH2 0xFA0 PUSH2 0x1700 JUMP JUMPDEST JUMPDEST DUP9 DUP1 PUSH2 0xFB0 JUMPI PUSH2 0xFAF PUSH2 0x1700 JUMP JUMPDEST JUMPDEST DUP5 PUSH1 0x2 PUSH1 0x4 DUP2 LT PUSH2 0xFC4 JUMPI PUSH2 0xFC3 PUSH2 0x16D1 JUMP JUMPDEST JUMPDEST PUSH1 0x20 MUL ADD MLOAD DUP7 PUSH1 0x0 PUSH1 0x4 DUP2 LT PUSH2 0xFDD JUMPI PUSH2 0xFDC PUSH2 0x16D1 JUMP JUMPDEST JUMPDEST PUSH1 0x20 MUL ADD MLOAD MULMOD PUSH1 0x2 MULMOD DUP9 PUSH2 0xFF1 SWAP2 SWAP1 PUSH2 0x178F JUMP JUMPDEST DUP3 ADDMOD SWAP1 POP PUSH1 0x0 DUP8 DUP1 PUSH2 0x1006 JUMPI PUSH2 0x1005 PUSH2 0x1700 JUMP JUMPDEST JUMPDEST DUP9 DUP1 PUSH2 0x1015 JUMPI PUSH2 0x1014 PUSH2 0x1700 JUMP JUMPDEST JUMPDEST DUP4 DUP11 PUSH2 0x1021 SWAP2 SWAP1 PUSH2 0x178F JUMP JUMPDEST DUP11 DUP1 PUSH2 0x1030 JUMPI PUSH2 0x102F PUSH2 0x1700 JUMP JUMPDEST JUMPDEST DUP7 PUSH1 0x2 PUSH1 0x4 DUP2 LT PUSH2 0x1044 JUMPI PUSH2 0x1043 PUSH2 0x16D1 JUMP JUMPDEST JUMPDEST PUSH1 0x20 MUL ADD MLOAD DUP9 PUSH1 0x0 PUSH1 0x4 DUP2 LT PUSH2 0x105D JUMPI PUSH2 0x105C PUSH2 0x16D1 JUMP JUMPDEST JUMPDEST PUSH1 0x20 MUL ADD MLOAD MULMOD ADDMOD DUP5 PUSH1 0x1 PUSH1 0x4 DUP2 LT PUSH2 0x1078 JUMPI PUSH2 0x1077 PUSH2 0x16D1 JUMP JUMPDEST JUMPDEST PUSH1 0x20 MUL ADD MLOAD MULMOD SWAP1 POP DUP8 DUP1 PUSH2 0x108F JUMPI PUSH2 0x108E PUSH2 0x1700 JUMP JUMPDEST JUMPDEST DUP9 DUP1 PUSH2 0x109E JUMPI PUSH2 0x109D PUSH2 0x1700 JUMP JUMPDEST JUMPDEST DUP5 PUSH1 0x3 PUSH1 0x4 DUP2 LT PUSH2 0x10B2 JUMPI PUSH2 0x10B1 PUSH2 0x16D1 JUMP JUMPDEST JUMPDEST PUSH1 0x20 MUL ADD MLOAD DUP7 PUSH1 0x1 PUSH1 0x4 DUP2 LT PUSH2 0x10CB JUMPI PUSH2 0x10CA PUSH2 0x16D1 JUMP JUMPDEST JUMPDEST PUSH1 0x20 MUL ADD MLOAD MULMOD DUP10 PUSH2 0x10DC SWAP2 SWAP1 PUSH2 0x178F JUMP JUMPDEST DUP3 ADDMOD SWAP1 POP PUSH1 0x0 DUP9 DUP1 PUSH2 0x10F1 JUMPI PUSH2 0x10F0 PUSH2 0x1700 JUMP JUMPDEST JUMPDEST DUP10 DUP1 PUSH2 0x1100 JUMPI PUSH2 0x10FF PUSH2 0x1700 JUMP JUMPDEST JUMPDEST DUP12 DUP16 MULMOD DUP6 PUSH1 0x0 PUSH1 0x4 DUP2 LT PUSH2 0x1117 JUMPI PUSH2 0x1116 PUSH2 0x16D1 JUMP JUMPDEST JUMPDEST PUSH1 0x20 MUL ADD MLOAD MULMOD SWAP1 POP DUP3 DUP3 DUP3 SWAP8 POP SWAP8 POP SWAP8 POP POP POP POP POP POP JUMPDEST SWAP8 POP SWAP8 POP SWAP8 SWAP5 POP POP POP POP POP JUMP JUMPDEST PUSH1 0x0 DUP1 PUSH1 0x0 PUSH2 0x114A DUP6 DUP6 PUSH2 0x1278 JUMP JUMPDEST SWAP1 POP PUSH1 0x0 DUP5 DUP1 PUSH2 0x115D JUMPI PUSH2 0x115C PUSH2 0x1700 JUMP JUMPDEST JUMPDEST DUP3 DUP4 MULMOD SWAP1 POP PUSH1 0x0 DUP6 DUP1 PUSH2 0x1173 JUMPI PUSH2 0x1172 PUSH2 0x1700 JUMP JUMPDEST JUMPDEST DUP3 DUP11 MULMOD SWAP1 POP PUSH1 0x0 DUP7 DUP1 PUSH2 0x1189 JUMPI PUSH2 0x1188 PUSH2 0x1700 JUMP JUMPDEST JUMPDEST DUP8 DUP1 PUSH2 0x1198 JUMPI PUSH2 0x1197 PUSH2 0x1700 JUMP JUMPDEST JUMPDEST DUP5 DUP7 MULMOD DUP11 MULMOD SWAP1 POP DUP2 DUP2 SWAP6 POP SWAP6 POP POP POP POP POP SWAP5 POP SWAP5 SWAP3 POP POP POP JUMP JUMPDEST PUSH1 0x0 DUP1 DUP5 DUP4 DUP6 DUP6 PUSH2 0x11C3 SWAP2 SWAP1 PUSH2 0x178F JUMP JUMPDEST PUSH2 0x11CD SWAP2 SWAP1 PUSH2 0x172F JUMP JUMPDEST SWAP2 POP SWAP2 POP SWAP4 POP SWAP4 SWAP2 POP POP JUMP JUMPDEST PUSH1 0x0 DUP1 PUSH1 0x0 DUP1 DUP10 SUB PUSH2 0x11F3 JUMPI DUP8 DUP8 DUP8 SWAP3 POP SWAP3 POP SWAP3 POP PUSH2 0x126C JUMP JUMPDEST PUSH1 0x0 DUP10 SWAP1 POP PUSH1 0x0 DUP1 PUSH1 0x0 PUSH1 0x1 SWAP1 POP JUMPDEST PUSH1 0x0 DUP5 EQ PUSH2 0x125E JUMPI PUSH1 0x0 PUSH1 0x1 DUP6 AND EQ PUSH2 0x1231 JUMPI PUSH2 0x1224 DUP4 DUP4 DUP4 DUP16 DUP16 DUP16 DUP15 PUSH2 0xABC JUMP JUMPDEST DUP1 SWAP4 POP DUP2 SWAP5 POP DUP3 SWAP6 POP POP POP POP JUMPDEST PUSH1 0x2 DUP5 PUSH2 0x123E SWAP2 SWAP1 PUSH2 0x1840 JUMP JUMPDEST SWAP4 POP PUSH2 0x124D DUP13 DUP13 DUP13 DUP13 DUP13 PUSH2 0x8FE JUMP JUMPDEST DUP1 SWAP13 POP DUP2 SWAP14 POP DUP3 SWAP15 POP POP POP POP PUSH2 0x1202 JUMP JUMPDEST DUP3 DUP3 DUP3 SWAP7 POP SWAP7 POP SWAP7 POP POP POP POP POP JUMPDEST SWAP7 POP SWAP7 POP SWAP7 SWAP4 POP POP POP POP JUMP JUMPDEST PUSH1 0x0 DUP1 DUP4 EQ ISZERO DUP1 ISZERO PUSH2 0x128A JUMPI POP DUP2 DUP4 EQ ISZERO JUMPDEST DUP1 ISZERO PUSH2 0x1297 JUMPI POP PUSH1 0x0 DUP3 EQ ISZERO JUMPDEST PUSH2 0x12D6 JUMPI PUSH1 0x40 MLOAD PUSH32 0x8C379A000000000000000000000000000000000000000000000000000000000 DUP2 MSTORE PUSH1 0x4 ADD PUSH2 0x12CD SWAP1 PUSH2 0x18BD JUMP JUMPDEST PUSH1 0x40 MLOAD DUP1 SWAP2 SUB SWAP1 REVERT JUMPDEST PUSH1 0x0 DUP1 PUSH1 0x1 SWAP1 POP PUSH1 0x0 DUP5 SWAP1 POP PUSH1 0x0 JUMPDEST PUSH1 0x0 DUP8 EQ PUSH2 0x1357 JUMPI DUP7 DUP3 PUSH2 0x12F9 SWAP2 SWAP1 PUSH2 0x1840 JUMP JUMPDEST SWAP1 POP DUP3 DUP7 DUP1 PUSH2 0x130B JUMPI PUSH2 0x130A PUSH2 0x1700 JUMP JUMPDEST JUMPDEST DUP8 DUP1 PUSH2 0x131A JUMPI PUSH2 0x1319 PUSH2 0x1700 JUMP JUMPDEST JUMPDEST DUP6 DUP5 MULMOD DUP9 PUSH2 0x1328 SWAP2 SWAP1 PUSH2 0x178F JUMP JUMPDEST DUP7 ADDMOD DUP1 SWAP5 POP DUP2 SWAP6 POP POP POP DUP7 DUP8 DUP3 PUSH2 0x133F SWAP2 SWAP1 PUSH2 0x18DD JUMP JUMPDEST DUP4 PUSH2 0x134A SWAP2 SWAP1 PUSH2 0x178F JUMP JUMPDEST DUP1 SWAP9 POP DUP2 SWAP4 POP POP POP PUSH2 0x12E5 JUMP JUMPDEST DUP4 SWAP5 POP POP POP POP POP SWAP3 SWAP2 POP POP JUMP JUMPDEST PUSH1 0x40 MLOAD DUP1 PUSH1 0x40 ADD PUSH1 0x40 MSTORE DUP1 PUSH1 0x2 SWAP1 PUSH1 0x20 DUP3 MUL DUP1 CALLDATASIZE DUP4 CALLDATACOPY DUP1 DUP3 ADD SWAP2 POP POP SWAP1 POP POP SWAP1 JUMP JUMPDEST PUSH1 0x40 MLOAD DUP1 PUSH1 0x80 ADD PUSH1 0x40 MSTORE DUP1 PUSH1 0x4 SWAP1 PUSH1 0x20 DUP3 MUL DUP1 CALLDATASIZE DUP4 CALLDATACOPY DUP1 DUP3 ADD SWAP2 POP POP SWAP1 POP POP SWAP1 JUMP JUMPDEST PUSH1 0x0 DUP2 SWAP1 POP SWAP2 SWAP1 POP JUMP JUMPDEST PUSH2 0x13BB DUP2 PUSH2 0x13A8 JUMP JUMPDEST DUP3 MSTORE POP POP JUMP JUMPDEST PUSH1 0x0 PUSH1 0x20 DUP3 ADD SWAP1 POP PUSH2 0x13D6 PUSH1 0x0 DUP4 ADD DUP5 PUSH2 0x13B2 JUMP JUMPDEST SWAP3 SWAP2 POP POP JUMP JUMPDEST PUSH1 0x0 PUSH1 0x40 MLOAD SWAP1 POP SWAP1 JUMP JUMPDEST PUSH1 0x0 DUP1 REVERT JUMPDEST PUSH1 0x0 DUP1 REVERT JUMPDEST PUSH1 0x0 PUSH1 0x1F NOT PUSH1 0x1F DUP4 ADD AND SWAP1 POP SWAP2 SWAP1 POP JUMP JUMPDEST PUSH32 0x4E487B7100000000000000000000000000000000000000000000000000000000 PUSH1 0x0 MSTORE PUSH1 0x41 PUSH1 0x4 MSTORE PUSH1 0x24 PUSH1 0x0 REVERT JUMPDEST PUSH2 0x1439 DUP3 PUSH2 0x13F0 JUMP JUMPDEST DUP2 ADD DUP2 DUP2 LT PUSH8 0xFFFFFFFFFFFFFFFF DUP3 GT OR ISZERO PUSH2 0x1458 JUMPI PUSH2 0x1457 PUSH2 0x1401 JUMP JUMPDEST JUMPDEST DUP1 PUSH1 0x40 MSTORE POP POP POP JUMP JUMPDEST PUSH1 0x0 PUSH2 0x146B PUSH2 0x13DC JUMP JUMPDEST SWAP1 POP PUSH2 0x1477 DUP3 DUP3 PUSH2 0x1430 JUMP JUMPDEST SWAP2 SWAP1 POP JUMP JUMPDEST PUSH1 0x0 PUSH8 0xFFFFFFFFFFFFFFFF DUP3 GT ISZERO PUSH2 0x1497 JUMPI PUSH2 0x1496 PUSH2 0x1401 JUMP JUMPDEST JUMPDEST PUSH1 0x20 DUP3 MUL SWAP1 POP SWAP2 SWAP1 POP JUMP JUMPDEST PUSH1 0x0 DUP1 REVERT JUMPDEST PUSH2 0x14B0 DUP2 PUSH2 0x13A8 JUMP JUMPDEST DUP2 EQ PUSH2 0x14BB JUMPI PUSH1 0x0 DUP1 REVERT JUMPDEST POP JUMP JUMPDEST PUSH1 0x0 DUP2 CALLDATALOAD SWAP1 POP PUSH2 0x14CD DUP2 PUSH2 0x14A7 JUMP JUMPDEST SWAP3 SWAP2 POP POP JUMP JUMPDEST PUSH1 0x0 PUSH2 0x14E6 PUSH2 0x14E1 DUP5 PUSH2 0x147C JUMP JUMPDEST PUSH2 0x1461 JUMP JUMPDEST SWAP1 POP DUP1 PUSH1 0x20 DUP5 MUL DUP4 ADD DUP6 DUP2 GT ISZERO PUSH2 0x1500 JUMPI PUSH2 0x14FF PUSH2 0x14A2 JUMP JUMPDEST JUMPDEST DUP4 JUMPDEST DUP2 DUP2 LT ISZERO PUSH2 0x1529 JUMPI DUP1 PUSH2 0x1515 DUP9 DUP3 PUSH2 0x14BE JUMP JUMPDEST DUP5 MSTORE PUSH1 0x20 DUP5 ADD SWAP4 POP POP PUSH1 0x20 DUP2 ADD SWAP1 POP PUSH2 0x1502 JUMP JUMPDEST POP POP POP SWAP4 SWAP3 POP POP POP JUMP JUMPDEST PUSH1 0x0 DUP3 PUSH1 0x1F DUP4 ADD SLT PUSH2 0x1548 JUMPI PUSH2 0x1547 PUSH2 0x13EB JUMP JUMPDEST JUMPDEST PUSH1 0x2 PUSH2 0x1555 DUP5 DUP3 DUP6 PUSH2 0x14D3 JUMP JUMPDEST SWAP2 POP POP SWAP3 SWAP2 POP POP JUMP JUMPDEST PUSH1 0x0 DUP1 PUSH1 0x80 DUP4 DUP6 SUB SLT ISZERO PUSH2 0x1575 JUMPI PUSH2 0x1574 PUSH2 0x13E6 JUMP JUMPDEST JUMPDEST PUSH1 0x0 PUSH2 0x1583 DUP6 DUP3 DUP7 ADD PUSH2 0x1533 JUMP JUMPDEST SWAP3 POP POP PUSH1 0x40 PUSH2 0x1594 DUP6 DUP3 DUP7 ADD PUSH2 0x1533 JUMP JUMPDEST SWAP2 POP POP SWAP3 POP SWAP3 SWAP1 POP JUMP JUMPDEST PUSH1 0x0 PUSH1 0x2 SWAP1 POP SWAP2 SWAP1 POP JUMP JUMPDEST PUSH1 0x0 DUP2 SWAP1 POP SWAP3 SWAP2 POP POP JUMP JUMPDEST PUSH1 0x0 DUP2 SWAP1 POP SWAP2 SWAP1 POP JUMP JUMPDEST PUSH2 0x15C7 DUP2 PUSH2 0x13A8 JUMP JUMPDEST DUP3 MSTORE POP POP JUMP JUMPDEST PUSH1 0x0 PUSH2 0x15D9 DUP4 DUP4 PUSH2 0x15BE JUMP JUMPDEST PUSH1 0x20 DUP4 ADD SWAP1 POP SWAP3 SWAP2 POP POP JUMP JUMPDEST PUSH1 0x0 PUSH1 0x20 DUP3 ADD SWAP1 POP SWAP2 SWAP1 POP JUMP JUMPDEST PUSH2 0x15FB DUP2 PUSH2 0x159E JUMP JUMPDEST PUSH2 0x1605 DUP2 DUP5 PUSH2 0x15A9 JUMP JUMPDEST SWAP3 POP PUSH2 0x1610 DUP3 PUSH2 0x15B4 JUMP JUMPDEST DUP1 PUSH1 0x0 JUMPDEST DUP4 DUP2 LT ISZERO PUSH2 0x1641 JUMPI DUP2 MLOAD PUSH2 0x1628 DUP8 DUP3 PUSH2 0x15CD JUMP JUMPDEST SWAP7 POP PUSH2 0x1633 DUP4 PUSH2 0x15E5 JUMP JUMPDEST SWAP3 POP POP PUSH1 0x1 DUP2 ADD SWAP1 POP PUSH2 0x1614 JUMP JUMPDEST POP POP POP POP POP POP JUMP JUMPDEST PUSH1 0x0 PUSH1 0x40 DUP3 ADD SWAP1 POP PUSH2 0x165E PUSH1 0x0 DUP4 ADD DUP5 PUSH2 0x15F2 JUMP JUMPDEST SWAP3 SWAP2 POP POP JUMP JUMPDEST PUSH1 0x0 PUSH1 0x20 DUP3 DUP5 SUB SLT ISZERO PUSH2 0x167A JUMPI PUSH2 0x1679 PUSH2 0x13E6 JUMP JUMPDEST JUMPDEST PUSH1 0x0 PUSH2 0x1688 DUP5 DUP3 DUP6 ADD PUSH2 0x14BE JUMP JUMPDEST SWAP2 POP POP SWAP3 SWAP2 POP POP JUMP JUMPDEST PUSH1 0x0 DUP1 PUSH1 0x60 DUP4 DUP6 SUB SLT ISZERO PUSH2 0x16A8 JUMPI PUSH2 0x16A7 PUSH2 0x13E6 JUMP JUMPDEST JUMPDEST PUSH1 0x0 PUSH2 0x16B6 DUP6 DUP3 DUP7 ADD PUSH2 0x1533 JUMP JUMPDEST SWAP3 POP POP PUSH1 0x40 PUSH2 0x16C7 DUP6 DUP3 DUP7 ADD PUSH2 0x14BE JUMP JUMPDEST SWAP2 POP POP SWAP3 POP SWAP3 SWAP1 POP JUMP JUMPDEST PUSH32 0x4E487B7100000000000000000000000000000000000000000000000000000000 PUSH1 0x0 MSTORE PUSH1 0x32 PUSH1 0x4 MSTORE PUSH1 0x24 PUSH1 0x0 REVERT JUMPDEST PUSH32 0x4E487B7100000000000000000000000000000000000000000000000000000000 PUSH1 0x0 MSTORE PUSH1 0x12 PUSH1 0x4 MSTORE PUSH1 0x24 PUSH1 0x0 REVERT JUMPDEST PUSH1 0x0 PUSH2 0x173A DUP3 PUSH2 0x13A8 JUMP JUMPDEST SWAP2 POP PUSH2 0x1745 DUP4 PUSH2 0x13A8 JUMP JUMPDEST SWAP3 POP DUP3 PUSH2 0x1755 JUMPI PUSH2 0x1754 PUSH2 0x1700 JUMP JUMPDEST JUMPDEST DUP3 DUP3 MOD SWAP1 POP SWAP3 SWAP2 POP POP JUMP JUMPDEST PUSH32 0x4E487B7100000000000000000000000000000000000000000000000000000000 PUSH1 0x0 MSTORE PUSH1 0x11 PUSH1 0x4 MSTORE PUSH1 0x24 PUSH1 0x0 REVERT JUMPDEST PUSH1 0x0 PUSH2 0x179A DUP3 PUSH2 0x13A8 JUMP JUMPDEST SWAP2 POP PUSH2 0x17A5 DUP4 PUSH2 0x13A8 JUMP JUMPDEST SWAP3 POP DUP3 DUP3 SUB SWAP1 POP DUP2 DUP2 GT ISZERO PUSH2 0x17BD JUMPI PUSH2 0x17BC PUSH2 0x1760 JUMP JUMPDEST JUMPDEST SWAP3 SWAP2 POP POP JUMP JUMPDEST PUSH1 0x0 DUP3 DUP3 MSTORE PUSH1 0x20 DUP3 ADD SWAP1 POP SWAP3 SWAP2 POP POP JUMP JUMPDEST PUSH32 0x557365206A6163446F75626C652066756E6374696F6E20696E73746561640000 PUSH1 0x0 DUP3 ADD MSTORE POP JUMP JUMPDEST PUSH1 0x0 PUSH2 0x180A PUSH1 0x1E DUP4 PUSH2 0x17C3 JUMP JUMPDEST SWAP2 POP PUSH2 0x1815 DUP3 PUSH2 0x17D4 JUMP JUMPDEST PUSH1 0x20 DUP3 ADD SWAP1 POP SWAP2 SWAP1 POP JUMP JUMPDEST PUSH1 0x0 PUSH1 0x20 DUP3 ADD SWAP1 POP DUP2 DUP2 SUB PUSH1 0x0 DUP4 ADD MSTORE PUSH2 0x1839 DUP2 PUSH2 0x17FD JUMP JUMPDEST SWAP1 POP SWAP2 SWAP1 POP JUMP JUMPDEST PUSH1 0x0 PUSH2 0x184B DUP3 PUSH2 0x13A8 JUMP JUMPDEST SWAP2 POP PUSH2 0x1856 DUP4 PUSH2 0x13A8 JUMP JUMPDEST SWAP3 POP DUP3 PUSH2 0x1866 JUMPI PUSH2 0x1865 PUSH2 0x1700 JUMP JUMPDEST JUMPDEST DUP3 DUP3 DIV SWAP1 POP SWAP3 SWAP2 POP POP JUMP JUMPDEST PUSH32 0x496E76616C6964206E756D626572000000000000000000000000000000000000 PUSH1 0x0 DUP3 ADD MSTORE POP JUMP JUMPDEST PUSH1 0x0 PUSH2 0x18A7 PUSH1 0xE DUP4 PUSH2 0x17C3 JUMP JUMPDEST SWAP2 POP PUSH2 0x18B2 DUP3 PUSH2 0x1871 JUMP JUMPDEST PUSH1 0x20 DUP3 ADD SWAP1 POP SWAP2 SWAP1 POP JUMP JUMPDEST PUSH1 0x0 PUSH1 0x20 DUP3 ADD SWAP1 POP DUP2 DUP2 SUB PUSH1 0x0 DUP4 ADD MSTORE PUSH2 0x18D6 DUP2 PUSH2 0x189A JUMP JUMPDEST SWAP1 POP SWAP2 SWAP1 POP JUMP JUMPDEST PUSH1 0x0 PUSH2 0x18E8 DUP3 PUSH2 0x13A8 JUMP JUMPDEST SWAP2 POP PUSH2 0x18F3 DUP4 PUSH2 0x13A8 JUMP JUMPDEST SWAP3 POP DUP3 DUP3 MUL PUSH2 0x1901 DUP2 PUSH2 0x13A8 JUMP JUMPDEST SWAP2 POP DUP3 DUP3 DIV DUP5 EQ DUP4 ISZERO OR PUSH2 0x1918 JUMPI PUSH2 0x1917 PUSH2 0x1760 JUMP JUMPDEST JUMPDEST POP SWAP3 SWAP2 POP POP JUMP INVALID LOG2 PUSH5 0x6970667358 0x22 SLT KECCAK256 0xB2 ISZERO CALLDATALOAD 0x29 RETURN 0x24 0xE2 0xF8 0xA8 LOG3 0xFC 0xC4 0x2D 0xC2 CODECOPY 0xE5 0xE PUSH14 0x31595FB0D45B6E10C4722CB09F5E PUSH5 0x736F6C6343 STOP ADDMOD SGT STOP CALLER "
		},
		"gasEstimates": {
			"creation": {
				"codeDepositCost": "2517000",
				"executionCost": "infinite",
				"totalCost": "infinite"
			},
			"external": {
				"checkKeyImage(uint256[2])": "infinite",
				"getInfo()": "infinite",
				"getTXoutputs()": "infinite",
				"receiveTransaction(uint256,uint256,uint256[2],uint256[4],uint256[2][2][2],uint256,uint256[2],uint16)": "infinite",
				"returnArr(uint256[])": "infinite",
				"returnKeyImage()": "infinite",
				"returnMLSAG((uint256,uint256[2],uint256[4],uint256[2][2][2]))": "infinite",
				"returnNum(uint256)": "infinite",
				"returnStruct((uint256[]))": "infinite",
				"verifyTransaction(uint256,(uint256,uint256[2],uint256[4],uint256[2][2][2]))": "infinite"
			},
			"internal": {
				"hash2Hex(string memory)": "infinite",
				"hash2Point(string memory)": "infinite",
				"hash2Point(uint256[2] memory)": "infinite",
				"point2String(uint256[2] memory)": "infinite"
			}
		},
		"methodIdentifiers": {
			"checkKeyImage(uint256[2])": "8784b518",
			"getInfo()": "5a9b0b89",
			"getTXoutputs()": "c01da18b",
			"receiveTransaction(uint256,uint256,uint256[2],uint256[4],uint256[2][2][2],uint256,uint256[2],uint16)": "6cc42756",
			"returnArr(uint256[])": "07f51a9a",
			"returnKeyImage()": "ac63a7ed",
			"returnMLSAG((uint256,uint256[2],uint256[4],uint256[2][2][2]))": "61df00b1",
			"returnNum(uint256)": "f80e3e00",
			"returnStruct((uint256[]))": "0d47535f",
			"verifyTransaction(uint256,(uint256,uint256[2],uint256[4],uint256[2][2][2]))": "a8660c1f"
		}
	},
	"abi": [
		{
			"inputs": [],
			"stateMutability": "nonpayable",
			"type": "constructor"
		},
		{
			"anonymous": false,
			"inputs": [
				{
					"indexed": false,
					"internalType": "uint256",
					"name": "num",
					"type": "uint256"
				}
			],
			"name": "TestEvent",
			"type": "event"
		},
		{
			"anonymous": false,
			"inputs": [
				{
					"components": [
						{
							"internalType": "uint256",
							"name": "rPubKey",
							"type": "uint256"
						},
						{
							"internalType": "uint256[2]",
							"name": "amountCommitment",
							"type": "uint256[2]"
						},
						{
							"internalType": "uint16",
							"name": "transactionIndex",
							"type": "uint16"
						}
					],
					"indexed": false,
					"internalType": "struct Meteora.TXoutput",
					"name": "_outputs",
					"type": "tuple"
				}
			],
			"name": "TransactionApproved",
			"type": "event"
		},
		{
			"inputs": [
				{
					"internalType": "uint256[2]",
					"name": "keyImage",
					"type": "uint256[2]"
				}
			],
			"name": "checkKeyImage",
			"outputs": [
				{
					"internalType": "bool",
					"name": "",
					"type": "bool"
				}
			],
			"stateMutability": "view",
			"type": "function"
		},
		{
			"inputs": [],
			"name": "getInfo",
			"outputs": [
				{
					"internalType": "string",
					"name": "",
					"type": "string"
				}
			],
			"stateMutability": "pure",
			"type": "function"
		},
		{
			"inputs": [],
			"name": "getTXoutputs",
			"outputs": [
				{
					"components": [
						{
							"internalType": "uint256",
							"name": "rPubKey",
							"type": "uint256"
						},
						{
							"internalType": "uint256[2]",
							"name": "amountCommitment",
							"type": "uint256[2]"
						},
						{
							"internalType": "uint16",
							"name": "transactionIndex",
							"type": "uint16"
						}
					],
					"internalType": "struct Meteora.TXoutput[]",
					"name": "",
					"type": "tuple[]"
				}
			],
			"stateMutability": "view",
			"type": "function"
		},
		{
			"inputs": [
				{
					"internalType": "uint256",
					"name": "_message",
					"type": "uint256"
				},
				{
					"internalType": "uint256",
					"name": "c1",
					"type": "uint256"
				},
				{
					"internalType": "uint256[2]",
					"name": "keyImage",
					"type": "uint256[2]"
				},
				{
					"internalType": "uint256[4]",
					"name": "rFactors",
					"type": "uint256[4]"
				},
				{
					"internalType": "uint256[2][2][2]",
					"name": "inputs",
					"type": "uint256[2][2][2]"
				},
				{
					"internalType": "uint256",
					"name": "rPubKey",
					"type": "uint256"
				},
				{
					"internalType": "uint256[2]",
					"name": "amountCommitment",
					"type": "uint256[2]"
				},
				{
					"internalType": "uint16",
					"name": "transactionIndex",
					"type": "uint16"
				}
			],
			"name": "receiveTransaction",
			"outputs": [
				{
					"internalType": "bool",
					"name": "",
					"type": "bool"
				}
			],
			"stateMutability": "nonpayable",
			"type": "function"
		},
		{
			"inputs": [
				{
					"internalType": "uint256[]",
					"name": "_arr",
					"type": "uint256[]"
				}
			],
			"name": "returnArr",
			"outputs": [
				{
					"internalType": "uint256[]",
					"name": "",
					"type": "uint256[]"
				}
			],
			"stateMutability": "pure",
			"type": "function"
		},
		{
			"inputs": [],
			"name": "returnKeyImage",
			"outputs": [
				{
					"internalType": "uint256[2][]",
					"name": "",
					"type": "uint256[2][]"
				}
			],
			"stateMutability": "view",
			"type": "function"
		},
		{
			"inputs": [
				{
					"components": [
						{
							"internalType": "uint256",
							"name": "c1",
							"type": "uint256"
						},
						{
							"internalType": "uint256[2]",
							"name": "keyImage",
							"type": "uint256[2]"
						},
						{
							"internalType": "uint256[4]",
							"name": "rFactors",
							"type": "uint256[4]"
						},
						{
							"internalType": "uint256[2][2][2]",
							"name": "inputs",
							"type": "uint256[2][2][2]"
						}
					],
					"internalType": "struct Meteora.MLSAG",
					"name": "_mlsag",
					"type": "tuple"
				}
			],
			"name": "returnMLSAG",
			"outputs": [
				{
					"components": [
						{
							"internalType": "uint256",
							"name": "c1",
							"type": "uint256"
						},
						{
							"internalType": "uint256[2]",
							"name": "keyImage",
							"type": "uint256[2]"
						},
						{
							"internalType": "uint256[4]",
							"name": "rFactors",
							"type": "uint256[4]"
						},
						{
							"internalType": "uint256[2][2][2]",
							"name": "inputs",
							"type": "uint256[2][2][2]"
						}
					],
					"internalType": "struct Meteora.MLSAG",
					"name": "",
					"type": "tuple"
				}
			],
			"stateMutability": "pure",
			"type": "function"
		},
		{
			"inputs": [
				{
					"internalType": "uint256",
					"name": "_num",
					"type": "uint256"
				}
			],
			"name": "returnNum",
			"outputs": [
				{
					"internalType": "uint256",
					"name": "",
					"type": "uint256"
				}
			],
			"stateMutability": "pure",
			"type": "function"
		},
		{
			"inputs": [
				{
					"components": [
						{
							"internalType": "uint256[]",
							"name": "test",
							"type": "uint256[]"
						}
					],
					"internalType": "struct Meteora.TestStruct",
					"name": "_struct",
					"type": "tuple"
				}
			],
			"name": "returnStruct",
			"outputs": [
				{
					"components": [
						{
							"internalType": "uint256[]",
							"name": "test",
							"type": "uint256[]"
						}
					],
					"internalType": "struct Meteora.TestStruct",
					"name": "",
					"type": "tuple"
				}
			],
			"stateMutability": "pure",
			"type": "function"
		},
		{
			"inputs": [
				{
					"internalType": "uint256",
					"name": "_message",
					"type": "uint256"
				},
				{
					"components": [
						{
							"internalType": "uint256",
							"name": "c1",
							"type": "uint256"
						},
						{
							"internalType": "uint256[2]",
							"name": "keyImage",
							"type": "uint256[2]"
						},
						{
							"internalType": "uint256[4]",
							"name": "rFactors",
							"type": "uint256[4]"
						},
						{
							"internalType": "uint256[2][2][2]",
							"name": "inputs",
							"type": "uint256[2][2][2]"
						}
					],
					"internalType": "struct Meteora.MLSAG",
					"name": "_signature",
					"type": "tuple"
				}
			],
			"name": "verifyTransaction",
			"outputs": [
				{
					"internalType": "bool",
					"name": "",
					"type": "bool"
				}
			],
			"stateMutability": "nonpayable",
			"type": "function"
		}
	]
}