{
	"data": {
		"bytecode": {
			"linkReferences": {},
			"object": "60806040526040518060400160405280600781526020017f4d6574656f726100000000000000000000000000000000000000000000000000815250600490816200004a9190620003da565b506040518060400160405280600381526020017f4d4554000000000000000000000000000000000000000000000000000000000081525060059081620000919190620003da565b50604051620000a09062000152565b604051809103906000f080158015620000bd573d6000803e3d6000fd5b50600660006101000a81548173ffffffffffffffffffffffffffffffffffffffff021916908373ffffffffffffffffffffffffffffffffffffffff1602179055503480156200010b57600080fd5b50336000806101000a81548173ffffffffffffffffffffffffffffffffffffffff021916908373ffffffffffffffffffffffffffffffffffffffff160217905550620004c1565b611975806200369183390190565b600081519050919050565b7f4e487b7100000000000000000000000000000000000000000000000000000000600052604160045260246000fd5b7f4e487b7100000000000000000000000000000000000000000000000000000000600052602260045260246000fd5b60006002820490506001821680620001e257607f821691505b602082108103620001f857620001f76200019a565b5b50919050565b60008190508160005260206000209050919050565b60006020601f8301049050919050565b600082821b905092915050565b600060088302620002627fffffffffffffffffffffffffffffffffffffffffffffffffffffffffffffffff8262000223565b6200026e868362000223565b95508019841693508086168417925050509392505050565b6000819050919050565b6000819050919050565b6000620002bb620002b5620002af8462000286565b62000290565b62000286565b9050919050565b6000819050919050565b620002d7836200029a565b620002ef620002e682620002c2565b84845462000230565b825550505050565b600090565b62000306620002f7565b62000313818484620002cc565b505050565b5b818110156200033b576200032f600082620002fc565b60018101905062000319565b5050565b601f8211156200038a576200035481620001fe565b6200035f8462000213565b810160208510156200036f578190505b620003876200037e8562000213565b83018262000318565b50505b505050565b600082821c905092915050565b6000620003af600019846008026200038f565b1980831691505092915050565b6000620003ca83836200039c565b9150826002028217905092915050565b620003e58262000160565b67ffffffffffffffff8111156200040157620004006200016b565b5b6200040d8254620001c9565b6200041a8282856200033f565b600060209050601f8311600181146200045257600084156200043d578287015190505b620004498582620003bc565b865550620004b9565b601f1984166200046286620001fe565b60005b828110156200048c5784890151825560018201915060208501945060208101905062000465565b86831015620004ac5784890151620004a8601f8916826200039c565b8355505b6001600288020188555050505b505050505050565b6131c080620004d16000396000f3fe608060405234801561001057600080fd5b506004361061009e5760003560e01c8063a8660c1f11610066578063a8660c1f14610181578063a9adc1f8146101b1578063ac63a7ed146101e1578063c01da18b146101ff578063f80e3e001461021d5761009e565b806307f51a9a146100a35780635a9b0b89146100d35780635b2f4b3f146100f157806361df00b1146101215780638784b51814610151575b600080fd5b6100bd60048036038101906100b89190611fd5565b61024d565b6040516100ca91906120dc565b60405180910390f35b6100db610257565b6040516100e8919061217d565b60405180910390f35b61010b6004803603810190610106919061249d565b610294565b6040516101189190612586565b60405180910390f35b61013b6004803603810190610136919061261f565b61050b565b60405161014891906128e3565b60405180910390f35b61016b600480360381019061016691906128ff565b61051b565b6040516101789190612586565b60405180910390f35b61019b6004803603810190610196919061292c565b610633565b6040516101a89190612586565b60405180910390f35b6101cb60048036038101906101c6919061296d565b61160c565b6040516101d89190612586565b60405180910390f35b6101e96116de565b6040516101f69190612a6b565b60405180910390f35b61020761176e565b6040516102149190612ba0565b60405180910390f35b61023760048036038101906102329190612bc2565b611881565b6040516102449190612bfe565b60405180910390f35b6060819050919050565b60606040518060400160405280600b81526020017f48656c6c6f20576f726c64000000000000000000000000000000000000000000815250905090565b600061029e611c49565b898160000181815250508881602001819052508781604001819052508681606001819052503073ffffffffffffffffffffffffffffffffffffffff16638784b5188a6040518263ffffffff1660e01b81526004016102fc9190612c7b565b602060405180830381865afa158015610319573d6000803e3d6000fd5b505050506040513d601f19601f8201168201806040525081019061033d9190612cc2565b61037c576040517f08c379a000000000000000000000000000000000000000000000000000000000815260040161037390612d61565b60405180910390fd5b3073ffffffffffffffffffffffffffffffffffffffff1663a8660c1f8c836040518363ffffffff1660e01b81526004016103b7929190612d81565b602060405180830381865afa1580156103d4573d6000803e3d6000fd5b505050506040513d601f19601f820116820180604052508101906103f89190612cc2565b610437576040517f08c379a000000000000000000000000000000000000000000000000000000000815260040161042e90612e43565b60405180910390fd5b600381602001519080600181540180825580915050600190039060005260206000209060020201600090919091909150906002610475929190611c83565b503073ffffffffffffffffffffffffffffffffffffffff1663a9adc1f8878787876040518563ffffffff1660e01b81526004016104b59493929190612e72565b6020604051808303816000875af11580156104d4573d6000803e3d6000fd5b505050506040513d601f19601f820116820180604052508101906104f89190612cc2565b5060019150509998505050505050505050565b610513611c49565b819050919050565b6000610525611cc3565b60005b60038054905081101561062757600360008154811061054a57610549612eb7565b5b906000526020600020906002020160028060200260405190810160405280929190826002801561058f576020028201915b81548152602001906001019080831161057b575b50505050509150816000600281106105aa576105a9612eb7565b5b6020020151846000600281106105c3576105c2612eb7565b5b60200201511480156106045750816001600281106105e4576105e3612eb7565b5b6020020151846001600281106105fd576105fc612eb7565b5b6020020151145b156106145760009250505061062e565b808061061f90612f15565b915050610528565b5060019150505b919050565b600061063d611ce5565b610645611d3f565b6000846020015190506000856060015190508560000151836000600381106106705761066f612eb7565b5b60200201818152505060008080610685611cc3565b61068d611cc3565b606060005b60028d604001515060046106a69190612f5d565b811015610e5d576040518060200160405280600081525091508c6040015181600481106106d6576106d5612eb7565b5b602002015195508c604001516001826106ef9190612f91565b60048110610700576106ff612eb7565b5b6020020151945087876002811061071a57610719612eb7565b5b602002015160006002811061073257610731612eb7565b5b6020020151935087876002811061074c5761074b612eb7565b5b602002015160016002811061076457610763612eb7565b5b60200201519250600660009054906101000a900473ffffffffffffffffffffffffffffffffffffffff1673ffffffffffffffffffffffffffffffffffffffff1663bb734c4e876040518263ffffffff1660e01b81526004016107c69190612bfe565b6040805180830381865afa1580156107e2573d6000803e3d6000fd5b505050506040513d601f19601f820116820180604052508101906108069190613065565b8b60000181905250600660009054906101000a900473ffffffffffffffffffffffffffffffffffffffff1673ffffffffffffffffffffffffffffffffffffffff1663aca8f56e858c8a600381106108605761085f612eb7565b5b60200201516040518363ffffffff1660e01b8152600401610882929190613092565b6040805180830381865afa15801561089e573d6000803e3d6000fd5b505050506040513d601f19601f820116820180604052508101906108c29190613065565b8b60200181905250600660009054906101000a900473ffffffffffffffffffffffffffffffffffffffff1673ffffffffffffffffffffffffffffffffffffffff1663aca8f56e6109118661188b565b886040518363ffffffff1660e01b815260040161092f929190613092565b6040805180830381865afa15801561094b573d6000803e3d6000fd5b505050506040513d601f19601f8201168201806040525081019061096f9190613065565b8b60400181905250600660009054906101000a900473ffffffffffffffffffffffffffffffffffffffff1673ffffffffffffffffffffffffffffffffffffffff1663aca8f56e8a8c8a600381106109c9576109c8612eb7565b5b60200201516040518363ffffffff1660e01b81526004016109eb929190613092565b6040805180830381865afa158015610a07573d6000803e3d6000fd5b505050506040513d601f19601f82011682018060405250810190610a2b9190613065565b8b60600181905250600660009054906101000a900473ffffffffffffffffffffffffffffffffffffffff1673ffffffffffffffffffffffffffffffffffffffff1663bb734c4e866040518263ffffffff1660e01b8152600401610a8e9190612bfe565b6040805180830381865afa158015610aaa573d6000803e3d6000fd5b505050506040513d601f19601f82011682018060405250810190610ace9190613065565b8b60800181905250600660009054906101000a900473ffffffffffffffffffffffffffffffffffffffff1673ffffffffffffffffffffffffffffffffffffffff1663aca8f56e848c8a60038110610b2857610b27612eb7565b5b60200201516040518363ffffffff1660e01b8152600401610b4a929190613092565b6040805180830381865afa158015610b66573d6000803e3d6000fd5b505050506040513d601f19601f82011682018060405250810190610b8a9190613065565b8b60a00181905250610b9b8e6118b1565b610c48600660009054906101000a900473ffffffffffffffffffffffffffffffffffffffff1673ffffffffffffffffffffffffffffffffffffffff16631177a4a48e600001518f602001516040518363ffffffff1660e01b8152600401610c039291906130bb565b6040805180830381865afa158015610c1f573d6000803e3d6000fd5b505050506040513d601f19601f82011682018060405250810190610c439190613065565b61197f565b604051602001610c59929190613120565b604051602081830303815290604052915081610d18600660009054906101000a900473ffffffffffffffffffffffffffffffffffffffff1673ffffffffffffffffffffffffffffffffffffffff16631177a4a48e604001518f606001516040518363ffffffff1660e01b8152600401610cd39291906130bb565b6040805180830381865afa158015610cef573d6000803e3d6000fd5b505050506040513d601f19601f82011682018060405250810190610d139190613065565b61197f565b604051602001610d29929190613120565b604051602081830303815290604052915081610de8600660009054906101000a900473ffffffffffffffffffffffffffffffffffffffff1673ffffffffffffffffffffffffffffffffffffffff16631177a4a48e608001518f60a001516040518363ffffffff1660e01b8152600401610da39291906130bb565b6040805180830381865afa158015610dbf573d6000803e3d6000fd5b505050506040513d601f19601f82011682018060405250810190610de39190613065565b61197f565b604051602001610df9929190613120565b6040516020818303038152906040529150610e13826119ea565b8a600189610e219190612f91565b60038110610e3257610e31612eb7565b5b6020020181815250508680610e4690612f15565b975050600281610e569190612f91565b9050610692565b60405180602001604052806000815250915060028d60400151506004610e839190612f5d565b90508c604001518160048110610e9c57610e9b612eb7565b5b602002015195508c60400151600182610eb59190612f91565b60048110610ec657610ec5612eb7565b5b60200201519450878760028110610ee057610edf612eb7565b5b6020020151600060028110610ef857610ef7612eb7565b5b60200201519350878760028110610f1257610f11612eb7565b5b6020020151600160028110610f2a57610f29612eb7565b5b60200201519250600660009054906101000a900473ffffffffffffffffffffffffffffffffffffffff1673ffffffffffffffffffffffffffffffffffffffff1663bb734c4e876040518263ffffffff1660e01b8152600401610f8c9190612bfe565b6040805180830381865afa158015610fa8573d6000803e3d6000fd5b505050506040513d601f19601f82011682018060405250810190610fcc9190613065565b8b60000181905250600660009054906101000a900473ffffffffffffffffffffffffffffffffffffffff1673ffffffffffffffffffffffffffffffffffffffff1663aca8f56e858c8a6003811061102657611025612eb7565b5b60200201516040518363ffffffff1660e01b8152600401611048929190613092565b6040805180830381865afa158015611064573d6000803e3d6000fd5b505050506040513d601f19601f820116820180604052508101906110889190613065565b8b60200181905250600660009054906101000a900473ffffffffffffffffffffffffffffffffffffffff1673ffffffffffffffffffffffffffffffffffffffff1663aca8f56e6110d78661188b565b886040518363ffffffff1660e01b81526004016110f5929190613092565b6040805180830381865afa158015611111573d6000803e3d6000fd5b505050506040513d601f19601f820116820180604052508101906111359190613065565b8b60400181905250600660009054906101000a900473ffffffffffffffffffffffffffffffffffffffff1673ffffffffffffffffffffffffffffffffffffffff1663aca8f56e8a8c8a6003811061118f5761118e612eb7565b5b60200201516040518363ffffffff1660e01b81526004016111b1929190613092565b6040805180830381865afa1580156111cd573d6000803e3d6000fd5b505050506040513d601f19601f820116820180604052508101906111f19190613065565b8b60600181905250600660009054906101000a900473ffffffffffffffffffffffffffffffffffffffff1673ffffffffffffffffffffffffffffffffffffffff1663bb734c4e866040518263ffffffff1660e01b81526004016112549190612bfe565b6040805180830381865afa158015611270573d6000803e3d6000fd5b505050506040513d601f19601f820116820180604052508101906112949190613065565b8b60800181905250600660009054906101000a900473ffffffffffffffffffffffffffffffffffffffff1673ffffffffffffffffffffffffffffffffffffffff1663aca8f56e848c8a600381106112ee576112ed612eb7565b5b60200201516040518363ffffffff1660e01b8152600401611310929190613092565b6040805180830381865afa15801561132c573d6000803e3d6000fd5b505050506040513d601f19601f820116820180604052508101906113509190613065565b8b60a001819052506113618e6118b1565b61140e600660009054906101000a900473ffffffffffffffffffffffffffffffffffffffff1673ffffffffffffffffffffffffffffffffffffffff16631177a4a48e600001518f602001516040518363ffffffff1660e01b81526004016113c99291906130bb565b6040805180830381865afa1580156113e5573d6000803e3d6000fd5b505050506040513d601f19601f820116820180604052508101906114099190613065565b61197f565b60405160200161141f929190613120565b6040516020818303038152906040529150816114de600660009054906101000a900473ffffffffffffffffffffffffffffffffffffffff1673ffffffffffffffffffffffffffffffffffffffff16631177a4a48e604001518f606001516040518363ffffffff1660e01b81526004016114999291906130bb565b6040805180830381865afa1580156114b5573d6000803e3d6000fd5b505050506040513d601f19601f820116820180604052508101906114d99190613065565b61197f565b6040516020016114ef929190613120565b6040516020818303038152906040529150816115ae600660009054906101000a900473ffffffffffffffffffffffffffffffffffffffff1673ffffffffffffffffffffffffffffffffffffffff16631177a4a48e608001518f60a001516040518363ffffffff1660e01b81526004016115699291906130bb565b6040805180830381865afa158015611585573d6000803e3d6000fd5b505050506040513d601f19601f820116820180604052508101906115a99190613065565b61197f565b6040516020016115bf929190613120565b604051602081830303815290604052915060006115db836119ea565b9050808b6000600381106115f2576115f1612eb7565b5b6020020151149c5050505050505050505050505092915050565b6000611616611d61565b8581600001818152505084816020018190525083816040019061ffff16908161ffff1681525050828160600181905250600281908060018154018082558091505060019003906000526020600020906006020160009091909190915060008201518160000155602082015181600101906002611693929190611c83565b5060408201518160030160006101000a81548161ffff021916908361ffff1602179055506060820151816004019060026116ce929190611c83565b5050506001915050949350505050565b60606003805480602002602001604051908101604052809291908181526020016000905b828210156117655783829060005260206000209060020201600280602002604051908101604052809291908260028015611751576020028201915b81548152602001906001019080831161173d575b505050505081526020019060010190611702565b50505050905090565b60606002805480602002602001604051908101604052809291908181526020016000905b82821015611878578382906000526020600020906006020160405180608001604052908160008201548152602001600182016002806020026040519081016040528092919082600280156117fb576020028201915b8154815260200190600101908083116117e7575b505050505081526020016003820160009054906101000a900461ffff1661ffff1661ffff16815260200160048201600280602002604051908101604052809291908260028015611860576020028201915b81548152602001906001019080831161184c575b50505050508152505081526020019060010190611792565b50505050905090565b6000819050919050565b611893611cc3565b600061189e8361197f565b90506118a981611a1d565b915050919050565b6060600060016118c084611af6565b01905060008167ffffffffffffffff8111156118df576118de611e5c565b5b6040519080825280601f01601f1916602001820160405280156119115781602001600182028036833780820191505090505b509050600082602001820190505b600115611974578080600190039150507f3031323334353637383961626364656600000000000000000000000000000000600a86061a8153600a858161196857611967613144565b5b0494506000850361191f575b819350505050919050565b60606119a28260006002811061199857611997612eb7565b5b60200201516118b1565b6119c3836001600281106119b9576119b8612eb7565b5b60200201516118b1565b6040516020016119d4929190613120565b6040516020818303038152906040529050919050565b6000816040516020016119fd9190613173565b6040516020818303038152906040528051906020012060001c9050919050565b611a25611cc3565b600082604051602001611a389190613173565b6040516020818303038152906040528051906020012060001c9050600660009054906101000a900473ffffffffffffffffffffffffffffffffffffffff1673ffffffffffffffffffffffffffffffffffffffff1663bb734c4e826040518263ffffffff1660e01b8152600401611aae9190612bfe565b6040805180830381865afa158015611aca573d6000803e3d6000fd5b505050506040513d601f19601f82011682018060405250810190611aee9190613065565b915050919050565b600080600090507a184f03e93ff9f4daa797ed6e38ed64bf6a1f0100000000000000008310611b54577a184f03e93ff9f4daa797ed6e38ed64bf6a1f0100000000000000008381611b4a57611b49613144565b5b0492506040810190505b6d04ee2d6d415b85acef81000000008310611b91576d04ee2d6d415b85acef81000000008381611b8757611b86613144565b5b0492506020810190505b662386f26fc100008310611bc057662386f26fc100008381611bb657611bb5613144565b5b0492506010810190505b6305f5e1008310611be9576305f5e1008381611bdf57611bde613144565b5b0492506008810190505b6127108310611c0e576127108381611c0457611c03613144565b5b0492506004810190505b60648310611c315760648381611c2757611c26613144565b5b0492506002810190505b600a8310611c40576001810190505b80915050919050565b604051806080016040528060008152602001611c63611cc3565b8152602001611c70611d99565b8152602001611c7d611dbb565b81525090565b8260028101928215611cb2579160200282015b82811115611cb1578251825591602001919060010190611c96565b5b509050611cbf9190611de8565b5090565b6040518060400160405280600290602082028036833780820191505090505090565b6040518060c00160405280611cf8611cc3565b8152602001611d05611cc3565b8152602001611d12611cc3565b8152602001611d1f611cc3565b8152602001611d2c611cc3565b8152602001611d39611cc3565b81525090565b6040518060600160405280600390602082028036833780820191505090505090565b604051806080016040528060008152602001611d7b611cc3565b8152602001600061ffff168152602001611d93611cc3565b81525090565b6040518060800160405280600490602082028036833780820191505090505090565b60405180604001604052806002905b611dd2611e05565b815260200190600190039081611dca5790505090565b5b80821115611e01576000816000905550600101611de9565b5090565b60405180604001604052806002905b611e1c611cc3565b815260200190600190039081611e145790505090565b6000604051905090565b600080fd5b600080fd5b600080fd5b6000601f19601f8301169050919050565b7f4e487b7100000000000000000000000000000000000000000000000000000000600052604160045260246000fd5b611e9482611e4b565b810181811067ffffffffffffffff82111715611eb357611eb2611e5c565b5b80604052505050565b6000611ec6611e32565b9050611ed28282611e8b565b919050565b600067ffffffffffffffff821115611ef257611ef1611e5c565b5b602082029050602081019050919050565b600080fd5b6000819050919050565b611f1b81611f08565b8114611f2657600080fd5b50565b600081359050611f3881611f12565b92915050565b6000611f51611f4c84611ed7565b611ebc565b90508083825260208201905060208402830185811115611f7457611f73611f03565b5b835b81811015611f9d5780611f898882611f29565b845260208401935050602081019050611f76565b5050509392505050565b600082601f830112611fbc57611fbb611e46565b5b8135611fcc848260208601611f3e565b91505092915050565b600060208284031215611feb57611fea611e3c565b5b600082013567ffffffffffffffff81111561200957612008611e41565b5b61201584828501611fa7565b91505092915050565b600081519050919050565b600082825260208201905092915050565b6000819050602082019050919050565b61205381611f08565b82525050565b6000612065838361204a565b60208301905092915050565b6000602082019050919050565b60006120898261201e565b6120938185612029565b935061209e8361203a565b8060005b838110156120cf5781516120b68882612059565b97506120c183612071565b9250506001810190506120a2565b5085935050505092915050565b600060208201905081810360008301526120f6818461207e565b905092915050565b600081519050919050565b600082825260208201905092915050565b60005b8381101561213857808201518184015260208101905061211d565b60008484015250505050565b600061214f826120fe565b6121598185612109565b935061216981856020860161211a565b61217281611e4b565b840191505092915050565b600060208201905081810360008301526121978184612144565b905092915050565b600067ffffffffffffffff8211156121ba576121b9611e5c565b5b602082029050919050565b60006121d86121d38461219f565b611ebc565b905080602084028301858111156121f2576121f1611f03565b5b835b8181101561221b57806122078882611f29565b8452602084019350506020810190506121f4565b5050509392505050565b600082601f83011261223a57612239611e46565b5b60026122478482856121c5565b91505092915050565b600067ffffffffffffffff82111561226b5761226a611e5c565b5b602082029050919050565b600061228961228484612250565b611ebc565b905080602084028301858111156122a3576122a2611f03565b5b835b818110156122cc57806122b88882611f29565b8452602084019350506020810190506122a5565b5050509392505050565b600082601f8301126122eb576122ea611e46565b5b60046122f8848285612276565b91505092915050565b600067ffffffffffffffff82111561231c5761231b611e5c565b5b602082029050919050565b600067ffffffffffffffff82111561234257612341611e5c565b5b602082029050919050565b600061236061235b84612327565b611ebc565b9050806040840283018581111561237a57612379611f03565b5b835b818110156123a3578061238f8882612225565b84526020840193505060408101905061237c565b5050509392505050565b600082601f8301126123c2576123c1611e46565b5b60026123cf84828561234d565b91505092915050565b60006123eb6123e684612301565b611ebc565b9050806080840283018581111561240557612404611f03565b5b835b8181101561242e578061241a88826123ad565b845260208401935050608081019050612407565b5050509392505050565b600082601f83011261244d5761244c611e46565b5b600261245a8482856123d8565b91505092915050565b600061ffff82169050919050565b61247a81612463565b811461248557600080fd5b50565b60008135905061249781612471565b92915050565b60008060008060008060008060006102c08a8c0312156124c0576124bf611e3c565b5b60006124ce8c828d01611f29565b99505060206124df8c828d01611f29565b98505060406124f08c828d01612225565b97505060806125018c828d016122d6565b9650506101006125138c828d01612438565b9550506102006125258c828d01611f29565b9450506102206125378c828d01612225565b9350506102606125498c828d01612488565b92505061028061255b8c828d01612225565b9150509295985092959850929598565b60008115159050919050565b6125808161256b565b82525050565b600060208201905061259b6000830184612577565b92915050565b600080fd5b60006101e082840312156125bd576125bc6125a1565b5b6125c76080611ebc565b905060006125d784828501611f29565b60008301525060206125eb84828501612225565b60208301525060606125ff848285016122d6565b60408301525060e061261384828501612438565b60608301525092915050565b60006101e0828403121561263657612635611e3c565b5b6000612644848285016125a6565b91505092915050565b600060029050919050565b600081905092915050565b6000819050919050565b6000602082019050919050565b6126838161264d565b61268d8184612658565b925061269882612663565b8060005b838110156126c95781516126b08782612059565b96506126bb8361266d565b92505060018101905061269c565b505050505050565b600060049050919050565b600081905092915050565b6000819050919050565b6000602082019050919050565b612707816126d1565b61271181846126dc565b925061271c826126e7565b8060005b8381101561274d5781516127348782612059565b965061273f836126f1565b925050600181019050612720565b505050505050565b600060029050919050565b600081905092915050565b6000819050919050565b600060029050919050565b600081905092915050565b6000819050919050565b60006127a1838361267a565b60408301905092915050565b6000602082019050919050565b6127c381612775565b6127cd8184612780565b92506127d88261278b565b8060005b838110156128095781516127f08782612795565b96506127fb836127ad565b9250506001810190506127dc565b505050505050565b600061281d83836127ba565b60808301905092915050565b6000602082019050919050565b61283f81612755565b6128498184612760565b92506128548261276b565b8060005b8381101561288557815161286c8782612811565b965061287783612829565b925050600181019050612858565b505050505050565b6101e0820160008201516128a4600085018261204a565b5060208201516128b7602085018261267a565b5060408201516128ca60608501826126fe565b5060608201516128dd60e0850182612836565b50505050565b60006101e0820190506128f9600083018461288d565b92915050565b60006040828403121561291557612914611e3c565b5b600061292384828501612225565b91505092915050565b600080610200838503121561294457612943611e3c565b5b600061295285828601611f29565b9250506020612963858286016125a6565b9150509250929050565b60008060008060c0858703121561298757612986611e3c565b5b600061299587828801611f29565b94505060206129a687828801612225565b93505060606129b787828801612488565b92505060806129c887828801612225565b91505092959194509250565b600081519050919050565b600082825260208201905092915050565b6000819050602082019050919050565b6000602082019050919050565b6000612a18826129d4565b612a2281856129df565b9350612a2d836129f0565b8060005b83811015612a5e578151612a458882612795565b9750612a5083612a00565b925050600181019050612a31565b5085935050505092915050565b60006020820190508181036000830152612a858184612a0d565b905092915050565b600081519050919050565b600082825260208201905092915050565b6000819050602082019050919050565b612ac281612463565b82525050565b60c082016000820151612ade600085018261204a565b506020820151612af1602085018261267a565b506040820151612b046060850182612ab9565b506060820151612b17608085018261267a565b50505050565b6000612b298383612ac8565b60c08301905092915050565b6000602082019050919050565b6000612b4d82612a8d565b612b578185612a98565b9350612b6283612aa9565b8060005b83811015612b93578151612b7a8882612b1d565b9750612b8583612b35565b925050600181019050612b66565b5085935050505092915050565b60006020820190508181036000830152612bba8184612b42565b905092915050565b600060208284031215612bd857612bd7611e3c565b5b6000612be684828501611f29565b91505092915050565b612bf881611f08565b82525050565b6000602082019050612c136000830184612bef565b92915050565b600081905092915050565b612c2d8161264d565b612c378184612c19565b9250612c4282612663565b8060005b83811015612c73578151612c5a8782612059565b9650612c658361266d565b925050600181019050612c46565b505050505050565b6000604082019050612c906000830184612c24565b92915050565b612c9f8161256b565b8114612caa57600080fd5b50565b600081519050612cbc81612c96565b92915050565b600060208284031215612cd857612cd7611e3c565b5b6000612ce684828501612cad565b91505092915050565b7f5468652070726f7669646564206b6579496d61676520686173206265656e207560008201527f736564206265666f726521000000000000000000000000000000000000000000602082015250565b6000612d4b602b83612109565b9150612d5682612cef565b604082019050919050565b60006020820190508181036000830152612d7a81612d3e565b9050919050565b600061020082019050612d976000830185612bef565b612da4602083018461288d565b9392505050565b7f5468652070726f7669646564207369676e617475726573207765726520696e6360008201527f6f727265637421200a20546865207472616e73616374696f6e2077696c6c206260208201527f652063616e63656c65642e200000000000000000000000000000000000000000604082015250565b6000612e2d604c83612109565b9150612e3882612dab565b606082019050919050565b60006020820190508181036000830152612e5c81612e20565b9050919050565b612e6c81612463565b82525050565b600060c082019050612e876000830187612bef565b612e946020830186612c24565b612ea16060830185612e63565b612eae6080830184612c24565b95945050505050565b7f4e487b7100000000000000000000000000000000000000000000000000000000600052603260045260246000fd5b7f4e487b7100000000000000000000000000000000000000000000000000000000600052601160045260246000fd5b6000612f2082611f08565b91507fffffffffffffffffffffffffffffffffffffffffffffffffffffffffffffffff8203612f5257612f51612ee6565b5b600182019050919050565b6000612f6882611f08565b9150612f7383611f08565b9250828203905081811115612f8b57612f8a612ee6565b5b92915050565b6000612f9c82611f08565b9150612fa783611f08565b9250828201905080821115612fbf57612fbe612ee6565b5b92915050565b600081519050612fd481611f12565b92915050565b6000612fed612fe88461219f565b611ebc565b9050806020840283018581111561300757613006611f03565b5b835b81811015613030578061301c8882612fc5565b845260208401935050602081019050613009565b5050509392505050565b600082601f83011261304f5761304e611e46565b5b600261305c848285612fda565b91505092915050565b60006040828403121561307b5761307a611e3c565b5b60006130898482850161303a565b91505092915050565b60006060820190506130a76000830185612c24565b6130b46040830184612bef565b9392505050565b60006080820190506130d06000830185612c24565b6130dd6040830184612c24565b9392505050565b600081905092915050565b60006130fa826120fe565b61310481856130e4565b935061311481856020860161211a565b80840191505092915050565b600061312c82856130ef565b915061313882846130ef565b91508190509392505050565b7f4e487b7100000000000000000000000000000000000000000000000000000000600052601260045260246000fd5b600061317f82846130ef565b91508190509291505056fea2646970667358221220d2bdb556f83d21f26f5cd709ddfeb256d2e266b6c4e32a7be8b61a985d09a08d64736f6c63430008130033608060405234801561001057600080fd5b50611955806100206000396000f3fe608060405234801561001057600080fd5b50600436106100f55760003560e01c8063997da8d411610097578063bb734c4e11610066578063bb734c4e1461028c578063c11b8ad7146102bc578063e7a48839146102da578063eeeac01e146102f8576100f5565b8063997da8d4146101f05780639b4cdcd31461020e5780639f13f76d1461023e578063aca8f56e1461025c576100f5565b806329038545116100d357806329038545146101785780634e93d4a2146101965780635727dc5c146101b45780637a308a4c146101d2576100f5565b806303a507be146100fa5780631177a4a4146101185780631c51df7b14610148575b600080fd5b610102610316565b60405161010f91906113c1565b60405180910390f35b610132600480360381019061012d919061155e565b61033a565b60405161013f9190611649565b60405180910390f35b610162600480360381019061015d919061155e565b6103f7565b60405161016f9190611649565b60405180910390f35b6101806104b4565b60405161018d91906113c1565b60405180910390f35b61019e6104d8565b6040516101ab91906113c1565b60405180910390f35b6101bc6104fc565b6040516101c991906113c1565b60405180910390f35b6101da610501565b6040516101e791906113c1565b60405180910390f35b6101f8610525565b60405161020591906113c1565b60405180910390f35b61022860048036038101906102239190611664565b61052a565b6040516102359190611649565b60405180910390f35b6102466105f0565b60405161025391906113c1565b60405180910390f35b61027660048036038101906102719190611691565b610614565b6040516102839190611649565b60405180910390f35b6102a660048036038101906102a19190611664565b6106cb565b6040516102b39190611649565b60405180910390f35b6102c4610791565b6040516102d191906113c1565b60405180910390f35b6102e26107b5565b6040516102ef91906113c1565b60405180910390f35b6103006107d9565b60405161030d91906113c1565b60405180910390f35b7f6fb13b7e8ab1c7d191d16197c1bf7f8dc7992412e1266155b3fb3ac8b30f3ed881565b610342611364565b6000806103d48560006002811061035c5761035b6116d1565b5b602002015186600160028110610375576103746116d1565b5b60200201518660006002811061038e5761038d6116d1565b5b6020020151876001600281106103a7576103a66116d1565b5b602002015160007ffffffffffffffffffffffffffffffffffffffffffffffffffffffffefffffc2f6107fd565b915091506040518060400160405280838152602001828152509250505092915050565b6103ff611364565b60008061049185600060028110610419576104186116d1565b5b602002015186600160028110610432576104316116d1565b5b60200201518660006002811061044b5761044a6116d1565b5b602002015187600160028110610464576104636116d1565b5b602002015160007ffffffffffffffffffffffffffffffffffffffffffffffffffffffffefffffc2f610890565b915091506040518060400160405280838152602001828152509250505092915050565b7f483ada7726a3c4655da4fbfc0e1108a8fd17b448a68554199c47d08ffb10d4b881565b7fd209f7c16cdb6d3559bea88c7d920f8ff077406c615da8adfecdeef604cb40a681565b600781565b7f2e1eb77bd89505113819600b395e0475d102c4788a3280a583d9d82625ed853381565b600081565b610532611364565b6000806105ce7ffffffffffffffffffffffffffffffffebaaedce6af48a03bbfd25e8cd036414185610564919061172f565b7f07cd9ee748a0b26773d9d29361f75594964106d13e1cad67cfe2df503ee3e90e7fd209f7c16cdb6d3559bea88c7d920f8ff077406c615da8adfecdeef604cb40a660007ffffffffffffffffffffffffffffffffffffffffffffffffffffffffefffffc2f6108c4565b9150915060405180604001604052808381526020018281525092505050919050565b7ffffffffffffffffffffffffffffffffebaaedce6af48a03bbfd25e8cd036414181565b61061c611364565b6000806106a87ffffffffffffffffffffffffffffffffebaaedce6af48a03bbfd25e8cd03641418561064e919061172f565b86600060028110610662576106616116d1565b5b60200201518760016002811061067b5761067a6116d1565b5b602002015160007ffffffffffffffffffffffffffffffffffffffffffffffffffffffffefffffc2f6108c4565b915091506040518060400160405280838152602001828152509250505092915050565b6106d3611364565b60008061076f7ffffffffffffffffffffffffffffffffebaaedce6af48a03bbfd25e8cd036414185610705919061172f565b7f6fb13b7e8ab1c7d191d16197c1bf7f8dc7992412e1266155b3fb3ac8b30f3ed87f2e1eb77bd89505113819600b395e0475d102c4788a3280a583d9d82625ed853360007ffffffffffffffffffffffffffffffffffffffffffffffffffffffffefffffc2f6108c4565b9150915060405180604001604052808381526020018281525092505050919050565b7f07cd9ee748a0b26773d9d29361f75594964106d13e1cad67cfe2df503ee3e90e81565b7f79be667ef9dcbbac55a06295ce870b07029bfcdb2dce28d959f2815b16f8179881565b7ffffffffffffffffffffffffffffffffffffffffffffffffffffffffefffffc2f81565b6000806000806000888b03610853576000868061081d5761081c611700565b5b898c08036108345760008094509450505050610885565b6108428b8b60018a8a6108fe565b809350819450829550505050610871565b6108648b8b60018c8c60018c610abc565b8093508194508295505050505b61087d8383838961113b565b945094505050505b965096945050505050565b6000806000806108a18888876111b2565b915091506108b38a8a84848a8a6107fd565b935093505050965096945050505050565b60008060008060006108db8a8a8a60018b8b6111d9565b9250925092506108ed8383838961113b565b945094505050509550959350505050565b600080600080860361091857878787925092509250610ab1565b6000848061092957610928611700565b5b898a0990506000858061093f5761093e611700565b5b898a0990506000868061095557610954611700565b5b898a0990506000878061096b5761096a611700565b5b888061097a57610979611700565b5b848e0960040990506000888061099357610992611700565b5b89806109a2576109a1611700565b5b8a806109b1576109b0611700565b5b8586098c098a806109c5576109c4611700565b5b8760030908905088806109db576109da611700565b5b89806109ea576109e9611700565b5b8384088a6109f8919061178f565b8a80610a0757610a06611700565b5b8384090894508880610a1c57610a1b611700565b5b8980610a2b57610a2a611700565b5b8a80610a3a57610a39611700565b5b8687096008098a610a4b919061178f565b8a80610a5a57610a59611700565b5b8b80610a6957610a68611700565b5b888d610a75919061178f565b860884090893508880610a8b57610a8a611700565b5b8980610a9a57610a99611700565b5b8c8e09600209925084848497509750975050505050505b955095509592505050565b6000806000808a148015610ad05750600089145b15610ae35786868692509250925061112e565b600087148015610af35750600086145b15610b065789898992509250925061112e565b610b0e611386565b8480610b1d57610b1c611700565b5b898a0981600060048110610b3457610b336116d1565b5b6020020181815250508480610b4c57610b4b611700565b5b81600060048110610b6057610b5f6116d1565b5b60200201518a0981600160048110610b7b57610b7a6116d1565b5b6020020181815250508480610b9357610b92611700565b5b86870981600260048110610baa57610ba96116d1565b5b6020020181815250508480610bc257610bc1611700565b5b81600260048110610bd657610bd56116d1565b5b6020020151870981600360048110610bf157610bf06116d1565b5b60200201818152505060405180608001604052808680610c1457610c13611700565b5b83600260048110610c2857610c276116d1565b5b60200201518e0981526020018680610c4357610c42611700565b5b83600360048110610c5757610c566116d1565b5b60200201518d0981526020018680610c7257610c71611700565b5b83600060048110610c8657610c856116d1565b5b60200201518b0981526020018680610ca157610ca0611700565b5b83600160048110610cb557610cb46116d1565b5b60200201518a09815250905080600260048110610cd557610cd46116d1565b5b602002015181600060048110610cee57610ced6116d1565b5b6020020151141580610d30575080600360048110610d0f57610d0e6116d1565b5b602002015181600160048110610d2857610d276116d1565b5b602002015114155b610d6f576040517f08c379a0000000000000000000000000000000000000000000000000000000008152600401610d6690611820565b60405180910390fd5b610d77611386565b8580610d8657610d85611700565b5b82600060048110610d9a57610d996116d1565b5b602002015187610daa919061178f565b83600260048110610dbe57610dbd6116d1565b5b60200201510881600060048110610dd857610dd76116d1565b5b6020020181815250508580610df057610def611700565b5b82600160048110610e0457610e036116d1565b5b602002015187610e14919061178f565b83600360048110610e2857610e276116d1565b5b60200201510881600160048110610e4257610e416116d1565b5b6020020181815250508580610e5a57610e59611700565b5b81600060048110610e6e57610e6d6116d1565b5b602002015182600060048110610e8757610e866116d1565b5b60200201510981600260048110610ea157610ea06116d1565b5b6020020181815250508580610eb957610eb8611700565b5b81600060048110610ecd57610ecc6116d1565b5b602002015182600260048110610ee657610ee56116d1565b5b60200201510981600360048110610f0057610eff6116d1565b5b60200201818152505060008680610f1a57610f19611700565b5b82600360048110610f2e57610f2d6116d1565b5b602002015188610f3e919061178f565b8880610f4d57610f4c611700565b5b84600160048110610f6157610f606116d1565b5b602002015185600160048110610f7a57610f796116d1565b5b6020020151090890508680610f9257610f91611700565b5b8780610fa157610fa0611700565b5b8880610fb057610faf611700565b5b84600260048110610fc457610fc36116d1565b5b602002015186600060048110610fdd57610fdc6116d1565b5b60200201510960020988610ff1919061178f565b820890506000878061100657611005611700565b5b888061101557611014611700565b5b838a611021919061178f565b8a806110305761102f611700565b5b86600260048110611044576110436116d1565b5b60200201518860006004811061105d5761105c6116d1565b5b6020020151090884600160048110611078576110776116d1565b5b6020020151099050878061108f5761108e611700565b5b888061109e5761109d611700565b5b846003600481106110b2576110b16116d1565b5b6020020151866001600481106110cb576110ca6116d1565b5b602002015109896110dc919061178f565b82089050600088806110f1576110f0611700565b5b8980611100576110ff611700565b5b8b8f0985600060048110611117576111166116d1565b5b602002015109905082828297509750975050505050505b9750975097945050505050565b600080600061114a8585611278565b90506000848061115d5761115c611700565b5b82830990506000858061117357611172611700565b5b828a0990506000868061118957611188611700565b5b878061119857611197611700565b5b8486098a0990508181955095505050505094509492505050565b600080848385856111c3919061178f565b6111cd919061172f565b91509150935093915050565b60008060008089036111f35787878792509250925061126c565b60008990506000806000600190505b6000841461125e5760006001851614611231576112248383838f8f8f8e610abc565b8093508194508295505050505b60028461123e9190611840565b935061124d8c8c8c8c8c6108fe565b809c50819d50829e50505050611202565b828282965096509650505050505b96509650969350505050565b600080831415801561128a5750818314155b8015611297575060008214155b6112d6576040517f08c379a00000000000000000000000000000000000000000000000000000000081526004016112cd906118bd565b60405180910390fd5b60008060019050600084905060005b600087146113575786826112f99190611840565b905082868061130b5761130a611700565b5b878061131a57611319611700565b5b85840988611328919061178f565b8608809450819550505086878261133f91906118dd565b8361134a919061178f565b80985081935050506112e5565b8394505050505092915050565b6040518060400160405280600290602082028036833780820191505090505090565b6040518060800160405280600490602082028036833780820191505090505090565b6000819050919050565b6113bb816113a8565b82525050565b60006020820190506113d660008301846113b2565b92915050565b6000604051905090565b600080fd5b600080fd5b6000601f19601f8301169050919050565b7f4e487b7100000000000000000000000000000000000000000000000000000000600052604160045260246000fd5b611439826113f0565b810181811067ffffffffffffffff8211171561145857611457611401565b5b80604052505050565b600061146b6113dc565b90506114778282611430565b919050565b600067ffffffffffffffff82111561149757611496611401565b5b602082029050919050565b600080fd5b6114b0816113a8565b81146114bb57600080fd5b50565b6000813590506114cd816114a7565b92915050565b60006114e66114e18461147c565b611461565b90508060208402830185811115611500576114ff6114a2565b5b835b81811015611529578061151588826114be565b845260208401935050602081019050611502565b5050509392505050565b600082601f830112611548576115476113eb565b5b60026115558482856114d3565b91505092915050565b60008060808385031215611575576115746113e6565b5b600061158385828601611533565b925050604061159485828601611533565b9150509250929050565b600060029050919050565b600081905092915050565b6000819050919050565b6115c7816113a8565b82525050565b60006115d983836115be565b60208301905092915050565b6000602082019050919050565b6115fb8161159e565b61160581846115a9565b9250611610826115b4565b8060005b8381101561164157815161162887826115cd565b9650611633836115e5565b925050600181019050611614565b505050505050565b600060408201905061165e60008301846115f2565b92915050565b60006020828403121561167a576116796113e6565b5b6000611688848285016114be565b91505092915050565b600080606083850312156116a8576116a76113e6565b5b60006116b685828601611533565b92505060406116c7858286016114be565b9150509250929050565b7f4e487b7100000000000000000000000000000000000000000000000000000000600052603260045260246000fd5b7f4e487b7100000000000000000000000000000000000000000000000000000000600052601260045260246000fd5b600061173a826113a8565b9150611745836113a8565b92508261175557611754611700565b5b828206905092915050565b7f4e487b7100000000000000000000000000000000000000000000000000000000600052601160045260246000fd5b600061179a826113a8565b91506117a5836113a8565b92508282039050818111156117bd576117bc611760565b5b92915050565b600082825260208201905092915050565b7f557365206a6163446f75626c652066756e6374696f6e20696e73746561640000600082015250565b600061180a601e836117c3565b9150611815826117d4565b602082019050919050565b60006020820190508181036000830152611839816117fd565b9050919050565b600061184b826113a8565b9150611856836113a8565b92508261186657611865611700565b5b828204905092915050565b7f496e76616c6964206e756d626572000000000000000000000000000000000000600082015250565b60006118a7600e836117c3565b91506118b282611871565b602082019050919050565b600060208201905081810360008301526118d68161189a565b9050919050565b60006118e8826113a8565b91506118f3836113a8565b9250828202611901816113a8565b9150828204841483151761191857611917611760565b5b509291505056fea2646970667358221220b2153529f324e2f8a8a3fcc42dc239e50e6d31595fb0d45b6e10c4722cb09f5e64736f6c63430008130033",
			"opcodes": "PUSH1 0x80 PUSH1 0x40 MSTORE PUSH1 0x40 MLOAD DUP1 PUSH1 0x40 ADD PUSH1 0x40 MSTORE DUP1 PUSH1 0x7 DUP2 MSTORE PUSH1 0x20 ADD PUSH32 0x4D6574656F726100000000000000000000000000000000000000000000000000 DUP2 MSTORE POP PUSH1 0x4 SWAP1 DUP2 PUSH3 0x4A SWAP2 SWAP1 PUSH3 0x3DA JUMP JUMPDEST POP PUSH1 0x40 MLOAD DUP1 PUSH1 0x40 ADD PUSH1 0x40 MSTORE DUP1 PUSH1 0x3 DUP2 MSTORE PUSH1 0x20 ADD PUSH32 0x4D45540000000000000000000000000000000000000000000000000000000000 DUP2 MSTORE POP PUSH1 0x5 SWAP1 DUP2 PUSH3 0x91 SWAP2 SWAP1 PUSH3 0x3DA JUMP JUMPDEST POP PUSH1 0x40 MLOAD PUSH3 0xA0 SWAP1 PUSH3 0x152 JUMP JUMPDEST PUSH1 0x40 MLOAD DUP1 SWAP2 SUB SWAP1 PUSH1 0x0 CREATE DUP1 ISZERO DUP1 ISZERO PUSH3 0xBD JUMPI RETURNDATASIZE PUSH1 0x0 DUP1 RETURNDATACOPY RETURNDATASIZE PUSH1 0x0 REVERT JUMPDEST POP PUSH1 0x6 PUSH1 0x0 PUSH2 0x100 EXP DUP2 SLOAD DUP2 PUSH20 0xFFFFFFFFFFFFFFFFFFFFFFFFFFFFFFFFFFFFFFFF MUL NOT AND SWAP1 DUP4 PUSH20 0xFFFFFFFFFFFFFFFFFFFFFFFFFFFFFFFFFFFFFFFF AND MUL OR SWAP1 SSTORE POP CALLVALUE DUP1 ISZERO PUSH3 0x10B JUMPI PUSH1 0x0 DUP1 REVERT JUMPDEST POP CALLER PUSH1 0x0 DUP1 PUSH2 0x100 EXP DUP2 SLOAD DUP2 PUSH20 0xFFFFFFFFFFFFFFFFFFFFFFFFFFFFFFFFFFFFFFFF MUL NOT AND SWAP1 DUP4 PUSH20 0xFFFFFFFFFFFFFFFFFFFFFFFFFFFFFFFFFFFFFFFF AND MUL OR SWAP1 SSTORE POP PUSH3 0x4C1 JUMP JUMPDEST PUSH2 0x1975 DUP1 PUSH3 0x3691 DUP4 CODECOPY ADD SWAP1 JUMP JUMPDEST PUSH1 0x0 DUP2 MLOAD SWAP1 POP SWAP2 SWAP1 POP JUMP JUMPDEST PUSH32 0x4E487B7100000000000000000000000000000000000000000000000000000000 PUSH1 0x0 MSTORE PUSH1 0x41 PUSH1 0x4 MSTORE PUSH1 0x24 PUSH1 0x0 REVERT JUMPDEST PUSH32 0x4E487B7100000000000000000000000000000000000000000000000000000000 PUSH1 0x0 MSTORE PUSH1 0x22 PUSH1 0x4 MSTORE PUSH1 0x24 PUSH1 0x0 REVERT JUMPDEST PUSH1 0x0 PUSH1 0x2 DUP3 DIV SWAP1 POP PUSH1 0x1 DUP3 AND DUP1 PUSH3 0x1E2 JUMPI PUSH1 0x7F DUP3 AND SWAP2 POP JUMPDEST PUSH1 0x20 DUP3 LT DUP2 SUB PUSH3 0x1F8 JUMPI PUSH3 0x1F7 PUSH3 0x19A JUMP JUMPDEST JUMPDEST POP SWAP2 SWAP1 POP JUMP JUMPDEST PUSH1 0x0 DUP2 SWAP1 POP DUP2 PUSH1 0x0 MSTORE PUSH1 0x20 PUSH1 0x0 KECCAK256 SWAP1 POP SWAP2 SWAP1 POP JUMP JUMPDEST PUSH1 0x0 PUSH1 0x20 PUSH1 0x1F DUP4 ADD DIV SWAP1 POP SWAP2 SWAP1 POP JUMP JUMPDEST PUSH1 0x0 DUP3 DUP3 SHL SWAP1 POP SWAP3 SWAP2 POP POP JUMP JUMPDEST PUSH1 0x0 PUSH1 0x8 DUP4 MUL PUSH3 0x262 PUSH32 0xFFFFFFFFFFFFFFFFFFFFFFFFFFFFFFFFFFFFFFFFFFFFFFFFFFFFFFFFFFFFFFFF DUP3 PUSH3 0x223 JUMP JUMPDEST PUSH3 0x26E DUP7 DUP4 PUSH3 0x223 JUMP JUMPDEST SWAP6 POP DUP1 NOT DUP5 AND SWAP4 POP DUP1 DUP7 AND DUP5 OR SWAP3 POP POP POP SWAP4 SWAP3 POP POP POP JUMP JUMPDEST PUSH1 0x0 DUP2 SWAP1 POP SWAP2 SWAP1 POP JUMP JUMPDEST PUSH1 0x0 DUP2 SWAP1 POP SWAP2 SWAP1 POP JUMP JUMPDEST PUSH1 0x0 PUSH3 0x2BB PUSH3 0x2B5 PUSH3 0x2AF DUP5 PUSH3 0x286 JUMP JUMPDEST PUSH3 0x290 JUMP JUMPDEST PUSH3 0x286 JUMP JUMPDEST SWAP1 POP SWAP2 SWAP1 POP JUMP JUMPDEST PUSH1 0x0 DUP2 SWAP1 POP SWAP2 SWAP1 POP JUMP JUMPDEST PUSH3 0x2D7 DUP4 PUSH3 0x29A JUMP JUMPDEST PUSH3 0x2EF PUSH3 0x2E6 DUP3 PUSH3 0x2C2 JUMP JUMPDEST DUP5 DUP5 SLOAD PUSH3 0x230 JUMP JUMPDEST DUP3 SSTORE POP POP POP POP JUMP JUMPDEST PUSH1 0x0 SWAP1 JUMP JUMPDEST PUSH3 0x306 PUSH3 0x2F7 JUMP JUMPDEST PUSH3 0x313 DUP2 DUP5 DUP5 PUSH3 0x2CC JUMP JUMPDEST POP POP POP JUMP JUMPDEST JUMPDEST DUP2 DUP2 LT ISZERO PUSH3 0x33B JUMPI PUSH3 0x32F PUSH1 0x0 DUP3 PUSH3 0x2FC JUMP JUMPDEST PUSH1 0x1 DUP2 ADD SWAP1 POP PUSH3 0x319 JUMP JUMPDEST POP POP JUMP JUMPDEST PUSH1 0x1F DUP3 GT ISZERO PUSH3 0x38A JUMPI PUSH3 0x354 DUP2 PUSH3 0x1FE JUMP JUMPDEST PUSH3 0x35F DUP5 PUSH3 0x213 JUMP JUMPDEST DUP2 ADD PUSH1 0x20 DUP6 LT ISZERO PUSH3 0x36F JUMPI DUP2 SWAP1 POP JUMPDEST PUSH3 0x387 PUSH3 0x37E DUP6 PUSH3 0x213 JUMP JUMPDEST DUP4 ADD DUP3 PUSH3 0x318 JUMP JUMPDEST POP POP JUMPDEST POP POP POP JUMP JUMPDEST PUSH1 0x0 DUP3 DUP3 SHR SWAP1 POP SWAP3 SWAP2 POP POP JUMP JUMPDEST PUSH1 0x0 PUSH3 0x3AF PUSH1 0x0 NOT DUP5 PUSH1 0x8 MUL PUSH3 0x38F JUMP JUMPDEST NOT DUP1 DUP4 AND SWAP2 POP POP SWAP3 SWAP2 POP POP JUMP JUMPDEST PUSH1 0x0 PUSH3 0x3CA DUP4 DUP4 PUSH3 0x39C JUMP JUMPDEST SWAP2 POP DUP3 PUSH1 0x2 MUL DUP3 OR SWAP1 POP SWAP3 SWAP2 POP POP JUMP JUMPDEST PUSH3 0x3E5 DUP3 PUSH3 0x160 JUMP JUMPDEST PUSH8 0xFFFFFFFFFFFFFFFF DUP2 GT ISZERO PUSH3 0x401 JUMPI PUSH3 0x400 PUSH3 0x16B JUMP JUMPDEST JUMPDEST PUSH3 0x40D DUP3 SLOAD PUSH3 0x1C9 JUMP JUMPDEST PUSH3 0x41A DUP3 DUP3 DUP6 PUSH3 0x33F JUMP JUMPDEST PUSH1 0x0 PUSH1 0x20 SWAP1 POP PUSH1 0x1F DUP4 GT PUSH1 0x1 DUP2 EQ PUSH3 0x452 JUMPI PUSH1 0x0 DUP5 ISZERO PUSH3 0x43D JUMPI DUP3 DUP8 ADD MLOAD SWAP1 POP JUMPDEST PUSH3 0x449 DUP6 DUP3 PUSH3 0x3BC JUMP JUMPDEST DUP7 SSTORE POP PUSH3 0x4B9 JUMP JUMPDEST PUSH1 0x1F NOT DUP5 AND PUSH3 0x462 DUP7 PUSH3 0x1FE JUMP JUMPDEST PUSH1 0x0 JUMPDEST DUP3 DUP2 LT ISZERO PUSH3 0x48C JUMPI DUP5 DUP10 ADD MLOAD DUP3 SSTORE PUSH1 0x1 DUP3 ADD SWAP2 POP PUSH1 0x20 DUP6 ADD SWAP5 POP PUSH1 0x20 DUP2 ADD SWAP1 POP PUSH3 0x465 JUMP JUMPDEST DUP7 DUP4 LT ISZERO PUSH3 0x4AC JUMPI DUP5 DUP10 ADD MLOAD PUSH3 0x4A8 PUSH1 0x1F DUP10 AND DUP3 PUSH3 0x39C JUMP JUMPDEST DUP4 SSTORE POP JUMPDEST PUSH1 0x1 PUSH1 0x2 DUP9 MUL ADD DUP9 SSTORE POP POP POP JUMPDEST POP POP POP POP POP POP JUMP JUMPDEST PUSH2 0x31C0 DUP1 PUSH3 0x4D1 PUSH1 0x0 CODECOPY PUSH1 0x0 RETURN INVALID PUSH1 0x80 PUSH1 0x40 MSTORE CALLVALUE DUP1 ISZERO PUSH2 0x10 JUMPI PUSH1 0x0 DUP1 REVERT JUMPDEST POP PUSH1 0x4 CALLDATASIZE LT PUSH2 0x9E JUMPI PUSH1 0x0 CALLDATALOAD PUSH1 0xE0 SHR DUP1 PUSH4 0xA8660C1F GT PUSH2 0x66 JUMPI DUP1 PUSH4 0xA8660C1F EQ PUSH2 0x181 JUMPI DUP1 PUSH4 0xA9ADC1F8 EQ PUSH2 0x1B1 JUMPI DUP1 PUSH4 0xAC63A7ED EQ PUSH2 0x1E1 JUMPI DUP1 PUSH4 0xC01DA18B EQ PUSH2 0x1FF JUMPI DUP1 PUSH4 0xF80E3E00 EQ PUSH2 0x21D JUMPI PUSH2 0x9E JUMP JUMPDEST DUP1 PUSH4 0x7F51A9A EQ PUSH2 0xA3 JUMPI DUP1 PUSH4 0x5A9B0B89 EQ PUSH2 0xD3 JUMPI DUP1 PUSH4 0x5B2F4B3F EQ PUSH2 0xF1 JUMPI DUP1 PUSH4 0x61DF00B1 EQ PUSH2 0x121 JUMPI DUP1 PUSH4 0x8784B518 EQ PUSH2 0x151 JUMPI JUMPDEST PUSH1 0x0 DUP1 REVERT JUMPDEST PUSH2 0xBD PUSH1 0x4 DUP1 CALLDATASIZE SUB DUP2 ADD SWAP1 PUSH2 0xB8 SWAP2 SWAP1 PUSH2 0x1FD5 JUMP JUMPDEST PUSH2 0x24D JUMP JUMPDEST PUSH1 0x40 MLOAD PUSH2 0xCA SWAP2 SWAP1 PUSH2 0x20DC JUMP JUMPDEST PUSH1 0x40 MLOAD DUP1 SWAP2 SUB SWAP1 RETURN JUMPDEST PUSH2 0xDB PUSH2 0x257 JUMP JUMPDEST PUSH1 0x40 MLOAD PUSH2 0xE8 SWAP2 SWAP1 PUSH2 0x217D JUMP JUMPDEST PUSH1 0x40 MLOAD DUP1 SWAP2 SUB SWAP1 RETURN JUMPDEST PUSH2 0x10B PUSH1 0x4 DUP1 CALLDATASIZE SUB DUP2 ADD SWAP1 PUSH2 0x106 SWAP2 SWAP1 PUSH2 0x249D JUMP JUMPDEST PUSH2 0x294 JUMP JUMPDEST PUSH1 0x40 MLOAD PUSH2 0x118 SWAP2 SWAP1 PUSH2 0x2586 JUMP JUMPDEST PUSH1 0x40 MLOAD DUP1 SWAP2 SUB SWAP1 RETURN JUMPDEST PUSH2 0x13B PUSH1 0x4 DUP1 CALLDATASIZE SUB DUP2 ADD SWAP1 PUSH2 0x136 SWAP2 SWAP1 PUSH2 0x261F JUMP JUMPDEST PUSH2 0x50B JUMP JUMPDEST PUSH1 0x40 MLOAD PUSH2 0x148 SWAP2 SWAP1 PUSH2 0x28E3 JUMP JUMPDEST PUSH1 0x40 MLOAD DUP1 SWAP2 SUB SWAP1 RETURN JUMPDEST PUSH2 0x16B PUSH1 0x4 DUP1 CALLDATASIZE SUB DUP2 ADD SWAP1 PUSH2 0x166 SWAP2 SWAP1 PUSH2 0x28FF JUMP JUMPDEST PUSH2 0x51B JUMP JUMPDEST PUSH1 0x40 MLOAD PUSH2 0x178 SWAP2 SWAP1 PUSH2 0x2586 JUMP JUMPDEST PUSH1 0x40 MLOAD DUP1 SWAP2 SUB SWAP1 RETURN JUMPDEST PUSH2 0x19B PUSH1 0x4 DUP1 CALLDATASIZE SUB DUP2 ADD SWAP1 PUSH2 0x196 SWAP2 SWAP1 PUSH2 0x292C JUMP JUMPDEST PUSH2 0x633 JUMP JUMPDEST PUSH1 0x40 MLOAD PUSH2 0x1A8 SWAP2 SWAP1 PUSH2 0x2586 JUMP JUMPDEST PUSH1 0x40 MLOAD DUP1 SWAP2 SUB SWAP1 RETURN JUMPDEST PUSH2 0x1CB PUSH1 0x4 DUP1 CALLDATASIZE SUB DUP2 ADD SWAP1 PUSH2 0x1C6 SWAP2 SWAP1 PUSH2 0x296D JUMP JUMPDEST PUSH2 0x160C JUMP JUMPDEST PUSH1 0x40 MLOAD PUSH2 0x1D8 SWAP2 SWAP1 PUSH2 0x2586 JUMP JUMPDEST PUSH1 0x40 MLOAD DUP1 SWAP2 SUB SWAP1 RETURN JUMPDEST PUSH2 0x1E9 PUSH2 0x16DE JUMP JUMPDEST PUSH1 0x40 MLOAD PUSH2 0x1F6 SWAP2 SWAP1 PUSH2 0x2A6B JUMP JUMPDEST PUSH1 0x40 MLOAD DUP1 SWAP2 SUB SWAP1 RETURN JUMPDEST PUSH2 0x207 PUSH2 0x176E JUMP JUMPDEST PUSH1 0x40 MLOAD PUSH2 0x214 SWAP2 SWAP1 PUSH2 0x2BA0 JUMP JUMPDEST PUSH1 0x40 MLOAD DUP1 SWAP2 SUB SWAP1 RETURN JUMPDEST PUSH2 0x237 PUSH1 0x4 DUP1 CALLDATASIZE SUB DUP2 ADD SWAP1 PUSH2 0x232 SWAP2 SWAP1 PUSH2 0x2BC2 JUMP JUMPDEST PUSH2 0x1881 JUMP JUMPDEST PUSH1 0x40 MLOAD PUSH2 0x244 SWAP2 SWAP1 PUSH2 0x2BFE JUMP JUMPDEST PUSH1 0x40 MLOAD DUP1 SWAP2 SUB SWAP1 RETURN JUMPDEST PUSH1 0x60 DUP2 SWAP1 POP SWAP2 SWAP1 POP JUMP JUMPDEST PUSH1 0x60 PUSH1 0x40 MLOAD DUP1 PUSH1 0x40 ADD PUSH1 0x40 MSTORE DUP1 PUSH1 0xB DUP2 MSTORE PUSH1 0x20 ADD PUSH32 0x48656C6C6F20576F726C64000000000000000000000000000000000000000000 DUP2 MSTORE POP SWAP1 POP SWAP1 JUMP JUMPDEST PUSH1 0x0 PUSH2 0x29E PUSH2 0x1C49 JUMP JUMPDEST DUP10 DUP2 PUSH1 0x0 ADD DUP2 DUP2 MSTORE POP POP DUP9 DUP2 PUSH1 0x20 ADD DUP2 SWAP1 MSTORE POP DUP8 DUP2 PUSH1 0x40 ADD DUP2 SWAP1 MSTORE POP DUP7 DUP2 PUSH1 0x60 ADD DUP2 SWAP1 MSTORE POP ADDRESS PUSH20 0xFFFFFFFFFFFFFFFFFFFFFFFFFFFFFFFFFFFFFFFF AND PUSH4 0x8784B518 DUP11 PUSH1 0x40 MLOAD DUP3 PUSH4 0xFFFFFFFF AND PUSH1 0xE0 SHL DUP2 MSTORE PUSH1 0x4 ADD PUSH2 0x2FC SWAP2 SWAP1 PUSH2 0x2C7B JUMP JUMPDEST PUSH1 0x20 PUSH1 0x40 MLOAD DUP1 DUP4 SUB DUP2 DUP7 GAS STATICCALL ISZERO DUP1 ISZERO PUSH2 0x319 JUMPI RETURNDATASIZE PUSH1 0x0 DUP1 RETURNDATACOPY RETURNDATASIZE PUSH1 0x0 REVERT JUMPDEST POP POP POP POP PUSH1 0x40 MLOAD RETURNDATASIZE PUSH1 0x1F NOT PUSH1 0x1F DUP3 ADD AND DUP3 ADD DUP1 PUSH1 0x40 MSTORE POP DUP2 ADD SWAP1 PUSH2 0x33D SWAP2 SWAP1 PUSH2 0x2CC2 JUMP JUMPDEST PUSH2 0x37C JUMPI PUSH1 0x40 MLOAD PUSH32 0x8C379A000000000000000000000000000000000000000000000000000000000 DUP2 MSTORE PUSH1 0x4 ADD PUSH2 0x373 SWAP1 PUSH2 0x2D61 JUMP JUMPDEST PUSH1 0x40 MLOAD DUP1 SWAP2 SUB SWAP1 REVERT JUMPDEST ADDRESS PUSH20 0xFFFFFFFFFFFFFFFFFFFFFFFFFFFFFFFFFFFFFFFF AND PUSH4 0xA8660C1F DUP13 DUP4 PUSH1 0x40 MLOAD DUP4 PUSH4 0xFFFFFFFF AND PUSH1 0xE0 SHL DUP2 MSTORE PUSH1 0x4 ADD PUSH2 0x3B7 SWAP3 SWAP2 SWAP1 PUSH2 0x2D81 JUMP JUMPDEST PUSH1 0x20 PUSH1 0x40 MLOAD DUP1 DUP4 SUB DUP2 DUP7 GAS STATICCALL ISZERO DUP1 ISZERO PUSH2 0x3D4 JUMPI RETURNDATASIZE PUSH1 0x0 DUP1 RETURNDATACOPY RETURNDATASIZE PUSH1 0x0 REVERT JUMPDEST POP POP POP POP PUSH1 0x40 MLOAD RETURNDATASIZE PUSH1 0x1F NOT PUSH1 0x1F DUP3 ADD AND DUP3 ADD DUP1 PUSH1 0x40 MSTORE POP DUP2 ADD SWAP1 PUSH2 0x3F8 SWAP2 SWAP1 PUSH2 0x2CC2 JUMP JUMPDEST PUSH2 0x437 JUMPI PUSH1 0x40 MLOAD PUSH32 0x8C379A000000000000000000000000000000000000000000000000000000000 DUP2 MSTORE PUSH1 0x4 ADD PUSH2 0x42E SWAP1 PUSH2 0x2E43 JUMP JUMPDEST PUSH1 0x40 MLOAD DUP1 SWAP2 SUB SWAP1 REVERT JUMPDEST PUSH1 0x3 DUP2 PUSH1 0x20 ADD MLOAD SWAP1 DUP1 PUSH1 0x1 DUP2 SLOAD ADD DUP1 DUP3 SSTORE DUP1 SWAP2 POP POP PUSH1 0x1 SWAP1 SUB SWAP1 PUSH1 0x0 MSTORE PUSH1 0x20 PUSH1 0x0 KECCAK256 SWAP1 PUSH1 0x2 MUL ADD PUSH1 0x0 SWAP1 SWAP2 SWAP1 SWAP2 SWAP1 SWAP2 POP SWAP1 PUSH1 0x2 PUSH2 0x475 SWAP3 SWAP2 SWAP1 PUSH2 0x1C83 JUMP JUMPDEST POP ADDRESS PUSH20 0xFFFFFFFFFFFFFFFFFFFFFFFFFFFFFFFFFFFFFFFF AND PUSH4 0xA9ADC1F8 DUP8 DUP8 DUP8 DUP8 PUSH1 0x40 MLOAD DUP6 PUSH4 0xFFFFFFFF AND PUSH1 0xE0 SHL DUP2 MSTORE PUSH1 0x4 ADD PUSH2 0x4B5 SWAP5 SWAP4 SWAP3 SWAP2 SWAP1 PUSH2 0x2E72 JUMP JUMPDEST PUSH1 0x20 PUSH1 0x40 MLOAD DUP1 DUP4 SUB DUP2 PUSH1 0x0 DUP8 GAS CALL ISZERO DUP1 ISZERO PUSH2 0x4D4 JUMPI RETURNDATASIZE PUSH1 0x0 DUP1 RETURNDATACOPY RETURNDATASIZE PUSH1 0x0 REVERT JUMPDEST POP POP POP POP PUSH1 0x40 MLOAD RETURNDATASIZE PUSH1 0x1F NOT PUSH1 0x1F DUP3 ADD AND DUP3 ADD DUP1 PUSH1 0x40 MSTORE POP DUP2 ADD SWAP1 PUSH2 0x4F8 SWAP2 SWAP1 PUSH2 0x2CC2 JUMP JUMPDEST POP PUSH1 0x1 SWAP2 POP POP SWAP10 SWAP9 POP POP POP POP POP POP POP POP POP JUMP JUMPDEST PUSH2 0x513 PUSH2 0x1C49 JUMP JUMPDEST DUP2 SWAP1 POP SWAP2 SWAP1 POP JUMP JUMPDEST PUSH1 0x0 PUSH2 0x525 PUSH2 0x1CC3 JUMP JUMPDEST PUSH1 0x0 JUMPDEST PUSH1 0x3 DUP1 SLOAD SWAP1 POP DUP2 LT ISZERO PUSH2 0x627 JUMPI PUSH1 0x3 PUSH1 0x0 DUP2 SLOAD DUP2 LT PUSH2 0x54A JUMPI PUSH2 0x549 PUSH2 0x2EB7 JUMP JUMPDEST JUMPDEST SWAP1 PUSH1 0x0 MSTORE PUSH1 0x20 PUSH1 0x0 KECCAK256 SWAP1 PUSH1 0x2 MUL ADD PUSH1 0x2 DUP1 PUSH1 0x20 MUL PUSH1 0x40 MLOAD SWAP1 DUP2 ADD PUSH1 0x40 MSTORE DUP1 SWAP3 SWAP2 SWAP1 DUP3 PUSH1 0x2 DUP1 ISZERO PUSH2 0x58F JUMPI PUSH1 0x20 MUL DUP3 ADD SWAP2 JUMPDEST DUP2 SLOAD DUP2 MSTORE PUSH1 0x20 ADD SWAP1 PUSH1 0x1 ADD SWAP1 DUP1 DUP4 GT PUSH2 0x57B JUMPI JUMPDEST POP POP POP POP POP SWAP2 POP DUP2 PUSH1 0x0 PUSH1 0x2 DUP2 LT PUSH2 0x5AA JUMPI PUSH2 0x5A9 PUSH2 0x2EB7 JUMP JUMPDEST JUMPDEST PUSH1 0x20 MUL ADD MLOAD DUP5 PUSH1 0x0 PUSH1 0x2 DUP2 LT PUSH2 0x5C3 JUMPI PUSH2 0x5C2 PUSH2 0x2EB7 JUMP JUMPDEST JUMPDEST PUSH1 0x20 MUL ADD MLOAD EQ DUP1 ISZERO PUSH2 0x604 JUMPI POP DUP2 PUSH1 0x1 PUSH1 0x2 DUP2 LT PUSH2 0x5E4 JUMPI PUSH2 0x5E3 PUSH2 0x2EB7 JUMP JUMPDEST JUMPDEST PUSH1 0x20 MUL ADD MLOAD DUP5 PUSH1 0x1 PUSH1 0x2 DUP2 LT PUSH2 0x5FD JUMPI PUSH2 0x5FC PUSH2 0x2EB7 JUMP JUMPDEST JUMPDEST PUSH1 0x20 MUL ADD MLOAD EQ JUMPDEST ISZERO PUSH2 0x614 JUMPI PUSH1 0x0 SWAP3 POP POP POP PUSH2 0x62E JUMP JUMPDEST DUP1 DUP1 PUSH2 0x61F SWAP1 PUSH2 0x2F15 JUMP JUMPDEST SWAP2 POP POP PUSH2 0x528 JUMP JUMPDEST POP PUSH1 0x1 SWAP2 POP POP JUMPDEST SWAP2 SWAP1 POP JUMP JUMPDEST PUSH1 0x0 PUSH2 0x63D PUSH2 0x1CE5 JUMP JUMPDEST PUSH2 0x645 PUSH2 0x1D3F JUMP JUMPDEST PUSH1 0x0 DUP5 PUSH1 0x20 ADD MLOAD SWAP1 POP PUSH1 0x0 DUP6 PUSH1 0x60 ADD MLOAD SWAP1 POP DUP6 PUSH1 0x0 ADD MLOAD DUP4 PUSH1 0x0 PUSH1 0x3 DUP2 LT PUSH2 0x670 JUMPI PUSH2 0x66F PUSH2 0x2EB7 JUMP JUMPDEST JUMPDEST PUSH1 0x20 MUL ADD DUP2 DUP2 MSTORE POP POP PUSH1 0x0 DUP1 DUP1 PUSH2 0x685 PUSH2 0x1CC3 JUMP JUMPDEST PUSH2 0x68D PUSH2 0x1CC3 JUMP JUMPDEST PUSH1 0x60 PUSH1 0x0 JUMPDEST PUSH1 0x2 DUP14 PUSH1 0x40 ADD MLOAD POP PUSH1 0x4 PUSH2 0x6A6 SWAP2 SWAP1 PUSH2 0x2F5D JUMP JUMPDEST DUP2 LT ISZERO PUSH2 0xE5D JUMPI PUSH1 0x40 MLOAD DUP1 PUSH1 0x20 ADD PUSH1 0x40 MSTORE DUP1 PUSH1 0x0 DUP2 MSTORE POP SWAP2 POP DUP13 PUSH1 0x40 ADD MLOAD DUP2 PUSH1 0x4 DUP2 LT PUSH2 0x6D6 JUMPI PUSH2 0x6D5 PUSH2 0x2EB7 JUMP JUMPDEST JUMPDEST PUSH1 0x20 MUL ADD MLOAD SWAP6 POP DUP13 PUSH1 0x40 ADD MLOAD PUSH1 0x1 DUP3 PUSH2 0x6EF SWAP2 SWAP1 PUSH2 0x2F91 JUMP JUMPDEST PUSH1 0x4 DUP2 LT PUSH2 0x700 JUMPI PUSH2 0x6FF PUSH2 0x2EB7 JUMP JUMPDEST JUMPDEST PUSH1 0x20 MUL ADD MLOAD SWAP5 POP DUP8 DUP8 PUSH1 0x2 DUP2 LT PUSH2 0x71A JUMPI PUSH2 0x719 PUSH2 0x2EB7 JUMP JUMPDEST JUMPDEST PUSH1 0x20 MUL ADD MLOAD PUSH1 0x0 PUSH1 0x2 DUP2 LT PUSH2 0x732 JUMPI PUSH2 0x731 PUSH2 0x2EB7 JUMP JUMPDEST JUMPDEST PUSH1 0x20 MUL ADD MLOAD SWAP4 POP DUP8 DUP8 PUSH1 0x2 DUP2 LT PUSH2 0x74C JUMPI PUSH2 0x74B PUSH2 0x2EB7 JUMP JUMPDEST JUMPDEST PUSH1 0x20 MUL ADD MLOAD PUSH1 0x1 PUSH1 0x2 DUP2 LT PUSH2 0x764 JUMPI PUSH2 0x763 PUSH2 0x2EB7 JUMP JUMPDEST JUMPDEST PUSH1 0x20 MUL ADD MLOAD SWAP3 POP PUSH1 0x6 PUSH1 0x0 SWAP1 SLOAD SWAP1 PUSH2 0x100 EXP SWAP1 DIV PUSH20 0xFFFFFFFFFFFFFFFFFFFFFFFFFFFFFFFFFFFFFFFF AND PUSH20 0xFFFFFFFFFFFFFFFFFFFFFFFFFFFFFFFFFFFFFFFF AND PUSH4 0xBB734C4E DUP8 PUSH1 0x40 MLOAD DUP3 PUSH4 0xFFFFFFFF AND PUSH1 0xE0 SHL DUP2 MSTORE PUSH1 0x4 ADD PUSH2 0x7C6 SWAP2 SWAP1 PUSH2 0x2BFE JUMP JUMPDEST PUSH1 0x40 DUP1 MLOAD DUP1 DUP4 SUB DUP2 DUP7 GAS STATICCALL ISZERO DUP1 ISZERO PUSH2 0x7E2 JUMPI RETURNDATASIZE PUSH1 0x0 DUP1 RETURNDATACOPY RETURNDATASIZE PUSH1 0x0 REVERT JUMPDEST POP POP POP POP PUSH1 0x40 MLOAD RETURNDATASIZE PUSH1 0x1F NOT PUSH1 0x1F DUP3 ADD AND DUP3 ADD DUP1 PUSH1 0x40 MSTORE POP DUP2 ADD SWAP1 PUSH2 0x806 SWAP2 SWAP1 PUSH2 0x3065 JUMP JUMPDEST DUP12 PUSH1 0x0 ADD DUP2 SWAP1 MSTORE POP PUSH1 0x6 PUSH1 0x0 SWAP1 SLOAD SWAP1 PUSH2 0x100 EXP SWAP1 DIV PUSH20 0xFFFFFFFFFFFFFFFFFFFFFFFFFFFFFFFFFFFFFFFF AND PUSH20 0xFFFFFFFFFFFFFFFFFFFFFFFFFFFFFFFFFFFFFFFF AND PUSH4 0xACA8F56E DUP6 DUP13 DUP11 PUSH1 0x3 DUP2 LT PUSH2 0x860 JUMPI PUSH2 0x85F PUSH2 0x2EB7 JUMP JUMPDEST JUMPDEST PUSH1 0x20 MUL ADD MLOAD PUSH1 0x40 MLOAD DUP4 PUSH4 0xFFFFFFFF AND PUSH1 0xE0 SHL DUP2 MSTORE PUSH1 0x4 ADD PUSH2 0x882 SWAP3 SWAP2 SWAP1 PUSH2 0x3092 JUMP JUMPDEST PUSH1 0x40 DUP1 MLOAD DUP1 DUP4 SUB DUP2 DUP7 GAS STATICCALL ISZERO DUP1 ISZERO PUSH2 0x89E JUMPI RETURNDATASIZE PUSH1 0x0 DUP1 RETURNDATACOPY RETURNDATASIZE PUSH1 0x0 REVERT JUMPDEST POP POP POP POP PUSH1 0x40 MLOAD RETURNDATASIZE PUSH1 0x1F NOT PUSH1 0x1F DUP3 ADD AND DUP3 ADD DUP1 PUSH1 0x40 MSTORE POP DUP2 ADD SWAP1 PUSH2 0x8C2 SWAP2 SWAP1 PUSH2 0x3065 JUMP JUMPDEST DUP12 PUSH1 0x20 ADD DUP2 SWAP1 MSTORE POP PUSH1 0x6 PUSH1 0x0 SWAP1 SLOAD SWAP1 PUSH2 0x100 EXP SWAP1 DIV PUSH20 0xFFFFFFFFFFFFFFFFFFFFFFFFFFFFFFFFFFFFFFFF AND PUSH20 0xFFFFFFFFFFFFFFFFFFFFFFFFFFFFFFFFFFFFFFFF AND PUSH4 0xACA8F56E PUSH2 0x911 DUP7 PUSH2 0x188B JUMP JUMPDEST DUP9 PUSH1 0x40 MLOAD DUP4 PUSH4 0xFFFFFFFF AND PUSH1 0xE0 SHL DUP2 MSTORE PUSH1 0x4 ADD PUSH2 0x92F SWAP3 SWAP2 SWAP1 PUSH2 0x3092 JUMP JUMPDEST PUSH1 0x40 DUP1 MLOAD DUP1 DUP4 SUB DUP2 DUP7 GAS STATICCALL ISZERO DUP1 ISZERO PUSH2 0x94B JUMPI RETURNDATASIZE PUSH1 0x0 DUP1 RETURNDATACOPY RETURNDATASIZE PUSH1 0x0 REVERT JUMPDEST POP POP POP POP PUSH1 0x40 MLOAD RETURNDATASIZE PUSH1 0x1F NOT PUSH1 0x1F DUP3 ADD AND DUP3 ADD DUP1 PUSH1 0x40 MSTORE POP DUP2 ADD SWAP1 PUSH2 0x96F SWAP2 SWAP1 PUSH2 0x3065 JUMP JUMPDEST DUP12 PUSH1 0x40 ADD DUP2 SWAP1 MSTORE POP PUSH1 0x6 PUSH1 0x0 SWAP1 SLOAD SWAP1 PUSH2 0x100 EXP SWAP1 DIV PUSH20 0xFFFFFFFFFFFFFFFFFFFFFFFFFFFFFFFFFFFFFFFF AND PUSH20 0xFFFFFFFFFFFFFFFFFFFFFFFFFFFFFFFFFFFFFFFF AND PUSH4 0xACA8F56E DUP11 DUP13 DUP11 PUSH1 0x3 DUP2 LT PUSH2 0x9C9 JUMPI PUSH2 0x9C8 PUSH2 0x2EB7 JUMP JUMPDEST JUMPDEST PUSH1 0x20 MUL ADD MLOAD PUSH1 0x40 MLOAD DUP4 PUSH4 0xFFFFFFFF AND PUSH1 0xE0 SHL DUP2 MSTORE PUSH1 0x4 ADD PUSH2 0x9EB SWAP3 SWAP2 SWAP1 PUSH2 0x3092 JUMP JUMPDEST PUSH1 0x40 DUP1 MLOAD DUP1 DUP4 SUB DUP2 DUP7 GAS STATICCALL ISZERO DUP1 ISZERO PUSH2 0xA07 JUMPI RETURNDATASIZE PUSH1 0x0 DUP1 RETURNDATACOPY RETURNDATASIZE PUSH1 0x0 REVERT JUMPDEST POP POP POP POP PUSH1 0x40 MLOAD RETURNDATASIZE PUSH1 0x1F NOT PUSH1 0x1F DUP3 ADD AND DUP3 ADD DUP1 PUSH1 0x40 MSTORE POP DUP2 ADD SWAP1 PUSH2 0xA2B SWAP2 SWAP1 PUSH2 0x3065 JUMP JUMPDEST DUP12 PUSH1 0x60 ADD DUP2 SWAP1 MSTORE POP PUSH1 0x6 PUSH1 0x0 SWAP1 SLOAD SWAP1 PUSH2 0x100 EXP SWAP1 DIV PUSH20 0xFFFFFFFFFFFFFFFFFFFFFFFFFFFFFFFFFFFFFFFF AND PUSH20 0xFFFFFFFFFFFFFFFFFFFFFFFFFFFFFFFFFFFFFFFF AND PUSH4 0xBB734C4E DUP7 PUSH1 0x40 MLOAD DUP3 PUSH4 0xFFFFFFFF AND PUSH1 0xE0 SHL DUP2 MSTORE PUSH1 0x4 ADD PUSH2 0xA8E SWAP2 SWAP1 PUSH2 0x2BFE JUMP JUMPDEST PUSH1 0x40 DUP1 MLOAD DUP1 DUP4 SUB DUP2 DUP7 GAS STATICCALL ISZERO DUP1 ISZERO PUSH2 0xAAA JUMPI RETURNDATASIZE PUSH1 0x0 DUP1 RETURNDATACOPY RETURNDATASIZE PUSH1 0x0 REVERT JUMPDEST POP POP POP POP PUSH1 0x40 MLOAD RETURNDATASIZE PUSH1 0x1F NOT PUSH1 0x1F DUP3 ADD AND DUP3 ADD DUP1 PUSH1 0x40 MSTORE POP DUP2 ADD SWAP1 PUSH2 0xACE SWAP2 SWAP1 PUSH2 0x3065 JUMP JUMPDEST DUP12 PUSH1 0x80 ADD DUP2 SWAP1 MSTORE POP PUSH1 0x6 PUSH1 0x0 SWAP1 SLOAD SWAP1 PUSH2 0x100 EXP SWAP1 DIV PUSH20 0xFFFFFFFFFFFFFFFFFFFFFFFFFFFFFFFFFFFFFFFF AND PUSH20 0xFFFFFFFFFFFFFFFFFFFFFFFFFFFFFFFFFFFFFFFF AND PUSH4 0xACA8F56E DUP5 DUP13 DUP11 PUSH1 0x3 DUP2 LT PUSH2 0xB28 JUMPI PUSH2 0xB27 PUSH2 0x2EB7 JUMP JUMPDEST JUMPDEST PUSH1 0x20 MUL ADD MLOAD PUSH1 0x40 MLOAD DUP4 PUSH4 0xFFFFFFFF AND PUSH1 0xE0 SHL DUP2 MSTORE PUSH1 0x4 ADD PUSH2 0xB4A SWAP3 SWAP2 SWAP1 PUSH2 0x3092 JUMP JUMPDEST PUSH1 0x40 DUP1 MLOAD DUP1 DUP4 SUB DUP2 DUP7 GAS STATICCALL ISZERO DUP1 ISZERO PUSH2 0xB66 JUMPI RETURNDATASIZE PUSH1 0x0 DUP1 RETURNDATACOPY RETURNDATASIZE PUSH1 0x0 REVERT JUMPDEST POP POP POP POP PUSH1 0x40 MLOAD RETURNDATASIZE PUSH1 0x1F NOT PUSH1 0x1F DUP3 ADD AND DUP3 ADD DUP1 PUSH1 0x40 MSTORE POP DUP2 ADD SWAP1 PUSH2 0xB8A SWAP2 SWAP1 PUSH2 0x3065 JUMP JUMPDEST DUP12 PUSH1 0xA0 ADD DUP2 SWAP1 MSTORE POP PUSH2 0xB9B DUP15 PUSH2 0x18B1 JUMP JUMPDEST PUSH2 0xC48 PUSH1 0x6 PUSH1 0x0 SWAP1 SLOAD SWAP1 PUSH2 0x100 EXP SWAP1 DIV PUSH20 0xFFFFFFFFFFFFFFFFFFFFFFFFFFFFFFFFFFFFFFFF AND PUSH20 0xFFFFFFFFFFFFFFFFFFFFFFFFFFFFFFFFFFFFFFFF AND PUSH4 0x1177A4A4 DUP15 PUSH1 0x0 ADD MLOAD DUP16 PUSH1 0x20 ADD MLOAD PUSH1 0x40 MLOAD DUP4 PUSH4 0xFFFFFFFF AND PUSH1 0xE0 SHL DUP2 MSTORE PUSH1 0x4 ADD PUSH2 0xC03 SWAP3 SWAP2 SWAP1 PUSH2 0x30BB JUMP JUMPDEST PUSH1 0x40 DUP1 MLOAD DUP1 DUP4 SUB DUP2 DUP7 GAS STATICCALL ISZERO DUP1 ISZERO PUSH2 0xC1F JUMPI RETURNDATASIZE PUSH1 0x0 DUP1 RETURNDATACOPY RETURNDATASIZE PUSH1 0x0 REVERT JUMPDEST POP POP POP POP PUSH1 0x40 MLOAD RETURNDATASIZE PUSH1 0x1F NOT PUSH1 0x1F DUP3 ADD AND DUP3 ADD DUP1 PUSH1 0x40 MSTORE POP DUP2 ADD SWAP1 PUSH2 0xC43 SWAP2 SWAP1 PUSH2 0x3065 JUMP JUMPDEST PUSH2 0x197F JUMP JUMPDEST PUSH1 0x40 MLOAD PUSH1 0x20 ADD PUSH2 0xC59 SWAP3 SWAP2 SWAP1 PUSH2 0x3120 JUMP JUMPDEST PUSH1 0x40 MLOAD PUSH1 0x20 DUP2 DUP4 SUB SUB DUP2 MSTORE SWAP1 PUSH1 0x40 MSTORE SWAP2 POP DUP2 PUSH2 0xD18 PUSH1 0x6 PUSH1 0x0 SWAP1 SLOAD SWAP1 PUSH2 0x100 EXP SWAP1 DIV PUSH20 0xFFFFFFFFFFFFFFFFFFFFFFFFFFFFFFFFFFFFFFFF AND PUSH20 0xFFFFFFFFFFFFFFFFFFFFFFFFFFFFFFFFFFFFFFFF AND PUSH4 0x1177A4A4 DUP15 PUSH1 0x40 ADD MLOAD DUP16 PUSH1 0x60 ADD MLOAD PUSH1 0x40 MLOAD DUP4 PUSH4 0xFFFFFFFF AND PUSH1 0xE0 SHL DUP2 MSTORE PUSH1 0x4 ADD PUSH2 0xCD3 SWAP3 SWAP2 SWAP1 PUSH2 0x30BB JUMP JUMPDEST PUSH1 0x40 DUP1 MLOAD DUP1 DUP4 SUB DUP2 DUP7 GAS STATICCALL ISZERO DUP1 ISZERO PUSH2 0xCEF JUMPI RETURNDATASIZE PUSH1 0x0 DUP1 RETURNDATACOPY RETURNDATASIZE PUSH1 0x0 REVERT JUMPDEST POP POP POP POP PUSH1 0x40 MLOAD RETURNDATASIZE PUSH1 0x1F NOT PUSH1 0x1F DUP3 ADD AND DUP3 ADD DUP1 PUSH1 0x40 MSTORE POP DUP2 ADD SWAP1 PUSH2 0xD13 SWAP2 SWAP1 PUSH2 0x3065 JUMP JUMPDEST PUSH2 0x197F JUMP JUMPDEST PUSH1 0x40 MLOAD PUSH1 0x20 ADD PUSH2 0xD29 SWAP3 SWAP2 SWAP1 PUSH2 0x3120 JUMP JUMPDEST PUSH1 0x40 MLOAD PUSH1 0x20 DUP2 DUP4 SUB SUB DUP2 MSTORE SWAP1 PUSH1 0x40 MSTORE SWAP2 POP DUP2 PUSH2 0xDE8 PUSH1 0x6 PUSH1 0x0 SWAP1 SLOAD SWAP1 PUSH2 0x100 EXP SWAP1 DIV PUSH20 0xFFFFFFFFFFFFFFFFFFFFFFFFFFFFFFFFFFFFFFFF AND PUSH20 0xFFFFFFFFFFFFFFFFFFFFFFFFFFFFFFFFFFFFFFFF AND PUSH4 0x1177A4A4 DUP15 PUSH1 0x80 ADD MLOAD DUP16 PUSH1 0xA0 ADD MLOAD PUSH1 0x40 MLOAD DUP4 PUSH4 0xFFFFFFFF AND PUSH1 0xE0 SHL DUP2 MSTORE PUSH1 0x4 ADD PUSH2 0xDA3 SWAP3 SWAP2 SWAP1 PUSH2 0x30BB JUMP JUMPDEST PUSH1 0x40 DUP1 MLOAD DUP1 DUP4 SUB DUP2 DUP7 GAS STATICCALL ISZERO DUP1 ISZERO PUSH2 0xDBF JUMPI RETURNDATASIZE PUSH1 0x0 DUP1 RETURNDATACOPY RETURNDATASIZE PUSH1 0x0 REVERT JUMPDEST POP POP POP POP PUSH1 0x40 MLOAD RETURNDATASIZE PUSH1 0x1F NOT PUSH1 0x1F DUP3 ADD AND DUP3 ADD DUP1 PUSH1 0x40 MSTORE POP DUP2 ADD SWAP1 PUSH2 0xDE3 SWAP2 SWAP1 PUSH2 0x3065 JUMP JUMPDEST PUSH2 0x197F JUMP JUMPDEST PUSH1 0x40 MLOAD PUSH1 0x20 ADD PUSH2 0xDF9 SWAP3 SWAP2 SWAP1 PUSH2 0x3120 JUMP JUMPDEST PUSH1 0x40 MLOAD PUSH1 0x20 DUP2 DUP4 SUB SUB DUP2 MSTORE SWAP1 PUSH1 0x40 MSTORE SWAP2 POP PUSH2 0xE13 DUP3 PUSH2 0x19EA JUMP JUMPDEST DUP11 PUSH1 0x1 DUP10 PUSH2 0xE21 SWAP2 SWAP1 PUSH2 0x2F91 JUMP JUMPDEST PUSH1 0x3 DUP2 LT PUSH2 0xE32 JUMPI PUSH2 0xE31 PUSH2 0x2EB7 JUMP JUMPDEST JUMPDEST PUSH1 0x20 MUL ADD DUP2 DUP2 MSTORE POP POP DUP7 DUP1 PUSH2 0xE46 SWAP1 PUSH2 0x2F15 JUMP JUMPDEST SWAP8 POP POP PUSH1 0x2 DUP2 PUSH2 0xE56 SWAP2 SWAP1 PUSH2 0x2F91 JUMP JUMPDEST SWAP1 POP PUSH2 0x692 JUMP JUMPDEST PUSH1 0x40 MLOAD DUP1 PUSH1 0x20 ADD PUSH1 0x40 MSTORE DUP1 PUSH1 0x0 DUP2 MSTORE POP SWAP2 POP PUSH1 0x2 DUP14 PUSH1 0x40 ADD MLOAD POP PUSH1 0x4 PUSH2 0xE83 SWAP2 SWAP1 PUSH2 0x2F5D JUMP JUMPDEST SWAP1 POP DUP13 PUSH1 0x40 ADD MLOAD DUP2 PUSH1 0x4 DUP2 LT PUSH2 0xE9C JUMPI PUSH2 0xE9B PUSH2 0x2EB7 JUMP JUMPDEST JUMPDEST PUSH1 0x20 MUL ADD MLOAD SWAP6 POP DUP13 PUSH1 0x40 ADD MLOAD PUSH1 0x1 DUP3 PUSH2 0xEB5 SWAP2 SWAP1 PUSH2 0x2F91 JUMP JUMPDEST PUSH1 0x4 DUP2 LT PUSH2 0xEC6 JUMPI PUSH2 0xEC5 PUSH2 0x2EB7 JUMP JUMPDEST JUMPDEST PUSH1 0x20 MUL ADD MLOAD SWAP5 POP DUP8 DUP8 PUSH1 0x2 DUP2 LT PUSH2 0xEE0 JUMPI PUSH2 0xEDF PUSH2 0x2EB7 JUMP JUMPDEST JUMPDEST PUSH1 0x20 MUL ADD MLOAD PUSH1 0x0 PUSH1 0x2 DUP2 LT PUSH2 0xEF8 JUMPI PUSH2 0xEF7 PUSH2 0x2EB7 JUMP JUMPDEST JUMPDEST PUSH1 0x20 MUL ADD MLOAD SWAP4 POP DUP8 DUP8 PUSH1 0x2 DUP2 LT PUSH2 0xF12 JUMPI PUSH2 0xF11 PUSH2 0x2EB7 JUMP JUMPDEST JUMPDEST PUSH1 0x20 MUL ADD MLOAD PUSH1 0x1 PUSH1 0x2 DUP2 LT PUSH2 0xF2A JUMPI PUSH2 0xF29 PUSH2 0x2EB7 JUMP JUMPDEST JUMPDEST PUSH1 0x20 MUL ADD MLOAD SWAP3 POP PUSH1 0x6 PUSH1 0x0 SWAP1 SLOAD SWAP1 PUSH2 0x100 EXP SWAP1 DIV PUSH20 0xFFFFFFFFFFFFFFFFFFFFFFFFFFFFFFFFFFFFFFFF AND PUSH20 0xFFFFFFFFFFFFFFFFFFFFFFFFFFFFFFFFFFFFFFFF AND PUSH4 0xBB734C4E DUP8 PUSH1 0x40 MLOAD DUP3 PUSH4 0xFFFFFFFF AND PUSH1 0xE0 SHL DUP2 MSTORE PUSH1 0x4 ADD PUSH2 0xF8C SWAP2 SWAP1 PUSH2 0x2BFE JUMP JUMPDEST PUSH1 0x40 DUP1 MLOAD DUP1 DUP4 SUB DUP2 DUP7 GAS STATICCALL ISZERO DUP1 ISZERO PUSH2 0xFA8 JUMPI RETURNDATASIZE PUSH1 0x0 DUP1 RETURNDATACOPY RETURNDATASIZE PUSH1 0x0 REVERT JUMPDEST POP POP POP POP PUSH1 0x40 MLOAD RETURNDATASIZE PUSH1 0x1F NOT PUSH1 0x1F DUP3 ADD AND DUP3 ADD DUP1 PUSH1 0x40 MSTORE POP DUP2 ADD SWAP1 PUSH2 0xFCC SWAP2 SWAP1 PUSH2 0x3065 JUMP JUMPDEST DUP12 PUSH1 0x0 ADD DUP2 SWAP1 MSTORE POP PUSH1 0x6 PUSH1 0x0 SWAP1 SLOAD SWAP1 PUSH2 0x100 EXP SWAP1 DIV PUSH20 0xFFFFFFFFFFFFFFFFFFFFFFFFFFFFFFFFFFFFFFFF AND PUSH20 0xFFFFFFFFFFFFFFFFFFFFFFFFFFFFFFFFFFFFFFFF AND PUSH4 0xACA8F56E DUP6 DUP13 DUP11 PUSH1 0x3 DUP2 LT PUSH2 0x1026 JUMPI PUSH2 0x1025 PUSH2 0x2EB7 JUMP JUMPDEST JUMPDEST PUSH1 0x20 MUL ADD MLOAD PUSH1 0x40 MLOAD DUP4 PUSH4 0xFFFFFFFF AND PUSH1 0xE0 SHL DUP2 MSTORE PUSH1 0x4 ADD PUSH2 0x1048 SWAP3 SWAP2 SWAP1 PUSH2 0x3092 JUMP JUMPDEST PUSH1 0x40 DUP1 MLOAD DUP1 DUP4 SUB DUP2 DUP7 GAS STATICCALL ISZERO DUP1 ISZERO PUSH2 0x1064 JUMPI RETURNDATASIZE PUSH1 0x0 DUP1 RETURNDATACOPY RETURNDATASIZE PUSH1 0x0 REVERT JUMPDEST POP POP POP POP PUSH1 0x40 MLOAD RETURNDATASIZE PUSH1 0x1F NOT PUSH1 0x1F DUP3 ADD AND DUP3 ADD DUP1 PUSH1 0x40 MSTORE POP DUP2 ADD SWAP1 PUSH2 0x1088 SWAP2 SWAP1 PUSH2 0x3065 JUMP JUMPDEST DUP12 PUSH1 0x20 ADD DUP2 SWAP1 MSTORE POP PUSH1 0x6 PUSH1 0x0 SWAP1 SLOAD SWAP1 PUSH2 0x100 EXP SWAP1 DIV PUSH20 0xFFFFFFFFFFFFFFFFFFFFFFFFFFFFFFFFFFFFFFFF AND PUSH20 0xFFFFFFFFFFFFFFFFFFFFFFFFFFFFFFFFFFFFFFFF AND PUSH4 0xACA8F56E PUSH2 0x10D7 DUP7 PUSH2 0x188B JUMP JUMPDEST DUP9 PUSH1 0x40 MLOAD DUP4 PUSH4 0xFFFFFFFF AND PUSH1 0xE0 SHL DUP2 MSTORE PUSH1 0x4 ADD PUSH2 0x10F5 SWAP3 SWAP2 SWAP1 PUSH2 0x3092 JUMP JUMPDEST PUSH1 0x40 DUP1 MLOAD DUP1 DUP4 SUB DUP2 DUP7 GAS STATICCALL ISZERO DUP1 ISZERO PUSH2 0x1111 JUMPI RETURNDATASIZE PUSH1 0x0 DUP1 RETURNDATACOPY RETURNDATASIZE PUSH1 0x0 REVERT JUMPDEST POP POP POP POP PUSH1 0x40 MLOAD RETURNDATASIZE PUSH1 0x1F NOT PUSH1 0x1F DUP3 ADD AND DUP3 ADD DUP1 PUSH1 0x40 MSTORE POP DUP2 ADD SWAP1 PUSH2 0x1135 SWAP2 SWAP1 PUSH2 0x3065 JUMP JUMPDEST DUP12 PUSH1 0x40 ADD DUP2 SWAP1 MSTORE POP PUSH1 0x6 PUSH1 0x0 SWAP1 SLOAD SWAP1 PUSH2 0x100 EXP SWAP1 DIV PUSH20 0xFFFFFFFFFFFFFFFFFFFFFFFFFFFFFFFFFFFFFFFF AND PUSH20 0xFFFFFFFFFFFFFFFFFFFFFFFFFFFFFFFFFFFFFFFF AND PUSH4 0xACA8F56E DUP11 DUP13 DUP11 PUSH1 0x3 DUP2 LT PUSH2 0x118F JUMPI PUSH2 0x118E PUSH2 0x2EB7 JUMP JUMPDEST JUMPDEST PUSH1 0x20 MUL ADD MLOAD PUSH1 0x40 MLOAD DUP4 PUSH4 0xFFFFFFFF AND PUSH1 0xE0 SHL DUP2 MSTORE PUSH1 0x4 ADD PUSH2 0x11B1 SWAP3 SWAP2 SWAP1 PUSH2 0x3092 JUMP JUMPDEST PUSH1 0x40 DUP1 MLOAD DUP1 DUP4 SUB DUP2 DUP7 GAS STATICCALL ISZERO DUP1 ISZERO PUSH2 0x11CD JUMPI RETURNDATASIZE PUSH1 0x0 DUP1 RETURNDATACOPY RETURNDATASIZE PUSH1 0x0 REVERT JUMPDEST POP POP POP POP PUSH1 0x40 MLOAD RETURNDATASIZE PUSH1 0x1F NOT PUSH1 0x1F DUP3 ADD AND DUP3 ADD DUP1 PUSH1 0x40 MSTORE POP DUP2 ADD SWAP1 PUSH2 0x11F1 SWAP2 SWAP1 PUSH2 0x3065 JUMP JUMPDEST DUP12 PUSH1 0x60 ADD DUP2 SWAP1 MSTORE POP PUSH1 0x6 PUSH1 0x0 SWAP1 SLOAD SWAP1 PUSH2 0x100 EXP SWAP1 DIV PUSH20 0xFFFFFFFFFFFFFFFFFFFFFFFFFFFFFFFFFFFFFFFF AND PUSH20 0xFFFFFFFFFFFFFFFFFFFFFFFFFFFFFFFFFFFFFFFF AND PUSH4 0xBB734C4E DUP7 PUSH1 0x40 MLOAD DUP3 PUSH4 0xFFFFFFFF AND PUSH1 0xE0 SHL DUP2 MSTORE PUSH1 0x4 ADD PUSH2 0x1254 SWAP2 SWAP1 PUSH2 0x2BFE JUMP JUMPDEST PUSH1 0x40 DUP1 MLOAD DUP1 DUP4 SUB DUP2 DUP7 GAS STATICCALL ISZERO DUP1 ISZERO PUSH2 0x1270 JUMPI RETURNDATASIZE PUSH1 0x0 DUP1 RETURNDATACOPY RETURNDATASIZE PUSH1 0x0 REVERT JUMPDEST POP POP POP POP PUSH1 0x40 MLOAD RETURNDATASIZE PUSH1 0x1F NOT PUSH1 0x1F DUP3 ADD AND DUP3 ADD DUP1 PUSH1 0x40 MSTORE POP DUP2 ADD SWAP1 PUSH2 0x1294 SWAP2 SWAP1 PUSH2 0x3065 JUMP JUMPDEST DUP12 PUSH1 0x80 ADD DUP2 SWAP1 MSTORE POP PUSH1 0x6 PUSH1 0x0 SWAP1 SLOAD SWAP1 PUSH2 0x100 EXP SWAP1 DIV PUSH20 0xFFFFFFFFFFFFFFFFFFFFFFFFFFFFFFFFFFFFFFFF AND PUSH20 0xFFFFFFFFFFFFFFFFFFFFFFFFFFFFFFFFFFFFFFFF AND PUSH4 0xACA8F56E DUP5 DUP13 DUP11 PUSH1 0x3 DUP2 LT PUSH2 0x12EE JUMPI PUSH2 0x12ED PUSH2 0x2EB7 JUMP JUMPDEST JUMPDEST PUSH1 0x20 MUL ADD MLOAD PUSH1 0x40 MLOAD DUP4 PUSH4 0xFFFFFFFF AND PUSH1 0xE0 SHL DUP2 MSTORE PUSH1 0x4 ADD PUSH2 0x1310 SWAP3 SWAP2 SWAP1 PUSH2 0x3092 JUMP JUMPDEST PUSH1 0x40 DUP1 MLOAD DUP1 DUP4 SUB DUP2 DUP7 GAS STATICCALL ISZERO DUP1 ISZERO PUSH2 0x132C JUMPI RETURNDATASIZE PUSH1 0x0 DUP1 RETURNDATACOPY RETURNDATASIZE PUSH1 0x0 REVERT JUMPDEST POP POP POP POP PUSH1 0x40 MLOAD RETURNDATASIZE PUSH1 0x1F NOT PUSH1 0x1F DUP3 ADD AND DUP3 ADD DUP1 PUSH1 0x40 MSTORE POP DUP2 ADD SWAP1 PUSH2 0x1350 SWAP2 SWAP1 PUSH2 0x3065 JUMP JUMPDEST DUP12 PUSH1 0xA0 ADD DUP2 SWAP1 MSTORE POP PUSH2 0x1361 DUP15 PUSH2 0x18B1 JUMP JUMPDEST PUSH2 0x140E PUSH1 0x6 PUSH1 0x0 SWAP1 SLOAD SWAP1 PUSH2 0x100 EXP SWAP1 DIV PUSH20 0xFFFFFFFFFFFFFFFFFFFFFFFFFFFFFFFFFFFFFFFF AND PUSH20 0xFFFFFFFFFFFFFFFFFFFFFFFFFFFFFFFFFFFFFFFF AND PUSH4 0x1177A4A4 DUP15 PUSH1 0x0 ADD MLOAD DUP16 PUSH1 0x20 ADD MLOAD PUSH1 0x40 MLOAD DUP4 PUSH4 0xFFFFFFFF AND PUSH1 0xE0 SHL DUP2 MSTORE PUSH1 0x4 ADD PUSH2 0x13C9 SWAP3 SWAP2 SWAP1 PUSH2 0x30BB JUMP JUMPDEST PUSH1 0x40 DUP1 MLOAD DUP1 DUP4 SUB DUP2 DUP7 GAS STATICCALL ISZERO DUP1 ISZERO PUSH2 0x13E5 JUMPI RETURNDATASIZE PUSH1 0x0 DUP1 RETURNDATACOPY RETURNDATASIZE PUSH1 0x0 REVERT JUMPDEST POP POP POP POP PUSH1 0x40 MLOAD RETURNDATASIZE PUSH1 0x1F NOT PUSH1 0x1F DUP3 ADD AND DUP3 ADD DUP1 PUSH1 0x40 MSTORE POP DUP2 ADD SWAP1 PUSH2 0x1409 SWAP2 SWAP1 PUSH2 0x3065 JUMP JUMPDEST PUSH2 0x197F JUMP JUMPDEST PUSH1 0x40 MLOAD PUSH1 0x20 ADD PUSH2 0x141F SWAP3 SWAP2 SWAP1 PUSH2 0x3120 JUMP JUMPDEST PUSH1 0x40 MLOAD PUSH1 0x20 DUP2 DUP4 SUB SUB DUP2 MSTORE SWAP1 PUSH1 0x40 MSTORE SWAP2 POP DUP2 PUSH2 0x14DE PUSH1 0x6 PUSH1 0x0 SWAP1 SLOAD SWAP1 PUSH2 0x100 EXP SWAP1 DIV PUSH20 0xFFFFFFFFFFFFFFFFFFFFFFFFFFFFFFFFFFFFFFFF AND PUSH20 0xFFFFFFFFFFFFFFFFFFFFFFFFFFFFFFFFFFFFFFFF AND PUSH4 0x1177A4A4 DUP15 PUSH1 0x40 ADD MLOAD DUP16 PUSH1 0x60 ADD MLOAD PUSH1 0x40 MLOAD DUP4 PUSH4 0xFFFFFFFF AND PUSH1 0xE0 SHL DUP2 MSTORE PUSH1 0x4 ADD PUSH2 0x1499 SWAP3 SWAP2 SWAP1 PUSH2 0x30BB JUMP JUMPDEST PUSH1 0x40 DUP1 MLOAD DUP1 DUP4 SUB DUP2 DUP7 GAS STATICCALL ISZERO DUP1 ISZERO PUSH2 0x14B5 JUMPI RETURNDATASIZE PUSH1 0x0 DUP1 RETURNDATACOPY RETURNDATASIZE PUSH1 0x0 REVERT JUMPDEST POP POP POP POP PUSH1 0x40 MLOAD RETURNDATASIZE PUSH1 0x1F NOT PUSH1 0x1F DUP3 ADD AND DUP3 ADD DUP1 PUSH1 0x40 MSTORE POP DUP2 ADD SWAP1 PUSH2 0x14D9 SWAP2 SWAP1 PUSH2 0x3065 JUMP JUMPDEST PUSH2 0x197F JUMP JUMPDEST PUSH1 0x40 MLOAD PUSH1 0x20 ADD PUSH2 0x14EF SWAP3 SWAP2 SWAP1 PUSH2 0x3120 JUMP JUMPDEST PUSH1 0x40 MLOAD PUSH1 0x20 DUP2 DUP4 SUB SUB DUP2 MSTORE SWAP1 PUSH1 0x40 MSTORE SWAP2 POP DUP2 PUSH2 0x15AE PUSH1 0x6 PUSH1 0x0 SWAP1 SLOAD SWAP1 PUSH2 0x100 EXP SWAP1 DIV PUSH20 0xFFFFFFFFFFFFFFFFFFFFFFFFFFFFFFFFFFFFFFFF AND PUSH20 0xFFFFFFFFFFFFFFFFFFFFFFFFFFFFFFFFFFFFFFFF AND PUSH4 0x1177A4A4 DUP15 PUSH1 0x80 ADD MLOAD DUP16 PUSH1 0xA0 ADD MLOAD PUSH1 0x40 MLOAD DUP4 PUSH4 0xFFFFFFFF AND PUSH1 0xE0 SHL DUP2 MSTORE PUSH1 0x4 ADD PUSH2 0x1569 SWAP3 SWAP2 SWAP1 PUSH2 0x30BB JUMP JUMPDEST PUSH1 0x40 DUP1 MLOAD DUP1 DUP4 SUB DUP2 DUP7 GAS STATICCALL ISZERO DUP1 ISZERO PUSH2 0x1585 JUMPI RETURNDATASIZE PUSH1 0x0 DUP1 RETURNDATACOPY RETURNDATASIZE PUSH1 0x0 REVERT JUMPDEST POP POP POP POP PUSH1 0x40 MLOAD RETURNDATASIZE PUSH1 0x1F NOT PUSH1 0x1F DUP3 ADD AND DUP3 ADD DUP1 PUSH1 0x40 MSTORE POP DUP2 ADD SWAP1 PUSH2 0x15A9 SWAP2 SWAP1 PUSH2 0x3065 JUMP JUMPDEST PUSH2 0x197F JUMP JUMPDEST PUSH1 0x40 MLOAD PUSH1 0x20 ADD PUSH2 0x15BF SWAP3 SWAP2 SWAP1 PUSH2 0x3120 JUMP JUMPDEST PUSH1 0x40 MLOAD PUSH1 0x20 DUP2 DUP4 SUB SUB DUP2 MSTORE SWAP1 PUSH1 0x40 MSTORE SWAP2 POP PUSH1 0x0 PUSH2 0x15DB DUP4 PUSH2 0x19EA JUMP JUMPDEST SWAP1 POP DUP1 DUP12 PUSH1 0x0 PUSH1 0x3 DUP2 LT PUSH2 0x15F2 JUMPI PUSH2 0x15F1 PUSH2 0x2EB7 JUMP JUMPDEST JUMPDEST PUSH1 0x20 MUL ADD MLOAD EQ SWAP13 POP POP POP POP POP POP POP POP POP POP POP POP POP SWAP3 SWAP2 POP POP JUMP JUMPDEST PUSH1 0x0 PUSH2 0x1616 PUSH2 0x1D61 JUMP JUMPDEST DUP6 DUP2 PUSH1 0x0 ADD DUP2 DUP2 MSTORE POP POP DUP5 DUP2 PUSH1 0x20 ADD DUP2 SWAP1 MSTORE POP DUP4 DUP2 PUSH1 0x40 ADD SWAP1 PUSH2 0xFFFF AND SWAP1 DUP2 PUSH2 0xFFFF AND DUP2 MSTORE POP POP DUP3 DUP2 PUSH1 0x60 ADD DUP2 SWAP1 MSTORE POP PUSH1 0x2 DUP2 SWAP1 DUP1 PUSH1 0x1 DUP2 SLOAD ADD DUP1 DUP3 SSTORE DUP1 SWAP2 POP POP PUSH1 0x1 SWAP1 SUB SWAP1 PUSH1 0x0 MSTORE PUSH1 0x20 PUSH1 0x0 KECCAK256 SWAP1 PUSH1 0x6 MUL ADD PUSH1 0x0 SWAP1 SWAP2 SWAP1 SWAP2 SWAP1 SWAP2 POP PUSH1 0x0 DUP3 ADD MLOAD DUP2 PUSH1 0x0 ADD SSTORE PUSH1 0x20 DUP3 ADD MLOAD DUP2 PUSH1 0x1 ADD SWAP1 PUSH1 0x2 PUSH2 0x1693 SWAP3 SWAP2 SWAP1 PUSH2 0x1C83 JUMP JUMPDEST POP PUSH1 0x40 DUP3 ADD MLOAD DUP2 PUSH1 0x3 ADD PUSH1 0x0 PUSH2 0x100 EXP DUP2 SLOAD DUP2 PUSH2 0xFFFF MUL NOT AND SWAP1 DUP4 PUSH2 0xFFFF AND MUL OR SWAP1 SSTORE POP PUSH1 0x60 DUP3 ADD MLOAD DUP2 PUSH1 0x4 ADD SWAP1 PUSH1 0x2 PUSH2 0x16CE SWAP3 SWAP2 SWAP1 PUSH2 0x1C83 JUMP JUMPDEST POP POP POP PUSH1 0x1 SWAP2 POP POP SWAP5 SWAP4 POP POP POP POP JUMP JUMPDEST PUSH1 0x60 PUSH1 0x3 DUP1 SLOAD DUP1 PUSH1 0x20 MUL PUSH1 0x20 ADD PUSH1 0x40 MLOAD SWAP1 DUP2 ADD PUSH1 0x40 MSTORE DUP1 SWAP3 SWAP2 SWAP1 DUP2 DUP2 MSTORE PUSH1 0x20 ADD PUSH1 0x0 SWAP1 JUMPDEST DUP3 DUP3 LT ISZERO PUSH2 0x1765 JUMPI DUP4 DUP3 SWAP1 PUSH1 0x0 MSTORE PUSH1 0x20 PUSH1 0x0 KECCAK256 SWAP1 PUSH1 0x2 MUL ADD PUSH1 0x2 DUP1 PUSH1 0x20 MUL PUSH1 0x40 MLOAD SWAP1 DUP2 ADD PUSH1 0x40 MSTORE DUP1 SWAP3 SWAP2 SWAP1 DUP3 PUSH1 0x2 DUP1 ISZERO PUSH2 0x1751 JUMPI PUSH1 0x20 MUL DUP3 ADD SWAP2 JUMPDEST DUP2 SLOAD DUP2 MSTORE PUSH1 0x20 ADD SWAP1 PUSH1 0x1 ADD SWAP1 DUP1 DUP4 GT PUSH2 0x173D JUMPI JUMPDEST POP POP POP POP POP DUP2 MSTORE PUSH1 0x20 ADD SWAP1 PUSH1 0x1 ADD SWAP1 PUSH2 0x1702 JUMP JUMPDEST POP POP POP POP SWAP1 POP SWAP1 JUMP JUMPDEST PUSH1 0x60 PUSH1 0x2 DUP1 SLOAD DUP1 PUSH1 0x20 MUL PUSH1 0x20 ADD PUSH1 0x40 MLOAD SWAP1 DUP2 ADD PUSH1 0x40 MSTORE DUP1 SWAP3 SWAP2 SWAP1 DUP2 DUP2 MSTORE PUSH1 0x20 ADD PUSH1 0x0 SWAP1 JUMPDEST DUP3 DUP3 LT ISZERO PUSH2 0x1878 JUMPI DUP4 DUP3 SWAP1 PUSH1 0x0 MSTORE PUSH1 0x20 PUSH1 0x0 KECCAK256 SWAP1 PUSH1 0x6 MUL ADD PUSH1 0x40 MLOAD DUP1 PUSH1 0x80 ADD PUSH1 0x40 MSTORE SWAP1 DUP2 PUSH1 0x0 DUP3 ADD SLOAD DUP2 MSTORE PUSH1 0x20 ADD PUSH1 0x1 DUP3 ADD PUSH1 0x2 DUP1 PUSH1 0x20 MUL PUSH1 0x40 MLOAD SWAP1 DUP2 ADD PUSH1 0x40 MSTORE DUP1 SWAP3 SWAP2 SWAP1 DUP3 PUSH1 0x2 DUP1 ISZERO PUSH2 0x17FB JUMPI PUSH1 0x20 MUL DUP3 ADD SWAP2 JUMPDEST DUP2 SLOAD DUP2 MSTORE PUSH1 0x20 ADD SWAP1 PUSH1 0x1 ADD SWAP1 DUP1 DUP4 GT PUSH2 0x17E7 JUMPI JUMPDEST POP POP POP POP POP DUP2 MSTORE PUSH1 0x20 ADD PUSH1 0x3 DUP3 ADD PUSH1 0x0 SWAP1 SLOAD SWAP1 PUSH2 0x100 EXP SWAP1 DIV PUSH2 0xFFFF AND PUSH2 0xFFFF AND PUSH2 0xFFFF AND DUP2 MSTORE PUSH1 0x20 ADD PUSH1 0x4 DUP3 ADD PUSH1 0x2 DUP1 PUSH1 0x20 MUL PUSH1 0x40 MLOAD SWAP1 DUP2 ADD PUSH1 0x40 MSTORE DUP1 SWAP3 SWAP2 SWAP1 DUP3 PUSH1 0x2 DUP1 ISZERO PUSH2 0x1860 JUMPI PUSH1 0x20 MUL DUP3 ADD SWAP2 JUMPDEST DUP2 SLOAD DUP2 MSTORE PUSH1 0x20 ADD SWAP1 PUSH1 0x1 ADD SWAP1 DUP1 DUP4 GT PUSH2 0x184C JUMPI JUMPDEST POP POP POP POP POP DUP2 MSTORE POP POP DUP2 MSTORE PUSH1 0x20 ADD SWAP1 PUSH1 0x1 ADD SWAP1 PUSH2 0x1792 JUMP JUMPDEST POP POP POP POP SWAP1 POP SWAP1 JUMP JUMPDEST PUSH1 0x0 DUP2 SWAP1 POP SWAP2 SWAP1 POP JUMP JUMPDEST PUSH2 0x1893 PUSH2 0x1CC3 JUMP JUMPDEST PUSH1 0x0 PUSH2 0x189E DUP4 PUSH2 0x197F JUMP JUMPDEST SWAP1 POP PUSH2 0x18A9 DUP2 PUSH2 0x1A1D JUMP JUMPDEST SWAP2 POP POP SWAP2 SWAP1 POP JUMP JUMPDEST PUSH1 0x60 PUSH1 0x0 PUSH1 0x1 PUSH2 0x18C0 DUP5 PUSH2 0x1AF6 JUMP JUMPDEST ADD SWAP1 POP PUSH1 0x0 DUP2 PUSH8 0xFFFFFFFFFFFFFFFF DUP2 GT ISZERO PUSH2 0x18DF JUMPI PUSH2 0x18DE PUSH2 0x1E5C JUMP JUMPDEST JUMPDEST PUSH1 0x40 MLOAD SWAP1 DUP1 DUP3 MSTORE DUP1 PUSH1 0x1F ADD PUSH1 0x1F NOT AND PUSH1 0x20 ADD DUP3 ADD PUSH1 0x40 MSTORE DUP1 ISZERO PUSH2 0x1911 JUMPI DUP2 PUSH1 0x20 ADD PUSH1 0x1 DUP3 MUL DUP1 CALLDATASIZE DUP4 CALLDATACOPY DUP1 DUP3 ADD SWAP2 POP POP SWAP1 POP JUMPDEST POP SWAP1 POP PUSH1 0x0 DUP3 PUSH1 0x20 ADD DUP3 ADD SWAP1 POP JUMPDEST PUSH1 0x1 ISZERO PUSH2 0x1974 JUMPI DUP1 DUP1 PUSH1 0x1 SWAP1 SUB SWAP2 POP POP PUSH32 0x3031323334353637383961626364656600000000000000000000000000000000 PUSH1 0xA DUP7 MOD BYTE DUP2 MSTORE8 PUSH1 0xA DUP6 DUP2 PUSH2 0x1968 JUMPI PUSH2 0x1967 PUSH2 0x3144 JUMP JUMPDEST JUMPDEST DIV SWAP5 POP PUSH1 0x0 DUP6 SUB PUSH2 0x191F JUMPI JUMPDEST DUP2 SWAP4 POP POP POP POP SWAP2 SWAP1 POP JUMP JUMPDEST PUSH1 0x60 PUSH2 0x19A2 DUP3 PUSH1 0x0 PUSH1 0x2 DUP2 LT PUSH2 0x1998 JUMPI PUSH2 0x1997 PUSH2 0x2EB7 JUMP JUMPDEST JUMPDEST PUSH1 0x20 MUL ADD MLOAD PUSH2 0x18B1 JUMP JUMPDEST PUSH2 0x19C3 DUP4 PUSH1 0x1 PUSH1 0x2 DUP2 LT PUSH2 0x19B9 JUMPI PUSH2 0x19B8 PUSH2 0x2EB7 JUMP JUMPDEST JUMPDEST PUSH1 0x20 MUL ADD MLOAD PUSH2 0x18B1 JUMP JUMPDEST PUSH1 0x40 MLOAD PUSH1 0x20 ADD PUSH2 0x19D4 SWAP3 SWAP2 SWAP1 PUSH2 0x3120 JUMP JUMPDEST PUSH1 0x40 MLOAD PUSH1 0x20 DUP2 DUP4 SUB SUB DUP2 MSTORE SWAP1 PUSH1 0x40 MSTORE SWAP1 POP SWAP2 SWAP1 POP JUMP JUMPDEST PUSH1 0x0 DUP2 PUSH1 0x40 MLOAD PUSH1 0x20 ADD PUSH2 0x19FD SWAP2 SWAP1 PUSH2 0x3173 JUMP JUMPDEST PUSH1 0x40 MLOAD PUSH1 0x20 DUP2 DUP4 SUB SUB DUP2 MSTORE SWAP1 PUSH1 0x40 MSTORE DUP1 MLOAD SWAP1 PUSH1 0x20 ADD KECCAK256 PUSH1 0x0 SHR SWAP1 POP SWAP2 SWAP1 POP JUMP JUMPDEST PUSH2 0x1A25 PUSH2 0x1CC3 JUMP JUMPDEST PUSH1 0x0 DUP3 PUSH1 0x40 MLOAD PUSH1 0x20 ADD PUSH2 0x1A38 SWAP2 SWAP1 PUSH2 0x3173 JUMP JUMPDEST PUSH1 0x40 MLOAD PUSH1 0x20 DUP2 DUP4 SUB SUB DUP2 MSTORE SWAP1 PUSH1 0x40 MSTORE DUP1 MLOAD SWAP1 PUSH1 0x20 ADD KECCAK256 PUSH1 0x0 SHR SWAP1 POP PUSH1 0x6 PUSH1 0x0 SWAP1 SLOAD SWAP1 PUSH2 0x100 EXP SWAP1 DIV PUSH20 0xFFFFFFFFFFFFFFFFFFFFFFFFFFFFFFFFFFFFFFFF AND PUSH20 0xFFFFFFFFFFFFFFFFFFFFFFFFFFFFFFFFFFFFFFFF AND PUSH4 0xBB734C4E DUP3 PUSH1 0x40 MLOAD DUP3 PUSH4 0xFFFFFFFF AND PUSH1 0xE0 SHL DUP2 MSTORE PUSH1 0x4 ADD PUSH2 0x1AAE SWAP2 SWAP1 PUSH2 0x2BFE JUMP JUMPDEST PUSH1 0x40 DUP1 MLOAD DUP1 DUP4 SUB DUP2 DUP7 GAS STATICCALL ISZERO DUP1 ISZERO PUSH2 0x1ACA JUMPI RETURNDATASIZE PUSH1 0x0 DUP1 RETURNDATACOPY RETURNDATASIZE PUSH1 0x0 REVERT JUMPDEST POP POP POP POP PUSH1 0x40 MLOAD RETURNDATASIZE PUSH1 0x1F NOT PUSH1 0x1F DUP3 ADD AND DUP3 ADD DUP1 PUSH1 0x40 MSTORE POP DUP2 ADD SWAP1 PUSH2 0x1AEE SWAP2 SWAP1 PUSH2 0x3065 JUMP JUMPDEST SWAP2 POP POP SWAP2 SWAP1 POP JUMP JUMPDEST PUSH1 0x0 DUP1 PUSH1 0x0 SWAP1 POP PUSH27 0x184F03E93FF9F4DAA797ED6E38ED64BF6A1F010000000000000000 DUP4 LT PUSH2 0x1B54 JUMPI PUSH27 0x184F03E93FF9F4DAA797ED6E38ED64BF6A1F010000000000000000 DUP4 DUP2 PUSH2 0x1B4A JUMPI PUSH2 0x1B49 PUSH2 0x3144 JUMP JUMPDEST JUMPDEST DIV SWAP3 POP PUSH1 0x40 DUP2 ADD SWAP1 POP JUMPDEST PUSH14 0x4EE2D6D415B85ACEF8100000000 DUP4 LT PUSH2 0x1B91 JUMPI PUSH14 0x4EE2D6D415B85ACEF8100000000 DUP4 DUP2 PUSH2 0x1B87 JUMPI PUSH2 0x1B86 PUSH2 0x3144 JUMP JUMPDEST JUMPDEST DIV SWAP3 POP PUSH1 0x20 DUP2 ADD SWAP1 POP JUMPDEST PUSH7 0x2386F26FC10000 DUP4 LT PUSH2 0x1BC0 JUMPI PUSH7 0x2386F26FC10000 DUP4 DUP2 PUSH2 0x1BB6 JUMPI PUSH2 0x1BB5 PUSH2 0x3144 JUMP JUMPDEST JUMPDEST DIV SWAP3 POP PUSH1 0x10 DUP2 ADD SWAP1 POP JUMPDEST PUSH4 0x5F5E100 DUP4 LT PUSH2 0x1BE9 JUMPI PUSH4 0x5F5E100 DUP4 DUP2 PUSH2 0x1BDF JUMPI PUSH2 0x1BDE PUSH2 0x3144 JUMP JUMPDEST JUMPDEST DIV SWAP3 POP PUSH1 0x8 DUP2 ADD SWAP1 POP JUMPDEST PUSH2 0x2710 DUP4 LT PUSH2 0x1C0E JUMPI PUSH2 0x2710 DUP4 DUP2 PUSH2 0x1C04 JUMPI PUSH2 0x1C03 PUSH2 0x3144 JUMP JUMPDEST JUMPDEST DIV SWAP3 POP PUSH1 0x4 DUP2 ADD SWAP1 POP JUMPDEST PUSH1 0x64 DUP4 LT PUSH2 0x1C31 JUMPI PUSH1 0x64 DUP4 DUP2 PUSH2 0x1C27 JUMPI PUSH2 0x1C26 PUSH2 0x3144 JUMP JUMPDEST JUMPDEST DIV SWAP3 POP PUSH1 0x2 DUP2 ADD SWAP1 POP JUMPDEST PUSH1 0xA DUP4 LT PUSH2 0x1C40 JUMPI PUSH1 0x1 DUP2 ADD SWAP1 POP JUMPDEST DUP1 SWAP2 POP POP SWAP2 SWAP1 POP JUMP JUMPDEST PUSH1 0x40 MLOAD DUP1 PUSH1 0x80 ADD PUSH1 0x40 MSTORE DUP1 PUSH1 0x0 DUP2 MSTORE PUSH1 0x20 ADD PUSH2 0x1C63 PUSH2 0x1CC3 JUMP JUMPDEST DUP2 MSTORE PUSH1 0x20 ADD PUSH2 0x1C70 PUSH2 0x1D99 JUMP JUMPDEST DUP2 MSTORE PUSH1 0x20 ADD PUSH2 0x1C7D PUSH2 0x1DBB JUMP JUMPDEST DUP2 MSTORE POP SWAP1 JUMP JUMPDEST DUP3 PUSH1 0x2 DUP2 ADD SWAP3 DUP3 ISZERO PUSH2 0x1CB2 JUMPI SWAP2 PUSH1 0x20 MUL DUP3 ADD JUMPDEST DUP3 DUP2 GT ISZERO PUSH2 0x1CB1 JUMPI DUP3 MLOAD DUP3 SSTORE SWAP2 PUSH1 0x20 ADD SWAP2 SWAP1 PUSH1 0x1 ADD SWAP1 PUSH2 0x1C96 JUMP JUMPDEST JUMPDEST POP SWAP1 POP PUSH2 0x1CBF SWAP2 SWAP1 PUSH2 0x1DE8 JUMP JUMPDEST POP SWAP1 JUMP JUMPDEST PUSH1 0x40 MLOAD DUP1 PUSH1 0x40 ADD PUSH1 0x40 MSTORE DUP1 PUSH1 0x2 SWAP1 PUSH1 0x20 DUP3 MUL DUP1 CALLDATASIZE DUP4 CALLDATACOPY DUP1 DUP3 ADD SWAP2 POP POP SWAP1 POP POP SWAP1 JUMP JUMPDEST PUSH1 0x40 MLOAD DUP1 PUSH1 0xC0 ADD PUSH1 0x40 MSTORE DUP1 PUSH2 0x1CF8 PUSH2 0x1CC3 JUMP JUMPDEST DUP2 MSTORE PUSH1 0x20 ADD PUSH2 0x1D05 PUSH2 0x1CC3 JUMP JUMPDEST DUP2 MSTORE PUSH1 0x20 ADD PUSH2 0x1D12 PUSH2 0x1CC3 JUMP JUMPDEST DUP2 MSTORE PUSH1 0x20 ADD PUSH2 0x1D1F PUSH2 0x1CC3 JUMP JUMPDEST DUP2 MSTORE PUSH1 0x20 ADD PUSH2 0x1D2C PUSH2 0x1CC3 JUMP JUMPDEST DUP2 MSTORE PUSH1 0x20 ADD PUSH2 0x1D39 PUSH2 0x1CC3 JUMP JUMPDEST DUP2 MSTORE POP SWAP1 JUMP JUMPDEST PUSH1 0x40 MLOAD DUP1 PUSH1 0x60 ADD PUSH1 0x40 MSTORE DUP1 PUSH1 0x3 SWAP1 PUSH1 0x20 DUP3 MUL DUP1 CALLDATASIZE DUP4 CALLDATACOPY DUP1 DUP3 ADD SWAP2 POP POP SWAP1 POP POP SWAP1 JUMP JUMPDEST PUSH1 0x40 MLOAD DUP1 PUSH1 0x80 ADD PUSH1 0x40 MSTORE DUP1 PUSH1 0x0 DUP2 MSTORE PUSH1 0x20 ADD PUSH2 0x1D7B PUSH2 0x1CC3 JUMP JUMPDEST DUP2 MSTORE PUSH1 0x20 ADD PUSH1 0x0 PUSH2 0xFFFF AND DUP2 MSTORE PUSH1 0x20 ADD PUSH2 0x1D93 PUSH2 0x1CC3 JUMP JUMPDEST DUP2 MSTORE POP SWAP1 JUMP JUMPDEST PUSH1 0x40 MLOAD DUP1 PUSH1 0x80 ADD PUSH1 0x40 MSTORE DUP1 PUSH1 0x4 SWAP1 PUSH1 0x20 DUP3 MUL DUP1 CALLDATASIZE DUP4 CALLDATACOPY DUP1 DUP3 ADD SWAP2 POP POP SWAP1 POP POP SWAP1 JUMP JUMPDEST PUSH1 0x40 MLOAD DUP1 PUSH1 0x40 ADD PUSH1 0x40 MSTORE DUP1 PUSH1 0x2 SWAP1 JUMPDEST PUSH2 0x1DD2 PUSH2 0x1E05 JUMP JUMPDEST DUP2 MSTORE PUSH1 0x20 ADD SWAP1 PUSH1 0x1 SWAP1 SUB SWAP1 DUP2 PUSH2 0x1DCA JUMPI SWAP1 POP POP SWAP1 JUMP JUMPDEST JUMPDEST DUP1 DUP3 GT ISZERO PUSH2 0x1E01 JUMPI PUSH1 0x0 DUP2 PUSH1 0x0 SWAP1 SSTORE POP PUSH1 0x1 ADD PUSH2 0x1DE9 JUMP JUMPDEST POP SWAP1 JUMP JUMPDEST PUSH1 0x40 MLOAD DUP1 PUSH1 0x40 ADD PUSH1 0x40 MSTORE DUP1 PUSH1 0x2 SWAP1 JUMPDEST PUSH2 0x1E1C PUSH2 0x1CC3 JUMP JUMPDEST DUP2 MSTORE PUSH1 0x20 ADD SWAP1 PUSH1 0x1 SWAP1 SUB SWAP1 DUP2 PUSH2 0x1E14 JUMPI SWAP1 POP POP SWAP1 JUMP JUMPDEST PUSH1 0x0 PUSH1 0x40 MLOAD SWAP1 POP SWAP1 JUMP JUMPDEST PUSH1 0x0 DUP1 REVERT JUMPDEST PUSH1 0x0 DUP1 REVERT JUMPDEST PUSH1 0x0 DUP1 REVERT JUMPDEST PUSH1 0x0 PUSH1 0x1F NOT PUSH1 0x1F DUP4 ADD AND SWAP1 POP SWAP2 SWAP1 POP JUMP JUMPDEST PUSH32 0x4E487B7100000000000000000000000000000000000000000000000000000000 PUSH1 0x0 MSTORE PUSH1 0x41 PUSH1 0x4 MSTORE PUSH1 0x24 PUSH1 0x0 REVERT JUMPDEST PUSH2 0x1E94 DUP3 PUSH2 0x1E4B JUMP JUMPDEST DUP2 ADD DUP2 DUP2 LT PUSH8 0xFFFFFFFFFFFFFFFF DUP3 GT OR ISZERO PUSH2 0x1EB3 JUMPI PUSH2 0x1EB2 PUSH2 0x1E5C JUMP JUMPDEST JUMPDEST DUP1 PUSH1 0x40 MSTORE POP POP POP JUMP JUMPDEST PUSH1 0x0 PUSH2 0x1EC6 PUSH2 0x1E32 JUMP JUMPDEST SWAP1 POP PUSH2 0x1ED2 DUP3 DUP3 PUSH2 0x1E8B JUMP JUMPDEST SWAP2 SWAP1 POP JUMP JUMPDEST PUSH1 0x0 PUSH8 0xFFFFFFFFFFFFFFFF DUP3 GT ISZERO PUSH2 0x1EF2 JUMPI PUSH2 0x1EF1 PUSH2 0x1E5C JUMP JUMPDEST JUMPDEST PUSH1 0x20 DUP3 MUL SWAP1 POP PUSH1 0x20 DUP2 ADD SWAP1 POP SWAP2 SWAP1 POP JUMP JUMPDEST PUSH1 0x0 DUP1 REVERT JUMPDEST PUSH1 0x0 DUP2 SWAP1 POP SWAP2 SWAP1 POP JUMP JUMPDEST PUSH2 0x1F1B DUP2 PUSH2 0x1F08 JUMP JUMPDEST DUP2 EQ PUSH2 0x1F26 JUMPI PUSH1 0x0 DUP1 REVERT JUMPDEST POP JUMP JUMPDEST PUSH1 0x0 DUP2 CALLDATALOAD SWAP1 POP PUSH2 0x1F38 DUP2 PUSH2 0x1F12 JUMP JUMPDEST SWAP3 SWAP2 POP POP JUMP JUMPDEST PUSH1 0x0 PUSH2 0x1F51 PUSH2 0x1F4C DUP5 PUSH2 0x1ED7 JUMP JUMPDEST PUSH2 0x1EBC JUMP JUMPDEST SWAP1 POP DUP1 DUP4 DUP3 MSTORE PUSH1 0x20 DUP3 ADD SWAP1 POP PUSH1 0x20 DUP5 MUL DUP4 ADD DUP6 DUP2 GT ISZERO PUSH2 0x1F74 JUMPI PUSH2 0x1F73 PUSH2 0x1F03 JUMP JUMPDEST JUMPDEST DUP4 JUMPDEST DUP2 DUP2 LT ISZERO PUSH2 0x1F9D JUMPI DUP1 PUSH2 0x1F89 DUP9 DUP3 PUSH2 0x1F29 JUMP JUMPDEST DUP5 MSTORE PUSH1 0x20 DUP5 ADD SWAP4 POP POP PUSH1 0x20 DUP2 ADD SWAP1 POP PUSH2 0x1F76 JUMP JUMPDEST POP POP POP SWAP4 SWAP3 POP POP POP JUMP JUMPDEST PUSH1 0x0 DUP3 PUSH1 0x1F DUP4 ADD SLT PUSH2 0x1FBC JUMPI PUSH2 0x1FBB PUSH2 0x1E46 JUMP JUMPDEST JUMPDEST DUP2 CALLDATALOAD PUSH2 0x1FCC DUP5 DUP3 PUSH1 0x20 DUP7 ADD PUSH2 0x1F3E JUMP JUMPDEST SWAP2 POP POP SWAP3 SWAP2 POP POP JUMP JUMPDEST PUSH1 0x0 PUSH1 0x20 DUP3 DUP5 SUB SLT ISZERO PUSH2 0x1FEB JUMPI PUSH2 0x1FEA PUSH2 0x1E3C JUMP JUMPDEST JUMPDEST PUSH1 0x0 DUP3 ADD CALLDATALOAD PUSH8 0xFFFFFFFFFFFFFFFF DUP2 GT ISZERO PUSH2 0x2009 JUMPI PUSH2 0x2008 PUSH2 0x1E41 JUMP JUMPDEST JUMPDEST PUSH2 0x2015 DUP5 DUP3 DUP6 ADD PUSH2 0x1FA7 JUMP JUMPDEST SWAP2 POP POP SWAP3 SWAP2 POP POP JUMP JUMPDEST PUSH1 0x0 DUP2 MLOAD SWAP1 POP SWAP2 SWAP1 POP JUMP JUMPDEST PUSH1 0x0 DUP3 DUP3 MSTORE PUSH1 0x20 DUP3 ADD SWAP1 POP SWAP3 SWAP2 POP POP JUMP JUMPDEST PUSH1 0x0 DUP2 SWAP1 POP PUSH1 0x20 DUP3 ADD SWAP1 POP SWAP2 SWAP1 POP JUMP JUMPDEST PUSH2 0x2053 DUP2 PUSH2 0x1F08 JUMP JUMPDEST DUP3 MSTORE POP POP JUMP JUMPDEST PUSH1 0x0 PUSH2 0x2065 DUP4 DUP4 PUSH2 0x204A JUMP JUMPDEST PUSH1 0x20 DUP4 ADD SWAP1 POP SWAP3 SWAP2 POP POP JUMP JUMPDEST PUSH1 0x0 PUSH1 0x20 DUP3 ADD SWAP1 POP SWAP2 SWAP1 POP JUMP JUMPDEST PUSH1 0x0 PUSH2 0x2089 DUP3 PUSH2 0x201E JUMP JUMPDEST PUSH2 0x2093 DUP2 DUP6 PUSH2 0x2029 JUMP JUMPDEST SWAP4 POP PUSH2 0x209E DUP4 PUSH2 0x203A JUMP JUMPDEST DUP1 PUSH1 0x0 JUMPDEST DUP4 DUP2 LT ISZERO PUSH2 0x20CF JUMPI DUP2 MLOAD PUSH2 0x20B6 DUP9 DUP3 PUSH2 0x2059 JUMP JUMPDEST SWAP8 POP PUSH2 0x20C1 DUP4 PUSH2 0x2071 JUMP JUMPDEST SWAP3 POP POP PUSH1 0x1 DUP2 ADD SWAP1 POP PUSH2 0x20A2 JUMP JUMPDEST POP DUP6 SWAP4 POP POP POP POP SWAP3 SWAP2 POP POP JUMP JUMPDEST PUSH1 0x0 PUSH1 0x20 DUP3 ADD SWAP1 POP DUP2 DUP2 SUB PUSH1 0x0 DUP4 ADD MSTORE PUSH2 0x20F6 DUP2 DUP5 PUSH2 0x207E JUMP JUMPDEST SWAP1 POP SWAP3 SWAP2 POP POP JUMP JUMPDEST PUSH1 0x0 DUP2 MLOAD SWAP1 POP SWAP2 SWAP1 POP JUMP JUMPDEST PUSH1 0x0 DUP3 DUP3 MSTORE PUSH1 0x20 DUP3 ADD SWAP1 POP SWAP3 SWAP2 POP POP JUMP JUMPDEST PUSH1 0x0 JUMPDEST DUP4 DUP2 LT ISZERO PUSH2 0x2138 JUMPI DUP1 DUP3 ADD MLOAD DUP2 DUP5 ADD MSTORE PUSH1 0x20 DUP2 ADD SWAP1 POP PUSH2 0x211D JUMP JUMPDEST PUSH1 0x0 DUP5 DUP5 ADD MSTORE POP POP POP POP JUMP JUMPDEST PUSH1 0x0 PUSH2 0x214F DUP3 PUSH2 0x20FE JUMP JUMPDEST PUSH2 0x2159 DUP2 DUP6 PUSH2 0x2109 JUMP JUMPDEST SWAP4 POP PUSH2 0x2169 DUP2 DUP6 PUSH1 0x20 DUP7 ADD PUSH2 0x211A JUMP JUMPDEST PUSH2 0x2172 DUP2 PUSH2 0x1E4B JUMP JUMPDEST DUP5 ADD SWAP2 POP POP SWAP3 SWAP2 POP POP JUMP JUMPDEST PUSH1 0x0 PUSH1 0x20 DUP3 ADD SWAP1 POP DUP2 DUP2 SUB PUSH1 0x0 DUP4 ADD MSTORE PUSH2 0x2197 DUP2 DUP5 PUSH2 0x2144 JUMP JUMPDEST SWAP1 POP SWAP3 SWAP2 POP POP JUMP JUMPDEST PUSH1 0x0 PUSH8 0xFFFFFFFFFFFFFFFF DUP3 GT ISZERO PUSH2 0x21BA JUMPI PUSH2 0x21B9 PUSH2 0x1E5C JUMP JUMPDEST JUMPDEST PUSH1 0x20 DUP3 MUL SWAP1 POP SWAP2 SWAP1 POP JUMP JUMPDEST PUSH1 0x0 PUSH2 0x21D8 PUSH2 0x21D3 DUP5 PUSH2 0x219F JUMP JUMPDEST PUSH2 0x1EBC JUMP JUMPDEST SWAP1 POP DUP1 PUSH1 0x20 DUP5 MUL DUP4 ADD DUP6 DUP2 GT ISZERO PUSH2 0x21F2 JUMPI PUSH2 0x21F1 PUSH2 0x1F03 JUMP JUMPDEST JUMPDEST DUP4 JUMPDEST DUP2 DUP2 LT ISZERO PUSH2 0x221B JUMPI DUP1 PUSH2 0x2207 DUP9 DUP3 PUSH2 0x1F29 JUMP JUMPDEST DUP5 MSTORE PUSH1 0x20 DUP5 ADD SWAP4 POP POP PUSH1 0x20 DUP2 ADD SWAP1 POP PUSH2 0x21F4 JUMP JUMPDEST POP POP POP SWAP4 SWAP3 POP POP POP JUMP JUMPDEST PUSH1 0x0 DUP3 PUSH1 0x1F DUP4 ADD SLT PUSH2 0x223A JUMPI PUSH2 0x2239 PUSH2 0x1E46 JUMP JUMPDEST JUMPDEST PUSH1 0x2 PUSH2 0x2247 DUP5 DUP3 DUP6 PUSH2 0x21C5 JUMP JUMPDEST SWAP2 POP POP SWAP3 SWAP2 POP POP JUMP JUMPDEST PUSH1 0x0 PUSH8 0xFFFFFFFFFFFFFFFF DUP3 GT ISZERO PUSH2 0x226B JUMPI PUSH2 0x226A PUSH2 0x1E5C JUMP JUMPDEST JUMPDEST PUSH1 0x20 DUP3 MUL SWAP1 POP SWAP2 SWAP1 POP JUMP JUMPDEST PUSH1 0x0 PUSH2 0x2289 PUSH2 0x2284 DUP5 PUSH2 0x2250 JUMP JUMPDEST PUSH2 0x1EBC JUMP JUMPDEST SWAP1 POP DUP1 PUSH1 0x20 DUP5 MUL DUP4 ADD DUP6 DUP2 GT ISZERO PUSH2 0x22A3 JUMPI PUSH2 0x22A2 PUSH2 0x1F03 JUMP JUMPDEST JUMPDEST DUP4 JUMPDEST DUP2 DUP2 LT ISZERO PUSH2 0x22CC JUMPI DUP1 PUSH2 0x22B8 DUP9 DUP3 PUSH2 0x1F29 JUMP JUMPDEST DUP5 MSTORE PUSH1 0x20 DUP5 ADD SWAP4 POP POP PUSH1 0x20 DUP2 ADD SWAP1 POP PUSH2 0x22A5 JUMP JUMPDEST POP POP POP SWAP4 SWAP3 POP POP POP JUMP JUMPDEST PUSH1 0x0 DUP3 PUSH1 0x1F DUP4 ADD SLT PUSH2 0x22EB JUMPI PUSH2 0x22EA PUSH2 0x1E46 JUMP JUMPDEST JUMPDEST PUSH1 0x4 PUSH2 0x22F8 DUP5 DUP3 DUP6 PUSH2 0x2276 JUMP JUMPDEST SWAP2 POP POP SWAP3 SWAP2 POP POP JUMP JUMPDEST PUSH1 0x0 PUSH8 0xFFFFFFFFFFFFFFFF DUP3 GT ISZERO PUSH2 0x231C JUMPI PUSH2 0x231B PUSH2 0x1E5C JUMP JUMPDEST JUMPDEST PUSH1 0x20 DUP3 MUL SWAP1 POP SWAP2 SWAP1 POP JUMP JUMPDEST PUSH1 0x0 PUSH8 0xFFFFFFFFFFFFFFFF DUP3 GT ISZERO PUSH2 0x2342 JUMPI PUSH2 0x2341 PUSH2 0x1E5C JUMP JUMPDEST JUMPDEST PUSH1 0x20 DUP3 MUL SWAP1 POP SWAP2 SWAP1 POP JUMP JUMPDEST PUSH1 0x0 PUSH2 0x2360 PUSH2 0x235B DUP5 PUSH2 0x2327 JUMP JUMPDEST PUSH2 0x1EBC JUMP JUMPDEST SWAP1 POP DUP1 PUSH1 0x40 DUP5 MUL DUP4 ADD DUP6 DUP2 GT ISZERO PUSH2 0x237A JUMPI PUSH2 0x2379 PUSH2 0x1F03 JUMP JUMPDEST JUMPDEST DUP4 JUMPDEST DUP2 DUP2 LT ISZERO PUSH2 0x23A3 JUMPI DUP1 PUSH2 0x238F DUP9 DUP3 PUSH2 0x2225 JUMP JUMPDEST DUP5 MSTORE PUSH1 0x20 DUP5 ADD SWAP4 POP POP PUSH1 0x40 DUP2 ADD SWAP1 POP PUSH2 0x237C JUMP JUMPDEST POP POP POP SWAP4 SWAP3 POP POP POP JUMP JUMPDEST PUSH1 0x0 DUP3 PUSH1 0x1F DUP4 ADD SLT PUSH2 0x23C2 JUMPI PUSH2 0x23C1 PUSH2 0x1E46 JUMP JUMPDEST JUMPDEST PUSH1 0x2 PUSH2 0x23CF DUP5 DUP3 DUP6 PUSH2 0x234D JUMP JUMPDEST SWAP2 POP POP SWAP3 SWAP2 POP POP JUMP JUMPDEST PUSH1 0x0 PUSH2 0x23EB PUSH2 0x23E6 DUP5 PUSH2 0x2301 JUMP JUMPDEST PUSH2 0x1EBC JUMP JUMPDEST SWAP1 POP DUP1 PUSH1 0x80 DUP5 MUL DUP4 ADD DUP6 DUP2 GT ISZERO PUSH2 0x2405 JUMPI PUSH2 0x2404 PUSH2 0x1F03 JUMP JUMPDEST JUMPDEST DUP4 JUMPDEST DUP2 DUP2 LT ISZERO PUSH2 0x242E JUMPI DUP1 PUSH2 0x241A DUP9 DUP3 PUSH2 0x23AD JUMP JUMPDEST DUP5 MSTORE PUSH1 0x20 DUP5 ADD SWAP4 POP POP PUSH1 0x80 DUP2 ADD SWAP1 POP PUSH2 0x2407 JUMP JUMPDEST POP POP POP SWAP4 SWAP3 POP POP POP JUMP JUMPDEST PUSH1 0x0 DUP3 PUSH1 0x1F DUP4 ADD SLT PUSH2 0x244D JUMPI PUSH2 0x244C PUSH2 0x1E46 JUMP JUMPDEST JUMPDEST PUSH1 0x2 PUSH2 0x245A DUP5 DUP3 DUP6 PUSH2 0x23D8 JUMP JUMPDEST SWAP2 POP POP SWAP3 SWAP2 POP POP JUMP JUMPDEST PUSH1 0x0 PUSH2 0xFFFF DUP3 AND SWAP1 POP SWAP2 SWAP1 POP JUMP JUMPDEST PUSH2 0x247A DUP2 PUSH2 0x2463 JUMP JUMPDEST DUP2 EQ PUSH2 0x2485 JUMPI PUSH1 0x0 DUP1 REVERT JUMPDEST POP JUMP JUMPDEST PUSH1 0x0 DUP2 CALLDATALOAD SWAP1 POP PUSH2 0x2497 DUP2 PUSH2 0x2471 JUMP JUMPDEST SWAP3 SWAP2 POP POP JUMP JUMPDEST PUSH1 0x0 DUP1 PUSH1 0x0 DUP1 PUSH1 0x0 DUP1 PUSH1 0x0 DUP1 PUSH1 0x0 PUSH2 0x2C0 DUP11 DUP13 SUB SLT ISZERO PUSH2 0x24C0 JUMPI PUSH2 0x24BF PUSH2 0x1E3C JUMP JUMPDEST JUMPDEST PUSH1 0x0 PUSH2 0x24CE DUP13 DUP3 DUP14 ADD PUSH2 0x1F29 JUMP JUMPDEST SWAP10 POP POP PUSH1 0x20 PUSH2 0x24DF DUP13 DUP3 DUP14 ADD PUSH2 0x1F29 JUMP JUMPDEST SWAP9 POP POP PUSH1 0x40 PUSH2 0x24F0 DUP13 DUP3 DUP14 ADD PUSH2 0x2225 JUMP JUMPDEST SWAP8 POP POP PUSH1 0x80 PUSH2 0x2501 DUP13 DUP3 DUP14 ADD PUSH2 0x22D6 JUMP JUMPDEST SWAP7 POP POP PUSH2 0x100 PUSH2 0x2513 DUP13 DUP3 DUP14 ADD PUSH2 0x2438 JUMP JUMPDEST SWAP6 POP POP PUSH2 0x200 PUSH2 0x2525 DUP13 DUP3 DUP14 ADD PUSH2 0x1F29 JUMP JUMPDEST SWAP5 POP POP PUSH2 0x220 PUSH2 0x2537 DUP13 DUP3 DUP14 ADD PUSH2 0x2225 JUMP JUMPDEST SWAP4 POP POP PUSH2 0x260 PUSH2 0x2549 DUP13 DUP3 DUP14 ADD PUSH2 0x2488 JUMP JUMPDEST SWAP3 POP POP PUSH2 0x280 PUSH2 0x255B DUP13 DUP3 DUP14 ADD PUSH2 0x2225 JUMP JUMPDEST SWAP2 POP POP SWAP3 SWAP6 SWAP9 POP SWAP3 SWAP6 SWAP9 POP SWAP3 SWAP6 SWAP9 JUMP JUMPDEST PUSH1 0x0 DUP2 ISZERO ISZERO SWAP1 POP SWAP2 SWAP1 POP JUMP JUMPDEST PUSH2 0x2580 DUP2 PUSH2 0x256B JUMP JUMPDEST DUP3 MSTORE POP POP JUMP JUMPDEST PUSH1 0x0 PUSH1 0x20 DUP3 ADD SWAP1 POP PUSH2 0x259B PUSH1 0x0 DUP4 ADD DUP5 PUSH2 0x2577 JUMP JUMPDEST SWAP3 SWAP2 POP POP JUMP JUMPDEST PUSH1 0x0 DUP1 REVERT JUMPDEST PUSH1 0x0 PUSH2 0x1E0 DUP3 DUP5 SUB SLT ISZERO PUSH2 0x25BD JUMPI PUSH2 0x25BC PUSH2 0x25A1 JUMP JUMPDEST JUMPDEST PUSH2 0x25C7 PUSH1 0x80 PUSH2 0x1EBC JUMP JUMPDEST SWAP1 POP PUSH1 0x0 PUSH2 0x25D7 DUP5 DUP3 DUP6 ADD PUSH2 0x1F29 JUMP JUMPDEST PUSH1 0x0 DUP4 ADD MSTORE POP PUSH1 0x20 PUSH2 0x25EB DUP5 DUP3 DUP6 ADD PUSH2 0x2225 JUMP JUMPDEST PUSH1 0x20 DUP4 ADD MSTORE POP PUSH1 0x60 PUSH2 0x25FF DUP5 DUP3 DUP6 ADD PUSH2 0x22D6 JUMP JUMPDEST PUSH1 0x40 DUP4 ADD MSTORE POP PUSH1 0xE0 PUSH2 0x2613 DUP5 DUP3 DUP6 ADD PUSH2 0x2438 JUMP JUMPDEST PUSH1 0x60 DUP4 ADD MSTORE POP SWAP3 SWAP2 POP POP JUMP JUMPDEST PUSH1 0x0 PUSH2 0x1E0 DUP3 DUP5 SUB SLT ISZERO PUSH2 0x2636 JUMPI PUSH2 0x2635 PUSH2 0x1E3C JUMP JUMPDEST JUMPDEST PUSH1 0x0 PUSH2 0x2644 DUP5 DUP3 DUP6 ADD PUSH2 0x25A6 JUMP JUMPDEST SWAP2 POP POP SWAP3 SWAP2 POP POP JUMP JUMPDEST PUSH1 0x0 PUSH1 0x2 SWAP1 POP SWAP2 SWAP1 POP JUMP JUMPDEST PUSH1 0x0 DUP2 SWAP1 POP SWAP3 SWAP2 POP POP JUMP JUMPDEST PUSH1 0x0 DUP2 SWAP1 POP SWAP2 SWAP1 POP JUMP JUMPDEST PUSH1 0x0 PUSH1 0x20 DUP3 ADD SWAP1 POP SWAP2 SWAP1 POP JUMP JUMPDEST PUSH2 0x2683 DUP2 PUSH2 0x264D JUMP JUMPDEST PUSH2 0x268D DUP2 DUP5 PUSH2 0x2658 JUMP JUMPDEST SWAP3 POP PUSH2 0x2698 DUP3 PUSH2 0x2663 JUMP JUMPDEST DUP1 PUSH1 0x0 JUMPDEST DUP4 DUP2 LT ISZERO PUSH2 0x26C9 JUMPI DUP2 MLOAD PUSH2 0x26B0 DUP8 DUP3 PUSH2 0x2059 JUMP JUMPDEST SWAP7 POP PUSH2 0x26BB DUP4 PUSH2 0x266D JUMP JUMPDEST SWAP3 POP POP PUSH1 0x1 DUP2 ADD SWAP1 POP PUSH2 0x269C JUMP JUMPDEST POP POP POP POP POP POP JUMP JUMPDEST PUSH1 0x0 PUSH1 0x4 SWAP1 POP SWAP2 SWAP1 POP JUMP JUMPDEST PUSH1 0x0 DUP2 SWAP1 POP SWAP3 SWAP2 POP POP JUMP JUMPDEST PUSH1 0x0 DUP2 SWAP1 POP SWAP2 SWAP1 POP JUMP JUMPDEST PUSH1 0x0 PUSH1 0x20 DUP3 ADD SWAP1 POP SWAP2 SWAP1 POP JUMP JUMPDEST PUSH2 0x2707 DUP2 PUSH2 0x26D1 JUMP JUMPDEST PUSH2 0x2711 DUP2 DUP5 PUSH2 0x26DC JUMP JUMPDEST SWAP3 POP PUSH2 0x271C DUP3 PUSH2 0x26E7 JUMP JUMPDEST DUP1 PUSH1 0x0 JUMPDEST DUP4 DUP2 LT ISZERO PUSH2 0x274D JUMPI DUP2 MLOAD PUSH2 0x2734 DUP8 DUP3 PUSH2 0x2059 JUMP JUMPDEST SWAP7 POP PUSH2 0x273F DUP4 PUSH2 0x26F1 JUMP JUMPDEST SWAP3 POP POP PUSH1 0x1 DUP2 ADD SWAP1 POP PUSH2 0x2720 JUMP JUMPDEST POP POP POP POP POP POP JUMP JUMPDEST PUSH1 0x0 PUSH1 0x2 SWAP1 POP SWAP2 SWAP1 POP JUMP JUMPDEST PUSH1 0x0 DUP2 SWAP1 POP SWAP3 SWAP2 POP POP JUMP JUMPDEST PUSH1 0x0 DUP2 SWAP1 POP SWAP2 SWAP1 POP JUMP JUMPDEST PUSH1 0x0 PUSH1 0x2 SWAP1 POP SWAP2 SWAP1 POP JUMP JUMPDEST PUSH1 0x0 DUP2 SWAP1 POP SWAP3 SWAP2 POP POP JUMP JUMPDEST PUSH1 0x0 DUP2 SWAP1 POP SWAP2 SWAP1 POP JUMP JUMPDEST PUSH1 0x0 PUSH2 0x27A1 DUP4 DUP4 PUSH2 0x267A JUMP JUMPDEST PUSH1 0x40 DUP4 ADD SWAP1 POP SWAP3 SWAP2 POP POP JUMP JUMPDEST PUSH1 0x0 PUSH1 0x20 DUP3 ADD SWAP1 POP SWAP2 SWAP1 POP JUMP JUMPDEST PUSH2 0x27C3 DUP2 PUSH2 0x2775 JUMP JUMPDEST PUSH2 0x27CD DUP2 DUP5 PUSH2 0x2780 JUMP JUMPDEST SWAP3 POP PUSH2 0x27D8 DUP3 PUSH2 0x278B JUMP JUMPDEST DUP1 PUSH1 0x0 JUMPDEST DUP4 DUP2 LT ISZERO PUSH2 0x2809 JUMPI DUP2 MLOAD PUSH2 0x27F0 DUP8 DUP3 PUSH2 0x2795 JUMP JUMPDEST SWAP7 POP PUSH2 0x27FB DUP4 PUSH2 0x27AD JUMP JUMPDEST SWAP3 POP POP PUSH1 0x1 DUP2 ADD SWAP1 POP PUSH2 0x27DC JUMP JUMPDEST POP POP POP POP POP POP JUMP JUMPDEST PUSH1 0x0 PUSH2 0x281D DUP4 DUP4 PUSH2 0x27BA JUMP JUMPDEST PUSH1 0x80 DUP4 ADD SWAP1 POP SWAP3 SWAP2 POP POP JUMP JUMPDEST PUSH1 0x0 PUSH1 0x20 DUP3 ADD SWAP1 POP SWAP2 SWAP1 POP JUMP JUMPDEST PUSH2 0x283F DUP2 PUSH2 0x2755 JUMP JUMPDEST PUSH2 0x2849 DUP2 DUP5 PUSH2 0x2760 JUMP JUMPDEST SWAP3 POP PUSH2 0x2854 DUP3 PUSH2 0x276B JUMP JUMPDEST DUP1 PUSH1 0x0 JUMPDEST DUP4 DUP2 LT ISZERO PUSH2 0x2885 JUMPI DUP2 MLOAD PUSH2 0x286C DUP8 DUP3 PUSH2 0x2811 JUMP JUMPDEST SWAP7 POP PUSH2 0x2877 DUP4 PUSH2 0x2829 JUMP JUMPDEST SWAP3 POP POP PUSH1 0x1 DUP2 ADD SWAP1 POP PUSH2 0x2858 JUMP JUMPDEST POP POP POP POP POP POP JUMP JUMPDEST PUSH2 0x1E0 DUP3 ADD PUSH1 0x0 DUP3 ADD MLOAD PUSH2 0x28A4 PUSH1 0x0 DUP6 ADD DUP3 PUSH2 0x204A JUMP JUMPDEST POP PUSH1 0x20 DUP3 ADD MLOAD PUSH2 0x28B7 PUSH1 0x20 DUP6 ADD DUP3 PUSH2 0x267A JUMP JUMPDEST POP PUSH1 0x40 DUP3 ADD MLOAD PUSH2 0x28CA PUSH1 0x60 DUP6 ADD DUP3 PUSH2 0x26FE JUMP JUMPDEST POP PUSH1 0x60 DUP3 ADD MLOAD PUSH2 0x28DD PUSH1 0xE0 DUP6 ADD DUP3 PUSH2 0x2836 JUMP JUMPDEST POP POP POP POP JUMP JUMPDEST PUSH1 0x0 PUSH2 0x1E0 DUP3 ADD SWAP1 POP PUSH2 0x28F9 PUSH1 0x0 DUP4 ADD DUP5 PUSH2 0x288D JUMP JUMPDEST SWAP3 SWAP2 POP POP JUMP JUMPDEST PUSH1 0x0 PUSH1 0x40 DUP3 DUP5 SUB SLT ISZERO PUSH2 0x2915 JUMPI PUSH2 0x2914 PUSH2 0x1E3C JUMP JUMPDEST JUMPDEST PUSH1 0x0 PUSH2 0x2923 DUP5 DUP3 DUP6 ADD PUSH2 0x2225 JUMP JUMPDEST SWAP2 POP POP SWAP3 SWAP2 POP POP JUMP JUMPDEST PUSH1 0x0 DUP1 PUSH2 0x200 DUP4 DUP6 SUB SLT ISZERO PUSH2 0x2944 JUMPI PUSH2 0x2943 PUSH2 0x1E3C JUMP JUMPDEST JUMPDEST PUSH1 0x0 PUSH2 0x2952 DUP6 DUP3 DUP7 ADD PUSH2 0x1F29 JUMP JUMPDEST SWAP3 POP POP PUSH1 0x20 PUSH2 0x2963 DUP6 DUP3 DUP7 ADD PUSH2 0x25A6 JUMP JUMPDEST SWAP2 POP POP SWAP3 POP SWAP3 SWAP1 POP JUMP JUMPDEST PUSH1 0x0 DUP1 PUSH1 0x0 DUP1 PUSH1 0xC0 DUP6 DUP8 SUB SLT ISZERO PUSH2 0x2987 JUMPI PUSH2 0x2986 PUSH2 0x1E3C JUMP JUMPDEST JUMPDEST PUSH1 0x0 PUSH2 0x2995 DUP8 DUP3 DUP9 ADD PUSH2 0x1F29 JUMP JUMPDEST SWAP5 POP POP PUSH1 0x20 PUSH2 0x29A6 DUP8 DUP3 DUP9 ADD PUSH2 0x2225 JUMP JUMPDEST SWAP4 POP POP PUSH1 0x60 PUSH2 0x29B7 DUP8 DUP3 DUP9 ADD PUSH2 0x2488 JUMP JUMPDEST SWAP3 POP POP PUSH1 0x80 PUSH2 0x29C8 DUP8 DUP3 DUP9 ADD PUSH2 0x2225 JUMP JUMPDEST SWAP2 POP POP SWAP3 SWAP6 SWAP2 SWAP5 POP SWAP3 POP JUMP JUMPDEST PUSH1 0x0 DUP2 MLOAD SWAP1 POP SWAP2 SWAP1 POP JUMP JUMPDEST PUSH1 0x0 DUP3 DUP3 MSTORE PUSH1 0x20 DUP3 ADD SWAP1 POP SWAP3 SWAP2 POP POP JUMP JUMPDEST PUSH1 0x0 DUP2 SWAP1 POP PUSH1 0x20 DUP3 ADD SWAP1 POP SWAP2 SWAP1 POP JUMP JUMPDEST PUSH1 0x0 PUSH1 0x20 DUP3 ADD SWAP1 POP SWAP2 SWAP1 POP JUMP JUMPDEST PUSH1 0x0 PUSH2 0x2A18 DUP3 PUSH2 0x29D4 JUMP JUMPDEST PUSH2 0x2A22 DUP2 DUP6 PUSH2 0x29DF JUMP JUMPDEST SWAP4 POP PUSH2 0x2A2D DUP4 PUSH2 0x29F0 JUMP JUMPDEST DUP1 PUSH1 0x0 JUMPDEST DUP4 DUP2 LT ISZERO PUSH2 0x2A5E JUMPI DUP2 MLOAD PUSH2 0x2A45 DUP9 DUP3 PUSH2 0x2795 JUMP JUMPDEST SWAP8 POP PUSH2 0x2A50 DUP4 PUSH2 0x2A00 JUMP JUMPDEST SWAP3 POP POP PUSH1 0x1 DUP2 ADD SWAP1 POP PUSH2 0x2A31 JUMP JUMPDEST POP DUP6 SWAP4 POP POP POP POP SWAP3 SWAP2 POP POP JUMP JUMPDEST PUSH1 0x0 PUSH1 0x20 DUP3 ADD SWAP1 POP DUP2 DUP2 SUB PUSH1 0x0 DUP4 ADD MSTORE PUSH2 0x2A85 DUP2 DUP5 PUSH2 0x2A0D JUMP JUMPDEST SWAP1 POP SWAP3 SWAP2 POP POP JUMP JUMPDEST PUSH1 0x0 DUP2 MLOAD SWAP1 POP SWAP2 SWAP1 POP JUMP JUMPDEST PUSH1 0x0 DUP3 DUP3 MSTORE PUSH1 0x20 DUP3 ADD SWAP1 POP SWAP3 SWAP2 POP POP JUMP JUMPDEST PUSH1 0x0 DUP2 SWAP1 POP PUSH1 0x20 DUP3 ADD SWAP1 POP SWAP2 SWAP1 POP JUMP JUMPDEST PUSH2 0x2AC2 DUP2 PUSH2 0x2463 JUMP JUMPDEST DUP3 MSTORE POP POP JUMP JUMPDEST PUSH1 0xC0 DUP3 ADD PUSH1 0x0 DUP3 ADD MLOAD PUSH2 0x2ADE PUSH1 0x0 DUP6 ADD DUP3 PUSH2 0x204A JUMP JUMPDEST POP PUSH1 0x20 DUP3 ADD MLOAD PUSH2 0x2AF1 PUSH1 0x20 DUP6 ADD DUP3 PUSH2 0x267A JUMP JUMPDEST POP PUSH1 0x40 DUP3 ADD MLOAD PUSH2 0x2B04 PUSH1 0x60 DUP6 ADD DUP3 PUSH2 0x2AB9 JUMP JUMPDEST POP PUSH1 0x60 DUP3 ADD MLOAD PUSH2 0x2B17 PUSH1 0x80 DUP6 ADD DUP3 PUSH2 0x267A JUMP JUMPDEST POP POP POP POP JUMP JUMPDEST PUSH1 0x0 PUSH2 0x2B29 DUP4 DUP4 PUSH2 0x2AC8 JUMP JUMPDEST PUSH1 0xC0 DUP4 ADD SWAP1 POP SWAP3 SWAP2 POP POP JUMP JUMPDEST PUSH1 0x0 PUSH1 0x20 DUP3 ADD SWAP1 POP SWAP2 SWAP1 POP JUMP JUMPDEST PUSH1 0x0 PUSH2 0x2B4D DUP3 PUSH2 0x2A8D JUMP JUMPDEST PUSH2 0x2B57 DUP2 DUP6 PUSH2 0x2A98 JUMP JUMPDEST SWAP4 POP PUSH2 0x2B62 DUP4 PUSH2 0x2AA9 JUMP JUMPDEST DUP1 PUSH1 0x0 JUMPDEST DUP4 DUP2 LT ISZERO PUSH2 0x2B93 JUMPI DUP2 MLOAD PUSH2 0x2B7A DUP9 DUP3 PUSH2 0x2B1D JUMP JUMPDEST SWAP8 POP PUSH2 0x2B85 DUP4 PUSH2 0x2B35 JUMP JUMPDEST SWAP3 POP POP PUSH1 0x1 DUP2 ADD SWAP1 POP PUSH2 0x2B66 JUMP JUMPDEST POP DUP6 SWAP4 POP POP POP POP SWAP3 SWAP2 POP POP JUMP JUMPDEST PUSH1 0x0 PUSH1 0x20 DUP3 ADD SWAP1 POP DUP2 DUP2 SUB PUSH1 0x0 DUP4 ADD MSTORE PUSH2 0x2BBA DUP2 DUP5 PUSH2 0x2B42 JUMP JUMPDEST SWAP1 POP SWAP3 SWAP2 POP POP JUMP JUMPDEST PUSH1 0x0 PUSH1 0x20 DUP3 DUP5 SUB SLT ISZERO PUSH2 0x2BD8 JUMPI PUSH2 0x2BD7 PUSH2 0x1E3C JUMP JUMPDEST JUMPDEST PUSH1 0x0 PUSH2 0x2BE6 DUP5 DUP3 DUP6 ADD PUSH2 0x1F29 JUMP JUMPDEST SWAP2 POP POP SWAP3 SWAP2 POP POP JUMP JUMPDEST PUSH2 0x2BF8 DUP2 PUSH2 0x1F08 JUMP JUMPDEST DUP3 MSTORE POP POP JUMP JUMPDEST PUSH1 0x0 PUSH1 0x20 DUP3 ADD SWAP1 POP PUSH2 0x2C13 PUSH1 0x0 DUP4 ADD DUP5 PUSH2 0x2BEF JUMP JUMPDEST SWAP3 SWAP2 POP POP JUMP JUMPDEST PUSH1 0x0 DUP2 SWAP1 POP SWAP3 SWAP2 POP POP JUMP JUMPDEST PUSH2 0x2C2D DUP2 PUSH2 0x264D JUMP JUMPDEST PUSH2 0x2C37 DUP2 DUP5 PUSH2 0x2C19 JUMP JUMPDEST SWAP3 POP PUSH2 0x2C42 DUP3 PUSH2 0x2663 JUMP JUMPDEST DUP1 PUSH1 0x0 JUMPDEST DUP4 DUP2 LT ISZERO PUSH2 0x2C73 JUMPI DUP2 MLOAD PUSH2 0x2C5A DUP8 DUP3 PUSH2 0x2059 JUMP JUMPDEST SWAP7 POP PUSH2 0x2C65 DUP4 PUSH2 0x266D JUMP JUMPDEST SWAP3 POP POP PUSH1 0x1 DUP2 ADD SWAP1 POP PUSH2 0x2C46 JUMP JUMPDEST POP POP POP POP POP POP JUMP JUMPDEST PUSH1 0x0 PUSH1 0x40 DUP3 ADD SWAP1 POP PUSH2 0x2C90 PUSH1 0x0 DUP4 ADD DUP5 PUSH2 0x2C24 JUMP JUMPDEST SWAP3 SWAP2 POP POP JUMP JUMPDEST PUSH2 0x2C9F DUP2 PUSH2 0x256B JUMP JUMPDEST DUP2 EQ PUSH2 0x2CAA JUMPI PUSH1 0x0 DUP1 REVERT JUMPDEST POP JUMP JUMPDEST PUSH1 0x0 DUP2 MLOAD SWAP1 POP PUSH2 0x2CBC DUP2 PUSH2 0x2C96 JUMP JUMPDEST SWAP3 SWAP2 POP POP JUMP JUMPDEST PUSH1 0x0 PUSH1 0x20 DUP3 DUP5 SUB SLT ISZERO PUSH2 0x2CD8 JUMPI PUSH2 0x2CD7 PUSH2 0x1E3C JUMP JUMPDEST JUMPDEST PUSH1 0x0 PUSH2 0x2CE6 DUP5 DUP3 DUP6 ADD PUSH2 0x2CAD JUMP JUMPDEST SWAP2 POP POP SWAP3 SWAP2 POP POP JUMP JUMPDEST PUSH32 0x5468652070726F7669646564206B6579496D61676520686173206265656E2075 PUSH1 0x0 DUP3 ADD MSTORE PUSH32 0x736564206265666F726521000000000000000000000000000000000000000000 PUSH1 0x20 DUP3 ADD MSTORE POP JUMP JUMPDEST PUSH1 0x0 PUSH2 0x2D4B PUSH1 0x2B DUP4 PUSH2 0x2109 JUMP JUMPDEST SWAP2 POP PUSH2 0x2D56 DUP3 PUSH2 0x2CEF JUMP JUMPDEST PUSH1 0x40 DUP3 ADD SWAP1 POP SWAP2 SWAP1 POP JUMP JUMPDEST PUSH1 0x0 PUSH1 0x20 DUP3 ADD SWAP1 POP DUP2 DUP2 SUB PUSH1 0x0 DUP4 ADD MSTORE PUSH2 0x2D7A DUP2 PUSH2 0x2D3E JUMP JUMPDEST SWAP1 POP SWAP2 SWAP1 POP JUMP JUMPDEST PUSH1 0x0 PUSH2 0x200 DUP3 ADD SWAP1 POP PUSH2 0x2D97 PUSH1 0x0 DUP4 ADD DUP6 PUSH2 0x2BEF JUMP JUMPDEST PUSH2 0x2DA4 PUSH1 0x20 DUP4 ADD DUP5 PUSH2 0x288D JUMP JUMPDEST SWAP4 SWAP3 POP POP POP JUMP JUMPDEST PUSH32 0x5468652070726F7669646564207369676E617475726573207765726520696E63 PUSH1 0x0 DUP3 ADD MSTORE PUSH32 0x6F727265637421200A20546865207472616E73616374696F6E2077696C6C2062 PUSH1 0x20 DUP3 ADD MSTORE PUSH32 0x652063616E63656C65642E200000000000000000000000000000000000000000 PUSH1 0x40 DUP3 ADD MSTORE POP JUMP JUMPDEST PUSH1 0x0 PUSH2 0x2E2D PUSH1 0x4C DUP4 PUSH2 0x2109 JUMP JUMPDEST SWAP2 POP PUSH2 0x2E38 DUP3 PUSH2 0x2DAB JUMP JUMPDEST PUSH1 0x60 DUP3 ADD SWAP1 POP SWAP2 SWAP1 POP JUMP JUMPDEST PUSH1 0x0 PUSH1 0x20 DUP3 ADD SWAP1 POP DUP2 DUP2 SUB PUSH1 0x0 DUP4 ADD MSTORE PUSH2 0x2E5C DUP2 PUSH2 0x2E20 JUMP JUMPDEST SWAP1 POP SWAP2 SWAP1 POP JUMP JUMPDEST PUSH2 0x2E6C DUP2 PUSH2 0x2463 JUMP JUMPDEST DUP3 MSTORE POP POP JUMP JUMPDEST PUSH1 0x0 PUSH1 0xC0 DUP3 ADD SWAP1 POP PUSH2 0x2E87 PUSH1 0x0 DUP4 ADD DUP8 PUSH2 0x2BEF JUMP JUMPDEST PUSH2 0x2E94 PUSH1 0x20 DUP4 ADD DUP7 PUSH2 0x2C24 JUMP JUMPDEST PUSH2 0x2EA1 PUSH1 0x60 DUP4 ADD DUP6 PUSH2 0x2E63 JUMP JUMPDEST PUSH2 0x2EAE PUSH1 0x80 DUP4 ADD DUP5 PUSH2 0x2C24 JUMP JUMPDEST SWAP6 SWAP5 POP POP POP POP POP JUMP JUMPDEST PUSH32 0x4E487B7100000000000000000000000000000000000000000000000000000000 PUSH1 0x0 MSTORE PUSH1 0x32 PUSH1 0x4 MSTORE PUSH1 0x24 PUSH1 0x0 REVERT JUMPDEST PUSH32 0x4E487B7100000000000000000000000000000000000000000000000000000000 PUSH1 0x0 MSTORE PUSH1 0x11 PUSH1 0x4 MSTORE PUSH1 0x24 PUSH1 0x0 REVERT JUMPDEST PUSH1 0x0 PUSH2 0x2F20 DUP3 PUSH2 0x1F08 JUMP JUMPDEST SWAP2 POP PUSH32 0xFFFFFFFFFFFFFFFFFFFFFFFFFFFFFFFFFFFFFFFFFFFFFFFFFFFFFFFFFFFFFFFF DUP3 SUB PUSH2 0x2F52 JUMPI PUSH2 0x2F51 PUSH2 0x2EE6 JUMP JUMPDEST JUMPDEST PUSH1 0x1 DUP3 ADD SWAP1 POP SWAP2 SWAP1 POP JUMP JUMPDEST PUSH1 0x0 PUSH2 0x2F68 DUP3 PUSH2 0x1F08 JUMP JUMPDEST SWAP2 POP PUSH2 0x2F73 DUP4 PUSH2 0x1F08 JUMP JUMPDEST SWAP3 POP DUP3 DUP3 SUB SWAP1 POP DUP2 DUP2 GT ISZERO PUSH2 0x2F8B JUMPI PUSH2 0x2F8A PUSH2 0x2EE6 JUMP JUMPDEST JUMPDEST SWAP3 SWAP2 POP POP JUMP JUMPDEST PUSH1 0x0 PUSH2 0x2F9C DUP3 PUSH2 0x1F08 JUMP JUMPDEST SWAP2 POP PUSH2 0x2FA7 DUP4 PUSH2 0x1F08 JUMP JUMPDEST SWAP3 POP DUP3 DUP3 ADD SWAP1 POP DUP1 DUP3 GT ISZERO PUSH2 0x2FBF JUMPI PUSH2 0x2FBE PUSH2 0x2EE6 JUMP JUMPDEST JUMPDEST SWAP3 SWAP2 POP POP JUMP JUMPDEST PUSH1 0x0 DUP2 MLOAD SWAP1 POP PUSH2 0x2FD4 DUP2 PUSH2 0x1F12 JUMP JUMPDEST SWAP3 SWAP2 POP POP JUMP JUMPDEST PUSH1 0x0 PUSH2 0x2FED PUSH2 0x2FE8 DUP5 PUSH2 0x219F JUMP JUMPDEST PUSH2 0x1EBC JUMP JUMPDEST SWAP1 POP DUP1 PUSH1 0x20 DUP5 MUL DUP4 ADD DUP6 DUP2 GT ISZERO PUSH2 0x3007 JUMPI PUSH2 0x3006 PUSH2 0x1F03 JUMP JUMPDEST JUMPDEST DUP4 JUMPDEST DUP2 DUP2 LT ISZERO PUSH2 0x3030 JUMPI DUP1 PUSH2 0x301C DUP9 DUP3 PUSH2 0x2FC5 JUMP JUMPDEST DUP5 MSTORE PUSH1 0x20 DUP5 ADD SWAP4 POP POP PUSH1 0x20 DUP2 ADD SWAP1 POP PUSH2 0x3009 JUMP JUMPDEST POP POP POP SWAP4 SWAP3 POP POP POP JUMP JUMPDEST PUSH1 0x0 DUP3 PUSH1 0x1F DUP4 ADD SLT PUSH2 0x304F JUMPI PUSH2 0x304E PUSH2 0x1E46 JUMP JUMPDEST JUMPDEST PUSH1 0x2 PUSH2 0x305C DUP5 DUP3 DUP6 PUSH2 0x2FDA JUMP JUMPDEST SWAP2 POP POP SWAP3 SWAP2 POP POP JUMP JUMPDEST PUSH1 0x0 PUSH1 0x40 DUP3 DUP5 SUB SLT ISZERO PUSH2 0x307B JUMPI PUSH2 0x307A PUSH2 0x1E3C JUMP JUMPDEST JUMPDEST PUSH1 0x0 PUSH2 0x3089 DUP5 DUP3 DUP6 ADD PUSH2 0x303A JUMP JUMPDEST SWAP2 POP POP SWAP3 SWAP2 POP POP JUMP JUMPDEST PUSH1 0x0 PUSH1 0x60 DUP3 ADD SWAP1 POP PUSH2 0x30A7 PUSH1 0x0 DUP4 ADD DUP6 PUSH2 0x2C24 JUMP JUMPDEST PUSH2 0x30B4 PUSH1 0x40 DUP4 ADD DUP5 PUSH2 0x2BEF JUMP JUMPDEST SWAP4 SWAP3 POP POP POP JUMP JUMPDEST PUSH1 0x0 PUSH1 0x80 DUP3 ADD SWAP1 POP PUSH2 0x30D0 PUSH1 0x0 DUP4 ADD DUP6 PUSH2 0x2C24 JUMP JUMPDEST PUSH2 0x30DD PUSH1 0x40 DUP4 ADD DUP5 PUSH2 0x2C24 JUMP JUMPDEST SWAP4 SWAP3 POP POP POP JUMP JUMPDEST PUSH1 0x0 DUP2 SWAP1 POP SWAP3 SWAP2 POP POP JUMP JUMPDEST PUSH1 0x0 PUSH2 0x30FA DUP3 PUSH2 0x20FE JUMP JUMPDEST PUSH2 0x3104 DUP2 DUP6 PUSH2 0x30E4 JUMP JUMPDEST SWAP4 POP PUSH2 0x3114 DUP2 DUP6 PUSH1 0x20 DUP7 ADD PUSH2 0x211A JUMP JUMPDEST DUP1 DUP5 ADD SWAP2 POP POP SWAP3 SWAP2 POP POP JUMP JUMPDEST PUSH1 0x0 PUSH2 0x312C DUP3 DUP6 PUSH2 0x30EF JUMP JUMPDEST SWAP2 POP PUSH2 0x3138 DUP3 DUP5 PUSH2 0x30EF JUMP JUMPDEST SWAP2 POP DUP2 SWAP1 POP SWAP4 SWAP3 POP POP POP JUMP JUMPDEST PUSH32 0x4E487B7100000000000000000000000000000000000000000000000000000000 PUSH1 0x0 MSTORE PUSH1 0x12 PUSH1 0x4 MSTORE PUSH1 0x24 PUSH1 0x0 REVERT JUMPDEST PUSH1 0x0 PUSH2 0x317F DUP3 DUP5 PUSH2 0x30EF JUMP JUMPDEST SWAP2 POP DUP2 SWAP1 POP SWAP3 SWAP2 POP POP JUMP INVALID LOG2 PUSH5 0x6970667358 0x22 SLT KECCAK256 0xD2 0xBD 0xB5 JUMP 0xF8 RETURNDATASIZE 0x21 CALLCODE PUSH16 0x5CD709DDFEB256D2E266B6C4E32A7BE8 0xB6 BYTE SWAP9 0x5D MULMOD LOG0 DUP14 PUSH5 0x736F6C6343 STOP ADDMOD SGT STOP CALLER PUSH1 0x80 PUSH1 0x40 MSTORE CALLVALUE DUP1 ISZERO PUSH2 0x10 JUMPI PUSH1 0x0 DUP1 REVERT JUMPDEST POP PUSH2 0x1955 DUP1 PUSH2 0x20 PUSH1 0x0 CODECOPY PUSH1 0x0 RETURN INVALID PUSH1 0x80 PUSH1 0x40 MSTORE CALLVALUE DUP1 ISZERO PUSH2 0x10 JUMPI PUSH1 0x0 DUP1 REVERT JUMPDEST POP PUSH1 0x4 CALLDATASIZE LT PUSH2 0xF5 JUMPI PUSH1 0x0 CALLDATALOAD PUSH1 0xE0 SHR DUP1 PUSH4 0x997DA8D4 GT PUSH2 0x97 JUMPI DUP1 PUSH4 0xBB734C4E GT PUSH2 0x66 JUMPI DUP1 PUSH4 0xBB734C4E EQ PUSH2 0x28C JUMPI DUP1 PUSH4 0xC11B8AD7 EQ PUSH2 0x2BC JUMPI DUP1 PUSH4 0xE7A48839 EQ PUSH2 0x2DA JUMPI DUP1 PUSH4 0xEEEAC01E EQ PUSH2 0x2F8 JUMPI PUSH2 0xF5 JUMP JUMPDEST DUP1 PUSH4 0x997DA8D4 EQ PUSH2 0x1F0 JUMPI DUP1 PUSH4 0x9B4CDCD3 EQ PUSH2 0x20E JUMPI DUP1 PUSH4 0x9F13F76D EQ PUSH2 0x23E JUMPI DUP1 PUSH4 0xACA8F56E EQ PUSH2 0x25C JUMPI PUSH2 0xF5 JUMP JUMPDEST DUP1 PUSH4 0x29038545 GT PUSH2 0xD3 JUMPI DUP1 PUSH4 0x29038545 EQ PUSH2 0x178 JUMPI DUP1 PUSH4 0x4E93D4A2 EQ PUSH2 0x196 JUMPI DUP1 PUSH4 0x5727DC5C EQ PUSH2 0x1B4 JUMPI DUP1 PUSH4 0x7A308A4C EQ PUSH2 0x1D2 JUMPI PUSH2 0xF5 JUMP JUMPDEST DUP1 PUSH4 0x3A507BE EQ PUSH2 0xFA JUMPI DUP1 PUSH4 0x1177A4A4 EQ PUSH2 0x118 JUMPI DUP1 PUSH4 0x1C51DF7B EQ PUSH2 0x148 JUMPI JUMPDEST PUSH1 0x0 DUP1 REVERT JUMPDEST PUSH2 0x102 PUSH2 0x316 JUMP JUMPDEST PUSH1 0x40 MLOAD PUSH2 0x10F SWAP2 SWAP1 PUSH2 0x13C1 JUMP JUMPDEST PUSH1 0x40 MLOAD DUP1 SWAP2 SUB SWAP1 RETURN JUMPDEST PUSH2 0x132 PUSH1 0x4 DUP1 CALLDATASIZE SUB DUP2 ADD SWAP1 PUSH2 0x12D SWAP2 SWAP1 PUSH2 0x155E JUMP JUMPDEST PUSH2 0x33A JUMP JUMPDEST PUSH1 0x40 MLOAD PUSH2 0x13F SWAP2 SWAP1 PUSH2 0x1649 JUMP JUMPDEST PUSH1 0x40 MLOAD DUP1 SWAP2 SUB SWAP1 RETURN JUMPDEST PUSH2 0x162 PUSH1 0x4 DUP1 CALLDATASIZE SUB DUP2 ADD SWAP1 PUSH2 0x15D SWAP2 SWAP1 PUSH2 0x155E JUMP JUMPDEST PUSH2 0x3F7 JUMP JUMPDEST PUSH1 0x40 MLOAD PUSH2 0x16F SWAP2 SWAP1 PUSH2 0x1649 JUMP JUMPDEST PUSH1 0x40 MLOAD DUP1 SWAP2 SUB SWAP1 RETURN JUMPDEST PUSH2 0x180 PUSH2 0x4B4 JUMP JUMPDEST PUSH1 0x40 MLOAD PUSH2 0x18D SWAP2 SWAP1 PUSH2 0x13C1 JUMP JUMPDEST PUSH1 0x40 MLOAD DUP1 SWAP2 SUB SWAP1 RETURN JUMPDEST PUSH2 0x19E PUSH2 0x4D8 JUMP JUMPDEST PUSH1 0x40 MLOAD PUSH2 0x1AB SWAP2 SWAP1 PUSH2 0x13C1 JUMP JUMPDEST PUSH1 0x40 MLOAD DUP1 SWAP2 SUB SWAP1 RETURN JUMPDEST PUSH2 0x1BC PUSH2 0x4FC JUMP JUMPDEST PUSH1 0x40 MLOAD PUSH2 0x1C9 SWAP2 SWAP1 PUSH2 0x13C1 JUMP JUMPDEST PUSH1 0x40 MLOAD DUP1 SWAP2 SUB SWAP1 RETURN JUMPDEST PUSH2 0x1DA PUSH2 0x501 JUMP JUMPDEST PUSH1 0x40 MLOAD PUSH2 0x1E7 SWAP2 SWAP1 PUSH2 0x13C1 JUMP JUMPDEST PUSH1 0x40 MLOAD DUP1 SWAP2 SUB SWAP1 RETURN JUMPDEST PUSH2 0x1F8 PUSH2 0x525 JUMP JUMPDEST PUSH1 0x40 MLOAD PUSH2 0x205 SWAP2 SWAP1 PUSH2 0x13C1 JUMP JUMPDEST PUSH1 0x40 MLOAD DUP1 SWAP2 SUB SWAP1 RETURN JUMPDEST PUSH2 0x228 PUSH1 0x4 DUP1 CALLDATASIZE SUB DUP2 ADD SWAP1 PUSH2 0x223 SWAP2 SWAP1 PUSH2 0x1664 JUMP JUMPDEST PUSH2 0x52A JUMP JUMPDEST PUSH1 0x40 MLOAD PUSH2 0x235 SWAP2 SWAP1 PUSH2 0x1649 JUMP JUMPDEST PUSH1 0x40 MLOAD DUP1 SWAP2 SUB SWAP1 RETURN JUMPDEST PUSH2 0x246 PUSH2 0x5F0 JUMP JUMPDEST PUSH1 0x40 MLOAD PUSH2 0x253 SWAP2 SWAP1 PUSH2 0x13C1 JUMP JUMPDEST PUSH1 0x40 MLOAD DUP1 SWAP2 SUB SWAP1 RETURN JUMPDEST PUSH2 0x276 PUSH1 0x4 DUP1 CALLDATASIZE SUB DUP2 ADD SWAP1 PUSH2 0x271 SWAP2 SWAP1 PUSH2 0x1691 JUMP JUMPDEST PUSH2 0x614 JUMP JUMPDEST PUSH1 0x40 MLOAD PUSH2 0x283 SWAP2 SWAP1 PUSH2 0x1649 JUMP JUMPDEST PUSH1 0x40 MLOAD DUP1 SWAP2 SUB SWAP1 RETURN JUMPDEST PUSH2 0x2A6 PUSH1 0x4 DUP1 CALLDATASIZE SUB DUP2 ADD SWAP1 PUSH2 0x2A1 SWAP2 SWAP1 PUSH2 0x1664 JUMP JUMPDEST PUSH2 0x6CB JUMP JUMPDEST PUSH1 0x40 MLOAD PUSH2 0x2B3 SWAP2 SWAP1 PUSH2 0x1649 JUMP JUMPDEST PUSH1 0x40 MLOAD DUP1 SWAP2 SUB SWAP1 RETURN JUMPDEST PUSH2 0x2C4 PUSH2 0x791 JUMP JUMPDEST PUSH1 0x40 MLOAD PUSH2 0x2D1 SWAP2 SWAP1 PUSH2 0x13C1 JUMP JUMPDEST PUSH1 0x40 MLOAD DUP1 SWAP2 SUB SWAP1 RETURN JUMPDEST PUSH2 0x2E2 PUSH2 0x7B5 JUMP JUMPDEST PUSH1 0x40 MLOAD PUSH2 0x2EF SWAP2 SWAP1 PUSH2 0x13C1 JUMP JUMPDEST PUSH1 0x40 MLOAD DUP1 SWAP2 SUB SWAP1 RETURN JUMPDEST PUSH2 0x300 PUSH2 0x7D9 JUMP JUMPDEST PUSH1 0x40 MLOAD PUSH2 0x30D SWAP2 SWAP1 PUSH2 0x13C1 JUMP JUMPDEST PUSH1 0x40 MLOAD DUP1 SWAP2 SUB SWAP1 RETURN JUMPDEST PUSH32 0x6FB13B7E8AB1C7D191D16197C1BF7F8DC7992412E1266155B3FB3AC8B30F3ED8 DUP2 JUMP JUMPDEST PUSH2 0x342 PUSH2 0x1364 JUMP JUMPDEST PUSH1 0x0 DUP1 PUSH2 0x3D4 DUP6 PUSH1 0x0 PUSH1 0x2 DUP2 LT PUSH2 0x35C JUMPI PUSH2 0x35B PUSH2 0x16D1 JUMP JUMPDEST JUMPDEST PUSH1 0x20 MUL ADD MLOAD DUP7 PUSH1 0x1 PUSH1 0x2 DUP2 LT PUSH2 0x375 JUMPI PUSH2 0x374 PUSH2 0x16D1 JUMP JUMPDEST JUMPDEST PUSH1 0x20 MUL ADD MLOAD DUP7 PUSH1 0x0 PUSH1 0x2 DUP2 LT PUSH2 0x38E JUMPI PUSH2 0x38D PUSH2 0x16D1 JUMP JUMPDEST JUMPDEST PUSH1 0x20 MUL ADD MLOAD DUP8 PUSH1 0x1 PUSH1 0x2 DUP2 LT PUSH2 0x3A7 JUMPI PUSH2 0x3A6 PUSH2 0x16D1 JUMP JUMPDEST JUMPDEST PUSH1 0x20 MUL ADD MLOAD PUSH1 0x0 PUSH32 0xFFFFFFFFFFFFFFFFFFFFFFFFFFFFFFFFFFFFFFFFFFFFFFFFFFFFFFFEFFFFFC2F PUSH2 0x7FD JUMP JUMPDEST SWAP2 POP SWAP2 POP PUSH1 0x40 MLOAD DUP1 PUSH1 0x40 ADD PUSH1 0x40 MSTORE DUP1 DUP4 DUP2 MSTORE PUSH1 0x20 ADD DUP3 DUP2 MSTORE POP SWAP3 POP POP POP SWAP3 SWAP2 POP POP JUMP JUMPDEST PUSH2 0x3FF PUSH2 0x1364 JUMP JUMPDEST PUSH1 0x0 DUP1 PUSH2 0x491 DUP6 PUSH1 0x0 PUSH1 0x2 DUP2 LT PUSH2 0x419 JUMPI PUSH2 0x418 PUSH2 0x16D1 JUMP JUMPDEST JUMPDEST PUSH1 0x20 MUL ADD MLOAD DUP7 PUSH1 0x1 PUSH1 0x2 DUP2 LT PUSH2 0x432 JUMPI PUSH2 0x431 PUSH2 0x16D1 JUMP JUMPDEST JUMPDEST PUSH1 0x20 MUL ADD MLOAD DUP7 PUSH1 0x0 PUSH1 0x2 DUP2 LT PUSH2 0x44B JUMPI PUSH2 0x44A PUSH2 0x16D1 JUMP JUMPDEST JUMPDEST PUSH1 0x20 MUL ADD MLOAD DUP8 PUSH1 0x1 PUSH1 0x2 DUP2 LT PUSH2 0x464 JUMPI PUSH2 0x463 PUSH2 0x16D1 JUMP JUMPDEST JUMPDEST PUSH1 0x20 MUL ADD MLOAD PUSH1 0x0 PUSH32 0xFFFFFFFFFFFFFFFFFFFFFFFFFFFFFFFFFFFFFFFFFFFFFFFFFFFFFFFEFFFFFC2F PUSH2 0x890 JUMP JUMPDEST SWAP2 POP SWAP2 POP PUSH1 0x40 MLOAD DUP1 PUSH1 0x40 ADD PUSH1 0x40 MSTORE DUP1 DUP4 DUP2 MSTORE PUSH1 0x20 ADD DUP3 DUP2 MSTORE POP SWAP3 POP POP POP SWAP3 SWAP2 POP POP JUMP JUMPDEST PUSH32 0x483ADA7726A3C4655DA4FBFC0E1108A8FD17B448A68554199C47D08FFB10D4B8 DUP2 JUMP JUMPDEST PUSH32 0xD209F7C16CDB6D3559BEA88C7D920F8FF077406C615DA8ADFECDEEF604CB40A6 DUP2 JUMP JUMPDEST PUSH1 0x7 DUP2 JUMP JUMPDEST PUSH32 0x2E1EB77BD89505113819600B395E0475D102C4788A3280A583D9D82625ED8533 DUP2 JUMP JUMPDEST PUSH1 0x0 DUP2 JUMP JUMPDEST PUSH2 0x532 PUSH2 0x1364 JUMP JUMPDEST PUSH1 0x0 DUP1 PUSH2 0x5CE PUSH32 0xFFFFFFFFFFFFFFFFFFFFFFFFFFFFFFFEBAAEDCE6AF48A03BBFD25E8CD0364141 DUP6 PUSH2 0x564 SWAP2 SWAP1 PUSH2 0x172F JUMP JUMPDEST PUSH32 0x7CD9EE748A0B26773D9D29361F75594964106D13E1CAD67CFE2DF503EE3E90E PUSH32 0xD209F7C16CDB6D3559BEA88C7D920F8FF077406C615DA8ADFECDEEF604CB40A6 PUSH1 0x0 PUSH32 0xFFFFFFFFFFFFFFFFFFFFFFFFFFFFFFFFFFFFFFFFFFFFFFFFFFFFFFFEFFFFFC2F PUSH2 0x8C4 JUMP JUMPDEST SWAP2 POP SWAP2 POP PUSH1 0x40 MLOAD DUP1 PUSH1 0x40 ADD PUSH1 0x40 MSTORE DUP1 DUP4 DUP2 MSTORE PUSH1 0x20 ADD DUP3 DUP2 MSTORE POP SWAP3 POP POP POP SWAP2 SWAP1 POP JUMP JUMPDEST PUSH32 0xFFFFFFFFFFFFFFFFFFFFFFFFFFFFFFFEBAAEDCE6AF48A03BBFD25E8CD0364141 DUP2 JUMP JUMPDEST PUSH2 0x61C PUSH2 0x1364 JUMP JUMPDEST PUSH1 0x0 DUP1 PUSH2 0x6A8 PUSH32 0xFFFFFFFFFFFFFFFFFFFFFFFFFFFFFFFEBAAEDCE6AF48A03BBFD25E8CD0364141 DUP6 PUSH2 0x64E SWAP2 SWAP1 PUSH2 0x172F JUMP JUMPDEST DUP7 PUSH1 0x0 PUSH1 0x2 DUP2 LT PUSH2 0x662 JUMPI PUSH2 0x661 PUSH2 0x16D1 JUMP JUMPDEST JUMPDEST PUSH1 0x20 MUL ADD MLOAD DUP8 PUSH1 0x1 PUSH1 0x2 DUP2 LT PUSH2 0x67B JUMPI PUSH2 0x67A PUSH2 0x16D1 JUMP JUMPDEST JUMPDEST PUSH1 0x20 MUL ADD MLOAD PUSH1 0x0 PUSH32 0xFFFFFFFFFFFFFFFFFFFFFFFFFFFFFFFFFFFFFFFFFFFFFFFFFFFFFFFEFFFFFC2F PUSH2 0x8C4 JUMP JUMPDEST SWAP2 POP SWAP2 POP PUSH1 0x40 MLOAD DUP1 PUSH1 0x40 ADD PUSH1 0x40 MSTORE DUP1 DUP4 DUP2 MSTORE PUSH1 0x20 ADD DUP3 DUP2 MSTORE POP SWAP3 POP POP POP SWAP3 SWAP2 POP POP JUMP JUMPDEST PUSH2 0x6D3 PUSH2 0x1364 JUMP JUMPDEST PUSH1 0x0 DUP1 PUSH2 0x76F PUSH32 0xFFFFFFFFFFFFFFFFFFFFFFFFFFFFFFFEBAAEDCE6AF48A03BBFD25E8CD0364141 DUP6 PUSH2 0x705 SWAP2 SWAP1 PUSH2 0x172F JUMP JUMPDEST PUSH32 0x6FB13B7E8AB1C7D191D16197C1BF7F8DC7992412E1266155B3FB3AC8B30F3ED8 PUSH32 0x2E1EB77BD89505113819600B395E0475D102C4788A3280A583D9D82625ED8533 PUSH1 0x0 PUSH32 0xFFFFFFFFFFFFFFFFFFFFFFFFFFFFFFFFFFFFFFFFFFFFFFFFFFFFFFFEFFFFFC2F PUSH2 0x8C4 JUMP JUMPDEST SWAP2 POP SWAP2 POP PUSH1 0x40 MLOAD DUP1 PUSH1 0x40 ADD PUSH1 0x40 MSTORE DUP1 DUP4 DUP2 MSTORE PUSH1 0x20 ADD DUP3 DUP2 MSTORE POP SWAP3 POP POP POP SWAP2 SWAP1 POP JUMP JUMPDEST PUSH32 0x7CD9EE748A0B26773D9D29361F75594964106D13E1CAD67CFE2DF503EE3E90E DUP2 JUMP JUMPDEST PUSH32 0x79BE667EF9DCBBAC55A06295CE870B07029BFCDB2DCE28D959F2815B16F81798 DUP2 JUMP JUMPDEST PUSH32 0xFFFFFFFFFFFFFFFFFFFFFFFFFFFFFFFFFFFFFFFFFFFFFFFFFFFFFFFEFFFFFC2F DUP2 JUMP JUMPDEST PUSH1 0x0 DUP1 PUSH1 0x0 DUP1 PUSH1 0x0 DUP9 DUP12 SUB PUSH2 0x853 JUMPI PUSH1 0x0 DUP7 DUP1 PUSH2 0x81D JUMPI PUSH2 0x81C PUSH2 0x1700 JUMP JUMPDEST JUMPDEST DUP10 DUP13 ADDMOD SUB PUSH2 0x834 JUMPI PUSH1 0x0 DUP1 SWAP5 POP SWAP5 POP POP POP POP PUSH2 0x885 JUMP JUMPDEST PUSH2 0x842 DUP12 DUP12 PUSH1 0x1 DUP11 DUP11 PUSH2 0x8FE JUMP JUMPDEST DUP1 SWAP4 POP DUP2 SWAP5 POP DUP3 SWAP6 POP POP POP POP PUSH2 0x871 JUMP JUMPDEST PUSH2 0x864 DUP12 DUP12 PUSH1 0x1 DUP13 DUP13 PUSH1 0x1 DUP13 PUSH2 0xABC JUMP JUMPDEST DUP1 SWAP4 POP DUP2 SWAP5 POP DUP3 SWAP6 POP POP POP POP JUMPDEST PUSH2 0x87D DUP4 DUP4 DUP4 DUP10 PUSH2 0x113B JUMP JUMPDEST SWAP5 POP SWAP5 POP POP POP POP JUMPDEST SWAP7 POP SWAP7 SWAP5 POP POP POP POP POP JUMP JUMPDEST PUSH1 0x0 DUP1 PUSH1 0x0 DUP1 PUSH2 0x8A1 DUP9 DUP9 DUP8 PUSH2 0x11B2 JUMP JUMPDEST SWAP2 POP SWAP2 POP PUSH2 0x8B3 DUP11 DUP11 DUP5 DUP5 DUP11 DUP11 PUSH2 0x7FD JUMP JUMPDEST SWAP4 POP SWAP4 POP POP POP SWAP7 POP SWAP7 SWAP5 POP POP POP POP POP JUMP JUMPDEST PUSH1 0x0 DUP1 PUSH1 0x0 DUP1 PUSH1 0x0 PUSH2 0x8DB DUP11 DUP11 DUP11 PUSH1 0x1 DUP12 DUP12 PUSH2 0x11D9 JUMP JUMPDEST SWAP3 POP SWAP3 POP SWAP3 POP PUSH2 0x8ED DUP4 DUP4 DUP4 DUP10 PUSH2 0x113B JUMP JUMPDEST SWAP5 POP SWAP5 POP POP POP POP SWAP6 POP SWAP6 SWAP4 POP POP POP POP JUMP JUMPDEST PUSH1 0x0 DUP1 PUSH1 0x0 DUP1 DUP7 SUB PUSH2 0x918 JUMPI DUP8 DUP8 DUP8 SWAP3 POP SWAP3 POP SWAP3 POP PUSH2 0xAB1 JUMP JUMPDEST PUSH1 0x0 DUP5 DUP1 PUSH2 0x929 JUMPI PUSH2 0x928 PUSH2 0x1700 JUMP JUMPDEST JUMPDEST DUP10 DUP11 MULMOD SWAP1 POP PUSH1 0x0 DUP6 DUP1 PUSH2 0x93F JUMPI PUSH2 0x93E PUSH2 0x1700 JUMP JUMPDEST JUMPDEST DUP10 DUP11 MULMOD SWAP1 POP PUSH1 0x0 DUP7 DUP1 PUSH2 0x955 JUMPI PUSH2 0x954 PUSH2 0x1700 JUMP JUMPDEST JUMPDEST DUP10 DUP11 MULMOD SWAP1 POP PUSH1 0x0 DUP8 DUP1 PUSH2 0x96B JUMPI PUSH2 0x96A PUSH2 0x1700 JUMP JUMPDEST JUMPDEST DUP9 DUP1 PUSH2 0x97A JUMPI PUSH2 0x979 PUSH2 0x1700 JUMP JUMPDEST JUMPDEST DUP5 DUP15 MULMOD PUSH1 0x4 MULMOD SWAP1 POP PUSH1 0x0 DUP9 DUP1 PUSH2 0x993 JUMPI PUSH2 0x992 PUSH2 0x1700 JUMP JUMPDEST JUMPDEST DUP10 DUP1 PUSH2 0x9A2 JUMPI PUSH2 0x9A1 PUSH2 0x1700 JUMP JUMPDEST JUMPDEST DUP11 DUP1 PUSH2 0x9B1 JUMPI PUSH2 0x9B0 PUSH2 0x1700 JUMP JUMPDEST JUMPDEST DUP6 DUP7 MULMOD DUP13 MULMOD DUP11 DUP1 PUSH2 0x9C5 JUMPI PUSH2 0x9C4 PUSH2 0x1700 JUMP JUMPDEST JUMPDEST DUP8 PUSH1 0x3 MULMOD ADDMOD SWAP1 POP DUP9 DUP1 PUSH2 0x9DB JUMPI PUSH2 0x9DA PUSH2 0x1700 JUMP JUMPDEST JUMPDEST DUP10 DUP1 PUSH2 0x9EA JUMPI PUSH2 0x9E9 PUSH2 0x1700 JUMP JUMPDEST JUMPDEST DUP4 DUP5 ADDMOD DUP11 PUSH2 0x9F8 SWAP2 SWAP1 PUSH2 0x178F JUMP JUMPDEST DUP11 DUP1 PUSH2 0xA07 JUMPI PUSH2 0xA06 PUSH2 0x1700 JUMP JUMPDEST JUMPDEST DUP4 DUP5 MULMOD ADDMOD SWAP5 POP DUP9 DUP1 PUSH2 0xA1C JUMPI PUSH2 0xA1B PUSH2 0x1700 JUMP JUMPDEST JUMPDEST DUP10 DUP1 PUSH2 0xA2B JUMPI PUSH2 0xA2A PUSH2 0x1700 JUMP JUMPDEST JUMPDEST DUP11 DUP1 PUSH2 0xA3A JUMPI PUSH2 0xA39 PUSH2 0x1700 JUMP JUMPDEST JUMPDEST DUP7 DUP8 MULMOD PUSH1 0x8 MULMOD DUP11 PUSH2 0xA4B SWAP2 SWAP1 PUSH2 0x178F JUMP JUMPDEST DUP11 DUP1 PUSH2 0xA5A JUMPI PUSH2 0xA59 PUSH2 0x1700 JUMP JUMPDEST JUMPDEST DUP12 DUP1 PUSH2 0xA69 JUMPI PUSH2 0xA68 PUSH2 0x1700 JUMP JUMPDEST JUMPDEST DUP9 DUP14 PUSH2 0xA75 SWAP2 SWAP1 PUSH2 0x178F JUMP JUMPDEST DUP7 ADDMOD DUP5 MULMOD ADDMOD SWAP4 POP DUP9 DUP1 PUSH2 0xA8B JUMPI PUSH2 0xA8A PUSH2 0x1700 JUMP JUMPDEST JUMPDEST DUP10 DUP1 PUSH2 0xA9A JUMPI PUSH2 0xA99 PUSH2 0x1700 JUMP JUMPDEST JUMPDEST DUP13 DUP15 MULMOD PUSH1 0x2 MULMOD SWAP3 POP DUP5 DUP5 DUP5 SWAP8 POP SWAP8 POP SWAP8 POP POP POP POP POP POP JUMPDEST SWAP6 POP SWAP6 POP SWAP6 SWAP3 POP POP POP JUMP JUMPDEST PUSH1 0x0 DUP1 PUSH1 0x0 DUP1 DUP11 EQ DUP1 ISZERO PUSH2 0xAD0 JUMPI POP PUSH1 0x0 DUP10 EQ JUMPDEST ISZERO PUSH2 0xAE3 JUMPI DUP7 DUP7 DUP7 SWAP3 POP SWAP3 POP SWAP3 POP PUSH2 0x112E JUMP JUMPDEST PUSH1 0x0 DUP8 EQ DUP1 ISZERO PUSH2 0xAF3 JUMPI POP PUSH1 0x0 DUP7 EQ JUMPDEST ISZERO PUSH2 0xB06 JUMPI DUP10 DUP10 DUP10 SWAP3 POP SWAP3 POP SWAP3 POP PUSH2 0x112E JUMP JUMPDEST PUSH2 0xB0E PUSH2 0x1386 JUMP JUMPDEST DUP5 DUP1 PUSH2 0xB1D JUMPI PUSH2 0xB1C PUSH2 0x1700 JUMP JUMPDEST JUMPDEST DUP10 DUP11 MULMOD DUP2 PUSH1 0x0 PUSH1 0x4 DUP2 LT PUSH2 0xB34 JUMPI PUSH2 0xB33 PUSH2 0x16D1 JUMP JUMPDEST JUMPDEST PUSH1 0x20 MUL ADD DUP2 DUP2 MSTORE POP POP DUP5 DUP1 PUSH2 0xB4C JUMPI PUSH2 0xB4B PUSH2 0x1700 JUMP JUMPDEST JUMPDEST DUP2 PUSH1 0x0 PUSH1 0x4 DUP2 LT PUSH2 0xB60 JUMPI PUSH2 0xB5F PUSH2 0x16D1 JUMP JUMPDEST JUMPDEST PUSH1 0x20 MUL ADD MLOAD DUP11 MULMOD DUP2 PUSH1 0x1 PUSH1 0x4 DUP2 LT PUSH2 0xB7B JUMPI PUSH2 0xB7A PUSH2 0x16D1 JUMP JUMPDEST JUMPDEST PUSH1 0x20 MUL ADD DUP2 DUP2 MSTORE POP POP DUP5 DUP1 PUSH2 0xB93 JUMPI PUSH2 0xB92 PUSH2 0x1700 JUMP JUMPDEST JUMPDEST DUP7 DUP8 MULMOD DUP2 PUSH1 0x2 PUSH1 0x4 DUP2 LT PUSH2 0xBAA JUMPI PUSH2 0xBA9 PUSH2 0x16D1 JUMP JUMPDEST JUMPDEST PUSH1 0x20 MUL ADD DUP2 DUP2 MSTORE POP POP DUP5 DUP1 PUSH2 0xBC2 JUMPI PUSH2 0xBC1 PUSH2 0x1700 JUMP JUMPDEST JUMPDEST DUP2 PUSH1 0x2 PUSH1 0x4 DUP2 LT PUSH2 0xBD6 JUMPI PUSH2 0xBD5 PUSH2 0x16D1 JUMP JUMPDEST JUMPDEST PUSH1 0x20 MUL ADD MLOAD DUP8 MULMOD DUP2 PUSH1 0x3 PUSH1 0x4 DUP2 LT PUSH2 0xBF1 JUMPI PUSH2 0xBF0 PUSH2 0x16D1 JUMP JUMPDEST JUMPDEST PUSH1 0x20 MUL ADD DUP2 DUP2 MSTORE POP POP PUSH1 0x40 MLOAD DUP1 PUSH1 0x80 ADD PUSH1 0x40 MSTORE DUP1 DUP7 DUP1 PUSH2 0xC14 JUMPI PUSH2 0xC13 PUSH2 0x1700 JUMP JUMPDEST JUMPDEST DUP4 PUSH1 0x2 PUSH1 0x4 DUP2 LT PUSH2 0xC28 JUMPI PUSH2 0xC27 PUSH2 0x16D1 JUMP JUMPDEST JUMPDEST PUSH1 0x20 MUL ADD MLOAD DUP15 MULMOD DUP2 MSTORE PUSH1 0x20 ADD DUP7 DUP1 PUSH2 0xC43 JUMPI PUSH2 0xC42 PUSH2 0x1700 JUMP JUMPDEST JUMPDEST DUP4 PUSH1 0x3 PUSH1 0x4 DUP2 LT PUSH2 0xC57 JUMPI PUSH2 0xC56 PUSH2 0x16D1 JUMP JUMPDEST JUMPDEST PUSH1 0x20 MUL ADD MLOAD DUP14 MULMOD DUP2 MSTORE PUSH1 0x20 ADD DUP7 DUP1 PUSH2 0xC72 JUMPI PUSH2 0xC71 PUSH2 0x1700 JUMP JUMPDEST JUMPDEST DUP4 PUSH1 0x0 PUSH1 0x4 DUP2 LT PUSH2 0xC86 JUMPI PUSH2 0xC85 PUSH2 0x16D1 JUMP JUMPDEST JUMPDEST PUSH1 0x20 MUL ADD MLOAD DUP12 MULMOD DUP2 MSTORE PUSH1 0x20 ADD DUP7 DUP1 PUSH2 0xCA1 JUMPI PUSH2 0xCA0 PUSH2 0x1700 JUMP JUMPDEST JUMPDEST DUP4 PUSH1 0x1 PUSH1 0x4 DUP2 LT PUSH2 0xCB5 JUMPI PUSH2 0xCB4 PUSH2 0x16D1 JUMP JUMPDEST JUMPDEST PUSH1 0x20 MUL ADD MLOAD DUP11 MULMOD DUP2 MSTORE POP SWAP1 POP DUP1 PUSH1 0x2 PUSH1 0x4 DUP2 LT PUSH2 0xCD5 JUMPI PUSH2 0xCD4 PUSH2 0x16D1 JUMP JUMPDEST JUMPDEST PUSH1 0x20 MUL ADD MLOAD DUP2 PUSH1 0x0 PUSH1 0x4 DUP2 LT PUSH2 0xCEE JUMPI PUSH2 0xCED PUSH2 0x16D1 JUMP JUMPDEST JUMPDEST PUSH1 0x20 MUL ADD MLOAD EQ ISZERO DUP1 PUSH2 0xD30 JUMPI POP DUP1 PUSH1 0x3 PUSH1 0x4 DUP2 LT PUSH2 0xD0F JUMPI PUSH2 0xD0E PUSH2 0x16D1 JUMP JUMPDEST JUMPDEST PUSH1 0x20 MUL ADD MLOAD DUP2 PUSH1 0x1 PUSH1 0x4 DUP2 LT PUSH2 0xD28 JUMPI PUSH2 0xD27 PUSH2 0x16D1 JUMP JUMPDEST JUMPDEST PUSH1 0x20 MUL ADD MLOAD EQ ISZERO JUMPDEST PUSH2 0xD6F JUMPI PUSH1 0x40 MLOAD PUSH32 0x8C379A000000000000000000000000000000000000000000000000000000000 DUP2 MSTORE PUSH1 0x4 ADD PUSH2 0xD66 SWAP1 PUSH2 0x1820 JUMP JUMPDEST PUSH1 0x40 MLOAD DUP1 SWAP2 SUB SWAP1 REVERT JUMPDEST PUSH2 0xD77 PUSH2 0x1386 JUMP JUMPDEST DUP6 DUP1 PUSH2 0xD86 JUMPI PUSH2 0xD85 PUSH2 0x1700 JUMP JUMPDEST JUMPDEST DUP3 PUSH1 0x0 PUSH1 0x4 DUP2 LT PUSH2 0xD9A JUMPI PUSH2 0xD99 PUSH2 0x16D1 JUMP JUMPDEST JUMPDEST PUSH1 0x20 MUL ADD MLOAD DUP8 PUSH2 0xDAA SWAP2 SWAP1 PUSH2 0x178F JUMP JUMPDEST DUP4 PUSH1 0x2 PUSH1 0x4 DUP2 LT PUSH2 0xDBE JUMPI PUSH2 0xDBD PUSH2 0x16D1 JUMP JUMPDEST JUMPDEST PUSH1 0x20 MUL ADD MLOAD ADDMOD DUP2 PUSH1 0x0 PUSH1 0x4 DUP2 LT PUSH2 0xDD8 JUMPI PUSH2 0xDD7 PUSH2 0x16D1 JUMP JUMPDEST JUMPDEST PUSH1 0x20 MUL ADD DUP2 DUP2 MSTORE POP POP DUP6 DUP1 PUSH2 0xDF0 JUMPI PUSH2 0xDEF PUSH2 0x1700 JUMP JUMPDEST JUMPDEST DUP3 PUSH1 0x1 PUSH1 0x4 DUP2 LT PUSH2 0xE04 JUMPI PUSH2 0xE03 PUSH2 0x16D1 JUMP JUMPDEST JUMPDEST PUSH1 0x20 MUL ADD MLOAD DUP8 PUSH2 0xE14 SWAP2 SWAP1 PUSH2 0x178F JUMP JUMPDEST DUP4 PUSH1 0x3 PUSH1 0x4 DUP2 LT PUSH2 0xE28 JUMPI PUSH2 0xE27 PUSH2 0x16D1 JUMP JUMPDEST JUMPDEST PUSH1 0x20 MUL ADD MLOAD ADDMOD DUP2 PUSH1 0x1 PUSH1 0x4 DUP2 LT PUSH2 0xE42 JUMPI PUSH2 0xE41 PUSH2 0x16D1 JUMP JUMPDEST JUMPDEST PUSH1 0x20 MUL ADD DUP2 DUP2 MSTORE POP POP DUP6 DUP1 PUSH2 0xE5A JUMPI PUSH2 0xE59 PUSH2 0x1700 JUMP JUMPDEST JUMPDEST DUP2 PUSH1 0x0 PUSH1 0x4 DUP2 LT PUSH2 0xE6E JUMPI PUSH2 0xE6D PUSH2 0x16D1 JUMP JUMPDEST JUMPDEST PUSH1 0x20 MUL ADD MLOAD DUP3 PUSH1 0x0 PUSH1 0x4 DUP2 LT PUSH2 0xE87 JUMPI PUSH2 0xE86 PUSH2 0x16D1 JUMP JUMPDEST JUMPDEST PUSH1 0x20 MUL ADD MLOAD MULMOD DUP2 PUSH1 0x2 PUSH1 0x4 DUP2 LT PUSH2 0xEA1 JUMPI PUSH2 0xEA0 PUSH2 0x16D1 JUMP JUMPDEST JUMPDEST PUSH1 0x20 MUL ADD DUP2 DUP2 MSTORE POP POP DUP6 DUP1 PUSH2 0xEB9 JUMPI PUSH2 0xEB8 PUSH2 0x1700 JUMP JUMPDEST JUMPDEST DUP2 PUSH1 0x0 PUSH1 0x4 DUP2 LT PUSH2 0xECD JUMPI PUSH2 0xECC PUSH2 0x16D1 JUMP JUMPDEST JUMPDEST PUSH1 0x20 MUL ADD MLOAD DUP3 PUSH1 0x2 PUSH1 0x4 DUP2 LT PUSH2 0xEE6 JUMPI PUSH2 0xEE5 PUSH2 0x16D1 JUMP JUMPDEST JUMPDEST PUSH1 0x20 MUL ADD MLOAD MULMOD DUP2 PUSH1 0x3 PUSH1 0x4 DUP2 LT PUSH2 0xF00 JUMPI PUSH2 0xEFF PUSH2 0x16D1 JUMP JUMPDEST JUMPDEST PUSH1 0x20 MUL ADD DUP2 DUP2 MSTORE POP POP PUSH1 0x0 DUP7 DUP1 PUSH2 0xF1A JUMPI PUSH2 0xF19 PUSH2 0x1700 JUMP JUMPDEST JUMPDEST DUP3 PUSH1 0x3 PUSH1 0x4 DUP2 LT PUSH2 0xF2E JUMPI PUSH2 0xF2D PUSH2 0x16D1 JUMP JUMPDEST JUMPDEST PUSH1 0x20 MUL ADD MLOAD DUP9 PUSH2 0xF3E SWAP2 SWAP1 PUSH2 0x178F JUMP JUMPDEST DUP9 DUP1 PUSH2 0xF4D JUMPI PUSH2 0xF4C PUSH2 0x1700 JUMP JUMPDEST JUMPDEST DUP5 PUSH1 0x1 PUSH1 0x4 DUP2 LT PUSH2 0xF61 JUMPI PUSH2 0xF60 PUSH2 0x16D1 JUMP JUMPDEST JUMPDEST PUSH1 0x20 MUL ADD MLOAD DUP6 PUSH1 0x1 PUSH1 0x4 DUP2 LT PUSH2 0xF7A JUMPI PUSH2 0xF79 PUSH2 0x16D1 JUMP JUMPDEST JUMPDEST PUSH1 0x20 MUL ADD MLOAD MULMOD ADDMOD SWAP1 POP DUP7 DUP1 PUSH2 0xF92 JUMPI PUSH2 0xF91 PUSH2 0x1700 JUMP JUMPDEST JUMPDEST DUP8 DUP1 PUSH2 0xFA1 JUMPI PUSH2 0xFA0 PUSH2 0x1700 JUMP JUMPDEST JUMPDEST DUP9 DUP1 PUSH2 0xFB0 JUMPI PUSH2 0xFAF PUSH2 0x1700 JUMP JUMPDEST JUMPDEST DUP5 PUSH1 0x2 PUSH1 0x4 DUP2 LT PUSH2 0xFC4 JUMPI PUSH2 0xFC3 PUSH2 0x16D1 JUMP JUMPDEST JUMPDEST PUSH1 0x20 MUL ADD MLOAD DUP7 PUSH1 0x0 PUSH1 0x4 DUP2 LT PUSH2 0xFDD JUMPI PUSH2 0xFDC PUSH2 0x16D1 JUMP JUMPDEST JUMPDEST PUSH1 0x20 MUL ADD MLOAD MULMOD PUSH1 0x2 MULMOD DUP9 PUSH2 0xFF1 SWAP2 SWAP1 PUSH2 0x178F JUMP JUMPDEST DUP3 ADDMOD SWAP1 POP PUSH1 0x0 DUP8 DUP1 PUSH2 0x1006 JUMPI PUSH2 0x1005 PUSH2 0x1700 JUMP JUMPDEST JUMPDEST DUP9 DUP1 PUSH2 0x1015 JUMPI PUSH2 0x1014 PUSH2 0x1700 JUMP JUMPDEST JUMPDEST DUP4 DUP11 PUSH2 0x1021 SWAP2 SWAP1 PUSH2 0x178F JUMP JUMPDEST DUP11 DUP1 PUSH2 0x1030 JUMPI PUSH2 0x102F PUSH2 0x1700 JUMP JUMPDEST JUMPDEST DUP7 PUSH1 0x2 PUSH1 0x4 DUP2 LT PUSH2 0x1044 JUMPI PUSH2 0x1043 PUSH2 0x16D1 JUMP JUMPDEST JUMPDEST PUSH1 0x20 MUL ADD MLOAD DUP9 PUSH1 0x0 PUSH1 0x4 DUP2 LT PUSH2 0x105D JUMPI PUSH2 0x105C PUSH2 0x16D1 JUMP JUMPDEST JUMPDEST PUSH1 0x20 MUL ADD MLOAD MULMOD ADDMOD DUP5 PUSH1 0x1 PUSH1 0x4 DUP2 LT PUSH2 0x1078 JUMPI PUSH2 0x1077 PUSH2 0x16D1 JUMP JUMPDEST JUMPDEST PUSH1 0x20 MUL ADD MLOAD MULMOD SWAP1 POP DUP8 DUP1 PUSH2 0x108F JUMPI PUSH2 0x108E PUSH2 0x1700 JUMP JUMPDEST JUMPDEST DUP9 DUP1 PUSH2 0x109E JUMPI PUSH2 0x109D PUSH2 0x1700 JUMP JUMPDEST JUMPDEST DUP5 PUSH1 0x3 PUSH1 0x4 DUP2 LT PUSH2 0x10B2 JUMPI PUSH2 0x10B1 PUSH2 0x16D1 JUMP JUMPDEST JUMPDEST PUSH1 0x20 MUL ADD MLOAD DUP7 PUSH1 0x1 PUSH1 0x4 DUP2 LT PUSH2 0x10CB JUMPI PUSH2 0x10CA PUSH2 0x16D1 JUMP JUMPDEST JUMPDEST PUSH1 0x20 MUL ADD MLOAD MULMOD DUP10 PUSH2 0x10DC SWAP2 SWAP1 PUSH2 0x178F JUMP JUMPDEST DUP3 ADDMOD SWAP1 POP PUSH1 0x0 DUP9 DUP1 PUSH2 0x10F1 JUMPI PUSH2 0x10F0 PUSH2 0x1700 JUMP JUMPDEST JUMPDEST DUP10 DUP1 PUSH2 0x1100 JUMPI PUSH2 0x10FF PUSH2 0x1700 JUMP JUMPDEST JUMPDEST DUP12 DUP16 MULMOD DUP6 PUSH1 0x0 PUSH1 0x4 DUP2 LT PUSH2 0x1117 JUMPI PUSH2 0x1116 PUSH2 0x16D1 JUMP JUMPDEST JUMPDEST PUSH1 0x20 MUL ADD MLOAD MULMOD SWAP1 POP DUP3 DUP3 DUP3 SWAP8 POP SWAP8 POP SWAP8 POP POP POP POP POP POP JUMPDEST SWAP8 POP SWAP8 POP SWAP8 SWAP5 POP POP POP POP POP JUMP JUMPDEST PUSH1 0x0 DUP1 PUSH1 0x0 PUSH2 0x114A DUP6 DUP6 PUSH2 0x1278 JUMP JUMPDEST SWAP1 POP PUSH1 0x0 DUP5 DUP1 PUSH2 0x115D JUMPI PUSH2 0x115C PUSH2 0x1700 JUMP JUMPDEST JUMPDEST DUP3 DUP4 MULMOD SWAP1 POP PUSH1 0x0 DUP6 DUP1 PUSH2 0x1173 JUMPI PUSH2 0x1172 PUSH2 0x1700 JUMP JUMPDEST JUMPDEST DUP3 DUP11 MULMOD SWAP1 POP PUSH1 0x0 DUP7 DUP1 PUSH2 0x1189 JUMPI PUSH2 0x1188 PUSH2 0x1700 JUMP JUMPDEST JUMPDEST DUP8 DUP1 PUSH2 0x1198 JUMPI PUSH2 0x1197 PUSH2 0x1700 JUMP JUMPDEST JUMPDEST DUP5 DUP7 MULMOD DUP11 MULMOD SWAP1 POP DUP2 DUP2 SWAP6 POP SWAP6 POP POP POP POP POP SWAP5 POP SWAP5 SWAP3 POP POP POP JUMP JUMPDEST PUSH1 0x0 DUP1 DUP5 DUP4 DUP6 DUP6 PUSH2 0x11C3 SWAP2 SWAP1 PUSH2 0x178F JUMP JUMPDEST PUSH2 0x11CD SWAP2 SWAP1 PUSH2 0x172F JUMP JUMPDEST SWAP2 POP SWAP2 POP SWAP4 POP SWAP4 SWAP2 POP POP JUMP JUMPDEST PUSH1 0x0 DUP1 PUSH1 0x0 DUP1 DUP10 SUB PUSH2 0x11F3 JUMPI DUP8 DUP8 DUP8 SWAP3 POP SWAP3 POP SWAP3 POP PUSH2 0x126C JUMP JUMPDEST PUSH1 0x0 DUP10 SWAP1 POP PUSH1 0x0 DUP1 PUSH1 0x0 PUSH1 0x1 SWAP1 POP JUMPDEST PUSH1 0x0 DUP5 EQ PUSH2 0x125E JUMPI PUSH1 0x0 PUSH1 0x1 DUP6 AND EQ PUSH2 0x1231 JUMPI PUSH2 0x1224 DUP4 DUP4 DUP4 DUP16 DUP16 DUP16 DUP15 PUSH2 0xABC JUMP JUMPDEST DUP1 SWAP4 POP DUP2 SWAP5 POP DUP3 SWAP6 POP POP POP POP JUMPDEST PUSH1 0x2 DUP5 PUSH2 0x123E SWAP2 SWAP1 PUSH2 0x1840 JUMP JUMPDEST SWAP4 POP PUSH2 0x124D DUP13 DUP13 DUP13 DUP13 DUP13 PUSH2 0x8FE JUMP JUMPDEST DUP1 SWAP13 POP DUP2 SWAP14 POP DUP3 SWAP15 POP POP POP POP PUSH2 0x1202 JUMP JUMPDEST DUP3 DUP3 DUP3 SWAP7 POP SWAP7 POP SWAP7 POP POP POP POP POP JUMPDEST SWAP7 POP SWAP7 POP SWAP7 SWAP4 POP POP POP POP JUMP JUMPDEST PUSH1 0x0 DUP1 DUP4 EQ ISZERO DUP1 ISZERO PUSH2 0x128A JUMPI POP DUP2 DUP4 EQ ISZERO JUMPDEST DUP1 ISZERO PUSH2 0x1297 JUMPI POP PUSH1 0x0 DUP3 EQ ISZERO JUMPDEST PUSH2 0x12D6 JUMPI PUSH1 0x40 MLOAD PUSH32 0x8C379A000000000000000000000000000000000000000000000000000000000 DUP2 MSTORE PUSH1 0x4 ADD PUSH2 0x12CD SWAP1 PUSH2 0x18BD JUMP JUMPDEST PUSH1 0x40 MLOAD DUP1 SWAP2 SUB SWAP1 REVERT JUMPDEST PUSH1 0x0 DUP1 PUSH1 0x1 SWAP1 POP PUSH1 0x0 DUP5 SWAP1 POP PUSH1 0x0 JUMPDEST PUSH1 0x0 DUP8 EQ PUSH2 0x1357 JUMPI DUP7 DUP3 PUSH2 0x12F9 SWAP2 SWAP1 PUSH2 0x1840 JUMP JUMPDEST SWAP1 POP DUP3 DUP7 DUP1 PUSH2 0x130B JUMPI PUSH2 0x130A PUSH2 0x1700 JUMP JUMPDEST JUMPDEST DUP8 DUP1 PUSH2 0x131A JUMPI PUSH2 0x1319 PUSH2 0x1700 JUMP JUMPDEST JUMPDEST DUP6 DUP5 MULMOD DUP9 PUSH2 0x1328 SWAP2 SWAP1 PUSH2 0x178F JUMP JUMPDEST DUP7 ADDMOD DUP1 SWAP5 POP DUP2 SWAP6 POP POP POP DUP7 DUP8 DUP3 PUSH2 0x133F SWAP2 SWAP1 PUSH2 0x18DD JUMP JUMPDEST DUP4 PUSH2 0x134A SWAP2 SWAP1 PUSH2 0x178F JUMP JUMPDEST DUP1 SWAP9 POP DUP2 SWAP4 POP POP POP PUSH2 0x12E5 JUMP JUMPDEST DUP4 SWAP5 POP POP POP POP POP SWAP3 SWAP2 POP POP JUMP JUMPDEST PUSH1 0x40 MLOAD DUP1 PUSH1 0x40 ADD PUSH1 0x40 MSTORE DUP1 PUSH1 0x2 SWAP1 PUSH1 0x20 DUP3 MUL DUP1 CALLDATASIZE DUP4 CALLDATACOPY DUP1 DUP3 ADD SWAP2 POP POP SWAP1 POP POP SWAP1 JUMP JUMPDEST PUSH1 0x40 MLOAD DUP1 PUSH1 0x80 ADD PUSH1 0x40 MSTORE DUP1 PUSH1 0x4 SWAP1 PUSH1 0x20 DUP3 MUL DUP1 CALLDATASIZE DUP4 CALLDATACOPY DUP1 DUP3 ADD SWAP2 POP POP SWAP1 POP POP SWAP1 JUMP JUMPDEST PUSH1 0x0 DUP2 SWAP1 POP SWAP2 SWAP1 POP JUMP JUMPDEST PUSH2 0x13BB DUP2 PUSH2 0x13A8 JUMP JUMPDEST DUP3 MSTORE POP POP JUMP JUMPDEST PUSH1 0x0 PUSH1 0x20 DUP3 ADD SWAP1 POP PUSH2 0x13D6 PUSH1 0x0 DUP4 ADD DUP5 PUSH2 0x13B2 JUMP JUMPDEST SWAP3 SWAP2 POP POP JUMP JUMPDEST PUSH1 0x0 PUSH1 0x40 MLOAD SWAP1 POP SWAP1 JUMP JUMPDEST PUSH1 0x0 DUP1 REVERT JUMPDEST PUSH1 0x0 DUP1 REVERT JUMPDEST PUSH1 0x0 PUSH1 0x1F NOT PUSH1 0x1F DUP4 ADD AND SWAP1 POP SWAP2 SWAP1 POP JUMP JUMPDEST PUSH32 0x4E487B7100000000000000000000000000000000000000000000000000000000 PUSH1 0x0 MSTORE PUSH1 0x41 PUSH1 0x4 MSTORE PUSH1 0x24 PUSH1 0x0 REVERT JUMPDEST PUSH2 0x1439 DUP3 PUSH2 0x13F0 JUMP JUMPDEST DUP2 ADD DUP2 DUP2 LT PUSH8 0xFFFFFFFFFFFFFFFF DUP3 GT OR ISZERO PUSH2 0x1458 JUMPI PUSH2 0x1457 PUSH2 0x1401 JUMP JUMPDEST JUMPDEST DUP1 PUSH1 0x40 MSTORE POP POP POP JUMP JUMPDEST PUSH1 0x0 PUSH2 0x146B PUSH2 0x13DC JUMP JUMPDEST SWAP1 POP PUSH2 0x1477 DUP3 DUP3 PUSH2 0x1430 JUMP JUMPDEST SWAP2 SWAP1 POP JUMP JUMPDEST PUSH1 0x0 PUSH8 0xFFFFFFFFFFFFFFFF DUP3 GT ISZERO PUSH2 0x1497 JUMPI PUSH2 0x1496 PUSH2 0x1401 JUMP JUMPDEST JUMPDEST PUSH1 0x20 DUP3 MUL SWAP1 POP SWAP2 SWAP1 POP JUMP JUMPDEST PUSH1 0x0 DUP1 REVERT JUMPDEST PUSH2 0x14B0 DUP2 PUSH2 0x13A8 JUMP JUMPDEST DUP2 EQ PUSH2 0x14BB JUMPI PUSH1 0x0 DUP1 REVERT JUMPDEST POP JUMP JUMPDEST PUSH1 0x0 DUP2 CALLDATALOAD SWAP1 POP PUSH2 0x14CD DUP2 PUSH2 0x14A7 JUMP JUMPDEST SWAP3 SWAP2 POP POP JUMP JUMPDEST PUSH1 0x0 PUSH2 0x14E6 PUSH2 0x14E1 DUP5 PUSH2 0x147C JUMP JUMPDEST PUSH2 0x1461 JUMP JUMPDEST SWAP1 POP DUP1 PUSH1 0x20 DUP5 MUL DUP4 ADD DUP6 DUP2 GT ISZERO PUSH2 0x1500 JUMPI PUSH2 0x14FF PUSH2 0x14A2 JUMP JUMPDEST JUMPDEST DUP4 JUMPDEST DUP2 DUP2 LT ISZERO PUSH2 0x1529 JUMPI DUP1 PUSH2 0x1515 DUP9 DUP3 PUSH2 0x14BE JUMP JUMPDEST DUP5 MSTORE PUSH1 0x20 DUP5 ADD SWAP4 POP POP PUSH1 0x20 DUP2 ADD SWAP1 POP PUSH2 0x1502 JUMP JUMPDEST POP POP POP SWAP4 SWAP3 POP POP POP JUMP JUMPDEST PUSH1 0x0 DUP3 PUSH1 0x1F DUP4 ADD SLT PUSH2 0x1548 JUMPI PUSH2 0x1547 PUSH2 0x13EB JUMP JUMPDEST JUMPDEST PUSH1 0x2 PUSH2 0x1555 DUP5 DUP3 DUP6 PUSH2 0x14D3 JUMP JUMPDEST SWAP2 POP POP SWAP3 SWAP2 POP POP JUMP JUMPDEST PUSH1 0x0 DUP1 PUSH1 0x80 DUP4 DUP6 SUB SLT ISZERO PUSH2 0x1575 JUMPI PUSH2 0x1574 PUSH2 0x13E6 JUMP JUMPDEST JUMPDEST PUSH1 0x0 PUSH2 0x1583 DUP6 DUP3 DUP7 ADD PUSH2 0x1533 JUMP JUMPDEST SWAP3 POP POP PUSH1 0x40 PUSH2 0x1594 DUP6 DUP3 DUP7 ADD PUSH2 0x1533 JUMP JUMPDEST SWAP2 POP POP SWAP3 POP SWAP3 SWAP1 POP JUMP JUMPDEST PUSH1 0x0 PUSH1 0x2 SWAP1 POP SWAP2 SWAP1 POP JUMP JUMPDEST PUSH1 0x0 DUP2 SWAP1 POP SWAP3 SWAP2 POP POP JUMP JUMPDEST PUSH1 0x0 DUP2 SWAP1 POP SWAP2 SWAP1 POP JUMP JUMPDEST PUSH2 0x15C7 DUP2 PUSH2 0x13A8 JUMP JUMPDEST DUP3 MSTORE POP POP JUMP JUMPDEST PUSH1 0x0 PUSH2 0x15D9 DUP4 DUP4 PUSH2 0x15BE JUMP JUMPDEST PUSH1 0x20 DUP4 ADD SWAP1 POP SWAP3 SWAP2 POP POP JUMP JUMPDEST PUSH1 0x0 PUSH1 0x20 DUP3 ADD SWAP1 POP SWAP2 SWAP1 POP JUMP JUMPDEST PUSH2 0x15FB DUP2 PUSH2 0x159E JUMP JUMPDEST PUSH2 0x1605 DUP2 DUP5 PUSH2 0x15A9 JUMP JUMPDEST SWAP3 POP PUSH2 0x1610 DUP3 PUSH2 0x15B4 JUMP JUMPDEST DUP1 PUSH1 0x0 JUMPDEST DUP4 DUP2 LT ISZERO PUSH2 0x1641 JUMPI DUP2 MLOAD PUSH2 0x1628 DUP8 DUP3 PUSH2 0x15CD JUMP JUMPDEST SWAP7 POP PUSH2 0x1633 DUP4 PUSH2 0x15E5 JUMP JUMPDEST SWAP3 POP POP PUSH1 0x1 DUP2 ADD SWAP1 POP PUSH2 0x1614 JUMP JUMPDEST POP POP POP POP POP POP JUMP JUMPDEST PUSH1 0x0 PUSH1 0x40 DUP3 ADD SWAP1 POP PUSH2 0x165E PUSH1 0x0 DUP4 ADD DUP5 PUSH2 0x15F2 JUMP JUMPDEST SWAP3 SWAP2 POP POP JUMP JUMPDEST PUSH1 0x0 PUSH1 0x20 DUP3 DUP5 SUB SLT ISZERO PUSH2 0x167A JUMPI PUSH2 0x1679 PUSH2 0x13E6 JUMP JUMPDEST JUMPDEST PUSH1 0x0 PUSH2 0x1688 DUP5 DUP3 DUP6 ADD PUSH2 0x14BE JUMP JUMPDEST SWAP2 POP POP SWAP3 SWAP2 POP POP JUMP JUMPDEST PUSH1 0x0 DUP1 PUSH1 0x60 DUP4 DUP6 SUB SLT ISZERO PUSH2 0x16A8 JUMPI PUSH2 0x16A7 PUSH2 0x13E6 JUMP JUMPDEST JUMPDEST PUSH1 0x0 PUSH2 0x16B6 DUP6 DUP3 DUP7 ADD PUSH2 0x1533 JUMP JUMPDEST SWAP3 POP POP PUSH1 0x40 PUSH2 0x16C7 DUP6 DUP3 DUP7 ADD PUSH2 0x14BE JUMP JUMPDEST SWAP2 POP POP SWAP3 POP SWAP3 SWAP1 POP JUMP JUMPDEST PUSH32 0x4E487B7100000000000000000000000000000000000000000000000000000000 PUSH1 0x0 MSTORE PUSH1 0x32 PUSH1 0x4 MSTORE PUSH1 0x24 PUSH1 0x0 REVERT JUMPDEST PUSH32 0x4E487B7100000000000000000000000000000000000000000000000000000000 PUSH1 0x0 MSTORE PUSH1 0x12 PUSH1 0x4 MSTORE PUSH1 0x24 PUSH1 0x0 REVERT JUMPDEST PUSH1 0x0 PUSH2 0x173A DUP3 PUSH2 0x13A8 JUMP JUMPDEST SWAP2 POP PUSH2 0x1745 DUP4 PUSH2 0x13A8 JUMP JUMPDEST SWAP3 POP DUP3 PUSH2 0x1755 JUMPI PUSH2 0x1754 PUSH2 0x1700 JUMP JUMPDEST JUMPDEST DUP3 DUP3 MOD SWAP1 POP SWAP3 SWAP2 POP POP JUMP JUMPDEST PUSH32 0x4E487B7100000000000000000000000000000000000000000000000000000000 PUSH1 0x0 MSTORE PUSH1 0x11 PUSH1 0x4 MSTORE PUSH1 0x24 PUSH1 0x0 REVERT JUMPDEST PUSH1 0x0 PUSH2 0x179A DUP3 PUSH2 0x13A8 JUMP JUMPDEST SWAP2 POP PUSH2 0x17A5 DUP4 PUSH2 0x13A8 JUMP JUMPDEST SWAP3 POP DUP3 DUP3 SUB SWAP1 POP DUP2 DUP2 GT ISZERO PUSH2 0x17BD JUMPI PUSH2 0x17BC PUSH2 0x1760 JUMP JUMPDEST JUMPDEST SWAP3 SWAP2 POP POP JUMP JUMPDEST PUSH1 0x0 DUP3 DUP3 MSTORE PUSH1 0x20 DUP3 ADD SWAP1 POP SWAP3 SWAP2 POP POP JUMP JUMPDEST PUSH32 0x557365206A6163446F75626C652066756E6374696F6E20696E73746561640000 PUSH1 0x0 DUP3 ADD MSTORE POP JUMP JUMPDEST PUSH1 0x0 PUSH2 0x180A PUSH1 0x1E DUP4 PUSH2 0x17C3 JUMP JUMPDEST SWAP2 POP PUSH2 0x1815 DUP3 PUSH2 0x17D4 JUMP JUMPDEST PUSH1 0x20 DUP3 ADD SWAP1 POP SWAP2 SWAP1 POP JUMP JUMPDEST PUSH1 0x0 PUSH1 0x20 DUP3 ADD SWAP1 POP DUP2 DUP2 SUB PUSH1 0x0 DUP4 ADD MSTORE PUSH2 0x1839 DUP2 PUSH2 0x17FD JUMP JUMPDEST SWAP1 POP SWAP2 SWAP1 POP JUMP JUMPDEST PUSH1 0x0 PUSH2 0x184B DUP3 PUSH2 0x13A8 JUMP JUMPDEST SWAP2 POP PUSH2 0x1856 DUP4 PUSH2 0x13A8 JUMP JUMPDEST SWAP3 POP DUP3 PUSH2 0x1866 JUMPI PUSH2 0x1865 PUSH2 0x1700 JUMP JUMPDEST JUMPDEST DUP3 DUP3 DIV SWAP1 POP SWAP3 SWAP2 POP POP JUMP JUMPDEST PUSH32 0x496E76616C6964206E756D626572000000000000000000000000000000000000 PUSH1 0x0 DUP3 ADD MSTORE POP JUMP JUMPDEST PUSH1 0x0 PUSH2 0x18A7 PUSH1 0xE DUP4 PUSH2 0x17C3 JUMP JUMPDEST SWAP2 POP PUSH2 0x18B2 DUP3 PUSH2 0x1871 JUMP JUMPDEST PUSH1 0x20 DUP3 ADD SWAP1 POP SWAP2 SWAP1 POP JUMP JUMPDEST PUSH1 0x0 PUSH1 0x20 DUP3 ADD SWAP1 POP DUP2 DUP2 SUB PUSH1 0x0 DUP4 ADD MSTORE PUSH2 0x18D6 DUP2 PUSH2 0x189A JUMP JUMPDEST SWAP1 POP SWAP2 SWAP1 POP JUMP JUMPDEST PUSH1 0x0 PUSH2 0x18E8 DUP3 PUSH2 0x13A8 JUMP JUMPDEST SWAP2 POP PUSH2 0x18F3 DUP4 PUSH2 0x13A8 JUMP JUMPDEST SWAP3 POP DUP3 DUP3 MUL PUSH2 0x1901 DUP2 PUSH2 0x13A8 JUMP JUMPDEST SWAP2 POP DUP3 DUP3 DIV DUP5 EQ DUP4 ISZERO OR PUSH2 0x1918 JUMPI PUSH2 0x1917 PUSH2 0x1760 JUMP JUMPDEST JUMPDEST POP SWAP3 SWAP2 POP POP JUMP INVALID LOG2 PUSH5 0x6970667358 0x22 SLT KECCAK256 0xB2 ISZERO CALLDATALOAD 0x29 RETURN 0x24 0xE2 0xF8 0xA8 LOG3 0xFC 0xC4 0x2D 0xC2 CODECOPY 0xE5 0xE PUSH14 0x31595FB0D45B6E10C4722CB09F5E PUSH5 0x736F6C6343 STOP ADDMOD SGT STOP CALLER "
		},
		"gasEstimates": {
			"creation": {
				"codeDepositCost": "2547200",
				"executionCost": "infinite",
				"totalCost": "infinite"
			},
			"external": {
				"checkKeyImage(uint256[2])": "infinite",
				"getInfo()": "infinite",
				"getTXoutputs()": "infinite",
				"receiveOutput(uint256,uint256[2],uint16,uint256[2])": "infinite",
				"receiveTransaction(uint256,uint256,uint256[2],uint256[4],uint256[2][2][2],uint256,uint256[2],uint16,uint256[2])": "infinite",
				"returnArr(uint256[])": "infinite",
				"returnKeyImage()": "infinite",
				"returnMLSAG((uint256,uint256[2],uint256[4],uint256[2][2][2]))": "infinite",
				"returnNum(uint256)": "infinite",
				"verifyTransaction(uint256,(uint256,uint256[2],uint256[4],uint256[2][2][2]))": "infinite"
			},
			"internal": {
				"hash2Hex(string memory)": "infinite",
				"hash2Point(string memory)": "infinite",
				"hash2Point(uint256[2] memory)": "infinite",
				"point2String(uint256[2] memory)": "infinite"
			}
		},
		"methodIdentifiers": {
			"checkKeyImage(uint256[2])": "8784b518",
			"getInfo()": "5a9b0b89",
			"getTXoutputs()": "c01da18b",
			"receiveOutput(uint256,uint256[2],uint16,uint256[2])": "a9adc1f8",
			"receiveTransaction(uint256,uint256,uint256[2],uint256[4],uint256[2][2][2],uint256,uint256[2],uint16,uint256[2])": "5b2f4b3f",
			"returnArr(uint256[])": "07f51a9a",
			"returnKeyImage()": "ac63a7ed",
			"returnMLSAG((uint256,uint256[2],uint256[4],uint256[2][2][2]))": "61df00b1",
			"returnNum(uint256)": "f80e3e00",
			"verifyTransaction(uint256,(uint256,uint256[2],uint256[4],uint256[2][2][2]))": "a8660c1f"
		}
	},
	"abi": [
		{
			"inputs": [],
			"stateMutability": "nonpayable",
			"type": "constructor"
		},
		{
			"anonymous": false,
			"inputs": [
				{
					"components": [
						{
							"internalType": "uint256",
							"name": "rPubKey",
							"type": "uint256"
						},
						{
							"internalType": "uint256[2]",
							"name": "amountCommitment",
							"type": "uint256[2]"
						},
						{
							"internalType": "uint16",
							"name": "transactionIndex",
							"type": "uint16"
						},
						{
							"internalType": "uint256[2]",
							"name": "txOAddress",
							"type": "uint256[2]"
						}
					],
					"indexed": false,
					"internalType": "struct Meteora.TXoutput",
					"name": "_outputs",
					"type": "tuple"
				}
			],
			"name": "TransactionApproved",
			"type": "event"
		},
		{
			"inputs": [
				{
					"internalType": "uint256[2]",
					"name": "keyImage",
					"type": "uint256[2]"
				}
			],
			"name": "checkKeyImage",
			"outputs": [
				{
					"internalType": "bool",
					"name": "",
					"type": "bool"
				}
			],
			"stateMutability": "view",
			"type": "function"
		},
		{
			"inputs": [],
			"name": "getInfo",
			"outputs": [
				{
					"internalType": "string",
					"name": "",
					"type": "string"
				}
			],
			"stateMutability": "pure",
			"type": "function"
		},
		{
			"inputs": [],
			"name": "getTXoutputs",
			"outputs": [
				{
					"components": [
						{
							"internalType": "uint256",
							"name": "rPubKey",
							"type": "uint256"
						},
						{
							"internalType": "uint256[2]",
							"name": "amountCommitment",
							"type": "uint256[2]"
						},
						{
							"internalType": "uint16",
							"name": "transactionIndex",
							"type": "uint16"
						},
						{
							"internalType": "uint256[2]",
							"name": "txOAddress",
							"type": "uint256[2]"
						}
					],
					"internalType": "struct Meteora.TXoutput[]",
					"name": "",
					"type": "tuple[]"
				}
			],
			"stateMutability": "view",
			"type": "function"
		},
		{
			"inputs": [
				{
					"internalType": "uint256",
					"name": "_rPubKey",
					"type": "uint256"
				},
				{
					"internalType": "uint256[2]",
					"name": "_amountCommitment",
					"type": "uint256[2]"
				},
				{
					"internalType": "uint16",
					"name": "_transactionIndex",
					"type": "uint16"
				},
				{
					"internalType": "uint256[2]",
					"name": "_txOAddress",
					"type": "uint256[2]"
				}
			],
			"name": "receiveOutput",
			"outputs": [
				{
					"internalType": "bool",
					"name": "",
					"type": "bool"
				}
			],
			"stateMutability": "nonpayable",
			"type": "function"
		},
		{
			"inputs": [
				{
					"internalType": "uint256",
					"name": "_message",
					"type": "uint256"
				},
				{
					"internalType": "uint256",
					"name": "_c1",
					"type": "uint256"
				},
				{
					"internalType": "uint256[2]",
					"name": "_keyImage",
					"type": "uint256[2]"
				},
				{
					"internalType": "uint256[4]",
					"name": "_rFactors",
					"type": "uint256[4]"
				},
				{
					"internalType": "uint256[2][2][2]",
					"name": "_inputs",
					"type": "uint256[2][2][2]"
				},
				{
					"internalType": "uint256",
					"name": "_rPubKey",
					"type": "uint256"
				},
				{
					"internalType": "uint256[2]",
					"name": "_amountCommitment",
					"type": "uint256[2]"
				},
				{
					"internalType": "uint16",
					"name": "_transactionIndex",
					"type": "uint16"
				},
				{
					"internalType": "uint256[2]",
					"name": "_txOAddress",
					"type": "uint256[2]"
				}
			],
			"name": "receiveTransaction",
			"outputs": [
				{
					"internalType": "bool",
					"name": "",
					"type": "bool"
				}
			],
			"stateMutability": "nonpayable",
			"type": "function"
		},
		{
			"inputs": [
				{
					"internalType": "uint256[]",
					"name": "_arr",
					"type": "uint256[]"
				}
			],
			"name": "returnArr",
			"outputs": [
				{
					"internalType": "uint256[]",
					"name": "",
					"type": "uint256[]"
				}
			],
			"stateMutability": "pure",
			"type": "function"
		},
		{
			"inputs": [],
			"name": "returnKeyImage",
			"outputs": [
				{
					"internalType": "uint256[2][]",
					"name": "",
					"type": "uint256[2][]"
				}
			],
			"stateMutability": "view",
			"type": "function"
		},
		{
			"inputs": [
				{
					"components": [
						{
							"internalType": "uint256",
							"name": "c1",
							"type": "uint256"
						},
						{
							"internalType": "uint256[2]",
							"name": "keyImage",
							"type": "uint256[2]"
						},
						{
							"internalType": "uint256[4]",
							"name": "rFactors",
							"type": "uint256[4]"
						},
						{
							"internalType": "uint256[2][2][2]",
							"name": "inputs",
							"type": "uint256[2][2][2]"
						}
					],
					"internalType": "struct Meteora.MLSAG",
					"name": "_mlsag",
					"type": "tuple"
				}
			],
			"name": "returnMLSAG",
			"outputs": [
				{
					"components": [
						{
							"internalType": "uint256",
							"name": "c1",
							"type": "uint256"
						},
						{
							"internalType": "uint256[2]",
							"name": "keyImage",
							"type": "uint256[2]"
						},
						{
							"internalType": "uint256[4]",
							"name": "rFactors",
							"type": "uint256[4]"
						},
						{
							"internalType": "uint256[2][2][2]",
							"name": "inputs",
							"type": "uint256[2][2][2]"
						}
					],
					"internalType": "struct Meteora.MLSAG",
					"name": "",
					"type": "tuple"
				}
			],
			"stateMutability": "pure",
			"type": "function"
		},
		{
			"inputs": [
				{
					"internalType": "uint256",
					"name": "_num",
					"type": "uint256"
				}
			],
			"name": "returnNum",
			"outputs": [
				{
					"internalType": "uint256",
					"name": "",
					"type": "uint256"
				}
			],
			"stateMutability": "pure",
			"type": "function"
		},
		{
			"inputs": [
				{
					"internalType": "uint256",
					"name": "_message",
					"type": "uint256"
				},
				{
					"components": [
						{
							"internalType": "uint256",
							"name": "c1",
							"type": "uint256"
						},
						{
							"internalType": "uint256[2]",
							"name": "keyImage",
							"type": "uint256[2]"
						},
						{
							"internalType": "uint256[4]",
							"name": "rFactors",
							"type": "uint256[4]"
						},
						{
							"internalType": "uint256[2][2][2]",
							"name": "inputs",
							"type": "uint256[2][2][2]"
						}
					],
					"internalType": "struct Meteora.MLSAG",
					"name": "_signature",
					"type": "tuple"
				}
			],
			"name": "verifyTransaction",
			"outputs": [
				{
					"internalType": "bool",
					"name": "",
					"type": "bool"
				}
			],
			"stateMutability": "view",
			"type": "function"
		}
	]
}