{
	"data": {
		"bytecode": {
			"linkReferences": {},
			"object": "60806040526040518060400160405280600781526020017f4d6574656f726100000000000000000000000000000000000000000000000000815250600490816200004a9190620003da565b506040518060400160405280600381526020017f4d4554000000000000000000000000000000000000000000000000000000000081525060059081620000919190620003da565b50604051620000a09062000152565b604051809103906000f080158015620000bd573d6000803e3d6000fd5b50600660006101000a81548173ffffffffffffffffffffffffffffffffffffffff021916908373ffffffffffffffffffffffffffffffffffffffff1602179055503480156200010b57600080fd5b50336000806101000a81548173ffffffffffffffffffffffffffffffffffffffff021916908373ffffffffffffffffffffffffffffffffffffffff160217905550620004c1565b6118f48062002ee083390190565b600081519050919050565b7f4e487b7100000000000000000000000000000000000000000000000000000000600052604160045260246000fd5b7f4e487b7100000000000000000000000000000000000000000000000000000000600052602260045260246000fd5b60006002820490506001821680620001e257607f821691505b602082108103620001f857620001f76200019a565b5b50919050565b60008190508160005260206000209050919050565b60006020601f8301049050919050565b600082821b905092915050565b600060088302620002627fffffffffffffffffffffffffffffffffffffffffffffffffffffffffffffffff8262000223565b6200026e868362000223565b95508019841693508086168417925050509392505050565b6000819050919050565b6000819050919050565b6000620002bb620002b5620002af8462000286565b62000290565b62000286565b9050919050565b6000819050919050565b620002d7836200029a565b620002ef620002e682620002c2565b84845462000230565b825550505050565b600090565b62000306620002f7565b62000313818484620002cc565b505050565b5b818110156200033b576200032f600082620002fc565b60018101905062000319565b5050565b601f8211156200038a576200035481620001fe565b6200035f8462000213565b810160208510156200036f578190505b620003876200037e8562000213565b83018262000318565b50505b505050565b600082821c905092915050565b6000620003af600019846008026200038f565b1980831691505092915050565b6000620003ca83836200039c565b9150826002028217905092915050565b620003e58262000160565b67ffffffffffffffff8111156200040157620004006200016b565b5b6200040d8254620001c9565b6200041a8282856200033f565b600060209050601f8311600181146200045257600084156200043d578287015190505b620004498582620003bc565b865550620004b9565b601f1984166200046286620001fe565b60005b828110156200048c5784890151825560018201915060208501945060208101905062000465565b86831015620004ac5784890151620004a8601f8916826200039c565b8355505b6001600288020188555050505b505050505050565b612a0f80620004d16000396000f3fe608060405234801561001057600080fd5b50600436106100885760003560e01c80636cc427561161005b5780636cc427561461013b578063a8660c1f1461016b578063c01da18b1461019b578063f80e3e00146101b957610088565b806307f51a9a1461008d5780630d47535f146100bd5780635a9b0b89146100ed57806361df00b11461010b575b600080fd5b6100a760048036038101906100a291906119f0565b6101e9565b6040516100b49190611af7565b60405180910390f35b6100d760048036038101906100d29190611b7b565b6101f3565b6040516100e49190611c5d565b60405180910390f35b6100f5610203565b6040516101029190611cfe565b60405180910390f35b6101256004803603810190610120919061205d565b610240565b6040516101329190612321565b60405180910390f35b61015560048036038101906101509190612377565b610250565b604051610162919061244c565b60405180910390f35b61018560048036038101906101809190612467565b61034b565b604051610192919061244c565b60405180910390f35b6101a36112f1565b6040516101b091906125a8565b60405180910390f35b6101d360048036038101906101ce91906125ca565b6113bf565b6040516101e09190612606565b60405180910390f35b6060819050919050565b6101fb611688565b819050919050565b60606040518060400160405280600b81526020017f48656c6c6f20576f726c64000000000000000000000000000000000000000000815250905090565b61024861169b565b819050919050565b600061025a61169b565b888160000181815250508781602001819052508681604001819052508581606001819052506003816020015190806001815401808255809150506001900390600052602060002090600202016000909190919091509060026102bd9291906116d5565b503073ffffffffffffffffffffffffffffffffffffffff1663a8660c1f8b836040518363ffffffff1660e01b81526004016102f9929190612621565b6020604051808303816000875af1158015610318573d6000803e3d6000fd5b505050506040513d601f19601f8201168201806040525081019061033c9190612677565b91505098975050505050505050565b6000610355611715565b61035d61176f565b600084602001519050600085606001519050856000015183600060668110610388576103876126a4565b5b6020020181815250506000808061039d611792565b6103a5611792565b606060005b60028d604001515060046103be9190612702565b811015610b5b578c6040015181600481106103dc576103db6126a4565b5b602002015195508c604001516001826103f59190612736565b60048110610406576104056126a4565b5b602002015194508787600281106104205761041f6126a4565b5b6020020151600060028110610438576104376126a4565b5b60200201519350878760028110610452576104516126a4565b5b602002015160016002811061046a576104696126a4565b5b60200201519250600660009054906101000a900473ffffffffffffffffffffffffffffffffffffffff1673ffffffffffffffffffffffffffffffffffffffff1663bb734c4e876040518263ffffffff1660e01b81526004016104cc9190612606565b6040805180830381865afa1580156104e8573d6000803e3d6000fd5b505050506040513d601f19601f8201168201806040525081019061050c919061280a565b8b60000181905250600660009054906101000a900473ffffffffffffffffffffffffffffffffffffffff1673ffffffffffffffffffffffffffffffffffffffff1663aca8f56e858c8a60668110610566576105656126a4565b5b60200201516040518363ffffffff1660e01b8152600401610588929190612899565b6040805180830381865afa1580156105a4573d6000803e3d6000fd5b505050506040513d601f19601f820116820180604052508101906105c8919061280a565b8b60200181905250600660009054906101000a900473ffffffffffffffffffffffffffffffffffffffff1673ffffffffffffffffffffffffffffffffffffffff1663aca8f56e85886040518363ffffffff1660e01b815260040161062d929190612899565b6040805180830381865afa158015610649573d6000803e3d6000fd5b505050506040513d601f19601f8201168201806040525081019061066d919061280a565b8b60400181905250600660009054906101000a900473ffffffffffffffffffffffffffffffffffffffff1673ffffffffffffffffffffffffffffffffffffffff1663aca8f56e8a8c8a606681106106c7576106c66126a4565b5b60200201516040518363ffffffff1660e01b81526004016106e9929190612899565b6040805180830381865afa158015610705573d6000803e3d6000fd5b505050506040513d601f19601f82011682018060405250810190610729919061280a565b8b60600181905250600660009054906101000a900473ffffffffffffffffffffffffffffffffffffffff1673ffffffffffffffffffffffffffffffffffffffff1663bb734c4e866040518263ffffffff1660e01b815260040161078c9190612606565b6040805180830381865afa1580156107a8573d6000803e3d6000fd5b505050506040513d601f19601f820116820180604052508101906107cc919061280a565b8b60800181905250600660009054906101000a900473ffffffffffffffffffffffffffffffffffffffff1673ffffffffffffffffffffffffffffffffffffffff1663aca8f56e848c8a60668110610826576108256126a4565b5b60200201516040518363ffffffff1660e01b8152600401610848929190612899565b6040805180830381865afa158015610864573d6000803e3d6000fd5b505050506040513d601f19601f82011682018060405250810190610888919061280a565b8b60a001819052506108998e6113c9565b610946600660009054906101000a900473ffffffffffffffffffffffffffffffffffffffff1673ffffffffffffffffffffffffffffffffffffffff16631177a4a48e600001518f602001516040518363ffffffff1660e01b81526004016109019291906128c2565b6040805180830381865afa15801561091d573d6000803e3d6000fd5b505050506040513d601f19601f82011682018060405250810190610941919061280a565b611497565b604051602001610957929190612927565b604051602081830303815290604052915081610a16600660009054906101000a900473ffffffffffffffffffffffffffffffffffffffff1673ffffffffffffffffffffffffffffffffffffffff16631177a4a48e604001518f606001516040518363ffffffff1660e01b81526004016109d19291906128c2565b6040805180830381865afa1580156109ed573d6000803e3d6000fd5b505050506040513d601f19601f82011682018060405250810190610a11919061280a565b611497565b604051602001610a27929190612927565b604051602081830303815290604052915081610ae6600660009054906101000a900473ffffffffffffffffffffffffffffffffffffffff1673ffffffffffffffffffffffffffffffffffffffff16631177a4a48e608001518f60a001516040518363ffffffff1660e01b8152600401610aa19291906128c2565b6040805180830381865afa158015610abd573d6000803e3d6000fd5b505050506040513d601f19601f82011682018060405250810190610ae1919061280a565b611497565b604051602001610af7929190612927565b6040516020818303038152906040529150610b1182611502565b8a600189610b1f9190612736565b60668110610b3057610b2f6126a4565b5b6020020181815250508680610b449061294b565b975050600281610b549190612736565b90506103aa565b60028d60400151506004610b6f9190612702565b90508c604001518160048110610b8857610b876126a4565b5b602002015195508c60400151600182610ba19190612736565b60048110610bb257610bb16126a4565b5b60200201519450878760028110610bcc57610bcb6126a4565b5b6020020151600060028110610be457610be36126a4565b5b60200201519350878760028110610bfe57610bfd6126a4565b5b6020020151600160028110610c1657610c156126a4565b5b60200201519250600660009054906101000a900473ffffffffffffffffffffffffffffffffffffffff1673ffffffffffffffffffffffffffffffffffffffff1663bb734c4e876040518263ffffffff1660e01b8152600401610c789190612606565b6040805180830381865afa158015610c94573d6000803e3d6000fd5b505050506040513d601f19601f82011682018060405250810190610cb8919061280a565b8b60000181905250600660009054906101000a900473ffffffffffffffffffffffffffffffffffffffff1673ffffffffffffffffffffffffffffffffffffffff1663aca8f56e858c8a60668110610d1257610d116126a4565b5b60200201516040518363ffffffff1660e01b8152600401610d34929190612899565b6040805180830381865afa158015610d50573d6000803e3d6000fd5b505050506040513d601f19601f82011682018060405250810190610d74919061280a565b8b60200181905250600660009054906101000a900473ffffffffffffffffffffffffffffffffffffffff1673ffffffffffffffffffffffffffffffffffffffff1663aca8f56e85886040518363ffffffff1660e01b8152600401610dd9929190612899565b6040805180830381865afa158015610df5573d6000803e3d6000fd5b505050506040513d601f19601f82011682018060405250810190610e19919061280a565b8b60400181905250600660009054906101000a900473ffffffffffffffffffffffffffffffffffffffff1673ffffffffffffffffffffffffffffffffffffffff1663aca8f56e8a8c8a60668110610e7357610e726126a4565b5b60200201516040518363ffffffff1660e01b8152600401610e95929190612899565b6040805180830381865afa158015610eb1573d6000803e3d6000fd5b505050506040513d601f19601f82011682018060405250810190610ed5919061280a565b8b60600181905250600660009054906101000a900473ffffffffffffffffffffffffffffffffffffffff1673ffffffffffffffffffffffffffffffffffffffff1663bb734c4e866040518263ffffffff1660e01b8152600401610f389190612606565b6040805180830381865afa158015610f54573d6000803e3d6000fd5b505050506040513d601f19601f82011682018060405250810190610f78919061280a565b8b60800181905250600660009054906101000a900473ffffffffffffffffffffffffffffffffffffffff1673ffffffffffffffffffffffffffffffffffffffff1663aca8f56e848c8a60668110610fd257610fd16126a4565b5b60200201516040518363ffffffff1660e01b8152600401610ff4929190612899565b6040805180830381865afa158015611010573d6000803e3d6000fd5b505050506040513d601f19601f82011682018060405250810190611034919061280a565b8b60a001819052506110458e6113c9565b6110f2600660009054906101000a900473ffffffffffffffffffffffffffffffffffffffff1673ffffffffffffffffffffffffffffffffffffffff16631177a4a48e600001518f602001516040518363ffffffff1660e01b81526004016110ad9291906128c2565b6040805180830381865afa1580156110c9573d6000803e3d6000fd5b505050506040513d601f19601f820116820180604052508101906110ed919061280a565b611497565b604051602001611103929190612927565b6040516020818303038152906040529150816111c2600660009054906101000a900473ffffffffffffffffffffffffffffffffffffffff1673ffffffffffffffffffffffffffffffffffffffff16631177a4a48e604001518f606001516040518363ffffffff1660e01b815260040161117d9291906128c2565b6040805180830381865afa158015611199573d6000803e3d6000fd5b505050506040513d601f19601f820116820180604052508101906111bd919061280a565b611497565b6040516020016111d3929190612927565b604051602081830303815290604052915081611292600660009054906101000a900473ffffffffffffffffffffffffffffffffffffffff1673ffffffffffffffffffffffffffffffffffffffff16631177a4a48e608001518f60a001516040518363ffffffff1660e01b815260040161124d9291906128c2565b6040805180830381865afa158015611269573d6000803e3d6000fd5b505050506040513d601f19601f8201168201806040525081019061128d919061280a565b611497565b6040516020016112a3929190612927565b604051602081830303815290604052915060006112bf83611502565b9050808b6000606681106112d6576112d56126a4565b5b602002015114159c5050505050505050505050505092915050565b60606002805480602002602001604051908101604052809291908181526020016000905b828210156113b65783829060005260206000209060040201604051806060016040529081600082015481526020016001820160028060200260405190810160405280929190826002801561137e576020028201915b81548152602001906001019080831161136a575b505050505081526020016003820160009054906101000a900461ffff1661ffff1661ffff168152505081526020019060010190611315565b50505050905090565b6000819050919050565b6060600060016113d884611535565b01905060008167ffffffffffffffff8111156113f7576113f6611877565b5b6040519080825280601f01601f1916602001820160405280156114295781602001600182028036833780820191505090505b509050600082602001820190505b60011561148c578080600190039150507f3031323334353637383961626364656600000000000000000000000000000000600a86061a8153600a85816114805761147f612993565b5b04945060008503611437575b819350505050919050565b60606114ba826000600281106114b0576114af6126a4565b5b60200201516113c9565b6114db836001600281106114d1576114d06126a4565b5b60200201516113c9565b6040516020016114ec929190612927565b6040516020818303038152906040529050919050565b60008160405160200161151591906129c2565b6040516020818303038152906040528051906020012060001c9050919050565b600080600090507a184f03e93ff9f4daa797ed6e38ed64bf6a1f0100000000000000008310611593577a184f03e93ff9f4daa797ed6e38ed64bf6a1f010000000000000000838161158957611588612993565b5b0492506040810190505b6d04ee2d6d415b85acef810000000083106115d0576d04ee2d6d415b85acef810000000083816115c6576115c5612993565b5b0492506020810190505b662386f26fc1000083106115ff57662386f26fc1000083816115f5576115f4612993565b5b0492506010810190505b6305f5e1008310611628576305f5e100838161161e5761161d612993565b5b0492506008810190505b612710831061164d57612710838161164357611642612993565b5b0492506004810190505b60648310611670576064838161166657611665612993565b5b0492506002810190505b600a831061167f576001810190505b80915050919050565b6040518060200160405280606081525090565b6040518060800160405280600081526020016116b5611792565b81526020016116c26117b4565b81526020016116cf6117d6565b81525090565b8260028101928215611704579160200282015b828111156117035782518255916020019190600101906116e8565b5b5090506117119190611803565b5090565b6040518060c00160405280611728611792565b8152602001611735611792565b8152602001611742611792565b815260200161174f611792565b815260200161175c611792565b8152602001611769611792565b81525090565b60405180610cc00160405280606690602082028036833780820191505090505090565b6040518060400160405280600290602082028036833780820191505090505090565b6040518060800160405280600490602082028036833780820191505090505090565b60405180604001604052806002905b6117ed611820565b8152602001906001900390816117e55790505090565b5b8082111561181c576000816000905550600101611804565b5090565b60405180604001604052806002905b611837611792565b81526020019060019003908161182f5790505090565b6000604051905090565b600080fd5b600080fd5b600080fd5b6000601f19601f8301169050919050565b7f4e487b7100000000000000000000000000000000000000000000000000000000600052604160045260246000fd5b6118af82611866565b810181811067ffffffffffffffff821117156118ce576118cd611877565b5b80604052505050565b60006118e161184d565b90506118ed82826118a6565b919050565b600067ffffffffffffffff82111561190d5761190c611877565b5b602082029050602081019050919050565b600080fd5b6000819050919050565b61193681611923565b811461194157600080fd5b50565b6000813590506119538161192d565b92915050565b600061196c611967846118f2565b6118d7565b9050808382526020820190506020840283018581111561198f5761198e61191e565b5b835b818110156119b857806119a48882611944565b845260208401935050602081019050611991565b5050509392505050565b600082601f8301126119d7576119d6611861565b5b81356119e7848260208601611959565b91505092915050565b600060208284031215611a0657611a05611857565b5b600082013567ffffffffffffffff811115611a2457611a2361185c565b5b611a30848285016119c2565b91505092915050565b600081519050919050565b600082825260208201905092915050565b6000819050602082019050919050565b611a6e81611923565b82525050565b6000611a808383611a65565b60208301905092915050565b6000602082019050919050565b6000611aa482611a39565b611aae8185611a44565b9350611ab983611a55565b8060005b83811015611aea578151611ad18882611a74565b9750611adc83611a8c565b925050600181019050611abd565b5085935050505092915050565b60006020820190508181036000830152611b118184611a99565b905092915050565b600080fd5b600080fd5b600060208284031215611b3957611b38611b19565b5b611b4360206118d7565b9050600082013567ffffffffffffffff811115611b6357611b62611b1e565b5b611b6f848285016119c2565b60008301525092915050565b600060208284031215611b9157611b90611857565b5b600082013567ffffffffffffffff811115611baf57611bae61185c565b5b611bbb84828501611b23565b91505092915050565b600082825260208201905092915050565b6000611be082611a39565b611bea8185611bc4565b9350611bf583611a55565b8060005b83811015611c26578151611c0d8882611a74565b9750611c1883611a8c565b925050600181019050611bf9565b5085935050505092915050565b60006020830160008301518482036000860152611c508282611bd5565b9150508091505092915050565b60006020820190508181036000830152611c778184611c33565b905092915050565b600081519050919050565b600082825260208201905092915050565b60005b83811015611cb9578082015181840152602081019050611c9e565b60008484015250505050565b6000611cd082611c7f565b611cda8185611c8a565b9350611cea818560208601611c9b565b611cf381611866565b840191505092915050565b60006020820190508181036000830152611d188184611cc5565b905092915050565b600067ffffffffffffffff821115611d3b57611d3a611877565b5b602082029050919050565b6000611d59611d5484611d20565b6118d7565b90508060208402830185811115611d7357611d7261191e565b5b835b81811015611d9c5780611d888882611944565b845260208401935050602081019050611d75565b5050509392505050565b600082601f830112611dbb57611dba611861565b5b6002611dc8848285611d46565b91505092915050565b600067ffffffffffffffff821115611dec57611deb611877565b5b602082029050919050565b6000611e0a611e0584611dd1565b6118d7565b90508060208402830185811115611e2457611e2361191e565b5b835b81811015611e4d5780611e398882611944565b845260208401935050602081019050611e26565b5050509392505050565b600082601f830112611e6c57611e6b611861565b5b6004611e79848285611df7565b91505092915050565b600067ffffffffffffffff821115611e9d57611e9c611877565b5b602082029050919050565b600067ffffffffffffffff821115611ec357611ec2611877565b5b602082029050919050565b6000611ee1611edc84611ea8565b6118d7565b90508060408402830185811115611efb57611efa61191e565b5b835b81811015611f245780611f108882611da6565b845260208401935050604081019050611efd565b5050509392505050565b600082601f830112611f4357611f42611861565b5b6002611f50848285611ece565b91505092915050565b6000611f6c611f6784611e82565b6118d7565b90508060808402830185811115611f8657611f8561191e565b5b835b81811015611faf5780611f9b8882611f2e565b845260208401935050608081019050611f88565b5050509392505050565b600082601f830112611fce57611fcd611861565b5b6002611fdb848285611f59565b91505092915050565b60006101e08284031215611ffb57611ffa611b19565b5b61200560806118d7565b9050600061201584828501611944565b600083015250602061202984828501611da6565b602083015250606061203d84828501611e57565b60408301525060e061205184828501611fb9565b60608301525092915050565b60006101e0828403121561207457612073611857565b5b600061208284828501611fe4565b91505092915050565b600060029050919050565b600081905092915050565b6000819050919050565b6000602082019050919050565b6120c18161208b565b6120cb8184612096565b92506120d6826120a1565b8060005b838110156121075781516120ee8782611a74565b96506120f9836120ab565b9250506001810190506120da565b505050505050565b600060049050919050565b600081905092915050565b6000819050919050565b6000602082019050919050565b6121458161210f565b61214f818461211a565b925061215a82612125565b8060005b8381101561218b5781516121728782611a74565b965061217d8361212f565b92505060018101905061215e565b505050505050565b600060029050919050565b600081905092915050565b6000819050919050565b600060029050919050565b600081905092915050565b6000819050919050565b60006121df83836120b8565b60408301905092915050565b6000602082019050919050565b612201816121b3565b61220b81846121be565b9250612216826121c9565b8060005b8381101561224757815161222e87826121d3565b9650612239836121eb565b92505060018101905061221a565b505050505050565b600061225b83836121f8565b60808301905092915050565b6000602082019050919050565b61227d81612193565b612287818461219e565b9250612292826121a9565b8060005b838110156122c35781516122aa878261224f565b96506122b583612267565b925050600181019050612296565b505050505050565b6101e0820160008201516122e26000850182611a65565b5060208201516122f560208501826120b8565b506040820151612308606085018261213c565b50606082015161231b60e0850182612274565b50505050565b60006101e08201905061233760008301846122cb565b92915050565b600061ffff82169050919050565b6123548161233d565b811461235f57600080fd5b50565b6000813590506123718161234b565b92915050565b600080600080600080600080610280898b03121561239857612397611857565b5b60006123a68b828c01611944565b98505060206123b78b828c01611944565b97505060406123c88b828c01611da6565b96505060806123d98b828c01611e57565b9550506101006123eb8b828c01611fb9565b9450506102006123fd8b828c01611944565b93505061022061240f8b828c01611da6565b9250506102606124218b828c01612362565b9150509295985092959890939650565b60008115159050919050565b61244681612431565b82525050565b6000602082019050612461600083018461243d565b92915050565b600080610200838503121561247f5761247e611857565b5b600061248d85828601611944565b925050602061249e85828601611fe4565b9150509250929050565b600081519050919050565b600082825260208201905092915050565b6000819050602082019050919050565b6124dd8161233d565b82525050565b6080820160008201516124f96000850182611a65565b50602082015161250c60208501826120b8565b50604082015161251f60608501826124d4565b50505050565b600061253183836124e3565b60808301905092915050565b6000602082019050919050565b6000612555826124a8565b61255f81856124b3565b935061256a836124c4565b8060005b8381101561259b5781516125828882612525565b975061258d8361253d565b92505060018101905061256e565b5085935050505092915050565b600060208201905081810360008301526125c2818461254a565b905092915050565b6000602082840312156125e0576125df611857565b5b60006125ee84828501611944565b91505092915050565b61260081611923565b82525050565b600060208201905061261b60008301846125f7565b92915050565b60006102008201905061263760008301856125f7565b61264460208301846122cb565b9392505050565b61265481612431565b811461265f57600080fd5b50565b6000815190506126718161264b565b92915050565b60006020828403121561268d5761268c611857565b5b600061269b84828501612662565b91505092915050565b7f4e487b7100000000000000000000000000000000000000000000000000000000600052603260045260246000fd5b7f4e487b7100000000000000000000000000000000000000000000000000000000600052601160045260246000fd5b600061270d82611923565b915061271883611923565b92508282039050818111156127305761272f6126d3565b5b92915050565b600061274182611923565b915061274c83611923565b9250828201905080821115612764576127636126d3565b5b92915050565b6000815190506127798161192d565b92915050565b600061279261278d84611d20565b6118d7565b905080602084028301858111156127ac576127ab61191e565b5b835b818110156127d557806127c1888261276a565b8452602084019350506020810190506127ae565b5050509392505050565b600082601f8301126127f4576127f3611861565b5b600261280184828561277f565b91505092915050565b6000604082840312156128205761281f611857565b5b600061282e848285016127df565b91505092915050565b600081905092915050565b61284b8161208b565b6128558184612837565b9250612860826120a1565b8060005b838110156128915781516128788782611a74565b9650612883836120ab565b925050600181019050612864565b505050505050565b60006060820190506128ae6000830185612842565b6128bb60408301846125f7565b9392505050565b60006080820190506128d76000830185612842565b6128e46040830184612842565b9392505050565b600081905092915050565b600061290182611c7f565b61290b81856128eb565b935061291b818560208601611c9b565b80840191505092915050565b600061293382856128f6565b915061293f82846128f6565b91508190509392505050565b600061295682611923565b91507fffffffffffffffffffffffffffffffffffffffffffffffffffffffffffffffff8203612988576129876126d3565b5b600182019050919050565b7f4e487b7100000000000000000000000000000000000000000000000000000000600052601260045260246000fd5b60006129ce82846128f6565b91508190509291505056fea2646970667358221220ba4898bfba38b8db9c15d09a0c780a8515a1b8edbb93a74304700c092f47e21464736f6c63430008130033608060405234801561001057600080fd5b506118d4806100206000396000f3fe608060405234801561001057600080fd5b50600436106100f55760003560e01c8063997da8d411610097578063bb734c4e11610066578063bb734c4e1461028c578063c11b8ad7146102bc578063e7a48839146102da578063eeeac01e146102f8576100f5565b8063997da8d4146101f05780639b4cdcd31461020e5780639f13f76d1461023e578063aca8f56e1461025c576100f5565b806329038545116100d357806329038545146101785780634e93d4a2146101965780635727dc5c146101b45780637a308a4c146101d2576100f5565b806303a507be146100fa5780631177a4a4146101185780631c51df7b14610148575b600080fd5b610102610316565b60405161010f9190611340565b60405180910390f35b610132600480360381019061012d91906114dd565b61033a565b60405161013f91906115c8565b60405180910390f35b610162600480360381019061015d91906114dd565b6103f7565b60405161016f91906115c8565b60405180910390f35b6101806104b4565b60405161018d9190611340565b60405180910390f35b61019e6104d8565b6040516101ab9190611340565b60405180910390f35b6101bc6104fc565b6040516101c99190611340565b60405180910390f35b6101da610501565b6040516101e79190611340565b60405180910390f35b6101f8610525565b6040516102059190611340565b60405180910390f35b610228600480360381019061022391906115e3565b61052a565b60405161023591906115c8565b60405180910390f35b6102466105c5565b6040516102539190611340565b60405180910390f35b61027660048036038101906102719190611610565b6105e9565b60405161028391906115c8565b60405180910390f35b6102a660048036038101906102a191906115e3565b610675565b6040516102b391906115c8565b60405180910390f35b6102c4610710565b6040516102d19190611340565b60405180910390f35b6102e2610734565b6040516102ef9190611340565b60405180910390f35b610300610758565b60405161030d9190611340565b60405180910390f35b7f6fb13b7e8ab1c7d191d16197c1bf7f8dc7992412e1266155b3fb3ac8b30f3ed881565b6103426112e3565b6000806103d48560006002811061035c5761035b611650565b5b60200201518660016002811061037557610374611650565b5b60200201518660006002811061038e5761038d611650565b5b6020020151876001600281106103a7576103a6611650565b5b602002015160007ffffffffffffffffffffffffffffffffffffffffffffffffffffffffefffffc2f61077c565b915091506040518060400160405280838152602001828152509250505092915050565b6103ff6112e3565b6000806104918560006002811061041957610418611650565b5b60200201518660016002811061043257610431611650565b5b60200201518660006002811061044b5761044a611650565b5b60200201518760016002811061046457610463611650565b5b602002015160007ffffffffffffffffffffffffffffffffffffffffffffffffffffffffefffffc2f61080f565b915091506040518060400160405280838152602001828152509250505092915050565b7f483ada7726a3c4655da4fbfc0e1108a8fd17b448a68554199c47d08ffb10d4b881565b7fd209f7c16cdb6d3559bea88c7d920f8ff077406c615da8adfecdeef604cb40a681565b600781565b7f2e1eb77bd89505113819600b395e0475d102c4788a3280a583d9d82625ed853381565b600081565b6105326112e3565b6000806105a3847f07cd9ee748a0b26773d9d29361f75594964106d13e1cad67cfe2df503ee3e90e7fd209f7c16cdb6d3559bea88c7d920f8ff077406c615da8adfecdeef604cb40a660007ffffffffffffffffffffffffffffffffffffffffffffffffffffffffefffffc2f610843565b9150915060405180604001604052808381526020018281525092505050919050565b7ffffffffffffffffffffffffffffffffebaaedce6af48a03bbfd25e8cd036414181565b6105f16112e3565b600080610652848660006002811061060c5761060b611650565b5b60200201518760016002811061062557610624611650565b5b602002015160007ffffffffffffffffffffffffffffffffffffffffffffffffffffffffefffffc2f610843565b915091506040518060400160405280838152602001828152509250505092915050565b61067d6112e3565b6000806106ee847f6fb13b7e8ab1c7d191d16197c1bf7f8dc7992412e1266155b3fb3ac8b30f3ed87f2e1eb77bd89505113819600b395e0475d102c4788a3280a583d9d82625ed853360007ffffffffffffffffffffffffffffffffffffffffffffffffffffffffefffffc2f610843565b9150915060405180604001604052808381526020018281525092505050919050565b7f07cd9ee748a0b26773d9d29361f75594964106d13e1cad67cfe2df503ee3e90e81565b7f79be667ef9dcbbac55a06295ce870b07029bfcdb2dce28d959f2815b16f8179881565b7ffffffffffffffffffffffffffffffffffffffffffffffffffffffffefffffc2f81565b6000806000806000888b036107d2576000868061079c5761079b61167f565b5b898c08036107b35760008094509450505050610804565b6107c18b8b60018a8a61087d565b8093508194508295505050506107f0565b6107e38b8b60018c8c60018c610a3b565b8093508194508295505050505b6107fc838383896110ba565b945094505050505b965096945050505050565b600080600080610820888887611131565b915091506108328a8a84848a8a61077c565b935093505050965096945050505050565b600080600080600061085a8a8a8a60018b8b611158565b92509250925061086c838383896110ba565b945094505050509550959350505050565b600080600080860361089757878787925092509250610a30565b600084806108a8576108a761167f565b5b898a099050600085806108be576108bd61167f565b5b898a099050600086806108d4576108d361167f565b5b898a099050600087806108ea576108e961167f565b5b88806108f9576108f861167f565b5b848e096004099050600088806109125761091161167f565b5b89806109215761092061167f565b5b8a806109305761092f61167f565b5b8586098c098a806109445761094361167f565b5b87600309089050888061095a5761095961167f565b5b89806109695761096861167f565b5b8384088a61097791906116dd565b8a806109865761098561167f565b5b838409089450888061099b5761099a61167f565b5b89806109aa576109a961167f565b5b8a806109b9576109b861167f565b5b8687096008098a6109ca91906116dd565b8a806109d9576109d861167f565b5b8b806109e8576109e761167f565b5b888d6109f491906116dd565b860884090893508880610a0a57610a0961167f565b5b8980610a1957610a1861167f565b5b8c8e09600209925084848497509750975050505050505b955095509592505050565b6000806000808a148015610a4f5750600089145b15610a62578686869250925092506110ad565b600087148015610a725750600086145b15610a85578989899250925092506110ad565b610a8d611305565b8480610a9c57610a9b61167f565b5b898a0981600060048110610ab357610ab2611650565b5b6020020181815250508480610acb57610aca61167f565b5b81600060048110610adf57610ade611650565b5b60200201518a0981600160048110610afa57610af9611650565b5b6020020181815250508480610b1257610b1161167f565b5b86870981600260048110610b2957610b28611650565b5b6020020181815250508480610b4157610b4061167f565b5b81600260048110610b5557610b54611650565b5b6020020151870981600360048110610b7057610b6f611650565b5b60200201818152505060405180608001604052808680610b9357610b9261167f565b5b83600260048110610ba757610ba6611650565b5b60200201518e0981526020018680610bc257610bc161167f565b5b83600360048110610bd657610bd5611650565b5b60200201518d0981526020018680610bf157610bf061167f565b5b83600060048110610c0557610c04611650565b5b60200201518b0981526020018680610c2057610c1f61167f565b5b83600160048110610c3457610c33611650565b5b60200201518a09815250905080600260048110610c5457610c53611650565b5b602002015181600060048110610c6d57610c6c611650565b5b6020020151141580610caf575080600360048110610c8e57610c8d611650565b5b602002015181600160048110610ca757610ca6611650565b5b602002015114155b610cee576040517f08c379a0000000000000000000000000000000000000000000000000000000008152600401610ce59061176e565b60405180910390fd5b610cf6611305565b8580610d0557610d0461167f565b5b82600060048110610d1957610d18611650565b5b602002015187610d2991906116dd565b83600260048110610d3d57610d3c611650565b5b60200201510881600060048110610d5757610d56611650565b5b6020020181815250508580610d6f57610d6e61167f565b5b82600160048110610d8357610d82611650565b5b602002015187610d9391906116dd565b83600360048110610da757610da6611650565b5b60200201510881600160048110610dc157610dc0611650565b5b6020020181815250508580610dd957610dd861167f565b5b81600060048110610ded57610dec611650565b5b602002015182600060048110610e0657610e05611650565b5b60200201510981600260048110610e2057610e1f611650565b5b6020020181815250508580610e3857610e3761167f565b5b81600060048110610e4c57610e4b611650565b5b602002015182600260048110610e6557610e64611650565b5b60200201510981600360048110610e7f57610e7e611650565b5b60200201818152505060008680610e9957610e9861167f565b5b82600360048110610ead57610eac611650565b5b602002015188610ebd91906116dd565b8880610ecc57610ecb61167f565b5b84600160048110610ee057610edf611650565b5b602002015185600160048110610ef957610ef8611650565b5b6020020151090890508680610f1157610f1061167f565b5b8780610f2057610f1f61167f565b5b8880610f2f57610f2e61167f565b5b84600260048110610f4357610f42611650565b5b602002015186600060048110610f5c57610f5b611650565b5b60200201510960020988610f7091906116dd565b8208905060008780610f8557610f8461167f565b5b8880610f9457610f9361167f565b5b838a610fa091906116dd565b8a80610faf57610fae61167f565b5b86600260048110610fc357610fc2611650565b5b602002015188600060048110610fdc57610fdb611650565b5b6020020151090884600160048110610ff757610ff6611650565b5b6020020151099050878061100e5761100d61167f565b5b888061101d5761101c61167f565b5b8460036004811061103157611030611650565b5b60200201518660016004811061104a57611049611650565b5b6020020151098961105b91906116dd565b82089050600088806110705761106f61167f565b5b898061107f5761107e61167f565b5b8b8f098560006004811061109657611095611650565b5b602002015109905082828297509750975050505050505b9750975097945050505050565b60008060006110c985856111f7565b9050600084806110dc576110db61167f565b5b8283099050600085806110f2576110f161167f565b5b828a099050600086806111085761110761167f565b5b87806111175761111661167f565b5b8486098a0990508181955095505050505094509492505050565b6000808483858561114291906116dd565b61114c919061178e565b91509150935093915050565b6000806000808903611172578787879250925092506111eb565b60008990506000806000600190505b600084146111dd57600060018516146111b0576111a38383838f8f8f8e610a3b565b8093508194508295505050505b6002846111bd91906117bf565b93506111cc8c8c8c8c8c61087d565b809c50819d50829e50505050611181565b828282965096509650505050505b96509650969350505050565b60008083141580156112095750818314155b8015611216575060008214155b611255576040517f08c379a000000000000000000000000000000000000000000000000000000000815260040161124c9061183c565b60405180910390fd5b60008060019050600084905060005b600087146112d657868261127891906117bf565b905082868061128a5761128961167f565b5b87806112995761129861167f565b5b858409886112a791906116dd565b860880945081955050508687826112be919061185c565b836112c991906116dd565b8098508193505050611264565b8394505050505092915050565b6040518060400160405280600290602082028036833780820191505090505090565b6040518060800160405280600490602082028036833780820191505090505090565b6000819050919050565b61133a81611327565b82525050565b60006020820190506113556000830184611331565b92915050565b6000604051905090565b600080fd5b600080fd5b6000601f19601f8301169050919050565b7f4e487b7100000000000000000000000000000000000000000000000000000000600052604160045260246000fd5b6113b88261136f565b810181811067ffffffffffffffff821117156113d7576113d6611380565b5b80604052505050565b60006113ea61135b565b90506113f682826113af565b919050565b600067ffffffffffffffff82111561141657611415611380565b5b602082029050919050565b600080fd5b61142f81611327565b811461143a57600080fd5b50565b60008135905061144c81611426565b92915050565b6000611465611460846113fb565b6113e0565b9050806020840283018581111561147f5761147e611421565b5b835b818110156114a85780611494888261143d565b845260208401935050602081019050611481565b5050509392505050565b600082601f8301126114c7576114c661136a565b5b60026114d4848285611452565b91505092915050565b600080608083850312156114f4576114f3611365565b5b6000611502858286016114b2565b9250506040611513858286016114b2565b9150509250929050565b600060029050919050565b600081905092915050565b6000819050919050565b61154681611327565b82525050565b6000611558838361153d565b60208301905092915050565b6000602082019050919050565b61157a8161151d565b6115848184611528565b925061158f82611533565b8060005b838110156115c05781516115a7878261154c565b96506115b283611564565b925050600181019050611593565b505050505050565b60006040820190506115dd6000830184611571565b92915050565b6000602082840312156115f9576115f8611365565b5b60006116078482850161143d565b91505092915050565b6000806060838503121561162757611626611365565b5b6000611635858286016114b2565b92505060406116468582860161143d565b9150509250929050565b7f4e487b7100000000000000000000000000000000000000000000000000000000600052603260045260246000fd5b7f4e487b7100000000000000000000000000000000000000000000000000000000600052601260045260246000fd5b7f4e487b7100000000000000000000000000000000000000000000000000000000600052601160045260246000fd5b60006116e882611327565b91506116f383611327565b925082820390508181111561170b5761170a6116ae565b5b92915050565b600082825260208201905092915050565b7f557365206a6163446f75626c652066756e6374696f6e20696e73746561640000600082015250565b6000611758601e83611711565b915061176382611722565b602082019050919050565b600060208201905081810360008301526117878161174b565b9050919050565b600061179982611327565b91506117a483611327565b9250826117b4576117b361167f565b5b828206905092915050565b60006117ca82611327565b91506117d583611327565b9250826117e5576117e461167f565b5b828204905092915050565b7f496e76616c6964206e756d626572000000000000000000000000000000000000600082015250565b6000611826600e83611711565b9150611831826117f0565b602082019050919050565b6000602082019050818103600083015261185581611819565b9050919050565b600061186782611327565b915061187283611327565b925082820261188081611327565b91508282048414831517611897576118966116ae565b5b509291505056fea2646970667358221220e48f35ee20bc4da02fc612e2266e9501b7f05cc7e9f290541156cd38c902734a64736f6c63430008130033",
			"opcodes": "PUSH1 0x80 PUSH1 0x40 MSTORE PUSH1 0x40 MLOAD DUP1 PUSH1 0x40 ADD PUSH1 0x40 MSTORE DUP1 PUSH1 0x7 DUP2 MSTORE PUSH1 0x20 ADD PUSH32 0x4D6574656F726100000000000000000000000000000000000000000000000000 DUP2 MSTORE POP PUSH1 0x4 SWAP1 DUP2 PUSH3 0x4A SWAP2 SWAP1 PUSH3 0x3DA JUMP JUMPDEST POP PUSH1 0x40 MLOAD DUP1 PUSH1 0x40 ADD PUSH1 0x40 MSTORE DUP1 PUSH1 0x3 DUP2 MSTORE PUSH1 0x20 ADD PUSH32 0x4D45540000000000000000000000000000000000000000000000000000000000 DUP2 MSTORE POP PUSH1 0x5 SWAP1 DUP2 PUSH3 0x91 SWAP2 SWAP1 PUSH3 0x3DA JUMP JUMPDEST POP PUSH1 0x40 MLOAD PUSH3 0xA0 SWAP1 PUSH3 0x152 JUMP JUMPDEST PUSH1 0x40 MLOAD DUP1 SWAP2 SUB SWAP1 PUSH1 0x0 CREATE DUP1 ISZERO DUP1 ISZERO PUSH3 0xBD JUMPI RETURNDATASIZE PUSH1 0x0 DUP1 RETURNDATACOPY RETURNDATASIZE PUSH1 0x0 REVERT JUMPDEST POP PUSH1 0x6 PUSH1 0x0 PUSH2 0x100 EXP DUP2 SLOAD DUP2 PUSH20 0xFFFFFFFFFFFFFFFFFFFFFFFFFFFFFFFFFFFFFFFF MUL NOT AND SWAP1 DUP4 PUSH20 0xFFFFFFFFFFFFFFFFFFFFFFFFFFFFFFFFFFFFFFFF AND MUL OR SWAP1 SSTORE POP CALLVALUE DUP1 ISZERO PUSH3 0x10B JUMPI PUSH1 0x0 DUP1 REVERT JUMPDEST POP CALLER PUSH1 0x0 DUP1 PUSH2 0x100 EXP DUP2 SLOAD DUP2 PUSH20 0xFFFFFFFFFFFFFFFFFFFFFFFFFFFFFFFFFFFFFFFF MUL NOT AND SWAP1 DUP4 PUSH20 0xFFFFFFFFFFFFFFFFFFFFFFFFFFFFFFFFFFFFFFFF AND MUL OR SWAP1 SSTORE POP PUSH3 0x4C1 JUMP JUMPDEST PUSH2 0x18F4 DUP1 PUSH3 0x2EE0 DUP4 CODECOPY ADD SWAP1 JUMP JUMPDEST PUSH1 0x0 DUP2 MLOAD SWAP1 POP SWAP2 SWAP1 POP JUMP JUMPDEST PUSH32 0x4E487B7100000000000000000000000000000000000000000000000000000000 PUSH1 0x0 MSTORE PUSH1 0x41 PUSH1 0x4 MSTORE PUSH1 0x24 PUSH1 0x0 REVERT JUMPDEST PUSH32 0x4E487B7100000000000000000000000000000000000000000000000000000000 PUSH1 0x0 MSTORE PUSH1 0x22 PUSH1 0x4 MSTORE PUSH1 0x24 PUSH1 0x0 REVERT JUMPDEST PUSH1 0x0 PUSH1 0x2 DUP3 DIV SWAP1 POP PUSH1 0x1 DUP3 AND DUP1 PUSH3 0x1E2 JUMPI PUSH1 0x7F DUP3 AND SWAP2 POP JUMPDEST PUSH1 0x20 DUP3 LT DUP2 SUB PUSH3 0x1F8 JUMPI PUSH3 0x1F7 PUSH3 0x19A JUMP JUMPDEST JUMPDEST POP SWAP2 SWAP1 POP JUMP JUMPDEST PUSH1 0x0 DUP2 SWAP1 POP DUP2 PUSH1 0x0 MSTORE PUSH1 0x20 PUSH1 0x0 KECCAK256 SWAP1 POP SWAP2 SWAP1 POP JUMP JUMPDEST PUSH1 0x0 PUSH1 0x20 PUSH1 0x1F DUP4 ADD DIV SWAP1 POP SWAP2 SWAP1 POP JUMP JUMPDEST PUSH1 0x0 DUP3 DUP3 SHL SWAP1 POP SWAP3 SWAP2 POP POP JUMP JUMPDEST PUSH1 0x0 PUSH1 0x8 DUP4 MUL PUSH3 0x262 PUSH32 0xFFFFFFFFFFFFFFFFFFFFFFFFFFFFFFFFFFFFFFFFFFFFFFFFFFFFFFFFFFFFFFFF DUP3 PUSH3 0x223 JUMP JUMPDEST PUSH3 0x26E DUP7 DUP4 PUSH3 0x223 JUMP JUMPDEST SWAP6 POP DUP1 NOT DUP5 AND SWAP4 POP DUP1 DUP7 AND DUP5 OR SWAP3 POP POP POP SWAP4 SWAP3 POP POP POP JUMP JUMPDEST PUSH1 0x0 DUP2 SWAP1 POP SWAP2 SWAP1 POP JUMP JUMPDEST PUSH1 0x0 DUP2 SWAP1 POP SWAP2 SWAP1 POP JUMP JUMPDEST PUSH1 0x0 PUSH3 0x2BB PUSH3 0x2B5 PUSH3 0x2AF DUP5 PUSH3 0x286 JUMP JUMPDEST PUSH3 0x290 JUMP JUMPDEST PUSH3 0x286 JUMP JUMPDEST SWAP1 POP SWAP2 SWAP1 POP JUMP JUMPDEST PUSH1 0x0 DUP2 SWAP1 POP SWAP2 SWAP1 POP JUMP JUMPDEST PUSH3 0x2D7 DUP4 PUSH3 0x29A JUMP JUMPDEST PUSH3 0x2EF PUSH3 0x2E6 DUP3 PUSH3 0x2C2 JUMP JUMPDEST DUP5 DUP5 SLOAD PUSH3 0x230 JUMP JUMPDEST DUP3 SSTORE POP POP POP POP JUMP JUMPDEST PUSH1 0x0 SWAP1 JUMP JUMPDEST PUSH3 0x306 PUSH3 0x2F7 JUMP JUMPDEST PUSH3 0x313 DUP2 DUP5 DUP5 PUSH3 0x2CC JUMP JUMPDEST POP POP POP JUMP JUMPDEST JUMPDEST DUP2 DUP2 LT ISZERO PUSH3 0x33B JUMPI PUSH3 0x32F PUSH1 0x0 DUP3 PUSH3 0x2FC JUMP JUMPDEST PUSH1 0x1 DUP2 ADD SWAP1 POP PUSH3 0x319 JUMP JUMPDEST POP POP JUMP JUMPDEST PUSH1 0x1F DUP3 GT ISZERO PUSH3 0x38A JUMPI PUSH3 0x354 DUP2 PUSH3 0x1FE JUMP JUMPDEST PUSH3 0x35F DUP5 PUSH3 0x213 JUMP JUMPDEST DUP2 ADD PUSH1 0x20 DUP6 LT ISZERO PUSH3 0x36F JUMPI DUP2 SWAP1 POP JUMPDEST PUSH3 0x387 PUSH3 0x37E DUP6 PUSH3 0x213 JUMP JUMPDEST DUP4 ADD DUP3 PUSH3 0x318 JUMP JUMPDEST POP POP JUMPDEST POP POP POP JUMP JUMPDEST PUSH1 0x0 DUP3 DUP3 SHR SWAP1 POP SWAP3 SWAP2 POP POP JUMP JUMPDEST PUSH1 0x0 PUSH3 0x3AF PUSH1 0x0 NOT DUP5 PUSH1 0x8 MUL PUSH3 0x38F JUMP JUMPDEST NOT DUP1 DUP4 AND SWAP2 POP POP SWAP3 SWAP2 POP POP JUMP JUMPDEST PUSH1 0x0 PUSH3 0x3CA DUP4 DUP4 PUSH3 0x39C JUMP JUMPDEST SWAP2 POP DUP3 PUSH1 0x2 MUL DUP3 OR SWAP1 POP SWAP3 SWAP2 POP POP JUMP JUMPDEST PUSH3 0x3E5 DUP3 PUSH3 0x160 JUMP JUMPDEST PUSH8 0xFFFFFFFFFFFFFFFF DUP2 GT ISZERO PUSH3 0x401 JUMPI PUSH3 0x400 PUSH3 0x16B JUMP JUMPDEST JUMPDEST PUSH3 0x40D DUP3 SLOAD PUSH3 0x1C9 JUMP JUMPDEST PUSH3 0x41A DUP3 DUP3 DUP6 PUSH3 0x33F JUMP JUMPDEST PUSH1 0x0 PUSH1 0x20 SWAP1 POP PUSH1 0x1F DUP4 GT PUSH1 0x1 DUP2 EQ PUSH3 0x452 JUMPI PUSH1 0x0 DUP5 ISZERO PUSH3 0x43D JUMPI DUP3 DUP8 ADD MLOAD SWAP1 POP JUMPDEST PUSH3 0x449 DUP6 DUP3 PUSH3 0x3BC JUMP JUMPDEST DUP7 SSTORE POP PUSH3 0x4B9 JUMP JUMPDEST PUSH1 0x1F NOT DUP5 AND PUSH3 0x462 DUP7 PUSH3 0x1FE JUMP JUMPDEST PUSH1 0x0 JUMPDEST DUP3 DUP2 LT ISZERO PUSH3 0x48C JUMPI DUP5 DUP10 ADD MLOAD DUP3 SSTORE PUSH1 0x1 DUP3 ADD SWAP2 POP PUSH1 0x20 DUP6 ADD SWAP5 POP PUSH1 0x20 DUP2 ADD SWAP1 POP PUSH3 0x465 JUMP JUMPDEST DUP7 DUP4 LT ISZERO PUSH3 0x4AC JUMPI DUP5 DUP10 ADD MLOAD PUSH3 0x4A8 PUSH1 0x1F DUP10 AND DUP3 PUSH3 0x39C JUMP JUMPDEST DUP4 SSTORE POP JUMPDEST PUSH1 0x1 PUSH1 0x2 DUP9 MUL ADD DUP9 SSTORE POP POP POP JUMPDEST POP POP POP POP POP POP JUMP JUMPDEST PUSH2 0x2A0F DUP1 PUSH3 0x4D1 PUSH1 0x0 CODECOPY PUSH1 0x0 RETURN INVALID PUSH1 0x80 PUSH1 0x40 MSTORE CALLVALUE DUP1 ISZERO PUSH2 0x10 JUMPI PUSH1 0x0 DUP1 REVERT JUMPDEST POP PUSH1 0x4 CALLDATASIZE LT PUSH2 0x88 JUMPI PUSH1 0x0 CALLDATALOAD PUSH1 0xE0 SHR DUP1 PUSH4 0x6CC42756 GT PUSH2 0x5B JUMPI DUP1 PUSH4 0x6CC42756 EQ PUSH2 0x13B JUMPI DUP1 PUSH4 0xA8660C1F EQ PUSH2 0x16B JUMPI DUP1 PUSH4 0xC01DA18B EQ PUSH2 0x19B JUMPI DUP1 PUSH4 0xF80E3E00 EQ PUSH2 0x1B9 JUMPI PUSH2 0x88 JUMP JUMPDEST DUP1 PUSH4 0x7F51A9A EQ PUSH2 0x8D JUMPI DUP1 PUSH4 0xD47535F EQ PUSH2 0xBD JUMPI DUP1 PUSH4 0x5A9B0B89 EQ PUSH2 0xED JUMPI DUP1 PUSH4 0x61DF00B1 EQ PUSH2 0x10B JUMPI JUMPDEST PUSH1 0x0 DUP1 REVERT JUMPDEST PUSH2 0xA7 PUSH1 0x4 DUP1 CALLDATASIZE SUB DUP2 ADD SWAP1 PUSH2 0xA2 SWAP2 SWAP1 PUSH2 0x19F0 JUMP JUMPDEST PUSH2 0x1E9 JUMP JUMPDEST PUSH1 0x40 MLOAD PUSH2 0xB4 SWAP2 SWAP1 PUSH2 0x1AF7 JUMP JUMPDEST PUSH1 0x40 MLOAD DUP1 SWAP2 SUB SWAP1 RETURN JUMPDEST PUSH2 0xD7 PUSH1 0x4 DUP1 CALLDATASIZE SUB DUP2 ADD SWAP1 PUSH2 0xD2 SWAP2 SWAP1 PUSH2 0x1B7B JUMP JUMPDEST PUSH2 0x1F3 JUMP JUMPDEST PUSH1 0x40 MLOAD PUSH2 0xE4 SWAP2 SWAP1 PUSH2 0x1C5D JUMP JUMPDEST PUSH1 0x40 MLOAD DUP1 SWAP2 SUB SWAP1 RETURN JUMPDEST PUSH2 0xF5 PUSH2 0x203 JUMP JUMPDEST PUSH1 0x40 MLOAD PUSH2 0x102 SWAP2 SWAP1 PUSH2 0x1CFE JUMP JUMPDEST PUSH1 0x40 MLOAD DUP1 SWAP2 SUB SWAP1 RETURN JUMPDEST PUSH2 0x125 PUSH1 0x4 DUP1 CALLDATASIZE SUB DUP2 ADD SWAP1 PUSH2 0x120 SWAP2 SWAP1 PUSH2 0x205D JUMP JUMPDEST PUSH2 0x240 JUMP JUMPDEST PUSH1 0x40 MLOAD PUSH2 0x132 SWAP2 SWAP1 PUSH2 0x2321 JUMP JUMPDEST PUSH1 0x40 MLOAD DUP1 SWAP2 SUB SWAP1 RETURN JUMPDEST PUSH2 0x155 PUSH1 0x4 DUP1 CALLDATASIZE SUB DUP2 ADD SWAP1 PUSH2 0x150 SWAP2 SWAP1 PUSH2 0x2377 JUMP JUMPDEST PUSH2 0x250 JUMP JUMPDEST PUSH1 0x40 MLOAD PUSH2 0x162 SWAP2 SWAP1 PUSH2 0x244C JUMP JUMPDEST PUSH1 0x40 MLOAD DUP1 SWAP2 SUB SWAP1 RETURN JUMPDEST PUSH2 0x185 PUSH1 0x4 DUP1 CALLDATASIZE SUB DUP2 ADD SWAP1 PUSH2 0x180 SWAP2 SWAP1 PUSH2 0x2467 JUMP JUMPDEST PUSH2 0x34B JUMP JUMPDEST PUSH1 0x40 MLOAD PUSH2 0x192 SWAP2 SWAP1 PUSH2 0x244C JUMP JUMPDEST PUSH1 0x40 MLOAD DUP1 SWAP2 SUB SWAP1 RETURN JUMPDEST PUSH2 0x1A3 PUSH2 0x12F1 JUMP JUMPDEST PUSH1 0x40 MLOAD PUSH2 0x1B0 SWAP2 SWAP1 PUSH2 0x25A8 JUMP JUMPDEST PUSH1 0x40 MLOAD DUP1 SWAP2 SUB SWAP1 RETURN JUMPDEST PUSH2 0x1D3 PUSH1 0x4 DUP1 CALLDATASIZE SUB DUP2 ADD SWAP1 PUSH2 0x1CE SWAP2 SWAP1 PUSH2 0x25CA JUMP JUMPDEST PUSH2 0x13BF JUMP JUMPDEST PUSH1 0x40 MLOAD PUSH2 0x1E0 SWAP2 SWAP1 PUSH2 0x2606 JUMP JUMPDEST PUSH1 0x40 MLOAD DUP1 SWAP2 SUB SWAP1 RETURN JUMPDEST PUSH1 0x60 DUP2 SWAP1 POP SWAP2 SWAP1 POP JUMP JUMPDEST PUSH2 0x1FB PUSH2 0x1688 JUMP JUMPDEST DUP2 SWAP1 POP SWAP2 SWAP1 POP JUMP JUMPDEST PUSH1 0x60 PUSH1 0x40 MLOAD DUP1 PUSH1 0x40 ADD PUSH1 0x40 MSTORE DUP1 PUSH1 0xB DUP2 MSTORE PUSH1 0x20 ADD PUSH32 0x48656C6C6F20576F726C64000000000000000000000000000000000000000000 DUP2 MSTORE POP SWAP1 POP SWAP1 JUMP JUMPDEST PUSH2 0x248 PUSH2 0x169B JUMP JUMPDEST DUP2 SWAP1 POP SWAP2 SWAP1 POP JUMP JUMPDEST PUSH1 0x0 PUSH2 0x25A PUSH2 0x169B JUMP JUMPDEST DUP9 DUP2 PUSH1 0x0 ADD DUP2 DUP2 MSTORE POP POP DUP8 DUP2 PUSH1 0x20 ADD DUP2 SWAP1 MSTORE POP DUP7 DUP2 PUSH1 0x40 ADD DUP2 SWAP1 MSTORE POP DUP6 DUP2 PUSH1 0x60 ADD DUP2 SWAP1 MSTORE POP PUSH1 0x3 DUP2 PUSH1 0x20 ADD MLOAD SWAP1 DUP1 PUSH1 0x1 DUP2 SLOAD ADD DUP1 DUP3 SSTORE DUP1 SWAP2 POP POP PUSH1 0x1 SWAP1 SUB SWAP1 PUSH1 0x0 MSTORE PUSH1 0x20 PUSH1 0x0 KECCAK256 SWAP1 PUSH1 0x2 MUL ADD PUSH1 0x0 SWAP1 SWAP2 SWAP1 SWAP2 SWAP1 SWAP2 POP SWAP1 PUSH1 0x2 PUSH2 0x2BD SWAP3 SWAP2 SWAP1 PUSH2 0x16D5 JUMP JUMPDEST POP ADDRESS PUSH20 0xFFFFFFFFFFFFFFFFFFFFFFFFFFFFFFFFFFFFFFFF AND PUSH4 0xA8660C1F DUP12 DUP4 PUSH1 0x40 MLOAD DUP4 PUSH4 0xFFFFFFFF AND PUSH1 0xE0 SHL DUP2 MSTORE PUSH1 0x4 ADD PUSH2 0x2F9 SWAP3 SWAP2 SWAP1 PUSH2 0x2621 JUMP JUMPDEST PUSH1 0x20 PUSH1 0x40 MLOAD DUP1 DUP4 SUB DUP2 PUSH1 0x0 DUP8 GAS CALL ISZERO DUP1 ISZERO PUSH2 0x318 JUMPI RETURNDATASIZE PUSH1 0x0 DUP1 RETURNDATACOPY RETURNDATASIZE PUSH1 0x0 REVERT JUMPDEST POP POP POP POP PUSH1 0x40 MLOAD RETURNDATASIZE PUSH1 0x1F NOT PUSH1 0x1F DUP3 ADD AND DUP3 ADD DUP1 PUSH1 0x40 MSTORE POP DUP2 ADD SWAP1 PUSH2 0x33C SWAP2 SWAP1 PUSH2 0x2677 JUMP JUMPDEST SWAP2 POP POP SWAP9 SWAP8 POP POP POP POP POP POP POP POP JUMP JUMPDEST PUSH1 0x0 PUSH2 0x355 PUSH2 0x1715 JUMP JUMPDEST PUSH2 0x35D PUSH2 0x176F JUMP JUMPDEST PUSH1 0x0 DUP5 PUSH1 0x20 ADD MLOAD SWAP1 POP PUSH1 0x0 DUP6 PUSH1 0x60 ADD MLOAD SWAP1 POP DUP6 PUSH1 0x0 ADD MLOAD DUP4 PUSH1 0x0 PUSH1 0x66 DUP2 LT PUSH2 0x388 JUMPI PUSH2 0x387 PUSH2 0x26A4 JUMP JUMPDEST JUMPDEST PUSH1 0x20 MUL ADD DUP2 DUP2 MSTORE POP POP PUSH1 0x0 DUP1 DUP1 PUSH2 0x39D PUSH2 0x1792 JUMP JUMPDEST PUSH2 0x3A5 PUSH2 0x1792 JUMP JUMPDEST PUSH1 0x60 PUSH1 0x0 JUMPDEST PUSH1 0x2 DUP14 PUSH1 0x40 ADD MLOAD POP PUSH1 0x4 PUSH2 0x3BE SWAP2 SWAP1 PUSH2 0x2702 JUMP JUMPDEST DUP2 LT ISZERO PUSH2 0xB5B JUMPI DUP13 PUSH1 0x40 ADD MLOAD DUP2 PUSH1 0x4 DUP2 LT PUSH2 0x3DC JUMPI PUSH2 0x3DB PUSH2 0x26A4 JUMP JUMPDEST JUMPDEST PUSH1 0x20 MUL ADD MLOAD SWAP6 POP DUP13 PUSH1 0x40 ADD MLOAD PUSH1 0x1 DUP3 PUSH2 0x3F5 SWAP2 SWAP1 PUSH2 0x2736 JUMP JUMPDEST PUSH1 0x4 DUP2 LT PUSH2 0x406 JUMPI PUSH2 0x405 PUSH2 0x26A4 JUMP JUMPDEST JUMPDEST PUSH1 0x20 MUL ADD MLOAD SWAP5 POP DUP8 DUP8 PUSH1 0x2 DUP2 LT PUSH2 0x420 JUMPI PUSH2 0x41F PUSH2 0x26A4 JUMP JUMPDEST JUMPDEST PUSH1 0x20 MUL ADD MLOAD PUSH1 0x0 PUSH1 0x2 DUP2 LT PUSH2 0x438 JUMPI PUSH2 0x437 PUSH2 0x26A4 JUMP JUMPDEST JUMPDEST PUSH1 0x20 MUL ADD MLOAD SWAP4 POP DUP8 DUP8 PUSH1 0x2 DUP2 LT PUSH2 0x452 JUMPI PUSH2 0x451 PUSH2 0x26A4 JUMP JUMPDEST JUMPDEST PUSH1 0x20 MUL ADD MLOAD PUSH1 0x1 PUSH1 0x2 DUP2 LT PUSH2 0x46A JUMPI PUSH2 0x469 PUSH2 0x26A4 JUMP JUMPDEST JUMPDEST PUSH1 0x20 MUL ADD MLOAD SWAP3 POP PUSH1 0x6 PUSH1 0x0 SWAP1 SLOAD SWAP1 PUSH2 0x100 EXP SWAP1 DIV PUSH20 0xFFFFFFFFFFFFFFFFFFFFFFFFFFFFFFFFFFFFFFFF AND PUSH20 0xFFFFFFFFFFFFFFFFFFFFFFFFFFFFFFFFFFFFFFFF AND PUSH4 0xBB734C4E DUP8 PUSH1 0x40 MLOAD DUP3 PUSH4 0xFFFFFFFF AND PUSH1 0xE0 SHL DUP2 MSTORE PUSH1 0x4 ADD PUSH2 0x4CC SWAP2 SWAP1 PUSH2 0x2606 JUMP JUMPDEST PUSH1 0x40 DUP1 MLOAD DUP1 DUP4 SUB DUP2 DUP7 GAS STATICCALL ISZERO DUP1 ISZERO PUSH2 0x4E8 JUMPI RETURNDATASIZE PUSH1 0x0 DUP1 RETURNDATACOPY RETURNDATASIZE PUSH1 0x0 REVERT JUMPDEST POP POP POP POP PUSH1 0x40 MLOAD RETURNDATASIZE PUSH1 0x1F NOT PUSH1 0x1F DUP3 ADD AND DUP3 ADD DUP1 PUSH1 0x40 MSTORE POP DUP2 ADD SWAP1 PUSH2 0x50C SWAP2 SWAP1 PUSH2 0x280A JUMP JUMPDEST DUP12 PUSH1 0x0 ADD DUP2 SWAP1 MSTORE POP PUSH1 0x6 PUSH1 0x0 SWAP1 SLOAD SWAP1 PUSH2 0x100 EXP SWAP1 DIV PUSH20 0xFFFFFFFFFFFFFFFFFFFFFFFFFFFFFFFFFFFFFFFF AND PUSH20 0xFFFFFFFFFFFFFFFFFFFFFFFFFFFFFFFFFFFFFFFF AND PUSH4 0xACA8F56E DUP6 DUP13 DUP11 PUSH1 0x66 DUP2 LT PUSH2 0x566 JUMPI PUSH2 0x565 PUSH2 0x26A4 JUMP JUMPDEST JUMPDEST PUSH1 0x20 MUL ADD MLOAD PUSH1 0x40 MLOAD DUP4 PUSH4 0xFFFFFFFF AND PUSH1 0xE0 SHL DUP2 MSTORE PUSH1 0x4 ADD PUSH2 0x588 SWAP3 SWAP2 SWAP1 PUSH2 0x2899 JUMP JUMPDEST PUSH1 0x40 DUP1 MLOAD DUP1 DUP4 SUB DUP2 DUP7 GAS STATICCALL ISZERO DUP1 ISZERO PUSH2 0x5A4 JUMPI RETURNDATASIZE PUSH1 0x0 DUP1 RETURNDATACOPY RETURNDATASIZE PUSH1 0x0 REVERT JUMPDEST POP POP POP POP PUSH1 0x40 MLOAD RETURNDATASIZE PUSH1 0x1F NOT PUSH1 0x1F DUP3 ADD AND DUP3 ADD DUP1 PUSH1 0x40 MSTORE POP DUP2 ADD SWAP1 PUSH2 0x5C8 SWAP2 SWAP1 PUSH2 0x280A JUMP JUMPDEST DUP12 PUSH1 0x20 ADD DUP2 SWAP1 MSTORE POP PUSH1 0x6 PUSH1 0x0 SWAP1 SLOAD SWAP1 PUSH2 0x100 EXP SWAP1 DIV PUSH20 0xFFFFFFFFFFFFFFFFFFFFFFFFFFFFFFFFFFFFFFFF AND PUSH20 0xFFFFFFFFFFFFFFFFFFFFFFFFFFFFFFFFFFFFFFFF AND PUSH4 0xACA8F56E DUP6 DUP9 PUSH1 0x40 MLOAD DUP4 PUSH4 0xFFFFFFFF AND PUSH1 0xE0 SHL DUP2 MSTORE PUSH1 0x4 ADD PUSH2 0x62D SWAP3 SWAP2 SWAP1 PUSH2 0x2899 JUMP JUMPDEST PUSH1 0x40 DUP1 MLOAD DUP1 DUP4 SUB DUP2 DUP7 GAS STATICCALL ISZERO DUP1 ISZERO PUSH2 0x649 JUMPI RETURNDATASIZE PUSH1 0x0 DUP1 RETURNDATACOPY RETURNDATASIZE PUSH1 0x0 REVERT JUMPDEST POP POP POP POP PUSH1 0x40 MLOAD RETURNDATASIZE PUSH1 0x1F NOT PUSH1 0x1F DUP3 ADD AND DUP3 ADD DUP1 PUSH1 0x40 MSTORE POP DUP2 ADD SWAP1 PUSH2 0x66D SWAP2 SWAP1 PUSH2 0x280A JUMP JUMPDEST DUP12 PUSH1 0x40 ADD DUP2 SWAP1 MSTORE POP PUSH1 0x6 PUSH1 0x0 SWAP1 SLOAD SWAP1 PUSH2 0x100 EXP SWAP1 DIV PUSH20 0xFFFFFFFFFFFFFFFFFFFFFFFFFFFFFFFFFFFFFFFF AND PUSH20 0xFFFFFFFFFFFFFFFFFFFFFFFFFFFFFFFFFFFFFFFF AND PUSH4 0xACA8F56E DUP11 DUP13 DUP11 PUSH1 0x66 DUP2 LT PUSH2 0x6C7 JUMPI PUSH2 0x6C6 PUSH2 0x26A4 JUMP JUMPDEST JUMPDEST PUSH1 0x20 MUL ADD MLOAD PUSH1 0x40 MLOAD DUP4 PUSH4 0xFFFFFFFF AND PUSH1 0xE0 SHL DUP2 MSTORE PUSH1 0x4 ADD PUSH2 0x6E9 SWAP3 SWAP2 SWAP1 PUSH2 0x2899 JUMP JUMPDEST PUSH1 0x40 DUP1 MLOAD DUP1 DUP4 SUB DUP2 DUP7 GAS STATICCALL ISZERO DUP1 ISZERO PUSH2 0x705 JUMPI RETURNDATASIZE PUSH1 0x0 DUP1 RETURNDATACOPY RETURNDATASIZE PUSH1 0x0 REVERT JUMPDEST POP POP POP POP PUSH1 0x40 MLOAD RETURNDATASIZE PUSH1 0x1F NOT PUSH1 0x1F DUP3 ADD AND DUP3 ADD DUP1 PUSH1 0x40 MSTORE POP DUP2 ADD SWAP1 PUSH2 0x729 SWAP2 SWAP1 PUSH2 0x280A JUMP JUMPDEST DUP12 PUSH1 0x60 ADD DUP2 SWAP1 MSTORE POP PUSH1 0x6 PUSH1 0x0 SWAP1 SLOAD SWAP1 PUSH2 0x100 EXP SWAP1 DIV PUSH20 0xFFFFFFFFFFFFFFFFFFFFFFFFFFFFFFFFFFFFFFFF AND PUSH20 0xFFFFFFFFFFFFFFFFFFFFFFFFFFFFFFFFFFFFFFFF AND PUSH4 0xBB734C4E DUP7 PUSH1 0x40 MLOAD DUP3 PUSH4 0xFFFFFFFF AND PUSH1 0xE0 SHL DUP2 MSTORE PUSH1 0x4 ADD PUSH2 0x78C SWAP2 SWAP1 PUSH2 0x2606 JUMP JUMPDEST PUSH1 0x40 DUP1 MLOAD DUP1 DUP4 SUB DUP2 DUP7 GAS STATICCALL ISZERO DUP1 ISZERO PUSH2 0x7A8 JUMPI RETURNDATASIZE PUSH1 0x0 DUP1 RETURNDATACOPY RETURNDATASIZE PUSH1 0x0 REVERT JUMPDEST POP POP POP POP PUSH1 0x40 MLOAD RETURNDATASIZE PUSH1 0x1F NOT PUSH1 0x1F DUP3 ADD AND DUP3 ADD DUP1 PUSH1 0x40 MSTORE POP DUP2 ADD SWAP1 PUSH2 0x7CC SWAP2 SWAP1 PUSH2 0x280A JUMP JUMPDEST DUP12 PUSH1 0x80 ADD DUP2 SWAP1 MSTORE POP PUSH1 0x6 PUSH1 0x0 SWAP1 SLOAD SWAP1 PUSH2 0x100 EXP SWAP1 DIV PUSH20 0xFFFFFFFFFFFFFFFFFFFFFFFFFFFFFFFFFFFFFFFF AND PUSH20 0xFFFFFFFFFFFFFFFFFFFFFFFFFFFFFFFFFFFFFFFF AND PUSH4 0xACA8F56E DUP5 DUP13 DUP11 PUSH1 0x66 DUP2 LT PUSH2 0x826 JUMPI PUSH2 0x825 PUSH2 0x26A4 JUMP JUMPDEST JUMPDEST PUSH1 0x20 MUL ADD MLOAD PUSH1 0x40 MLOAD DUP4 PUSH4 0xFFFFFFFF AND PUSH1 0xE0 SHL DUP2 MSTORE PUSH1 0x4 ADD PUSH2 0x848 SWAP3 SWAP2 SWAP1 PUSH2 0x2899 JUMP JUMPDEST PUSH1 0x40 DUP1 MLOAD DUP1 DUP4 SUB DUP2 DUP7 GAS STATICCALL ISZERO DUP1 ISZERO PUSH2 0x864 JUMPI RETURNDATASIZE PUSH1 0x0 DUP1 RETURNDATACOPY RETURNDATASIZE PUSH1 0x0 REVERT JUMPDEST POP POP POP POP PUSH1 0x40 MLOAD RETURNDATASIZE PUSH1 0x1F NOT PUSH1 0x1F DUP3 ADD AND DUP3 ADD DUP1 PUSH1 0x40 MSTORE POP DUP2 ADD SWAP1 PUSH2 0x888 SWAP2 SWAP1 PUSH2 0x280A JUMP JUMPDEST DUP12 PUSH1 0xA0 ADD DUP2 SWAP1 MSTORE POP PUSH2 0x899 DUP15 PUSH2 0x13C9 JUMP JUMPDEST PUSH2 0x946 PUSH1 0x6 PUSH1 0x0 SWAP1 SLOAD SWAP1 PUSH2 0x100 EXP SWAP1 DIV PUSH20 0xFFFFFFFFFFFFFFFFFFFFFFFFFFFFFFFFFFFFFFFF AND PUSH20 0xFFFFFFFFFFFFFFFFFFFFFFFFFFFFFFFFFFFFFFFF AND PUSH4 0x1177A4A4 DUP15 PUSH1 0x0 ADD MLOAD DUP16 PUSH1 0x20 ADD MLOAD PUSH1 0x40 MLOAD DUP4 PUSH4 0xFFFFFFFF AND PUSH1 0xE0 SHL DUP2 MSTORE PUSH1 0x4 ADD PUSH2 0x901 SWAP3 SWAP2 SWAP1 PUSH2 0x28C2 JUMP JUMPDEST PUSH1 0x40 DUP1 MLOAD DUP1 DUP4 SUB DUP2 DUP7 GAS STATICCALL ISZERO DUP1 ISZERO PUSH2 0x91D JUMPI RETURNDATASIZE PUSH1 0x0 DUP1 RETURNDATACOPY RETURNDATASIZE PUSH1 0x0 REVERT JUMPDEST POP POP POP POP PUSH1 0x40 MLOAD RETURNDATASIZE PUSH1 0x1F NOT PUSH1 0x1F DUP3 ADD AND DUP3 ADD DUP1 PUSH1 0x40 MSTORE POP DUP2 ADD SWAP1 PUSH2 0x941 SWAP2 SWAP1 PUSH2 0x280A JUMP JUMPDEST PUSH2 0x1497 JUMP JUMPDEST PUSH1 0x40 MLOAD PUSH1 0x20 ADD PUSH2 0x957 SWAP3 SWAP2 SWAP1 PUSH2 0x2927 JUMP JUMPDEST PUSH1 0x40 MLOAD PUSH1 0x20 DUP2 DUP4 SUB SUB DUP2 MSTORE SWAP1 PUSH1 0x40 MSTORE SWAP2 POP DUP2 PUSH2 0xA16 PUSH1 0x6 PUSH1 0x0 SWAP1 SLOAD SWAP1 PUSH2 0x100 EXP SWAP1 DIV PUSH20 0xFFFFFFFFFFFFFFFFFFFFFFFFFFFFFFFFFFFFFFFF AND PUSH20 0xFFFFFFFFFFFFFFFFFFFFFFFFFFFFFFFFFFFFFFFF AND PUSH4 0x1177A4A4 DUP15 PUSH1 0x40 ADD MLOAD DUP16 PUSH1 0x60 ADD MLOAD PUSH1 0x40 MLOAD DUP4 PUSH4 0xFFFFFFFF AND PUSH1 0xE0 SHL DUP2 MSTORE PUSH1 0x4 ADD PUSH2 0x9D1 SWAP3 SWAP2 SWAP1 PUSH2 0x28C2 JUMP JUMPDEST PUSH1 0x40 DUP1 MLOAD DUP1 DUP4 SUB DUP2 DUP7 GAS STATICCALL ISZERO DUP1 ISZERO PUSH2 0x9ED JUMPI RETURNDATASIZE PUSH1 0x0 DUP1 RETURNDATACOPY RETURNDATASIZE PUSH1 0x0 REVERT JUMPDEST POP POP POP POP PUSH1 0x40 MLOAD RETURNDATASIZE PUSH1 0x1F NOT PUSH1 0x1F DUP3 ADD AND DUP3 ADD DUP1 PUSH1 0x40 MSTORE POP DUP2 ADD SWAP1 PUSH2 0xA11 SWAP2 SWAP1 PUSH2 0x280A JUMP JUMPDEST PUSH2 0x1497 JUMP JUMPDEST PUSH1 0x40 MLOAD PUSH1 0x20 ADD PUSH2 0xA27 SWAP3 SWAP2 SWAP1 PUSH2 0x2927 JUMP JUMPDEST PUSH1 0x40 MLOAD PUSH1 0x20 DUP2 DUP4 SUB SUB DUP2 MSTORE SWAP1 PUSH1 0x40 MSTORE SWAP2 POP DUP2 PUSH2 0xAE6 PUSH1 0x6 PUSH1 0x0 SWAP1 SLOAD SWAP1 PUSH2 0x100 EXP SWAP1 DIV PUSH20 0xFFFFFFFFFFFFFFFFFFFFFFFFFFFFFFFFFFFFFFFF AND PUSH20 0xFFFFFFFFFFFFFFFFFFFFFFFFFFFFFFFFFFFFFFFF AND PUSH4 0x1177A4A4 DUP15 PUSH1 0x80 ADD MLOAD DUP16 PUSH1 0xA0 ADD MLOAD PUSH1 0x40 MLOAD DUP4 PUSH4 0xFFFFFFFF AND PUSH1 0xE0 SHL DUP2 MSTORE PUSH1 0x4 ADD PUSH2 0xAA1 SWAP3 SWAP2 SWAP1 PUSH2 0x28C2 JUMP JUMPDEST PUSH1 0x40 DUP1 MLOAD DUP1 DUP4 SUB DUP2 DUP7 GAS STATICCALL ISZERO DUP1 ISZERO PUSH2 0xABD JUMPI RETURNDATASIZE PUSH1 0x0 DUP1 RETURNDATACOPY RETURNDATASIZE PUSH1 0x0 REVERT JUMPDEST POP POP POP POP PUSH1 0x40 MLOAD RETURNDATASIZE PUSH1 0x1F NOT PUSH1 0x1F DUP3 ADD AND DUP3 ADD DUP1 PUSH1 0x40 MSTORE POP DUP2 ADD SWAP1 PUSH2 0xAE1 SWAP2 SWAP1 PUSH2 0x280A JUMP JUMPDEST PUSH2 0x1497 JUMP JUMPDEST PUSH1 0x40 MLOAD PUSH1 0x20 ADD PUSH2 0xAF7 SWAP3 SWAP2 SWAP1 PUSH2 0x2927 JUMP JUMPDEST PUSH1 0x40 MLOAD PUSH1 0x20 DUP2 DUP4 SUB SUB DUP2 MSTORE SWAP1 PUSH1 0x40 MSTORE SWAP2 POP PUSH2 0xB11 DUP3 PUSH2 0x1502 JUMP JUMPDEST DUP11 PUSH1 0x1 DUP10 PUSH2 0xB1F SWAP2 SWAP1 PUSH2 0x2736 JUMP JUMPDEST PUSH1 0x66 DUP2 LT PUSH2 0xB30 JUMPI PUSH2 0xB2F PUSH2 0x26A4 JUMP JUMPDEST JUMPDEST PUSH1 0x20 MUL ADD DUP2 DUP2 MSTORE POP POP DUP7 DUP1 PUSH2 0xB44 SWAP1 PUSH2 0x294B JUMP JUMPDEST SWAP8 POP POP PUSH1 0x2 DUP2 PUSH2 0xB54 SWAP2 SWAP1 PUSH2 0x2736 JUMP JUMPDEST SWAP1 POP PUSH2 0x3AA JUMP JUMPDEST PUSH1 0x2 DUP14 PUSH1 0x40 ADD MLOAD POP PUSH1 0x4 PUSH2 0xB6F SWAP2 SWAP1 PUSH2 0x2702 JUMP JUMPDEST SWAP1 POP DUP13 PUSH1 0x40 ADD MLOAD DUP2 PUSH1 0x4 DUP2 LT PUSH2 0xB88 JUMPI PUSH2 0xB87 PUSH2 0x26A4 JUMP JUMPDEST JUMPDEST PUSH1 0x20 MUL ADD MLOAD SWAP6 POP DUP13 PUSH1 0x40 ADD MLOAD PUSH1 0x1 DUP3 PUSH2 0xBA1 SWAP2 SWAP1 PUSH2 0x2736 JUMP JUMPDEST PUSH1 0x4 DUP2 LT PUSH2 0xBB2 JUMPI PUSH2 0xBB1 PUSH2 0x26A4 JUMP JUMPDEST JUMPDEST PUSH1 0x20 MUL ADD MLOAD SWAP5 POP DUP8 DUP8 PUSH1 0x2 DUP2 LT PUSH2 0xBCC JUMPI PUSH2 0xBCB PUSH2 0x26A4 JUMP JUMPDEST JUMPDEST PUSH1 0x20 MUL ADD MLOAD PUSH1 0x0 PUSH1 0x2 DUP2 LT PUSH2 0xBE4 JUMPI PUSH2 0xBE3 PUSH2 0x26A4 JUMP JUMPDEST JUMPDEST PUSH1 0x20 MUL ADD MLOAD SWAP4 POP DUP8 DUP8 PUSH1 0x2 DUP2 LT PUSH2 0xBFE JUMPI PUSH2 0xBFD PUSH2 0x26A4 JUMP JUMPDEST JUMPDEST PUSH1 0x20 MUL ADD MLOAD PUSH1 0x1 PUSH1 0x2 DUP2 LT PUSH2 0xC16 JUMPI PUSH2 0xC15 PUSH2 0x26A4 JUMP JUMPDEST JUMPDEST PUSH1 0x20 MUL ADD MLOAD SWAP3 POP PUSH1 0x6 PUSH1 0x0 SWAP1 SLOAD SWAP1 PUSH2 0x100 EXP SWAP1 DIV PUSH20 0xFFFFFFFFFFFFFFFFFFFFFFFFFFFFFFFFFFFFFFFF AND PUSH20 0xFFFFFFFFFFFFFFFFFFFFFFFFFFFFFFFFFFFFFFFF AND PUSH4 0xBB734C4E DUP8 PUSH1 0x40 MLOAD DUP3 PUSH4 0xFFFFFFFF AND PUSH1 0xE0 SHL DUP2 MSTORE PUSH1 0x4 ADD PUSH2 0xC78 SWAP2 SWAP1 PUSH2 0x2606 JUMP JUMPDEST PUSH1 0x40 DUP1 MLOAD DUP1 DUP4 SUB DUP2 DUP7 GAS STATICCALL ISZERO DUP1 ISZERO PUSH2 0xC94 JUMPI RETURNDATASIZE PUSH1 0x0 DUP1 RETURNDATACOPY RETURNDATASIZE PUSH1 0x0 REVERT JUMPDEST POP POP POP POP PUSH1 0x40 MLOAD RETURNDATASIZE PUSH1 0x1F NOT PUSH1 0x1F DUP3 ADD AND DUP3 ADD DUP1 PUSH1 0x40 MSTORE POP DUP2 ADD SWAP1 PUSH2 0xCB8 SWAP2 SWAP1 PUSH2 0x280A JUMP JUMPDEST DUP12 PUSH1 0x0 ADD DUP2 SWAP1 MSTORE POP PUSH1 0x6 PUSH1 0x0 SWAP1 SLOAD SWAP1 PUSH2 0x100 EXP SWAP1 DIV PUSH20 0xFFFFFFFFFFFFFFFFFFFFFFFFFFFFFFFFFFFFFFFF AND PUSH20 0xFFFFFFFFFFFFFFFFFFFFFFFFFFFFFFFFFFFFFFFF AND PUSH4 0xACA8F56E DUP6 DUP13 DUP11 PUSH1 0x66 DUP2 LT PUSH2 0xD12 JUMPI PUSH2 0xD11 PUSH2 0x26A4 JUMP JUMPDEST JUMPDEST PUSH1 0x20 MUL ADD MLOAD PUSH1 0x40 MLOAD DUP4 PUSH4 0xFFFFFFFF AND PUSH1 0xE0 SHL DUP2 MSTORE PUSH1 0x4 ADD PUSH2 0xD34 SWAP3 SWAP2 SWAP1 PUSH2 0x2899 JUMP JUMPDEST PUSH1 0x40 DUP1 MLOAD DUP1 DUP4 SUB DUP2 DUP7 GAS STATICCALL ISZERO DUP1 ISZERO PUSH2 0xD50 JUMPI RETURNDATASIZE PUSH1 0x0 DUP1 RETURNDATACOPY RETURNDATASIZE PUSH1 0x0 REVERT JUMPDEST POP POP POP POP PUSH1 0x40 MLOAD RETURNDATASIZE PUSH1 0x1F NOT PUSH1 0x1F DUP3 ADD AND DUP3 ADD DUP1 PUSH1 0x40 MSTORE POP DUP2 ADD SWAP1 PUSH2 0xD74 SWAP2 SWAP1 PUSH2 0x280A JUMP JUMPDEST DUP12 PUSH1 0x20 ADD DUP2 SWAP1 MSTORE POP PUSH1 0x6 PUSH1 0x0 SWAP1 SLOAD SWAP1 PUSH2 0x100 EXP SWAP1 DIV PUSH20 0xFFFFFFFFFFFFFFFFFFFFFFFFFFFFFFFFFFFFFFFF AND PUSH20 0xFFFFFFFFFFFFFFFFFFFFFFFFFFFFFFFFFFFFFFFF AND PUSH4 0xACA8F56E DUP6 DUP9 PUSH1 0x40 MLOAD DUP4 PUSH4 0xFFFFFFFF AND PUSH1 0xE0 SHL DUP2 MSTORE PUSH1 0x4 ADD PUSH2 0xDD9 SWAP3 SWAP2 SWAP1 PUSH2 0x2899 JUMP JUMPDEST PUSH1 0x40 DUP1 MLOAD DUP1 DUP4 SUB DUP2 DUP7 GAS STATICCALL ISZERO DUP1 ISZERO PUSH2 0xDF5 JUMPI RETURNDATASIZE PUSH1 0x0 DUP1 RETURNDATACOPY RETURNDATASIZE PUSH1 0x0 REVERT JUMPDEST POP POP POP POP PUSH1 0x40 MLOAD RETURNDATASIZE PUSH1 0x1F NOT PUSH1 0x1F DUP3 ADD AND DUP3 ADD DUP1 PUSH1 0x40 MSTORE POP DUP2 ADD SWAP1 PUSH2 0xE19 SWAP2 SWAP1 PUSH2 0x280A JUMP JUMPDEST DUP12 PUSH1 0x40 ADD DUP2 SWAP1 MSTORE POP PUSH1 0x6 PUSH1 0x0 SWAP1 SLOAD SWAP1 PUSH2 0x100 EXP SWAP1 DIV PUSH20 0xFFFFFFFFFFFFFFFFFFFFFFFFFFFFFFFFFFFFFFFF AND PUSH20 0xFFFFFFFFFFFFFFFFFFFFFFFFFFFFFFFFFFFFFFFF AND PUSH4 0xACA8F56E DUP11 DUP13 DUP11 PUSH1 0x66 DUP2 LT PUSH2 0xE73 JUMPI PUSH2 0xE72 PUSH2 0x26A4 JUMP JUMPDEST JUMPDEST PUSH1 0x20 MUL ADD MLOAD PUSH1 0x40 MLOAD DUP4 PUSH4 0xFFFFFFFF AND PUSH1 0xE0 SHL DUP2 MSTORE PUSH1 0x4 ADD PUSH2 0xE95 SWAP3 SWAP2 SWAP1 PUSH2 0x2899 JUMP JUMPDEST PUSH1 0x40 DUP1 MLOAD DUP1 DUP4 SUB DUP2 DUP7 GAS STATICCALL ISZERO DUP1 ISZERO PUSH2 0xEB1 JUMPI RETURNDATASIZE PUSH1 0x0 DUP1 RETURNDATACOPY RETURNDATASIZE PUSH1 0x0 REVERT JUMPDEST POP POP POP POP PUSH1 0x40 MLOAD RETURNDATASIZE PUSH1 0x1F NOT PUSH1 0x1F DUP3 ADD AND DUP3 ADD DUP1 PUSH1 0x40 MSTORE POP DUP2 ADD SWAP1 PUSH2 0xED5 SWAP2 SWAP1 PUSH2 0x280A JUMP JUMPDEST DUP12 PUSH1 0x60 ADD DUP2 SWAP1 MSTORE POP PUSH1 0x6 PUSH1 0x0 SWAP1 SLOAD SWAP1 PUSH2 0x100 EXP SWAP1 DIV PUSH20 0xFFFFFFFFFFFFFFFFFFFFFFFFFFFFFFFFFFFFFFFF AND PUSH20 0xFFFFFFFFFFFFFFFFFFFFFFFFFFFFFFFFFFFFFFFF AND PUSH4 0xBB734C4E DUP7 PUSH1 0x40 MLOAD DUP3 PUSH4 0xFFFFFFFF AND PUSH1 0xE0 SHL DUP2 MSTORE PUSH1 0x4 ADD PUSH2 0xF38 SWAP2 SWAP1 PUSH2 0x2606 JUMP JUMPDEST PUSH1 0x40 DUP1 MLOAD DUP1 DUP4 SUB DUP2 DUP7 GAS STATICCALL ISZERO DUP1 ISZERO PUSH2 0xF54 JUMPI RETURNDATASIZE PUSH1 0x0 DUP1 RETURNDATACOPY RETURNDATASIZE PUSH1 0x0 REVERT JUMPDEST POP POP POP POP PUSH1 0x40 MLOAD RETURNDATASIZE PUSH1 0x1F NOT PUSH1 0x1F DUP3 ADD AND DUP3 ADD DUP1 PUSH1 0x40 MSTORE POP DUP2 ADD SWAP1 PUSH2 0xF78 SWAP2 SWAP1 PUSH2 0x280A JUMP JUMPDEST DUP12 PUSH1 0x80 ADD DUP2 SWAP1 MSTORE POP PUSH1 0x6 PUSH1 0x0 SWAP1 SLOAD SWAP1 PUSH2 0x100 EXP SWAP1 DIV PUSH20 0xFFFFFFFFFFFFFFFFFFFFFFFFFFFFFFFFFFFFFFFF AND PUSH20 0xFFFFFFFFFFFFFFFFFFFFFFFFFFFFFFFFFFFFFFFF AND PUSH4 0xACA8F56E DUP5 DUP13 DUP11 PUSH1 0x66 DUP2 LT PUSH2 0xFD2 JUMPI PUSH2 0xFD1 PUSH2 0x26A4 JUMP JUMPDEST JUMPDEST PUSH1 0x20 MUL ADD MLOAD PUSH1 0x40 MLOAD DUP4 PUSH4 0xFFFFFFFF AND PUSH1 0xE0 SHL DUP2 MSTORE PUSH1 0x4 ADD PUSH2 0xFF4 SWAP3 SWAP2 SWAP1 PUSH2 0x2899 JUMP JUMPDEST PUSH1 0x40 DUP1 MLOAD DUP1 DUP4 SUB DUP2 DUP7 GAS STATICCALL ISZERO DUP1 ISZERO PUSH2 0x1010 JUMPI RETURNDATASIZE PUSH1 0x0 DUP1 RETURNDATACOPY RETURNDATASIZE PUSH1 0x0 REVERT JUMPDEST POP POP POP POP PUSH1 0x40 MLOAD RETURNDATASIZE PUSH1 0x1F NOT PUSH1 0x1F DUP3 ADD AND DUP3 ADD DUP1 PUSH1 0x40 MSTORE POP DUP2 ADD SWAP1 PUSH2 0x1034 SWAP2 SWAP1 PUSH2 0x280A JUMP JUMPDEST DUP12 PUSH1 0xA0 ADD DUP2 SWAP1 MSTORE POP PUSH2 0x1045 DUP15 PUSH2 0x13C9 JUMP JUMPDEST PUSH2 0x10F2 PUSH1 0x6 PUSH1 0x0 SWAP1 SLOAD SWAP1 PUSH2 0x100 EXP SWAP1 DIV PUSH20 0xFFFFFFFFFFFFFFFFFFFFFFFFFFFFFFFFFFFFFFFF AND PUSH20 0xFFFFFFFFFFFFFFFFFFFFFFFFFFFFFFFFFFFFFFFF AND PUSH4 0x1177A4A4 DUP15 PUSH1 0x0 ADD MLOAD DUP16 PUSH1 0x20 ADD MLOAD PUSH1 0x40 MLOAD DUP4 PUSH4 0xFFFFFFFF AND PUSH1 0xE0 SHL DUP2 MSTORE PUSH1 0x4 ADD PUSH2 0x10AD SWAP3 SWAP2 SWAP1 PUSH2 0x28C2 JUMP JUMPDEST PUSH1 0x40 DUP1 MLOAD DUP1 DUP4 SUB DUP2 DUP7 GAS STATICCALL ISZERO DUP1 ISZERO PUSH2 0x10C9 JUMPI RETURNDATASIZE PUSH1 0x0 DUP1 RETURNDATACOPY RETURNDATASIZE PUSH1 0x0 REVERT JUMPDEST POP POP POP POP PUSH1 0x40 MLOAD RETURNDATASIZE PUSH1 0x1F NOT PUSH1 0x1F DUP3 ADD AND DUP3 ADD DUP1 PUSH1 0x40 MSTORE POP DUP2 ADD SWAP1 PUSH2 0x10ED SWAP2 SWAP1 PUSH2 0x280A JUMP JUMPDEST PUSH2 0x1497 JUMP JUMPDEST PUSH1 0x40 MLOAD PUSH1 0x20 ADD PUSH2 0x1103 SWAP3 SWAP2 SWAP1 PUSH2 0x2927 JUMP JUMPDEST PUSH1 0x40 MLOAD PUSH1 0x20 DUP2 DUP4 SUB SUB DUP2 MSTORE SWAP1 PUSH1 0x40 MSTORE SWAP2 POP DUP2 PUSH2 0x11C2 PUSH1 0x6 PUSH1 0x0 SWAP1 SLOAD SWAP1 PUSH2 0x100 EXP SWAP1 DIV PUSH20 0xFFFFFFFFFFFFFFFFFFFFFFFFFFFFFFFFFFFFFFFF AND PUSH20 0xFFFFFFFFFFFFFFFFFFFFFFFFFFFFFFFFFFFFFFFF AND PUSH4 0x1177A4A4 DUP15 PUSH1 0x40 ADD MLOAD DUP16 PUSH1 0x60 ADD MLOAD PUSH1 0x40 MLOAD DUP4 PUSH4 0xFFFFFFFF AND PUSH1 0xE0 SHL DUP2 MSTORE PUSH1 0x4 ADD PUSH2 0x117D SWAP3 SWAP2 SWAP1 PUSH2 0x28C2 JUMP JUMPDEST PUSH1 0x40 DUP1 MLOAD DUP1 DUP4 SUB DUP2 DUP7 GAS STATICCALL ISZERO DUP1 ISZERO PUSH2 0x1199 JUMPI RETURNDATASIZE PUSH1 0x0 DUP1 RETURNDATACOPY RETURNDATASIZE PUSH1 0x0 REVERT JUMPDEST POP POP POP POP PUSH1 0x40 MLOAD RETURNDATASIZE PUSH1 0x1F NOT PUSH1 0x1F DUP3 ADD AND DUP3 ADD DUP1 PUSH1 0x40 MSTORE POP DUP2 ADD SWAP1 PUSH2 0x11BD SWAP2 SWAP1 PUSH2 0x280A JUMP JUMPDEST PUSH2 0x1497 JUMP JUMPDEST PUSH1 0x40 MLOAD PUSH1 0x20 ADD PUSH2 0x11D3 SWAP3 SWAP2 SWAP1 PUSH2 0x2927 JUMP JUMPDEST PUSH1 0x40 MLOAD PUSH1 0x20 DUP2 DUP4 SUB SUB DUP2 MSTORE SWAP1 PUSH1 0x40 MSTORE SWAP2 POP DUP2 PUSH2 0x1292 PUSH1 0x6 PUSH1 0x0 SWAP1 SLOAD SWAP1 PUSH2 0x100 EXP SWAP1 DIV PUSH20 0xFFFFFFFFFFFFFFFFFFFFFFFFFFFFFFFFFFFFFFFF AND PUSH20 0xFFFFFFFFFFFFFFFFFFFFFFFFFFFFFFFFFFFFFFFF AND PUSH4 0x1177A4A4 DUP15 PUSH1 0x80 ADD MLOAD DUP16 PUSH1 0xA0 ADD MLOAD PUSH1 0x40 MLOAD DUP4 PUSH4 0xFFFFFFFF AND PUSH1 0xE0 SHL DUP2 MSTORE PUSH1 0x4 ADD PUSH2 0x124D SWAP3 SWAP2 SWAP1 PUSH2 0x28C2 JUMP JUMPDEST PUSH1 0x40 DUP1 MLOAD DUP1 DUP4 SUB DUP2 DUP7 GAS STATICCALL ISZERO DUP1 ISZERO PUSH2 0x1269 JUMPI RETURNDATASIZE PUSH1 0x0 DUP1 RETURNDATACOPY RETURNDATASIZE PUSH1 0x0 REVERT JUMPDEST POP POP POP POP PUSH1 0x40 MLOAD RETURNDATASIZE PUSH1 0x1F NOT PUSH1 0x1F DUP3 ADD AND DUP3 ADD DUP1 PUSH1 0x40 MSTORE POP DUP2 ADD SWAP1 PUSH2 0x128D SWAP2 SWAP1 PUSH2 0x280A JUMP JUMPDEST PUSH2 0x1497 JUMP JUMPDEST PUSH1 0x40 MLOAD PUSH1 0x20 ADD PUSH2 0x12A3 SWAP3 SWAP2 SWAP1 PUSH2 0x2927 JUMP JUMPDEST PUSH1 0x40 MLOAD PUSH1 0x20 DUP2 DUP4 SUB SUB DUP2 MSTORE SWAP1 PUSH1 0x40 MSTORE SWAP2 POP PUSH1 0x0 PUSH2 0x12BF DUP4 PUSH2 0x1502 JUMP JUMPDEST SWAP1 POP DUP1 DUP12 PUSH1 0x0 PUSH1 0x66 DUP2 LT PUSH2 0x12D6 JUMPI PUSH2 0x12D5 PUSH2 0x26A4 JUMP JUMPDEST JUMPDEST PUSH1 0x20 MUL ADD MLOAD EQ ISZERO SWAP13 POP POP POP POP POP POP POP POP POP POP POP POP POP SWAP3 SWAP2 POP POP JUMP JUMPDEST PUSH1 0x60 PUSH1 0x2 DUP1 SLOAD DUP1 PUSH1 0x20 MUL PUSH1 0x20 ADD PUSH1 0x40 MLOAD SWAP1 DUP2 ADD PUSH1 0x40 MSTORE DUP1 SWAP3 SWAP2 SWAP1 DUP2 DUP2 MSTORE PUSH1 0x20 ADD PUSH1 0x0 SWAP1 JUMPDEST DUP3 DUP3 LT ISZERO PUSH2 0x13B6 JUMPI DUP4 DUP3 SWAP1 PUSH1 0x0 MSTORE PUSH1 0x20 PUSH1 0x0 KECCAK256 SWAP1 PUSH1 0x4 MUL ADD PUSH1 0x40 MLOAD DUP1 PUSH1 0x60 ADD PUSH1 0x40 MSTORE SWAP1 DUP2 PUSH1 0x0 DUP3 ADD SLOAD DUP2 MSTORE PUSH1 0x20 ADD PUSH1 0x1 DUP3 ADD PUSH1 0x2 DUP1 PUSH1 0x20 MUL PUSH1 0x40 MLOAD SWAP1 DUP2 ADD PUSH1 0x40 MSTORE DUP1 SWAP3 SWAP2 SWAP1 DUP3 PUSH1 0x2 DUP1 ISZERO PUSH2 0x137E JUMPI PUSH1 0x20 MUL DUP3 ADD SWAP2 JUMPDEST DUP2 SLOAD DUP2 MSTORE PUSH1 0x20 ADD SWAP1 PUSH1 0x1 ADD SWAP1 DUP1 DUP4 GT PUSH2 0x136A JUMPI JUMPDEST POP POP POP POP POP DUP2 MSTORE PUSH1 0x20 ADD PUSH1 0x3 DUP3 ADD PUSH1 0x0 SWAP1 SLOAD SWAP1 PUSH2 0x100 EXP SWAP1 DIV PUSH2 0xFFFF AND PUSH2 0xFFFF AND PUSH2 0xFFFF AND DUP2 MSTORE POP POP DUP2 MSTORE PUSH1 0x20 ADD SWAP1 PUSH1 0x1 ADD SWAP1 PUSH2 0x1315 JUMP JUMPDEST POP POP POP POP SWAP1 POP SWAP1 JUMP JUMPDEST PUSH1 0x0 DUP2 SWAP1 POP SWAP2 SWAP1 POP JUMP JUMPDEST PUSH1 0x60 PUSH1 0x0 PUSH1 0x1 PUSH2 0x13D8 DUP5 PUSH2 0x1535 JUMP JUMPDEST ADD SWAP1 POP PUSH1 0x0 DUP2 PUSH8 0xFFFFFFFFFFFFFFFF DUP2 GT ISZERO PUSH2 0x13F7 JUMPI PUSH2 0x13F6 PUSH2 0x1877 JUMP JUMPDEST JUMPDEST PUSH1 0x40 MLOAD SWAP1 DUP1 DUP3 MSTORE DUP1 PUSH1 0x1F ADD PUSH1 0x1F NOT AND PUSH1 0x20 ADD DUP3 ADD PUSH1 0x40 MSTORE DUP1 ISZERO PUSH2 0x1429 JUMPI DUP2 PUSH1 0x20 ADD PUSH1 0x1 DUP3 MUL DUP1 CALLDATASIZE DUP4 CALLDATACOPY DUP1 DUP3 ADD SWAP2 POP POP SWAP1 POP JUMPDEST POP SWAP1 POP PUSH1 0x0 DUP3 PUSH1 0x20 ADD DUP3 ADD SWAP1 POP JUMPDEST PUSH1 0x1 ISZERO PUSH2 0x148C JUMPI DUP1 DUP1 PUSH1 0x1 SWAP1 SUB SWAP2 POP POP PUSH32 0x3031323334353637383961626364656600000000000000000000000000000000 PUSH1 0xA DUP7 MOD BYTE DUP2 MSTORE8 PUSH1 0xA DUP6 DUP2 PUSH2 0x1480 JUMPI PUSH2 0x147F PUSH2 0x2993 JUMP JUMPDEST JUMPDEST DIV SWAP5 POP PUSH1 0x0 DUP6 SUB PUSH2 0x1437 JUMPI JUMPDEST DUP2 SWAP4 POP POP POP POP SWAP2 SWAP1 POP JUMP JUMPDEST PUSH1 0x60 PUSH2 0x14BA DUP3 PUSH1 0x0 PUSH1 0x2 DUP2 LT PUSH2 0x14B0 JUMPI PUSH2 0x14AF PUSH2 0x26A4 JUMP JUMPDEST JUMPDEST PUSH1 0x20 MUL ADD MLOAD PUSH2 0x13C9 JUMP JUMPDEST PUSH2 0x14DB DUP4 PUSH1 0x1 PUSH1 0x2 DUP2 LT PUSH2 0x14D1 JUMPI PUSH2 0x14D0 PUSH2 0x26A4 JUMP JUMPDEST JUMPDEST PUSH1 0x20 MUL ADD MLOAD PUSH2 0x13C9 JUMP JUMPDEST PUSH1 0x40 MLOAD PUSH1 0x20 ADD PUSH2 0x14EC SWAP3 SWAP2 SWAP1 PUSH2 0x2927 JUMP JUMPDEST PUSH1 0x40 MLOAD PUSH1 0x20 DUP2 DUP4 SUB SUB DUP2 MSTORE SWAP1 PUSH1 0x40 MSTORE SWAP1 POP SWAP2 SWAP1 POP JUMP JUMPDEST PUSH1 0x0 DUP2 PUSH1 0x40 MLOAD PUSH1 0x20 ADD PUSH2 0x1515 SWAP2 SWAP1 PUSH2 0x29C2 JUMP JUMPDEST PUSH1 0x40 MLOAD PUSH1 0x20 DUP2 DUP4 SUB SUB DUP2 MSTORE SWAP1 PUSH1 0x40 MSTORE DUP1 MLOAD SWAP1 PUSH1 0x20 ADD KECCAK256 PUSH1 0x0 SHR SWAP1 POP SWAP2 SWAP1 POP JUMP JUMPDEST PUSH1 0x0 DUP1 PUSH1 0x0 SWAP1 POP PUSH27 0x184F03E93FF9F4DAA797ED6E38ED64BF6A1F010000000000000000 DUP4 LT PUSH2 0x1593 JUMPI PUSH27 0x184F03E93FF9F4DAA797ED6E38ED64BF6A1F010000000000000000 DUP4 DUP2 PUSH2 0x1589 JUMPI PUSH2 0x1588 PUSH2 0x2993 JUMP JUMPDEST JUMPDEST DIV SWAP3 POP PUSH1 0x40 DUP2 ADD SWAP1 POP JUMPDEST PUSH14 0x4EE2D6D415B85ACEF8100000000 DUP4 LT PUSH2 0x15D0 JUMPI PUSH14 0x4EE2D6D415B85ACEF8100000000 DUP4 DUP2 PUSH2 0x15C6 JUMPI PUSH2 0x15C5 PUSH2 0x2993 JUMP JUMPDEST JUMPDEST DIV SWAP3 POP PUSH1 0x20 DUP2 ADD SWAP1 POP JUMPDEST PUSH7 0x2386F26FC10000 DUP4 LT PUSH2 0x15FF JUMPI PUSH7 0x2386F26FC10000 DUP4 DUP2 PUSH2 0x15F5 JUMPI PUSH2 0x15F4 PUSH2 0x2993 JUMP JUMPDEST JUMPDEST DIV SWAP3 POP PUSH1 0x10 DUP2 ADD SWAP1 POP JUMPDEST PUSH4 0x5F5E100 DUP4 LT PUSH2 0x1628 JUMPI PUSH4 0x5F5E100 DUP4 DUP2 PUSH2 0x161E JUMPI PUSH2 0x161D PUSH2 0x2993 JUMP JUMPDEST JUMPDEST DIV SWAP3 POP PUSH1 0x8 DUP2 ADD SWAP1 POP JUMPDEST PUSH2 0x2710 DUP4 LT PUSH2 0x164D JUMPI PUSH2 0x2710 DUP4 DUP2 PUSH2 0x1643 JUMPI PUSH2 0x1642 PUSH2 0x2993 JUMP JUMPDEST JUMPDEST DIV SWAP3 POP PUSH1 0x4 DUP2 ADD SWAP1 POP JUMPDEST PUSH1 0x64 DUP4 LT PUSH2 0x1670 JUMPI PUSH1 0x64 DUP4 DUP2 PUSH2 0x1666 JUMPI PUSH2 0x1665 PUSH2 0x2993 JUMP JUMPDEST JUMPDEST DIV SWAP3 POP PUSH1 0x2 DUP2 ADD SWAP1 POP JUMPDEST PUSH1 0xA DUP4 LT PUSH2 0x167F JUMPI PUSH1 0x1 DUP2 ADD SWAP1 POP JUMPDEST DUP1 SWAP2 POP POP SWAP2 SWAP1 POP JUMP JUMPDEST PUSH1 0x40 MLOAD DUP1 PUSH1 0x20 ADD PUSH1 0x40 MSTORE DUP1 PUSH1 0x60 DUP2 MSTORE POP SWAP1 JUMP JUMPDEST PUSH1 0x40 MLOAD DUP1 PUSH1 0x80 ADD PUSH1 0x40 MSTORE DUP1 PUSH1 0x0 DUP2 MSTORE PUSH1 0x20 ADD PUSH2 0x16B5 PUSH2 0x1792 JUMP JUMPDEST DUP2 MSTORE PUSH1 0x20 ADD PUSH2 0x16C2 PUSH2 0x17B4 JUMP JUMPDEST DUP2 MSTORE PUSH1 0x20 ADD PUSH2 0x16CF PUSH2 0x17D6 JUMP JUMPDEST DUP2 MSTORE POP SWAP1 JUMP JUMPDEST DUP3 PUSH1 0x2 DUP2 ADD SWAP3 DUP3 ISZERO PUSH2 0x1704 JUMPI SWAP2 PUSH1 0x20 MUL DUP3 ADD JUMPDEST DUP3 DUP2 GT ISZERO PUSH2 0x1703 JUMPI DUP3 MLOAD DUP3 SSTORE SWAP2 PUSH1 0x20 ADD SWAP2 SWAP1 PUSH1 0x1 ADD SWAP1 PUSH2 0x16E8 JUMP JUMPDEST JUMPDEST POP SWAP1 POP PUSH2 0x1711 SWAP2 SWAP1 PUSH2 0x1803 JUMP JUMPDEST POP SWAP1 JUMP JUMPDEST PUSH1 0x40 MLOAD DUP1 PUSH1 0xC0 ADD PUSH1 0x40 MSTORE DUP1 PUSH2 0x1728 PUSH2 0x1792 JUMP JUMPDEST DUP2 MSTORE PUSH1 0x20 ADD PUSH2 0x1735 PUSH2 0x1792 JUMP JUMPDEST DUP2 MSTORE PUSH1 0x20 ADD PUSH2 0x1742 PUSH2 0x1792 JUMP JUMPDEST DUP2 MSTORE PUSH1 0x20 ADD PUSH2 0x174F PUSH2 0x1792 JUMP JUMPDEST DUP2 MSTORE PUSH1 0x20 ADD PUSH2 0x175C PUSH2 0x1792 JUMP JUMPDEST DUP2 MSTORE PUSH1 0x20 ADD PUSH2 0x1769 PUSH2 0x1792 JUMP JUMPDEST DUP2 MSTORE POP SWAP1 JUMP JUMPDEST PUSH1 0x40 MLOAD DUP1 PUSH2 0xCC0 ADD PUSH1 0x40 MSTORE DUP1 PUSH1 0x66 SWAP1 PUSH1 0x20 DUP3 MUL DUP1 CALLDATASIZE DUP4 CALLDATACOPY DUP1 DUP3 ADD SWAP2 POP POP SWAP1 POP POP SWAP1 JUMP JUMPDEST PUSH1 0x40 MLOAD DUP1 PUSH1 0x40 ADD PUSH1 0x40 MSTORE DUP1 PUSH1 0x2 SWAP1 PUSH1 0x20 DUP3 MUL DUP1 CALLDATASIZE DUP4 CALLDATACOPY DUP1 DUP3 ADD SWAP2 POP POP SWAP1 POP POP SWAP1 JUMP JUMPDEST PUSH1 0x40 MLOAD DUP1 PUSH1 0x80 ADD PUSH1 0x40 MSTORE DUP1 PUSH1 0x4 SWAP1 PUSH1 0x20 DUP3 MUL DUP1 CALLDATASIZE DUP4 CALLDATACOPY DUP1 DUP3 ADD SWAP2 POP POP SWAP1 POP POP SWAP1 JUMP JUMPDEST PUSH1 0x40 MLOAD DUP1 PUSH1 0x40 ADD PUSH1 0x40 MSTORE DUP1 PUSH1 0x2 SWAP1 JUMPDEST PUSH2 0x17ED PUSH2 0x1820 JUMP JUMPDEST DUP2 MSTORE PUSH1 0x20 ADD SWAP1 PUSH1 0x1 SWAP1 SUB SWAP1 DUP2 PUSH2 0x17E5 JUMPI SWAP1 POP POP SWAP1 JUMP JUMPDEST JUMPDEST DUP1 DUP3 GT ISZERO PUSH2 0x181C JUMPI PUSH1 0x0 DUP2 PUSH1 0x0 SWAP1 SSTORE POP PUSH1 0x1 ADD PUSH2 0x1804 JUMP JUMPDEST POP SWAP1 JUMP JUMPDEST PUSH1 0x40 MLOAD DUP1 PUSH1 0x40 ADD PUSH1 0x40 MSTORE DUP1 PUSH1 0x2 SWAP1 JUMPDEST PUSH2 0x1837 PUSH2 0x1792 JUMP JUMPDEST DUP2 MSTORE PUSH1 0x20 ADD SWAP1 PUSH1 0x1 SWAP1 SUB SWAP1 DUP2 PUSH2 0x182F JUMPI SWAP1 POP POP SWAP1 JUMP JUMPDEST PUSH1 0x0 PUSH1 0x40 MLOAD SWAP1 POP SWAP1 JUMP JUMPDEST PUSH1 0x0 DUP1 REVERT JUMPDEST PUSH1 0x0 DUP1 REVERT JUMPDEST PUSH1 0x0 DUP1 REVERT JUMPDEST PUSH1 0x0 PUSH1 0x1F NOT PUSH1 0x1F DUP4 ADD AND SWAP1 POP SWAP2 SWAP1 POP JUMP JUMPDEST PUSH32 0x4E487B7100000000000000000000000000000000000000000000000000000000 PUSH1 0x0 MSTORE PUSH1 0x41 PUSH1 0x4 MSTORE PUSH1 0x24 PUSH1 0x0 REVERT JUMPDEST PUSH2 0x18AF DUP3 PUSH2 0x1866 JUMP JUMPDEST DUP2 ADD DUP2 DUP2 LT PUSH8 0xFFFFFFFFFFFFFFFF DUP3 GT OR ISZERO PUSH2 0x18CE JUMPI PUSH2 0x18CD PUSH2 0x1877 JUMP JUMPDEST JUMPDEST DUP1 PUSH1 0x40 MSTORE POP POP POP JUMP JUMPDEST PUSH1 0x0 PUSH2 0x18E1 PUSH2 0x184D JUMP JUMPDEST SWAP1 POP PUSH2 0x18ED DUP3 DUP3 PUSH2 0x18A6 JUMP JUMPDEST SWAP2 SWAP1 POP JUMP JUMPDEST PUSH1 0x0 PUSH8 0xFFFFFFFFFFFFFFFF DUP3 GT ISZERO PUSH2 0x190D JUMPI PUSH2 0x190C PUSH2 0x1877 JUMP JUMPDEST JUMPDEST PUSH1 0x20 DUP3 MUL SWAP1 POP PUSH1 0x20 DUP2 ADD SWAP1 POP SWAP2 SWAP1 POP JUMP JUMPDEST PUSH1 0x0 DUP1 REVERT JUMPDEST PUSH1 0x0 DUP2 SWAP1 POP SWAP2 SWAP1 POP JUMP JUMPDEST PUSH2 0x1936 DUP2 PUSH2 0x1923 JUMP JUMPDEST DUP2 EQ PUSH2 0x1941 JUMPI PUSH1 0x0 DUP1 REVERT JUMPDEST POP JUMP JUMPDEST PUSH1 0x0 DUP2 CALLDATALOAD SWAP1 POP PUSH2 0x1953 DUP2 PUSH2 0x192D JUMP JUMPDEST SWAP3 SWAP2 POP POP JUMP JUMPDEST PUSH1 0x0 PUSH2 0x196C PUSH2 0x1967 DUP5 PUSH2 0x18F2 JUMP JUMPDEST PUSH2 0x18D7 JUMP JUMPDEST SWAP1 POP DUP1 DUP4 DUP3 MSTORE PUSH1 0x20 DUP3 ADD SWAP1 POP PUSH1 0x20 DUP5 MUL DUP4 ADD DUP6 DUP2 GT ISZERO PUSH2 0x198F JUMPI PUSH2 0x198E PUSH2 0x191E JUMP JUMPDEST JUMPDEST DUP4 JUMPDEST DUP2 DUP2 LT ISZERO PUSH2 0x19B8 JUMPI DUP1 PUSH2 0x19A4 DUP9 DUP3 PUSH2 0x1944 JUMP JUMPDEST DUP5 MSTORE PUSH1 0x20 DUP5 ADD SWAP4 POP POP PUSH1 0x20 DUP2 ADD SWAP1 POP PUSH2 0x1991 JUMP JUMPDEST POP POP POP SWAP4 SWAP3 POP POP POP JUMP JUMPDEST PUSH1 0x0 DUP3 PUSH1 0x1F DUP4 ADD SLT PUSH2 0x19D7 JUMPI PUSH2 0x19D6 PUSH2 0x1861 JUMP JUMPDEST JUMPDEST DUP2 CALLDATALOAD PUSH2 0x19E7 DUP5 DUP3 PUSH1 0x20 DUP7 ADD PUSH2 0x1959 JUMP JUMPDEST SWAP2 POP POP SWAP3 SWAP2 POP POP JUMP JUMPDEST PUSH1 0x0 PUSH1 0x20 DUP3 DUP5 SUB SLT ISZERO PUSH2 0x1A06 JUMPI PUSH2 0x1A05 PUSH2 0x1857 JUMP JUMPDEST JUMPDEST PUSH1 0x0 DUP3 ADD CALLDATALOAD PUSH8 0xFFFFFFFFFFFFFFFF DUP2 GT ISZERO PUSH2 0x1A24 JUMPI PUSH2 0x1A23 PUSH2 0x185C JUMP JUMPDEST JUMPDEST PUSH2 0x1A30 DUP5 DUP3 DUP6 ADD PUSH2 0x19C2 JUMP JUMPDEST SWAP2 POP POP SWAP3 SWAP2 POP POP JUMP JUMPDEST PUSH1 0x0 DUP2 MLOAD SWAP1 POP SWAP2 SWAP1 POP JUMP JUMPDEST PUSH1 0x0 DUP3 DUP3 MSTORE PUSH1 0x20 DUP3 ADD SWAP1 POP SWAP3 SWAP2 POP POP JUMP JUMPDEST PUSH1 0x0 DUP2 SWAP1 POP PUSH1 0x20 DUP3 ADD SWAP1 POP SWAP2 SWAP1 POP JUMP JUMPDEST PUSH2 0x1A6E DUP2 PUSH2 0x1923 JUMP JUMPDEST DUP3 MSTORE POP POP JUMP JUMPDEST PUSH1 0x0 PUSH2 0x1A80 DUP4 DUP4 PUSH2 0x1A65 JUMP JUMPDEST PUSH1 0x20 DUP4 ADD SWAP1 POP SWAP3 SWAP2 POP POP JUMP JUMPDEST PUSH1 0x0 PUSH1 0x20 DUP3 ADD SWAP1 POP SWAP2 SWAP1 POP JUMP JUMPDEST PUSH1 0x0 PUSH2 0x1AA4 DUP3 PUSH2 0x1A39 JUMP JUMPDEST PUSH2 0x1AAE DUP2 DUP6 PUSH2 0x1A44 JUMP JUMPDEST SWAP4 POP PUSH2 0x1AB9 DUP4 PUSH2 0x1A55 JUMP JUMPDEST DUP1 PUSH1 0x0 JUMPDEST DUP4 DUP2 LT ISZERO PUSH2 0x1AEA JUMPI DUP2 MLOAD PUSH2 0x1AD1 DUP9 DUP3 PUSH2 0x1A74 JUMP JUMPDEST SWAP8 POP PUSH2 0x1ADC DUP4 PUSH2 0x1A8C JUMP JUMPDEST SWAP3 POP POP PUSH1 0x1 DUP2 ADD SWAP1 POP PUSH2 0x1ABD JUMP JUMPDEST POP DUP6 SWAP4 POP POP POP POP SWAP3 SWAP2 POP POP JUMP JUMPDEST PUSH1 0x0 PUSH1 0x20 DUP3 ADD SWAP1 POP DUP2 DUP2 SUB PUSH1 0x0 DUP4 ADD MSTORE PUSH2 0x1B11 DUP2 DUP5 PUSH2 0x1A99 JUMP JUMPDEST SWAP1 POP SWAP3 SWAP2 POP POP JUMP JUMPDEST PUSH1 0x0 DUP1 REVERT JUMPDEST PUSH1 0x0 DUP1 REVERT JUMPDEST PUSH1 0x0 PUSH1 0x20 DUP3 DUP5 SUB SLT ISZERO PUSH2 0x1B39 JUMPI PUSH2 0x1B38 PUSH2 0x1B19 JUMP JUMPDEST JUMPDEST PUSH2 0x1B43 PUSH1 0x20 PUSH2 0x18D7 JUMP JUMPDEST SWAP1 POP PUSH1 0x0 DUP3 ADD CALLDATALOAD PUSH8 0xFFFFFFFFFFFFFFFF DUP2 GT ISZERO PUSH2 0x1B63 JUMPI PUSH2 0x1B62 PUSH2 0x1B1E JUMP JUMPDEST JUMPDEST PUSH2 0x1B6F DUP5 DUP3 DUP6 ADD PUSH2 0x19C2 JUMP JUMPDEST PUSH1 0x0 DUP4 ADD MSTORE POP SWAP3 SWAP2 POP POP JUMP JUMPDEST PUSH1 0x0 PUSH1 0x20 DUP3 DUP5 SUB SLT ISZERO PUSH2 0x1B91 JUMPI PUSH2 0x1B90 PUSH2 0x1857 JUMP JUMPDEST JUMPDEST PUSH1 0x0 DUP3 ADD CALLDATALOAD PUSH8 0xFFFFFFFFFFFFFFFF DUP2 GT ISZERO PUSH2 0x1BAF JUMPI PUSH2 0x1BAE PUSH2 0x185C JUMP JUMPDEST JUMPDEST PUSH2 0x1BBB DUP5 DUP3 DUP6 ADD PUSH2 0x1B23 JUMP JUMPDEST SWAP2 POP POP SWAP3 SWAP2 POP POP JUMP JUMPDEST PUSH1 0x0 DUP3 DUP3 MSTORE PUSH1 0x20 DUP3 ADD SWAP1 POP SWAP3 SWAP2 POP POP JUMP JUMPDEST PUSH1 0x0 PUSH2 0x1BE0 DUP3 PUSH2 0x1A39 JUMP JUMPDEST PUSH2 0x1BEA DUP2 DUP6 PUSH2 0x1BC4 JUMP JUMPDEST SWAP4 POP PUSH2 0x1BF5 DUP4 PUSH2 0x1A55 JUMP JUMPDEST DUP1 PUSH1 0x0 JUMPDEST DUP4 DUP2 LT ISZERO PUSH2 0x1C26 JUMPI DUP2 MLOAD PUSH2 0x1C0D DUP9 DUP3 PUSH2 0x1A74 JUMP JUMPDEST SWAP8 POP PUSH2 0x1C18 DUP4 PUSH2 0x1A8C JUMP JUMPDEST SWAP3 POP POP PUSH1 0x1 DUP2 ADD SWAP1 POP PUSH2 0x1BF9 JUMP JUMPDEST POP DUP6 SWAP4 POP POP POP POP SWAP3 SWAP2 POP POP JUMP JUMPDEST PUSH1 0x0 PUSH1 0x20 DUP4 ADD PUSH1 0x0 DUP4 ADD MLOAD DUP5 DUP3 SUB PUSH1 0x0 DUP7 ADD MSTORE PUSH2 0x1C50 DUP3 DUP3 PUSH2 0x1BD5 JUMP JUMPDEST SWAP2 POP POP DUP1 SWAP2 POP POP SWAP3 SWAP2 POP POP JUMP JUMPDEST PUSH1 0x0 PUSH1 0x20 DUP3 ADD SWAP1 POP DUP2 DUP2 SUB PUSH1 0x0 DUP4 ADD MSTORE PUSH2 0x1C77 DUP2 DUP5 PUSH2 0x1C33 JUMP JUMPDEST SWAP1 POP SWAP3 SWAP2 POP POP JUMP JUMPDEST PUSH1 0x0 DUP2 MLOAD SWAP1 POP SWAP2 SWAP1 POP JUMP JUMPDEST PUSH1 0x0 DUP3 DUP3 MSTORE PUSH1 0x20 DUP3 ADD SWAP1 POP SWAP3 SWAP2 POP POP JUMP JUMPDEST PUSH1 0x0 JUMPDEST DUP4 DUP2 LT ISZERO PUSH2 0x1CB9 JUMPI DUP1 DUP3 ADD MLOAD DUP2 DUP5 ADD MSTORE PUSH1 0x20 DUP2 ADD SWAP1 POP PUSH2 0x1C9E JUMP JUMPDEST PUSH1 0x0 DUP5 DUP5 ADD MSTORE POP POP POP POP JUMP JUMPDEST PUSH1 0x0 PUSH2 0x1CD0 DUP3 PUSH2 0x1C7F JUMP JUMPDEST PUSH2 0x1CDA DUP2 DUP6 PUSH2 0x1C8A JUMP JUMPDEST SWAP4 POP PUSH2 0x1CEA DUP2 DUP6 PUSH1 0x20 DUP7 ADD PUSH2 0x1C9B JUMP JUMPDEST PUSH2 0x1CF3 DUP2 PUSH2 0x1866 JUMP JUMPDEST DUP5 ADD SWAP2 POP POP SWAP3 SWAP2 POP POP JUMP JUMPDEST PUSH1 0x0 PUSH1 0x20 DUP3 ADD SWAP1 POP DUP2 DUP2 SUB PUSH1 0x0 DUP4 ADD MSTORE PUSH2 0x1D18 DUP2 DUP5 PUSH2 0x1CC5 JUMP JUMPDEST SWAP1 POP SWAP3 SWAP2 POP POP JUMP JUMPDEST PUSH1 0x0 PUSH8 0xFFFFFFFFFFFFFFFF DUP3 GT ISZERO PUSH2 0x1D3B JUMPI PUSH2 0x1D3A PUSH2 0x1877 JUMP JUMPDEST JUMPDEST PUSH1 0x20 DUP3 MUL SWAP1 POP SWAP2 SWAP1 POP JUMP JUMPDEST PUSH1 0x0 PUSH2 0x1D59 PUSH2 0x1D54 DUP5 PUSH2 0x1D20 JUMP JUMPDEST PUSH2 0x18D7 JUMP JUMPDEST SWAP1 POP DUP1 PUSH1 0x20 DUP5 MUL DUP4 ADD DUP6 DUP2 GT ISZERO PUSH2 0x1D73 JUMPI PUSH2 0x1D72 PUSH2 0x191E JUMP JUMPDEST JUMPDEST DUP4 JUMPDEST DUP2 DUP2 LT ISZERO PUSH2 0x1D9C JUMPI DUP1 PUSH2 0x1D88 DUP9 DUP3 PUSH2 0x1944 JUMP JUMPDEST DUP5 MSTORE PUSH1 0x20 DUP5 ADD SWAP4 POP POP PUSH1 0x20 DUP2 ADD SWAP1 POP PUSH2 0x1D75 JUMP JUMPDEST POP POP POP SWAP4 SWAP3 POP POP POP JUMP JUMPDEST PUSH1 0x0 DUP3 PUSH1 0x1F DUP4 ADD SLT PUSH2 0x1DBB JUMPI PUSH2 0x1DBA PUSH2 0x1861 JUMP JUMPDEST JUMPDEST PUSH1 0x2 PUSH2 0x1DC8 DUP5 DUP3 DUP6 PUSH2 0x1D46 JUMP JUMPDEST SWAP2 POP POP SWAP3 SWAP2 POP POP JUMP JUMPDEST PUSH1 0x0 PUSH8 0xFFFFFFFFFFFFFFFF DUP3 GT ISZERO PUSH2 0x1DEC JUMPI PUSH2 0x1DEB PUSH2 0x1877 JUMP JUMPDEST JUMPDEST PUSH1 0x20 DUP3 MUL SWAP1 POP SWAP2 SWAP1 POP JUMP JUMPDEST PUSH1 0x0 PUSH2 0x1E0A PUSH2 0x1E05 DUP5 PUSH2 0x1DD1 JUMP JUMPDEST PUSH2 0x18D7 JUMP JUMPDEST SWAP1 POP DUP1 PUSH1 0x20 DUP5 MUL DUP4 ADD DUP6 DUP2 GT ISZERO PUSH2 0x1E24 JUMPI PUSH2 0x1E23 PUSH2 0x191E JUMP JUMPDEST JUMPDEST DUP4 JUMPDEST DUP2 DUP2 LT ISZERO PUSH2 0x1E4D JUMPI DUP1 PUSH2 0x1E39 DUP9 DUP3 PUSH2 0x1944 JUMP JUMPDEST DUP5 MSTORE PUSH1 0x20 DUP5 ADD SWAP4 POP POP PUSH1 0x20 DUP2 ADD SWAP1 POP PUSH2 0x1E26 JUMP JUMPDEST POP POP POP SWAP4 SWAP3 POP POP POP JUMP JUMPDEST PUSH1 0x0 DUP3 PUSH1 0x1F DUP4 ADD SLT PUSH2 0x1E6C JUMPI PUSH2 0x1E6B PUSH2 0x1861 JUMP JUMPDEST JUMPDEST PUSH1 0x4 PUSH2 0x1E79 DUP5 DUP3 DUP6 PUSH2 0x1DF7 JUMP JUMPDEST SWAP2 POP POP SWAP3 SWAP2 POP POP JUMP JUMPDEST PUSH1 0x0 PUSH8 0xFFFFFFFFFFFFFFFF DUP3 GT ISZERO PUSH2 0x1E9D JUMPI PUSH2 0x1E9C PUSH2 0x1877 JUMP JUMPDEST JUMPDEST PUSH1 0x20 DUP3 MUL SWAP1 POP SWAP2 SWAP1 POP JUMP JUMPDEST PUSH1 0x0 PUSH8 0xFFFFFFFFFFFFFFFF DUP3 GT ISZERO PUSH2 0x1EC3 JUMPI PUSH2 0x1EC2 PUSH2 0x1877 JUMP JUMPDEST JUMPDEST PUSH1 0x20 DUP3 MUL SWAP1 POP SWAP2 SWAP1 POP JUMP JUMPDEST PUSH1 0x0 PUSH2 0x1EE1 PUSH2 0x1EDC DUP5 PUSH2 0x1EA8 JUMP JUMPDEST PUSH2 0x18D7 JUMP JUMPDEST SWAP1 POP DUP1 PUSH1 0x40 DUP5 MUL DUP4 ADD DUP6 DUP2 GT ISZERO PUSH2 0x1EFB JUMPI PUSH2 0x1EFA PUSH2 0x191E JUMP JUMPDEST JUMPDEST DUP4 JUMPDEST DUP2 DUP2 LT ISZERO PUSH2 0x1F24 JUMPI DUP1 PUSH2 0x1F10 DUP9 DUP3 PUSH2 0x1DA6 JUMP JUMPDEST DUP5 MSTORE PUSH1 0x20 DUP5 ADD SWAP4 POP POP PUSH1 0x40 DUP2 ADD SWAP1 POP PUSH2 0x1EFD JUMP JUMPDEST POP POP POP SWAP4 SWAP3 POP POP POP JUMP JUMPDEST PUSH1 0x0 DUP3 PUSH1 0x1F DUP4 ADD SLT PUSH2 0x1F43 JUMPI PUSH2 0x1F42 PUSH2 0x1861 JUMP JUMPDEST JUMPDEST PUSH1 0x2 PUSH2 0x1F50 DUP5 DUP3 DUP6 PUSH2 0x1ECE JUMP JUMPDEST SWAP2 POP POP SWAP3 SWAP2 POP POP JUMP JUMPDEST PUSH1 0x0 PUSH2 0x1F6C PUSH2 0x1F67 DUP5 PUSH2 0x1E82 JUMP JUMPDEST PUSH2 0x18D7 JUMP JUMPDEST SWAP1 POP DUP1 PUSH1 0x80 DUP5 MUL DUP4 ADD DUP6 DUP2 GT ISZERO PUSH2 0x1F86 JUMPI PUSH2 0x1F85 PUSH2 0x191E JUMP JUMPDEST JUMPDEST DUP4 JUMPDEST DUP2 DUP2 LT ISZERO PUSH2 0x1FAF JUMPI DUP1 PUSH2 0x1F9B DUP9 DUP3 PUSH2 0x1F2E JUMP JUMPDEST DUP5 MSTORE PUSH1 0x20 DUP5 ADD SWAP4 POP POP PUSH1 0x80 DUP2 ADD SWAP1 POP PUSH2 0x1F88 JUMP JUMPDEST POP POP POP SWAP4 SWAP3 POP POP POP JUMP JUMPDEST PUSH1 0x0 DUP3 PUSH1 0x1F DUP4 ADD SLT PUSH2 0x1FCE JUMPI PUSH2 0x1FCD PUSH2 0x1861 JUMP JUMPDEST JUMPDEST PUSH1 0x2 PUSH2 0x1FDB DUP5 DUP3 DUP6 PUSH2 0x1F59 JUMP JUMPDEST SWAP2 POP POP SWAP3 SWAP2 POP POP JUMP JUMPDEST PUSH1 0x0 PUSH2 0x1E0 DUP3 DUP5 SUB SLT ISZERO PUSH2 0x1FFB JUMPI PUSH2 0x1FFA PUSH2 0x1B19 JUMP JUMPDEST JUMPDEST PUSH2 0x2005 PUSH1 0x80 PUSH2 0x18D7 JUMP JUMPDEST SWAP1 POP PUSH1 0x0 PUSH2 0x2015 DUP5 DUP3 DUP6 ADD PUSH2 0x1944 JUMP JUMPDEST PUSH1 0x0 DUP4 ADD MSTORE POP PUSH1 0x20 PUSH2 0x2029 DUP5 DUP3 DUP6 ADD PUSH2 0x1DA6 JUMP JUMPDEST PUSH1 0x20 DUP4 ADD MSTORE POP PUSH1 0x60 PUSH2 0x203D DUP5 DUP3 DUP6 ADD PUSH2 0x1E57 JUMP JUMPDEST PUSH1 0x40 DUP4 ADD MSTORE POP PUSH1 0xE0 PUSH2 0x2051 DUP5 DUP3 DUP6 ADD PUSH2 0x1FB9 JUMP JUMPDEST PUSH1 0x60 DUP4 ADD MSTORE POP SWAP3 SWAP2 POP POP JUMP JUMPDEST PUSH1 0x0 PUSH2 0x1E0 DUP3 DUP5 SUB SLT ISZERO PUSH2 0x2074 JUMPI PUSH2 0x2073 PUSH2 0x1857 JUMP JUMPDEST JUMPDEST PUSH1 0x0 PUSH2 0x2082 DUP5 DUP3 DUP6 ADD PUSH2 0x1FE4 JUMP JUMPDEST SWAP2 POP POP SWAP3 SWAP2 POP POP JUMP JUMPDEST PUSH1 0x0 PUSH1 0x2 SWAP1 POP SWAP2 SWAP1 POP JUMP JUMPDEST PUSH1 0x0 DUP2 SWAP1 POP SWAP3 SWAP2 POP POP JUMP JUMPDEST PUSH1 0x0 DUP2 SWAP1 POP SWAP2 SWAP1 POP JUMP JUMPDEST PUSH1 0x0 PUSH1 0x20 DUP3 ADD SWAP1 POP SWAP2 SWAP1 POP JUMP JUMPDEST PUSH2 0x20C1 DUP2 PUSH2 0x208B JUMP JUMPDEST PUSH2 0x20CB DUP2 DUP5 PUSH2 0x2096 JUMP JUMPDEST SWAP3 POP PUSH2 0x20D6 DUP3 PUSH2 0x20A1 JUMP JUMPDEST DUP1 PUSH1 0x0 JUMPDEST DUP4 DUP2 LT ISZERO PUSH2 0x2107 JUMPI DUP2 MLOAD PUSH2 0x20EE DUP8 DUP3 PUSH2 0x1A74 JUMP JUMPDEST SWAP7 POP PUSH2 0x20F9 DUP4 PUSH2 0x20AB JUMP JUMPDEST SWAP3 POP POP PUSH1 0x1 DUP2 ADD SWAP1 POP PUSH2 0x20DA JUMP JUMPDEST POP POP POP POP POP POP JUMP JUMPDEST PUSH1 0x0 PUSH1 0x4 SWAP1 POP SWAP2 SWAP1 POP JUMP JUMPDEST PUSH1 0x0 DUP2 SWAP1 POP SWAP3 SWAP2 POP POP JUMP JUMPDEST PUSH1 0x0 DUP2 SWAP1 POP SWAP2 SWAP1 POP JUMP JUMPDEST PUSH1 0x0 PUSH1 0x20 DUP3 ADD SWAP1 POP SWAP2 SWAP1 POP JUMP JUMPDEST PUSH2 0x2145 DUP2 PUSH2 0x210F JUMP JUMPDEST PUSH2 0x214F DUP2 DUP5 PUSH2 0x211A JUMP JUMPDEST SWAP3 POP PUSH2 0x215A DUP3 PUSH2 0x2125 JUMP JUMPDEST DUP1 PUSH1 0x0 JUMPDEST DUP4 DUP2 LT ISZERO PUSH2 0x218B JUMPI DUP2 MLOAD PUSH2 0x2172 DUP8 DUP3 PUSH2 0x1A74 JUMP JUMPDEST SWAP7 POP PUSH2 0x217D DUP4 PUSH2 0x212F JUMP JUMPDEST SWAP3 POP POP PUSH1 0x1 DUP2 ADD SWAP1 POP PUSH2 0x215E JUMP JUMPDEST POP POP POP POP POP POP JUMP JUMPDEST PUSH1 0x0 PUSH1 0x2 SWAP1 POP SWAP2 SWAP1 POP JUMP JUMPDEST PUSH1 0x0 DUP2 SWAP1 POP SWAP3 SWAP2 POP POP JUMP JUMPDEST PUSH1 0x0 DUP2 SWAP1 POP SWAP2 SWAP1 POP JUMP JUMPDEST PUSH1 0x0 PUSH1 0x2 SWAP1 POP SWAP2 SWAP1 POP JUMP JUMPDEST PUSH1 0x0 DUP2 SWAP1 POP SWAP3 SWAP2 POP POP JUMP JUMPDEST PUSH1 0x0 DUP2 SWAP1 POP SWAP2 SWAP1 POP JUMP JUMPDEST PUSH1 0x0 PUSH2 0x21DF DUP4 DUP4 PUSH2 0x20B8 JUMP JUMPDEST PUSH1 0x40 DUP4 ADD SWAP1 POP SWAP3 SWAP2 POP POP JUMP JUMPDEST PUSH1 0x0 PUSH1 0x20 DUP3 ADD SWAP1 POP SWAP2 SWAP1 POP JUMP JUMPDEST PUSH2 0x2201 DUP2 PUSH2 0x21B3 JUMP JUMPDEST PUSH2 0x220B DUP2 DUP5 PUSH2 0x21BE JUMP JUMPDEST SWAP3 POP PUSH2 0x2216 DUP3 PUSH2 0x21C9 JUMP JUMPDEST DUP1 PUSH1 0x0 JUMPDEST DUP4 DUP2 LT ISZERO PUSH2 0x2247 JUMPI DUP2 MLOAD PUSH2 0x222E DUP8 DUP3 PUSH2 0x21D3 JUMP JUMPDEST SWAP7 POP PUSH2 0x2239 DUP4 PUSH2 0x21EB JUMP JUMPDEST SWAP3 POP POP PUSH1 0x1 DUP2 ADD SWAP1 POP PUSH2 0x221A JUMP JUMPDEST POP POP POP POP POP POP JUMP JUMPDEST PUSH1 0x0 PUSH2 0x225B DUP4 DUP4 PUSH2 0x21F8 JUMP JUMPDEST PUSH1 0x80 DUP4 ADD SWAP1 POP SWAP3 SWAP2 POP POP JUMP JUMPDEST PUSH1 0x0 PUSH1 0x20 DUP3 ADD SWAP1 POP SWAP2 SWAP1 POP JUMP JUMPDEST PUSH2 0x227D DUP2 PUSH2 0x2193 JUMP JUMPDEST PUSH2 0x2287 DUP2 DUP5 PUSH2 0x219E JUMP JUMPDEST SWAP3 POP PUSH2 0x2292 DUP3 PUSH2 0x21A9 JUMP JUMPDEST DUP1 PUSH1 0x0 JUMPDEST DUP4 DUP2 LT ISZERO PUSH2 0x22C3 JUMPI DUP2 MLOAD PUSH2 0x22AA DUP8 DUP3 PUSH2 0x224F JUMP JUMPDEST SWAP7 POP PUSH2 0x22B5 DUP4 PUSH2 0x2267 JUMP JUMPDEST SWAP3 POP POP PUSH1 0x1 DUP2 ADD SWAP1 POP PUSH2 0x2296 JUMP JUMPDEST POP POP POP POP POP POP JUMP JUMPDEST PUSH2 0x1E0 DUP3 ADD PUSH1 0x0 DUP3 ADD MLOAD PUSH2 0x22E2 PUSH1 0x0 DUP6 ADD DUP3 PUSH2 0x1A65 JUMP JUMPDEST POP PUSH1 0x20 DUP3 ADD MLOAD PUSH2 0x22F5 PUSH1 0x20 DUP6 ADD DUP3 PUSH2 0x20B8 JUMP JUMPDEST POP PUSH1 0x40 DUP3 ADD MLOAD PUSH2 0x2308 PUSH1 0x60 DUP6 ADD DUP3 PUSH2 0x213C JUMP JUMPDEST POP PUSH1 0x60 DUP3 ADD MLOAD PUSH2 0x231B PUSH1 0xE0 DUP6 ADD DUP3 PUSH2 0x2274 JUMP JUMPDEST POP POP POP POP JUMP JUMPDEST PUSH1 0x0 PUSH2 0x1E0 DUP3 ADD SWAP1 POP PUSH2 0x2337 PUSH1 0x0 DUP4 ADD DUP5 PUSH2 0x22CB JUMP JUMPDEST SWAP3 SWAP2 POP POP JUMP JUMPDEST PUSH1 0x0 PUSH2 0xFFFF DUP3 AND SWAP1 POP SWAP2 SWAP1 POP JUMP JUMPDEST PUSH2 0x2354 DUP2 PUSH2 0x233D JUMP JUMPDEST DUP2 EQ PUSH2 0x235F JUMPI PUSH1 0x0 DUP1 REVERT JUMPDEST POP JUMP JUMPDEST PUSH1 0x0 DUP2 CALLDATALOAD SWAP1 POP PUSH2 0x2371 DUP2 PUSH2 0x234B JUMP JUMPDEST SWAP3 SWAP2 POP POP JUMP JUMPDEST PUSH1 0x0 DUP1 PUSH1 0x0 DUP1 PUSH1 0x0 DUP1 PUSH1 0x0 DUP1 PUSH2 0x280 DUP10 DUP12 SUB SLT ISZERO PUSH2 0x2398 JUMPI PUSH2 0x2397 PUSH2 0x1857 JUMP JUMPDEST JUMPDEST PUSH1 0x0 PUSH2 0x23A6 DUP12 DUP3 DUP13 ADD PUSH2 0x1944 JUMP JUMPDEST SWAP9 POP POP PUSH1 0x20 PUSH2 0x23B7 DUP12 DUP3 DUP13 ADD PUSH2 0x1944 JUMP JUMPDEST SWAP8 POP POP PUSH1 0x40 PUSH2 0x23C8 DUP12 DUP3 DUP13 ADD PUSH2 0x1DA6 JUMP JUMPDEST SWAP7 POP POP PUSH1 0x80 PUSH2 0x23D9 DUP12 DUP3 DUP13 ADD PUSH2 0x1E57 JUMP JUMPDEST SWAP6 POP POP PUSH2 0x100 PUSH2 0x23EB DUP12 DUP3 DUP13 ADD PUSH2 0x1FB9 JUMP JUMPDEST SWAP5 POP POP PUSH2 0x200 PUSH2 0x23FD DUP12 DUP3 DUP13 ADD PUSH2 0x1944 JUMP JUMPDEST SWAP4 POP POP PUSH2 0x220 PUSH2 0x240F DUP12 DUP3 DUP13 ADD PUSH2 0x1DA6 JUMP JUMPDEST SWAP3 POP POP PUSH2 0x260 PUSH2 0x2421 DUP12 DUP3 DUP13 ADD PUSH2 0x2362 JUMP JUMPDEST SWAP2 POP POP SWAP3 SWAP6 SWAP9 POP SWAP3 SWAP6 SWAP9 SWAP1 SWAP4 SWAP7 POP JUMP JUMPDEST PUSH1 0x0 DUP2 ISZERO ISZERO SWAP1 POP SWAP2 SWAP1 POP JUMP JUMPDEST PUSH2 0x2446 DUP2 PUSH2 0x2431 JUMP JUMPDEST DUP3 MSTORE POP POP JUMP JUMPDEST PUSH1 0x0 PUSH1 0x20 DUP3 ADD SWAP1 POP PUSH2 0x2461 PUSH1 0x0 DUP4 ADD DUP5 PUSH2 0x243D JUMP JUMPDEST SWAP3 SWAP2 POP POP JUMP JUMPDEST PUSH1 0x0 DUP1 PUSH2 0x200 DUP4 DUP6 SUB SLT ISZERO PUSH2 0x247F JUMPI PUSH2 0x247E PUSH2 0x1857 JUMP JUMPDEST JUMPDEST PUSH1 0x0 PUSH2 0x248D DUP6 DUP3 DUP7 ADD PUSH2 0x1944 JUMP JUMPDEST SWAP3 POP POP PUSH1 0x20 PUSH2 0x249E DUP6 DUP3 DUP7 ADD PUSH2 0x1FE4 JUMP JUMPDEST SWAP2 POP POP SWAP3 POP SWAP3 SWAP1 POP JUMP JUMPDEST PUSH1 0x0 DUP2 MLOAD SWAP1 POP SWAP2 SWAP1 POP JUMP JUMPDEST PUSH1 0x0 DUP3 DUP3 MSTORE PUSH1 0x20 DUP3 ADD SWAP1 POP SWAP3 SWAP2 POP POP JUMP JUMPDEST PUSH1 0x0 DUP2 SWAP1 POP PUSH1 0x20 DUP3 ADD SWAP1 POP SWAP2 SWAP1 POP JUMP JUMPDEST PUSH2 0x24DD DUP2 PUSH2 0x233D JUMP JUMPDEST DUP3 MSTORE POP POP JUMP JUMPDEST PUSH1 0x80 DUP3 ADD PUSH1 0x0 DUP3 ADD MLOAD PUSH2 0x24F9 PUSH1 0x0 DUP6 ADD DUP3 PUSH2 0x1A65 JUMP JUMPDEST POP PUSH1 0x20 DUP3 ADD MLOAD PUSH2 0x250C PUSH1 0x20 DUP6 ADD DUP3 PUSH2 0x20B8 JUMP JUMPDEST POP PUSH1 0x40 DUP3 ADD MLOAD PUSH2 0x251F PUSH1 0x60 DUP6 ADD DUP3 PUSH2 0x24D4 JUMP JUMPDEST POP POP POP POP JUMP JUMPDEST PUSH1 0x0 PUSH2 0x2531 DUP4 DUP4 PUSH2 0x24E3 JUMP JUMPDEST PUSH1 0x80 DUP4 ADD SWAP1 POP SWAP3 SWAP2 POP POP JUMP JUMPDEST PUSH1 0x0 PUSH1 0x20 DUP3 ADD SWAP1 POP SWAP2 SWAP1 POP JUMP JUMPDEST PUSH1 0x0 PUSH2 0x2555 DUP3 PUSH2 0x24A8 JUMP JUMPDEST PUSH2 0x255F DUP2 DUP6 PUSH2 0x24B3 JUMP JUMPDEST SWAP4 POP PUSH2 0x256A DUP4 PUSH2 0x24C4 JUMP JUMPDEST DUP1 PUSH1 0x0 JUMPDEST DUP4 DUP2 LT ISZERO PUSH2 0x259B JUMPI DUP2 MLOAD PUSH2 0x2582 DUP9 DUP3 PUSH2 0x2525 JUMP JUMPDEST SWAP8 POP PUSH2 0x258D DUP4 PUSH2 0x253D JUMP JUMPDEST SWAP3 POP POP PUSH1 0x1 DUP2 ADD SWAP1 POP PUSH2 0x256E JUMP JUMPDEST POP DUP6 SWAP4 POP POP POP POP SWAP3 SWAP2 POP POP JUMP JUMPDEST PUSH1 0x0 PUSH1 0x20 DUP3 ADD SWAP1 POP DUP2 DUP2 SUB PUSH1 0x0 DUP4 ADD MSTORE PUSH2 0x25C2 DUP2 DUP5 PUSH2 0x254A JUMP JUMPDEST SWAP1 POP SWAP3 SWAP2 POP POP JUMP JUMPDEST PUSH1 0x0 PUSH1 0x20 DUP3 DUP5 SUB SLT ISZERO PUSH2 0x25E0 JUMPI PUSH2 0x25DF PUSH2 0x1857 JUMP JUMPDEST JUMPDEST PUSH1 0x0 PUSH2 0x25EE DUP5 DUP3 DUP6 ADD PUSH2 0x1944 JUMP JUMPDEST SWAP2 POP POP SWAP3 SWAP2 POP POP JUMP JUMPDEST PUSH2 0x2600 DUP2 PUSH2 0x1923 JUMP JUMPDEST DUP3 MSTORE POP POP JUMP JUMPDEST PUSH1 0x0 PUSH1 0x20 DUP3 ADD SWAP1 POP PUSH2 0x261B PUSH1 0x0 DUP4 ADD DUP5 PUSH2 0x25F7 JUMP JUMPDEST SWAP3 SWAP2 POP POP JUMP JUMPDEST PUSH1 0x0 PUSH2 0x200 DUP3 ADD SWAP1 POP PUSH2 0x2637 PUSH1 0x0 DUP4 ADD DUP6 PUSH2 0x25F7 JUMP JUMPDEST PUSH2 0x2644 PUSH1 0x20 DUP4 ADD DUP5 PUSH2 0x22CB JUMP JUMPDEST SWAP4 SWAP3 POP POP POP JUMP JUMPDEST PUSH2 0x2654 DUP2 PUSH2 0x2431 JUMP JUMPDEST DUP2 EQ PUSH2 0x265F JUMPI PUSH1 0x0 DUP1 REVERT JUMPDEST POP JUMP JUMPDEST PUSH1 0x0 DUP2 MLOAD SWAP1 POP PUSH2 0x2671 DUP2 PUSH2 0x264B JUMP JUMPDEST SWAP3 SWAP2 POP POP JUMP JUMPDEST PUSH1 0x0 PUSH1 0x20 DUP3 DUP5 SUB SLT ISZERO PUSH2 0x268D JUMPI PUSH2 0x268C PUSH2 0x1857 JUMP JUMPDEST JUMPDEST PUSH1 0x0 PUSH2 0x269B DUP5 DUP3 DUP6 ADD PUSH2 0x2662 JUMP JUMPDEST SWAP2 POP POP SWAP3 SWAP2 POP POP JUMP JUMPDEST PUSH32 0x4E487B7100000000000000000000000000000000000000000000000000000000 PUSH1 0x0 MSTORE PUSH1 0x32 PUSH1 0x4 MSTORE PUSH1 0x24 PUSH1 0x0 REVERT JUMPDEST PUSH32 0x4E487B7100000000000000000000000000000000000000000000000000000000 PUSH1 0x0 MSTORE PUSH1 0x11 PUSH1 0x4 MSTORE PUSH1 0x24 PUSH1 0x0 REVERT JUMPDEST PUSH1 0x0 PUSH2 0x270D DUP3 PUSH2 0x1923 JUMP JUMPDEST SWAP2 POP PUSH2 0x2718 DUP4 PUSH2 0x1923 JUMP JUMPDEST SWAP3 POP DUP3 DUP3 SUB SWAP1 POP DUP2 DUP2 GT ISZERO PUSH2 0x2730 JUMPI PUSH2 0x272F PUSH2 0x26D3 JUMP JUMPDEST JUMPDEST SWAP3 SWAP2 POP POP JUMP JUMPDEST PUSH1 0x0 PUSH2 0x2741 DUP3 PUSH2 0x1923 JUMP JUMPDEST SWAP2 POP PUSH2 0x274C DUP4 PUSH2 0x1923 JUMP JUMPDEST SWAP3 POP DUP3 DUP3 ADD SWAP1 POP DUP1 DUP3 GT ISZERO PUSH2 0x2764 JUMPI PUSH2 0x2763 PUSH2 0x26D3 JUMP JUMPDEST JUMPDEST SWAP3 SWAP2 POP POP JUMP JUMPDEST PUSH1 0x0 DUP2 MLOAD SWAP1 POP PUSH2 0x2779 DUP2 PUSH2 0x192D JUMP JUMPDEST SWAP3 SWAP2 POP POP JUMP JUMPDEST PUSH1 0x0 PUSH2 0x2792 PUSH2 0x278D DUP5 PUSH2 0x1D20 JUMP JUMPDEST PUSH2 0x18D7 JUMP JUMPDEST SWAP1 POP DUP1 PUSH1 0x20 DUP5 MUL DUP4 ADD DUP6 DUP2 GT ISZERO PUSH2 0x27AC JUMPI PUSH2 0x27AB PUSH2 0x191E JUMP JUMPDEST JUMPDEST DUP4 JUMPDEST DUP2 DUP2 LT ISZERO PUSH2 0x27D5 JUMPI DUP1 PUSH2 0x27C1 DUP9 DUP3 PUSH2 0x276A JUMP JUMPDEST DUP5 MSTORE PUSH1 0x20 DUP5 ADD SWAP4 POP POP PUSH1 0x20 DUP2 ADD SWAP1 POP PUSH2 0x27AE JUMP JUMPDEST POP POP POP SWAP4 SWAP3 POP POP POP JUMP JUMPDEST PUSH1 0x0 DUP3 PUSH1 0x1F DUP4 ADD SLT PUSH2 0x27F4 JUMPI PUSH2 0x27F3 PUSH2 0x1861 JUMP JUMPDEST JUMPDEST PUSH1 0x2 PUSH2 0x2801 DUP5 DUP3 DUP6 PUSH2 0x277F JUMP JUMPDEST SWAP2 POP POP SWAP3 SWAP2 POP POP JUMP JUMPDEST PUSH1 0x0 PUSH1 0x40 DUP3 DUP5 SUB SLT ISZERO PUSH2 0x2820 JUMPI PUSH2 0x281F PUSH2 0x1857 JUMP JUMPDEST JUMPDEST PUSH1 0x0 PUSH2 0x282E DUP5 DUP3 DUP6 ADD PUSH2 0x27DF JUMP JUMPDEST SWAP2 POP POP SWAP3 SWAP2 POP POP JUMP JUMPDEST PUSH1 0x0 DUP2 SWAP1 POP SWAP3 SWAP2 POP POP JUMP JUMPDEST PUSH2 0x284B DUP2 PUSH2 0x208B JUMP JUMPDEST PUSH2 0x2855 DUP2 DUP5 PUSH2 0x2837 JUMP JUMPDEST SWAP3 POP PUSH2 0x2860 DUP3 PUSH2 0x20A1 JUMP JUMPDEST DUP1 PUSH1 0x0 JUMPDEST DUP4 DUP2 LT ISZERO PUSH2 0x2891 JUMPI DUP2 MLOAD PUSH2 0x2878 DUP8 DUP3 PUSH2 0x1A74 JUMP JUMPDEST SWAP7 POP PUSH2 0x2883 DUP4 PUSH2 0x20AB JUMP JUMPDEST SWAP3 POP POP PUSH1 0x1 DUP2 ADD SWAP1 POP PUSH2 0x2864 JUMP JUMPDEST POP POP POP POP POP POP JUMP JUMPDEST PUSH1 0x0 PUSH1 0x60 DUP3 ADD SWAP1 POP PUSH2 0x28AE PUSH1 0x0 DUP4 ADD DUP6 PUSH2 0x2842 JUMP JUMPDEST PUSH2 0x28BB PUSH1 0x40 DUP4 ADD DUP5 PUSH2 0x25F7 JUMP JUMPDEST SWAP4 SWAP3 POP POP POP JUMP JUMPDEST PUSH1 0x0 PUSH1 0x80 DUP3 ADD SWAP1 POP PUSH2 0x28D7 PUSH1 0x0 DUP4 ADD DUP6 PUSH2 0x2842 JUMP JUMPDEST PUSH2 0x28E4 PUSH1 0x40 DUP4 ADD DUP5 PUSH2 0x2842 JUMP JUMPDEST SWAP4 SWAP3 POP POP POP JUMP JUMPDEST PUSH1 0x0 DUP2 SWAP1 POP SWAP3 SWAP2 POP POP JUMP JUMPDEST PUSH1 0x0 PUSH2 0x2901 DUP3 PUSH2 0x1C7F JUMP JUMPDEST PUSH2 0x290B DUP2 DUP6 PUSH2 0x28EB JUMP JUMPDEST SWAP4 POP PUSH2 0x291B DUP2 DUP6 PUSH1 0x20 DUP7 ADD PUSH2 0x1C9B JUMP JUMPDEST DUP1 DUP5 ADD SWAP2 POP POP SWAP3 SWAP2 POP POP JUMP JUMPDEST PUSH1 0x0 PUSH2 0x2933 DUP3 DUP6 PUSH2 0x28F6 JUMP JUMPDEST SWAP2 POP PUSH2 0x293F DUP3 DUP5 PUSH2 0x28F6 JUMP JUMPDEST SWAP2 POP DUP2 SWAP1 POP SWAP4 SWAP3 POP POP POP JUMP JUMPDEST PUSH1 0x0 PUSH2 0x2956 DUP3 PUSH2 0x1923 JUMP JUMPDEST SWAP2 POP PUSH32 0xFFFFFFFFFFFFFFFFFFFFFFFFFFFFFFFFFFFFFFFFFFFFFFFFFFFFFFFFFFFFFFFF DUP3 SUB PUSH2 0x2988 JUMPI PUSH2 0x2987 PUSH2 0x26D3 JUMP JUMPDEST JUMPDEST PUSH1 0x1 DUP3 ADD SWAP1 POP SWAP2 SWAP1 POP JUMP JUMPDEST PUSH32 0x4E487B7100000000000000000000000000000000000000000000000000000000 PUSH1 0x0 MSTORE PUSH1 0x12 PUSH1 0x4 MSTORE PUSH1 0x24 PUSH1 0x0 REVERT JUMPDEST PUSH1 0x0 PUSH2 0x29CE DUP3 DUP5 PUSH2 0x28F6 JUMP JUMPDEST SWAP2 POP DUP2 SWAP1 POP SWAP3 SWAP2 POP POP JUMP INVALID LOG2 PUSH5 0x6970667358 0x22 SLT KECCAK256 0xBA BASEFEE SWAP9 0xBF 0xBA CODESIZE 0xB8 0xDB SWAP13 ISZERO 0xD0 SWAP11 0xC PUSH25 0xA8515A1B8EDBB93A74304700C092F47E21464736F6C634300 ADDMOD SGT STOP CALLER PUSH1 0x80 PUSH1 0x40 MSTORE CALLVALUE DUP1 ISZERO PUSH2 0x10 JUMPI PUSH1 0x0 DUP1 REVERT JUMPDEST POP PUSH2 0x18D4 DUP1 PUSH2 0x20 PUSH1 0x0 CODECOPY PUSH1 0x0 RETURN INVALID PUSH1 0x80 PUSH1 0x40 MSTORE CALLVALUE DUP1 ISZERO PUSH2 0x10 JUMPI PUSH1 0x0 DUP1 REVERT JUMPDEST POP PUSH1 0x4 CALLDATASIZE LT PUSH2 0xF5 JUMPI PUSH1 0x0 CALLDATALOAD PUSH1 0xE0 SHR DUP1 PUSH4 0x997DA8D4 GT PUSH2 0x97 JUMPI DUP1 PUSH4 0xBB734C4E GT PUSH2 0x66 JUMPI DUP1 PUSH4 0xBB734C4E EQ PUSH2 0x28C JUMPI DUP1 PUSH4 0xC11B8AD7 EQ PUSH2 0x2BC JUMPI DUP1 PUSH4 0xE7A48839 EQ PUSH2 0x2DA JUMPI DUP1 PUSH4 0xEEEAC01E EQ PUSH2 0x2F8 JUMPI PUSH2 0xF5 JUMP JUMPDEST DUP1 PUSH4 0x997DA8D4 EQ PUSH2 0x1F0 JUMPI DUP1 PUSH4 0x9B4CDCD3 EQ PUSH2 0x20E JUMPI DUP1 PUSH4 0x9F13F76D EQ PUSH2 0x23E JUMPI DUP1 PUSH4 0xACA8F56E EQ PUSH2 0x25C JUMPI PUSH2 0xF5 JUMP JUMPDEST DUP1 PUSH4 0x29038545 GT PUSH2 0xD3 JUMPI DUP1 PUSH4 0x29038545 EQ PUSH2 0x178 JUMPI DUP1 PUSH4 0x4E93D4A2 EQ PUSH2 0x196 JUMPI DUP1 PUSH4 0x5727DC5C EQ PUSH2 0x1B4 JUMPI DUP1 PUSH4 0x7A308A4C EQ PUSH2 0x1D2 JUMPI PUSH2 0xF5 JUMP JUMPDEST DUP1 PUSH4 0x3A507BE EQ PUSH2 0xFA JUMPI DUP1 PUSH4 0x1177A4A4 EQ PUSH2 0x118 JUMPI DUP1 PUSH4 0x1C51DF7B EQ PUSH2 0x148 JUMPI JUMPDEST PUSH1 0x0 DUP1 REVERT JUMPDEST PUSH2 0x102 PUSH2 0x316 JUMP JUMPDEST PUSH1 0x40 MLOAD PUSH2 0x10F SWAP2 SWAP1 PUSH2 0x1340 JUMP JUMPDEST PUSH1 0x40 MLOAD DUP1 SWAP2 SUB SWAP1 RETURN JUMPDEST PUSH2 0x132 PUSH1 0x4 DUP1 CALLDATASIZE SUB DUP2 ADD SWAP1 PUSH2 0x12D SWAP2 SWAP1 PUSH2 0x14DD JUMP JUMPDEST PUSH2 0x33A JUMP JUMPDEST PUSH1 0x40 MLOAD PUSH2 0x13F SWAP2 SWAP1 PUSH2 0x15C8 JUMP JUMPDEST PUSH1 0x40 MLOAD DUP1 SWAP2 SUB SWAP1 RETURN JUMPDEST PUSH2 0x162 PUSH1 0x4 DUP1 CALLDATASIZE SUB DUP2 ADD SWAP1 PUSH2 0x15D SWAP2 SWAP1 PUSH2 0x14DD JUMP JUMPDEST PUSH2 0x3F7 JUMP JUMPDEST PUSH1 0x40 MLOAD PUSH2 0x16F SWAP2 SWAP1 PUSH2 0x15C8 JUMP JUMPDEST PUSH1 0x40 MLOAD DUP1 SWAP2 SUB SWAP1 RETURN JUMPDEST PUSH2 0x180 PUSH2 0x4B4 JUMP JUMPDEST PUSH1 0x40 MLOAD PUSH2 0x18D SWAP2 SWAP1 PUSH2 0x1340 JUMP JUMPDEST PUSH1 0x40 MLOAD DUP1 SWAP2 SUB SWAP1 RETURN JUMPDEST PUSH2 0x19E PUSH2 0x4D8 JUMP JUMPDEST PUSH1 0x40 MLOAD PUSH2 0x1AB SWAP2 SWAP1 PUSH2 0x1340 JUMP JUMPDEST PUSH1 0x40 MLOAD DUP1 SWAP2 SUB SWAP1 RETURN JUMPDEST PUSH2 0x1BC PUSH2 0x4FC JUMP JUMPDEST PUSH1 0x40 MLOAD PUSH2 0x1C9 SWAP2 SWAP1 PUSH2 0x1340 JUMP JUMPDEST PUSH1 0x40 MLOAD DUP1 SWAP2 SUB SWAP1 RETURN JUMPDEST PUSH2 0x1DA PUSH2 0x501 JUMP JUMPDEST PUSH1 0x40 MLOAD PUSH2 0x1E7 SWAP2 SWAP1 PUSH2 0x1340 JUMP JUMPDEST PUSH1 0x40 MLOAD DUP1 SWAP2 SUB SWAP1 RETURN JUMPDEST PUSH2 0x1F8 PUSH2 0x525 JUMP JUMPDEST PUSH1 0x40 MLOAD PUSH2 0x205 SWAP2 SWAP1 PUSH2 0x1340 JUMP JUMPDEST PUSH1 0x40 MLOAD DUP1 SWAP2 SUB SWAP1 RETURN JUMPDEST PUSH2 0x228 PUSH1 0x4 DUP1 CALLDATASIZE SUB DUP2 ADD SWAP1 PUSH2 0x223 SWAP2 SWAP1 PUSH2 0x15E3 JUMP JUMPDEST PUSH2 0x52A JUMP JUMPDEST PUSH1 0x40 MLOAD PUSH2 0x235 SWAP2 SWAP1 PUSH2 0x15C8 JUMP JUMPDEST PUSH1 0x40 MLOAD DUP1 SWAP2 SUB SWAP1 RETURN JUMPDEST PUSH2 0x246 PUSH2 0x5C5 JUMP JUMPDEST PUSH1 0x40 MLOAD PUSH2 0x253 SWAP2 SWAP1 PUSH2 0x1340 JUMP JUMPDEST PUSH1 0x40 MLOAD DUP1 SWAP2 SUB SWAP1 RETURN JUMPDEST PUSH2 0x276 PUSH1 0x4 DUP1 CALLDATASIZE SUB DUP2 ADD SWAP1 PUSH2 0x271 SWAP2 SWAP1 PUSH2 0x1610 JUMP JUMPDEST PUSH2 0x5E9 JUMP JUMPDEST PUSH1 0x40 MLOAD PUSH2 0x283 SWAP2 SWAP1 PUSH2 0x15C8 JUMP JUMPDEST PUSH1 0x40 MLOAD DUP1 SWAP2 SUB SWAP1 RETURN JUMPDEST PUSH2 0x2A6 PUSH1 0x4 DUP1 CALLDATASIZE SUB DUP2 ADD SWAP1 PUSH2 0x2A1 SWAP2 SWAP1 PUSH2 0x15E3 JUMP JUMPDEST PUSH2 0x675 JUMP JUMPDEST PUSH1 0x40 MLOAD PUSH2 0x2B3 SWAP2 SWAP1 PUSH2 0x15C8 JUMP JUMPDEST PUSH1 0x40 MLOAD DUP1 SWAP2 SUB SWAP1 RETURN JUMPDEST PUSH2 0x2C4 PUSH2 0x710 JUMP JUMPDEST PUSH1 0x40 MLOAD PUSH2 0x2D1 SWAP2 SWAP1 PUSH2 0x1340 JUMP JUMPDEST PUSH1 0x40 MLOAD DUP1 SWAP2 SUB SWAP1 RETURN JUMPDEST PUSH2 0x2E2 PUSH2 0x734 JUMP JUMPDEST PUSH1 0x40 MLOAD PUSH2 0x2EF SWAP2 SWAP1 PUSH2 0x1340 JUMP JUMPDEST PUSH1 0x40 MLOAD DUP1 SWAP2 SUB SWAP1 RETURN JUMPDEST PUSH2 0x300 PUSH2 0x758 JUMP JUMPDEST PUSH1 0x40 MLOAD PUSH2 0x30D SWAP2 SWAP1 PUSH2 0x1340 JUMP JUMPDEST PUSH1 0x40 MLOAD DUP1 SWAP2 SUB SWAP1 RETURN JUMPDEST PUSH32 0x6FB13B7E8AB1C7D191D16197C1BF7F8DC7992412E1266155B3FB3AC8B30F3ED8 DUP2 JUMP JUMPDEST PUSH2 0x342 PUSH2 0x12E3 JUMP JUMPDEST PUSH1 0x0 DUP1 PUSH2 0x3D4 DUP6 PUSH1 0x0 PUSH1 0x2 DUP2 LT PUSH2 0x35C JUMPI PUSH2 0x35B PUSH2 0x1650 JUMP JUMPDEST JUMPDEST PUSH1 0x20 MUL ADD MLOAD DUP7 PUSH1 0x1 PUSH1 0x2 DUP2 LT PUSH2 0x375 JUMPI PUSH2 0x374 PUSH2 0x1650 JUMP JUMPDEST JUMPDEST PUSH1 0x20 MUL ADD MLOAD DUP7 PUSH1 0x0 PUSH1 0x2 DUP2 LT PUSH2 0x38E JUMPI PUSH2 0x38D PUSH2 0x1650 JUMP JUMPDEST JUMPDEST PUSH1 0x20 MUL ADD MLOAD DUP8 PUSH1 0x1 PUSH1 0x2 DUP2 LT PUSH2 0x3A7 JUMPI PUSH2 0x3A6 PUSH2 0x1650 JUMP JUMPDEST JUMPDEST PUSH1 0x20 MUL ADD MLOAD PUSH1 0x0 PUSH32 0xFFFFFFFFFFFFFFFFFFFFFFFFFFFFFFFFFFFFFFFFFFFFFFFFFFFFFFFEFFFFFC2F PUSH2 0x77C JUMP JUMPDEST SWAP2 POP SWAP2 POP PUSH1 0x40 MLOAD DUP1 PUSH1 0x40 ADD PUSH1 0x40 MSTORE DUP1 DUP4 DUP2 MSTORE PUSH1 0x20 ADD DUP3 DUP2 MSTORE POP SWAP3 POP POP POP SWAP3 SWAP2 POP POP JUMP JUMPDEST PUSH2 0x3FF PUSH2 0x12E3 JUMP JUMPDEST PUSH1 0x0 DUP1 PUSH2 0x491 DUP6 PUSH1 0x0 PUSH1 0x2 DUP2 LT PUSH2 0x419 JUMPI PUSH2 0x418 PUSH2 0x1650 JUMP JUMPDEST JUMPDEST PUSH1 0x20 MUL ADD MLOAD DUP7 PUSH1 0x1 PUSH1 0x2 DUP2 LT PUSH2 0x432 JUMPI PUSH2 0x431 PUSH2 0x1650 JUMP JUMPDEST JUMPDEST PUSH1 0x20 MUL ADD MLOAD DUP7 PUSH1 0x0 PUSH1 0x2 DUP2 LT PUSH2 0x44B JUMPI PUSH2 0x44A PUSH2 0x1650 JUMP JUMPDEST JUMPDEST PUSH1 0x20 MUL ADD MLOAD DUP8 PUSH1 0x1 PUSH1 0x2 DUP2 LT PUSH2 0x464 JUMPI PUSH2 0x463 PUSH2 0x1650 JUMP JUMPDEST JUMPDEST PUSH1 0x20 MUL ADD MLOAD PUSH1 0x0 PUSH32 0xFFFFFFFFFFFFFFFFFFFFFFFFFFFFFFFFFFFFFFFFFFFFFFFFFFFFFFFEFFFFFC2F PUSH2 0x80F JUMP JUMPDEST SWAP2 POP SWAP2 POP PUSH1 0x40 MLOAD DUP1 PUSH1 0x40 ADD PUSH1 0x40 MSTORE DUP1 DUP4 DUP2 MSTORE PUSH1 0x20 ADD DUP3 DUP2 MSTORE POP SWAP3 POP POP POP SWAP3 SWAP2 POP POP JUMP JUMPDEST PUSH32 0x483ADA7726A3C4655DA4FBFC0E1108A8FD17B448A68554199C47D08FFB10D4B8 DUP2 JUMP JUMPDEST PUSH32 0xD209F7C16CDB6D3559BEA88C7D920F8FF077406C615DA8ADFECDEEF604CB40A6 DUP2 JUMP JUMPDEST PUSH1 0x7 DUP2 JUMP JUMPDEST PUSH32 0x2E1EB77BD89505113819600B395E0475D102C4788A3280A583D9D82625ED8533 DUP2 JUMP JUMPDEST PUSH1 0x0 DUP2 JUMP JUMPDEST PUSH2 0x532 PUSH2 0x12E3 JUMP JUMPDEST PUSH1 0x0 DUP1 PUSH2 0x5A3 DUP5 PUSH32 0x7CD9EE748A0B26773D9D29361F75594964106D13E1CAD67CFE2DF503EE3E90E PUSH32 0xD209F7C16CDB6D3559BEA88C7D920F8FF077406C615DA8ADFECDEEF604CB40A6 PUSH1 0x0 PUSH32 0xFFFFFFFFFFFFFFFFFFFFFFFFFFFFFFFFFFFFFFFFFFFFFFFFFFFFFFFEFFFFFC2F PUSH2 0x843 JUMP JUMPDEST SWAP2 POP SWAP2 POP PUSH1 0x40 MLOAD DUP1 PUSH1 0x40 ADD PUSH1 0x40 MSTORE DUP1 DUP4 DUP2 MSTORE PUSH1 0x20 ADD DUP3 DUP2 MSTORE POP SWAP3 POP POP POP SWAP2 SWAP1 POP JUMP JUMPDEST PUSH32 0xFFFFFFFFFFFFFFFFFFFFFFFFFFFFFFFEBAAEDCE6AF48A03BBFD25E8CD0364141 DUP2 JUMP JUMPDEST PUSH2 0x5F1 PUSH2 0x12E3 JUMP JUMPDEST PUSH1 0x0 DUP1 PUSH2 0x652 DUP5 DUP7 PUSH1 0x0 PUSH1 0x2 DUP2 LT PUSH2 0x60C JUMPI PUSH2 0x60B PUSH2 0x1650 JUMP JUMPDEST JUMPDEST PUSH1 0x20 MUL ADD MLOAD DUP8 PUSH1 0x1 PUSH1 0x2 DUP2 LT PUSH2 0x625 JUMPI PUSH2 0x624 PUSH2 0x1650 JUMP JUMPDEST JUMPDEST PUSH1 0x20 MUL ADD MLOAD PUSH1 0x0 PUSH32 0xFFFFFFFFFFFFFFFFFFFFFFFFFFFFFFFFFFFFFFFFFFFFFFFFFFFFFFFEFFFFFC2F PUSH2 0x843 JUMP JUMPDEST SWAP2 POP SWAP2 POP PUSH1 0x40 MLOAD DUP1 PUSH1 0x40 ADD PUSH1 0x40 MSTORE DUP1 DUP4 DUP2 MSTORE PUSH1 0x20 ADD DUP3 DUP2 MSTORE POP SWAP3 POP POP POP SWAP3 SWAP2 POP POP JUMP JUMPDEST PUSH2 0x67D PUSH2 0x12E3 JUMP JUMPDEST PUSH1 0x0 DUP1 PUSH2 0x6EE DUP5 PUSH32 0x6FB13B7E8AB1C7D191D16197C1BF7F8DC7992412E1266155B3FB3AC8B30F3ED8 PUSH32 0x2E1EB77BD89505113819600B395E0475D102C4788A3280A583D9D82625ED8533 PUSH1 0x0 PUSH32 0xFFFFFFFFFFFFFFFFFFFFFFFFFFFFFFFFFFFFFFFFFFFFFFFFFFFFFFFEFFFFFC2F PUSH2 0x843 JUMP JUMPDEST SWAP2 POP SWAP2 POP PUSH1 0x40 MLOAD DUP1 PUSH1 0x40 ADD PUSH1 0x40 MSTORE DUP1 DUP4 DUP2 MSTORE PUSH1 0x20 ADD DUP3 DUP2 MSTORE POP SWAP3 POP POP POP SWAP2 SWAP1 POP JUMP JUMPDEST PUSH32 0x7CD9EE748A0B26773D9D29361F75594964106D13E1CAD67CFE2DF503EE3E90E DUP2 JUMP JUMPDEST PUSH32 0x79BE667EF9DCBBAC55A06295CE870B07029BFCDB2DCE28D959F2815B16F81798 DUP2 JUMP JUMPDEST PUSH32 0xFFFFFFFFFFFFFFFFFFFFFFFFFFFFFFFFFFFFFFFFFFFFFFFFFFFFFFFEFFFFFC2F DUP2 JUMP JUMPDEST PUSH1 0x0 DUP1 PUSH1 0x0 DUP1 PUSH1 0x0 DUP9 DUP12 SUB PUSH2 0x7D2 JUMPI PUSH1 0x0 DUP7 DUP1 PUSH2 0x79C JUMPI PUSH2 0x79B PUSH2 0x167F JUMP JUMPDEST JUMPDEST DUP10 DUP13 ADDMOD SUB PUSH2 0x7B3 JUMPI PUSH1 0x0 DUP1 SWAP5 POP SWAP5 POP POP POP POP PUSH2 0x804 JUMP JUMPDEST PUSH2 0x7C1 DUP12 DUP12 PUSH1 0x1 DUP11 DUP11 PUSH2 0x87D JUMP JUMPDEST DUP1 SWAP4 POP DUP2 SWAP5 POP DUP3 SWAP6 POP POP POP POP PUSH2 0x7F0 JUMP JUMPDEST PUSH2 0x7E3 DUP12 DUP12 PUSH1 0x1 DUP13 DUP13 PUSH1 0x1 DUP13 PUSH2 0xA3B JUMP JUMPDEST DUP1 SWAP4 POP DUP2 SWAP5 POP DUP3 SWAP6 POP POP POP POP JUMPDEST PUSH2 0x7FC DUP4 DUP4 DUP4 DUP10 PUSH2 0x10BA JUMP JUMPDEST SWAP5 POP SWAP5 POP POP POP POP JUMPDEST SWAP7 POP SWAP7 SWAP5 POP POP POP POP POP JUMP JUMPDEST PUSH1 0x0 DUP1 PUSH1 0x0 DUP1 PUSH2 0x820 DUP9 DUP9 DUP8 PUSH2 0x1131 JUMP JUMPDEST SWAP2 POP SWAP2 POP PUSH2 0x832 DUP11 DUP11 DUP5 DUP5 DUP11 DUP11 PUSH2 0x77C JUMP JUMPDEST SWAP4 POP SWAP4 POP POP POP SWAP7 POP SWAP7 SWAP5 POP POP POP POP POP JUMP JUMPDEST PUSH1 0x0 DUP1 PUSH1 0x0 DUP1 PUSH1 0x0 PUSH2 0x85A DUP11 DUP11 DUP11 PUSH1 0x1 DUP12 DUP12 PUSH2 0x1158 JUMP JUMPDEST SWAP3 POP SWAP3 POP SWAP3 POP PUSH2 0x86C DUP4 DUP4 DUP4 DUP10 PUSH2 0x10BA JUMP JUMPDEST SWAP5 POP SWAP5 POP POP POP POP SWAP6 POP SWAP6 SWAP4 POP POP POP POP JUMP JUMPDEST PUSH1 0x0 DUP1 PUSH1 0x0 DUP1 DUP7 SUB PUSH2 0x897 JUMPI DUP8 DUP8 DUP8 SWAP3 POP SWAP3 POP SWAP3 POP PUSH2 0xA30 JUMP JUMPDEST PUSH1 0x0 DUP5 DUP1 PUSH2 0x8A8 JUMPI PUSH2 0x8A7 PUSH2 0x167F JUMP JUMPDEST JUMPDEST DUP10 DUP11 MULMOD SWAP1 POP PUSH1 0x0 DUP6 DUP1 PUSH2 0x8BE JUMPI PUSH2 0x8BD PUSH2 0x167F JUMP JUMPDEST JUMPDEST DUP10 DUP11 MULMOD SWAP1 POP PUSH1 0x0 DUP7 DUP1 PUSH2 0x8D4 JUMPI PUSH2 0x8D3 PUSH2 0x167F JUMP JUMPDEST JUMPDEST DUP10 DUP11 MULMOD SWAP1 POP PUSH1 0x0 DUP8 DUP1 PUSH2 0x8EA JUMPI PUSH2 0x8E9 PUSH2 0x167F JUMP JUMPDEST JUMPDEST DUP9 DUP1 PUSH2 0x8F9 JUMPI PUSH2 0x8F8 PUSH2 0x167F JUMP JUMPDEST JUMPDEST DUP5 DUP15 MULMOD PUSH1 0x4 MULMOD SWAP1 POP PUSH1 0x0 DUP9 DUP1 PUSH2 0x912 JUMPI PUSH2 0x911 PUSH2 0x167F JUMP JUMPDEST JUMPDEST DUP10 DUP1 PUSH2 0x921 JUMPI PUSH2 0x920 PUSH2 0x167F JUMP JUMPDEST JUMPDEST DUP11 DUP1 PUSH2 0x930 JUMPI PUSH2 0x92F PUSH2 0x167F JUMP JUMPDEST JUMPDEST DUP6 DUP7 MULMOD DUP13 MULMOD DUP11 DUP1 PUSH2 0x944 JUMPI PUSH2 0x943 PUSH2 0x167F JUMP JUMPDEST JUMPDEST DUP8 PUSH1 0x3 MULMOD ADDMOD SWAP1 POP DUP9 DUP1 PUSH2 0x95A JUMPI PUSH2 0x959 PUSH2 0x167F JUMP JUMPDEST JUMPDEST DUP10 DUP1 PUSH2 0x969 JUMPI PUSH2 0x968 PUSH2 0x167F JUMP JUMPDEST JUMPDEST DUP4 DUP5 ADDMOD DUP11 PUSH2 0x977 SWAP2 SWAP1 PUSH2 0x16DD JUMP JUMPDEST DUP11 DUP1 PUSH2 0x986 JUMPI PUSH2 0x985 PUSH2 0x167F JUMP JUMPDEST JUMPDEST DUP4 DUP5 MULMOD ADDMOD SWAP5 POP DUP9 DUP1 PUSH2 0x99B JUMPI PUSH2 0x99A PUSH2 0x167F JUMP JUMPDEST JUMPDEST DUP10 DUP1 PUSH2 0x9AA JUMPI PUSH2 0x9A9 PUSH2 0x167F JUMP JUMPDEST JUMPDEST DUP11 DUP1 PUSH2 0x9B9 JUMPI PUSH2 0x9B8 PUSH2 0x167F JUMP JUMPDEST JUMPDEST DUP7 DUP8 MULMOD PUSH1 0x8 MULMOD DUP11 PUSH2 0x9CA SWAP2 SWAP1 PUSH2 0x16DD JUMP JUMPDEST DUP11 DUP1 PUSH2 0x9D9 JUMPI PUSH2 0x9D8 PUSH2 0x167F JUMP JUMPDEST JUMPDEST DUP12 DUP1 PUSH2 0x9E8 JUMPI PUSH2 0x9E7 PUSH2 0x167F JUMP JUMPDEST JUMPDEST DUP9 DUP14 PUSH2 0x9F4 SWAP2 SWAP1 PUSH2 0x16DD JUMP JUMPDEST DUP7 ADDMOD DUP5 MULMOD ADDMOD SWAP4 POP DUP9 DUP1 PUSH2 0xA0A JUMPI PUSH2 0xA09 PUSH2 0x167F JUMP JUMPDEST JUMPDEST DUP10 DUP1 PUSH2 0xA19 JUMPI PUSH2 0xA18 PUSH2 0x167F JUMP JUMPDEST JUMPDEST DUP13 DUP15 MULMOD PUSH1 0x2 MULMOD SWAP3 POP DUP5 DUP5 DUP5 SWAP8 POP SWAP8 POP SWAP8 POP POP POP POP POP POP JUMPDEST SWAP6 POP SWAP6 POP SWAP6 SWAP3 POP POP POP JUMP JUMPDEST PUSH1 0x0 DUP1 PUSH1 0x0 DUP1 DUP11 EQ DUP1 ISZERO PUSH2 0xA4F JUMPI POP PUSH1 0x0 DUP10 EQ JUMPDEST ISZERO PUSH2 0xA62 JUMPI DUP7 DUP7 DUP7 SWAP3 POP SWAP3 POP SWAP3 POP PUSH2 0x10AD JUMP JUMPDEST PUSH1 0x0 DUP8 EQ DUP1 ISZERO PUSH2 0xA72 JUMPI POP PUSH1 0x0 DUP7 EQ JUMPDEST ISZERO PUSH2 0xA85 JUMPI DUP10 DUP10 DUP10 SWAP3 POP SWAP3 POP SWAP3 POP PUSH2 0x10AD JUMP JUMPDEST PUSH2 0xA8D PUSH2 0x1305 JUMP JUMPDEST DUP5 DUP1 PUSH2 0xA9C JUMPI PUSH2 0xA9B PUSH2 0x167F JUMP JUMPDEST JUMPDEST DUP10 DUP11 MULMOD DUP2 PUSH1 0x0 PUSH1 0x4 DUP2 LT PUSH2 0xAB3 JUMPI PUSH2 0xAB2 PUSH2 0x1650 JUMP JUMPDEST JUMPDEST PUSH1 0x20 MUL ADD DUP2 DUP2 MSTORE POP POP DUP5 DUP1 PUSH2 0xACB JUMPI PUSH2 0xACA PUSH2 0x167F JUMP JUMPDEST JUMPDEST DUP2 PUSH1 0x0 PUSH1 0x4 DUP2 LT PUSH2 0xADF JUMPI PUSH2 0xADE PUSH2 0x1650 JUMP JUMPDEST JUMPDEST PUSH1 0x20 MUL ADD MLOAD DUP11 MULMOD DUP2 PUSH1 0x1 PUSH1 0x4 DUP2 LT PUSH2 0xAFA JUMPI PUSH2 0xAF9 PUSH2 0x1650 JUMP JUMPDEST JUMPDEST PUSH1 0x20 MUL ADD DUP2 DUP2 MSTORE POP POP DUP5 DUP1 PUSH2 0xB12 JUMPI PUSH2 0xB11 PUSH2 0x167F JUMP JUMPDEST JUMPDEST DUP7 DUP8 MULMOD DUP2 PUSH1 0x2 PUSH1 0x4 DUP2 LT PUSH2 0xB29 JUMPI PUSH2 0xB28 PUSH2 0x1650 JUMP JUMPDEST JUMPDEST PUSH1 0x20 MUL ADD DUP2 DUP2 MSTORE POP POP DUP5 DUP1 PUSH2 0xB41 JUMPI PUSH2 0xB40 PUSH2 0x167F JUMP JUMPDEST JUMPDEST DUP2 PUSH1 0x2 PUSH1 0x4 DUP2 LT PUSH2 0xB55 JUMPI PUSH2 0xB54 PUSH2 0x1650 JUMP JUMPDEST JUMPDEST PUSH1 0x20 MUL ADD MLOAD DUP8 MULMOD DUP2 PUSH1 0x3 PUSH1 0x4 DUP2 LT PUSH2 0xB70 JUMPI PUSH2 0xB6F PUSH2 0x1650 JUMP JUMPDEST JUMPDEST PUSH1 0x20 MUL ADD DUP2 DUP2 MSTORE POP POP PUSH1 0x40 MLOAD DUP1 PUSH1 0x80 ADD PUSH1 0x40 MSTORE DUP1 DUP7 DUP1 PUSH2 0xB93 JUMPI PUSH2 0xB92 PUSH2 0x167F JUMP JUMPDEST JUMPDEST DUP4 PUSH1 0x2 PUSH1 0x4 DUP2 LT PUSH2 0xBA7 JUMPI PUSH2 0xBA6 PUSH2 0x1650 JUMP JUMPDEST JUMPDEST PUSH1 0x20 MUL ADD MLOAD DUP15 MULMOD DUP2 MSTORE PUSH1 0x20 ADD DUP7 DUP1 PUSH2 0xBC2 JUMPI PUSH2 0xBC1 PUSH2 0x167F JUMP JUMPDEST JUMPDEST DUP4 PUSH1 0x3 PUSH1 0x4 DUP2 LT PUSH2 0xBD6 JUMPI PUSH2 0xBD5 PUSH2 0x1650 JUMP JUMPDEST JUMPDEST PUSH1 0x20 MUL ADD MLOAD DUP14 MULMOD DUP2 MSTORE PUSH1 0x20 ADD DUP7 DUP1 PUSH2 0xBF1 JUMPI PUSH2 0xBF0 PUSH2 0x167F JUMP JUMPDEST JUMPDEST DUP4 PUSH1 0x0 PUSH1 0x4 DUP2 LT PUSH2 0xC05 JUMPI PUSH2 0xC04 PUSH2 0x1650 JUMP JUMPDEST JUMPDEST PUSH1 0x20 MUL ADD MLOAD DUP12 MULMOD DUP2 MSTORE PUSH1 0x20 ADD DUP7 DUP1 PUSH2 0xC20 JUMPI PUSH2 0xC1F PUSH2 0x167F JUMP JUMPDEST JUMPDEST DUP4 PUSH1 0x1 PUSH1 0x4 DUP2 LT PUSH2 0xC34 JUMPI PUSH2 0xC33 PUSH2 0x1650 JUMP JUMPDEST JUMPDEST PUSH1 0x20 MUL ADD MLOAD DUP11 MULMOD DUP2 MSTORE POP SWAP1 POP DUP1 PUSH1 0x2 PUSH1 0x4 DUP2 LT PUSH2 0xC54 JUMPI PUSH2 0xC53 PUSH2 0x1650 JUMP JUMPDEST JUMPDEST PUSH1 0x20 MUL ADD MLOAD DUP2 PUSH1 0x0 PUSH1 0x4 DUP2 LT PUSH2 0xC6D JUMPI PUSH2 0xC6C PUSH2 0x1650 JUMP JUMPDEST JUMPDEST PUSH1 0x20 MUL ADD MLOAD EQ ISZERO DUP1 PUSH2 0xCAF JUMPI POP DUP1 PUSH1 0x3 PUSH1 0x4 DUP2 LT PUSH2 0xC8E JUMPI PUSH2 0xC8D PUSH2 0x1650 JUMP JUMPDEST JUMPDEST PUSH1 0x20 MUL ADD MLOAD DUP2 PUSH1 0x1 PUSH1 0x4 DUP2 LT PUSH2 0xCA7 JUMPI PUSH2 0xCA6 PUSH2 0x1650 JUMP JUMPDEST JUMPDEST PUSH1 0x20 MUL ADD MLOAD EQ ISZERO JUMPDEST PUSH2 0xCEE JUMPI PUSH1 0x40 MLOAD PUSH32 0x8C379A000000000000000000000000000000000000000000000000000000000 DUP2 MSTORE PUSH1 0x4 ADD PUSH2 0xCE5 SWAP1 PUSH2 0x176E JUMP JUMPDEST PUSH1 0x40 MLOAD DUP1 SWAP2 SUB SWAP1 REVERT JUMPDEST PUSH2 0xCF6 PUSH2 0x1305 JUMP JUMPDEST DUP6 DUP1 PUSH2 0xD05 JUMPI PUSH2 0xD04 PUSH2 0x167F JUMP JUMPDEST JUMPDEST DUP3 PUSH1 0x0 PUSH1 0x4 DUP2 LT PUSH2 0xD19 JUMPI PUSH2 0xD18 PUSH2 0x1650 JUMP JUMPDEST JUMPDEST PUSH1 0x20 MUL ADD MLOAD DUP8 PUSH2 0xD29 SWAP2 SWAP1 PUSH2 0x16DD JUMP JUMPDEST DUP4 PUSH1 0x2 PUSH1 0x4 DUP2 LT PUSH2 0xD3D JUMPI PUSH2 0xD3C PUSH2 0x1650 JUMP JUMPDEST JUMPDEST PUSH1 0x20 MUL ADD MLOAD ADDMOD DUP2 PUSH1 0x0 PUSH1 0x4 DUP2 LT PUSH2 0xD57 JUMPI PUSH2 0xD56 PUSH2 0x1650 JUMP JUMPDEST JUMPDEST PUSH1 0x20 MUL ADD DUP2 DUP2 MSTORE POP POP DUP6 DUP1 PUSH2 0xD6F JUMPI PUSH2 0xD6E PUSH2 0x167F JUMP JUMPDEST JUMPDEST DUP3 PUSH1 0x1 PUSH1 0x4 DUP2 LT PUSH2 0xD83 JUMPI PUSH2 0xD82 PUSH2 0x1650 JUMP JUMPDEST JUMPDEST PUSH1 0x20 MUL ADD MLOAD DUP8 PUSH2 0xD93 SWAP2 SWAP1 PUSH2 0x16DD JUMP JUMPDEST DUP4 PUSH1 0x3 PUSH1 0x4 DUP2 LT PUSH2 0xDA7 JUMPI PUSH2 0xDA6 PUSH2 0x1650 JUMP JUMPDEST JUMPDEST PUSH1 0x20 MUL ADD MLOAD ADDMOD DUP2 PUSH1 0x1 PUSH1 0x4 DUP2 LT PUSH2 0xDC1 JUMPI PUSH2 0xDC0 PUSH2 0x1650 JUMP JUMPDEST JUMPDEST PUSH1 0x20 MUL ADD DUP2 DUP2 MSTORE POP POP DUP6 DUP1 PUSH2 0xDD9 JUMPI PUSH2 0xDD8 PUSH2 0x167F JUMP JUMPDEST JUMPDEST DUP2 PUSH1 0x0 PUSH1 0x4 DUP2 LT PUSH2 0xDED JUMPI PUSH2 0xDEC PUSH2 0x1650 JUMP JUMPDEST JUMPDEST PUSH1 0x20 MUL ADD MLOAD DUP3 PUSH1 0x0 PUSH1 0x4 DUP2 LT PUSH2 0xE06 JUMPI PUSH2 0xE05 PUSH2 0x1650 JUMP JUMPDEST JUMPDEST PUSH1 0x20 MUL ADD MLOAD MULMOD DUP2 PUSH1 0x2 PUSH1 0x4 DUP2 LT PUSH2 0xE20 JUMPI PUSH2 0xE1F PUSH2 0x1650 JUMP JUMPDEST JUMPDEST PUSH1 0x20 MUL ADD DUP2 DUP2 MSTORE POP POP DUP6 DUP1 PUSH2 0xE38 JUMPI PUSH2 0xE37 PUSH2 0x167F JUMP JUMPDEST JUMPDEST DUP2 PUSH1 0x0 PUSH1 0x4 DUP2 LT PUSH2 0xE4C JUMPI PUSH2 0xE4B PUSH2 0x1650 JUMP JUMPDEST JUMPDEST PUSH1 0x20 MUL ADD MLOAD DUP3 PUSH1 0x2 PUSH1 0x4 DUP2 LT PUSH2 0xE65 JUMPI PUSH2 0xE64 PUSH2 0x1650 JUMP JUMPDEST JUMPDEST PUSH1 0x20 MUL ADD MLOAD MULMOD DUP2 PUSH1 0x3 PUSH1 0x4 DUP2 LT PUSH2 0xE7F JUMPI PUSH2 0xE7E PUSH2 0x1650 JUMP JUMPDEST JUMPDEST PUSH1 0x20 MUL ADD DUP2 DUP2 MSTORE POP POP PUSH1 0x0 DUP7 DUP1 PUSH2 0xE99 JUMPI PUSH2 0xE98 PUSH2 0x167F JUMP JUMPDEST JUMPDEST DUP3 PUSH1 0x3 PUSH1 0x4 DUP2 LT PUSH2 0xEAD JUMPI PUSH2 0xEAC PUSH2 0x1650 JUMP JUMPDEST JUMPDEST PUSH1 0x20 MUL ADD MLOAD DUP9 PUSH2 0xEBD SWAP2 SWAP1 PUSH2 0x16DD JUMP JUMPDEST DUP9 DUP1 PUSH2 0xECC JUMPI PUSH2 0xECB PUSH2 0x167F JUMP JUMPDEST JUMPDEST DUP5 PUSH1 0x1 PUSH1 0x4 DUP2 LT PUSH2 0xEE0 JUMPI PUSH2 0xEDF PUSH2 0x1650 JUMP JUMPDEST JUMPDEST PUSH1 0x20 MUL ADD MLOAD DUP6 PUSH1 0x1 PUSH1 0x4 DUP2 LT PUSH2 0xEF9 JUMPI PUSH2 0xEF8 PUSH2 0x1650 JUMP JUMPDEST JUMPDEST PUSH1 0x20 MUL ADD MLOAD MULMOD ADDMOD SWAP1 POP DUP7 DUP1 PUSH2 0xF11 JUMPI PUSH2 0xF10 PUSH2 0x167F JUMP JUMPDEST JUMPDEST DUP8 DUP1 PUSH2 0xF20 JUMPI PUSH2 0xF1F PUSH2 0x167F JUMP JUMPDEST JUMPDEST DUP9 DUP1 PUSH2 0xF2F JUMPI PUSH2 0xF2E PUSH2 0x167F JUMP JUMPDEST JUMPDEST DUP5 PUSH1 0x2 PUSH1 0x4 DUP2 LT PUSH2 0xF43 JUMPI PUSH2 0xF42 PUSH2 0x1650 JUMP JUMPDEST JUMPDEST PUSH1 0x20 MUL ADD MLOAD DUP7 PUSH1 0x0 PUSH1 0x4 DUP2 LT PUSH2 0xF5C JUMPI PUSH2 0xF5B PUSH2 0x1650 JUMP JUMPDEST JUMPDEST PUSH1 0x20 MUL ADD MLOAD MULMOD PUSH1 0x2 MULMOD DUP9 PUSH2 0xF70 SWAP2 SWAP1 PUSH2 0x16DD JUMP JUMPDEST DUP3 ADDMOD SWAP1 POP PUSH1 0x0 DUP8 DUP1 PUSH2 0xF85 JUMPI PUSH2 0xF84 PUSH2 0x167F JUMP JUMPDEST JUMPDEST DUP9 DUP1 PUSH2 0xF94 JUMPI PUSH2 0xF93 PUSH2 0x167F JUMP JUMPDEST JUMPDEST DUP4 DUP11 PUSH2 0xFA0 SWAP2 SWAP1 PUSH2 0x16DD JUMP JUMPDEST DUP11 DUP1 PUSH2 0xFAF JUMPI PUSH2 0xFAE PUSH2 0x167F JUMP JUMPDEST JUMPDEST DUP7 PUSH1 0x2 PUSH1 0x4 DUP2 LT PUSH2 0xFC3 JUMPI PUSH2 0xFC2 PUSH2 0x1650 JUMP JUMPDEST JUMPDEST PUSH1 0x20 MUL ADD MLOAD DUP9 PUSH1 0x0 PUSH1 0x4 DUP2 LT PUSH2 0xFDC JUMPI PUSH2 0xFDB PUSH2 0x1650 JUMP JUMPDEST JUMPDEST PUSH1 0x20 MUL ADD MLOAD MULMOD ADDMOD DUP5 PUSH1 0x1 PUSH1 0x4 DUP2 LT PUSH2 0xFF7 JUMPI PUSH2 0xFF6 PUSH2 0x1650 JUMP JUMPDEST JUMPDEST PUSH1 0x20 MUL ADD MLOAD MULMOD SWAP1 POP DUP8 DUP1 PUSH2 0x100E JUMPI PUSH2 0x100D PUSH2 0x167F JUMP JUMPDEST JUMPDEST DUP9 DUP1 PUSH2 0x101D JUMPI PUSH2 0x101C PUSH2 0x167F JUMP JUMPDEST JUMPDEST DUP5 PUSH1 0x3 PUSH1 0x4 DUP2 LT PUSH2 0x1031 JUMPI PUSH2 0x1030 PUSH2 0x1650 JUMP JUMPDEST JUMPDEST PUSH1 0x20 MUL ADD MLOAD DUP7 PUSH1 0x1 PUSH1 0x4 DUP2 LT PUSH2 0x104A JUMPI PUSH2 0x1049 PUSH2 0x1650 JUMP JUMPDEST JUMPDEST PUSH1 0x20 MUL ADD MLOAD MULMOD DUP10 PUSH2 0x105B SWAP2 SWAP1 PUSH2 0x16DD JUMP JUMPDEST DUP3 ADDMOD SWAP1 POP PUSH1 0x0 DUP9 DUP1 PUSH2 0x1070 JUMPI PUSH2 0x106F PUSH2 0x167F JUMP JUMPDEST JUMPDEST DUP10 DUP1 PUSH2 0x107F JUMPI PUSH2 0x107E PUSH2 0x167F JUMP JUMPDEST JUMPDEST DUP12 DUP16 MULMOD DUP6 PUSH1 0x0 PUSH1 0x4 DUP2 LT PUSH2 0x1096 JUMPI PUSH2 0x1095 PUSH2 0x1650 JUMP JUMPDEST JUMPDEST PUSH1 0x20 MUL ADD MLOAD MULMOD SWAP1 POP DUP3 DUP3 DUP3 SWAP8 POP SWAP8 POP SWAP8 POP POP POP POP POP POP JUMPDEST SWAP8 POP SWAP8 POP SWAP8 SWAP5 POP POP POP POP POP JUMP JUMPDEST PUSH1 0x0 DUP1 PUSH1 0x0 PUSH2 0x10C9 DUP6 DUP6 PUSH2 0x11F7 JUMP JUMPDEST SWAP1 POP PUSH1 0x0 DUP5 DUP1 PUSH2 0x10DC JUMPI PUSH2 0x10DB PUSH2 0x167F JUMP JUMPDEST JUMPDEST DUP3 DUP4 MULMOD SWAP1 POP PUSH1 0x0 DUP6 DUP1 PUSH2 0x10F2 JUMPI PUSH2 0x10F1 PUSH2 0x167F JUMP JUMPDEST JUMPDEST DUP3 DUP11 MULMOD SWAP1 POP PUSH1 0x0 DUP7 DUP1 PUSH2 0x1108 JUMPI PUSH2 0x1107 PUSH2 0x167F JUMP JUMPDEST JUMPDEST DUP8 DUP1 PUSH2 0x1117 JUMPI PUSH2 0x1116 PUSH2 0x167F JUMP JUMPDEST JUMPDEST DUP5 DUP7 MULMOD DUP11 MULMOD SWAP1 POP DUP2 DUP2 SWAP6 POP SWAP6 POP POP POP POP POP SWAP5 POP SWAP5 SWAP3 POP POP POP JUMP JUMPDEST PUSH1 0x0 DUP1 DUP5 DUP4 DUP6 DUP6 PUSH2 0x1142 SWAP2 SWAP1 PUSH2 0x16DD JUMP JUMPDEST PUSH2 0x114C SWAP2 SWAP1 PUSH2 0x178E JUMP JUMPDEST SWAP2 POP SWAP2 POP SWAP4 POP SWAP4 SWAP2 POP POP JUMP JUMPDEST PUSH1 0x0 DUP1 PUSH1 0x0 DUP1 DUP10 SUB PUSH2 0x1172 JUMPI DUP8 DUP8 DUP8 SWAP3 POP SWAP3 POP SWAP3 POP PUSH2 0x11EB JUMP JUMPDEST PUSH1 0x0 DUP10 SWAP1 POP PUSH1 0x0 DUP1 PUSH1 0x0 PUSH1 0x1 SWAP1 POP JUMPDEST PUSH1 0x0 DUP5 EQ PUSH2 0x11DD JUMPI PUSH1 0x0 PUSH1 0x1 DUP6 AND EQ PUSH2 0x11B0 JUMPI PUSH2 0x11A3 DUP4 DUP4 DUP4 DUP16 DUP16 DUP16 DUP15 PUSH2 0xA3B JUMP JUMPDEST DUP1 SWAP4 POP DUP2 SWAP5 POP DUP3 SWAP6 POP POP POP POP JUMPDEST PUSH1 0x2 DUP5 PUSH2 0x11BD SWAP2 SWAP1 PUSH2 0x17BF JUMP JUMPDEST SWAP4 POP PUSH2 0x11CC DUP13 DUP13 DUP13 DUP13 DUP13 PUSH2 0x87D JUMP JUMPDEST DUP1 SWAP13 POP DUP2 SWAP14 POP DUP3 SWAP15 POP POP POP POP PUSH2 0x1181 JUMP JUMPDEST DUP3 DUP3 DUP3 SWAP7 POP SWAP7 POP SWAP7 POP POP POP POP POP JUMPDEST SWAP7 POP SWAP7 POP SWAP7 SWAP4 POP POP POP POP JUMP JUMPDEST PUSH1 0x0 DUP1 DUP4 EQ ISZERO DUP1 ISZERO PUSH2 0x1209 JUMPI POP DUP2 DUP4 EQ ISZERO JUMPDEST DUP1 ISZERO PUSH2 0x1216 JUMPI POP PUSH1 0x0 DUP3 EQ ISZERO JUMPDEST PUSH2 0x1255 JUMPI PUSH1 0x40 MLOAD PUSH32 0x8C379A000000000000000000000000000000000000000000000000000000000 DUP2 MSTORE PUSH1 0x4 ADD PUSH2 0x124C SWAP1 PUSH2 0x183C JUMP JUMPDEST PUSH1 0x40 MLOAD DUP1 SWAP2 SUB SWAP1 REVERT JUMPDEST PUSH1 0x0 DUP1 PUSH1 0x1 SWAP1 POP PUSH1 0x0 DUP5 SWAP1 POP PUSH1 0x0 JUMPDEST PUSH1 0x0 DUP8 EQ PUSH2 0x12D6 JUMPI DUP7 DUP3 PUSH2 0x1278 SWAP2 SWAP1 PUSH2 0x17BF JUMP JUMPDEST SWAP1 POP DUP3 DUP7 DUP1 PUSH2 0x128A JUMPI PUSH2 0x1289 PUSH2 0x167F JUMP JUMPDEST JUMPDEST DUP8 DUP1 PUSH2 0x1299 JUMPI PUSH2 0x1298 PUSH2 0x167F JUMP JUMPDEST JUMPDEST DUP6 DUP5 MULMOD DUP9 PUSH2 0x12A7 SWAP2 SWAP1 PUSH2 0x16DD JUMP JUMPDEST DUP7 ADDMOD DUP1 SWAP5 POP DUP2 SWAP6 POP POP POP DUP7 DUP8 DUP3 PUSH2 0x12BE SWAP2 SWAP1 PUSH2 0x185C JUMP JUMPDEST DUP4 PUSH2 0x12C9 SWAP2 SWAP1 PUSH2 0x16DD JUMP JUMPDEST DUP1 SWAP9 POP DUP2 SWAP4 POP POP POP PUSH2 0x1264 JUMP JUMPDEST DUP4 SWAP5 POP POP POP POP POP SWAP3 SWAP2 POP POP JUMP JUMPDEST PUSH1 0x40 MLOAD DUP1 PUSH1 0x40 ADD PUSH1 0x40 MSTORE DUP1 PUSH1 0x2 SWAP1 PUSH1 0x20 DUP3 MUL DUP1 CALLDATASIZE DUP4 CALLDATACOPY DUP1 DUP3 ADD SWAP2 POP POP SWAP1 POP POP SWAP1 JUMP JUMPDEST PUSH1 0x40 MLOAD DUP1 PUSH1 0x80 ADD PUSH1 0x40 MSTORE DUP1 PUSH1 0x4 SWAP1 PUSH1 0x20 DUP3 MUL DUP1 CALLDATASIZE DUP4 CALLDATACOPY DUP1 DUP3 ADD SWAP2 POP POP SWAP1 POP POP SWAP1 JUMP JUMPDEST PUSH1 0x0 DUP2 SWAP1 POP SWAP2 SWAP1 POP JUMP JUMPDEST PUSH2 0x133A DUP2 PUSH2 0x1327 JUMP JUMPDEST DUP3 MSTORE POP POP JUMP JUMPDEST PUSH1 0x0 PUSH1 0x20 DUP3 ADD SWAP1 POP PUSH2 0x1355 PUSH1 0x0 DUP4 ADD DUP5 PUSH2 0x1331 JUMP JUMPDEST SWAP3 SWAP2 POP POP JUMP JUMPDEST PUSH1 0x0 PUSH1 0x40 MLOAD SWAP1 POP SWAP1 JUMP JUMPDEST PUSH1 0x0 DUP1 REVERT JUMPDEST PUSH1 0x0 DUP1 REVERT JUMPDEST PUSH1 0x0 PUSH1 0x1F NOT PUSH1 0x1F DUP4 ADD AND SWAP1 POP SWAP2 SWAP1 POP JUMP JUMPDEST PUSH32 0x4E487B7100000000000000000000000000000000000000000000000000000000 PUSH1 0x0 MSTORE PUSH1 0x41 PUSH1 0x4 MSTORE PUSH1 0x24 PUSH1 0x0 REVERT JUMPDEST PUSH2 0x13B8 DUP3 PUSH2 0x136F JUMP JUMPDEST DUP2 ADD DUP2 DUP2 LT PUSH8 0xFFFFFFFFFFFFFFFF DUP3 GT OR ISZERO PUSH2 0x13D7 JUMPI PUSH2 0x13D6 PUSH2 0x1380 JUMP JUMPDEST JUMPDEST DUP1 PUSH1 0x40 MSTORE POP POP POP JUMP JUMPDEST PUSH1 0x0 PUSH2 0x13EA PUSH2 0x135B JUMP JUMPDEST SWAP1 POP PUSH2 0x13F6 DUP3 DUP3 PUSH2 0x13AF JUMP JUMPDEST SWAP2 SWAP1 POP JUMP JUMPDEST PUSH1 0x0 PUSH8 0xFFFFFFFFFFFFFFFF DUP3 GT ISZERO PUSH2 0x1416 JUMPI PUSH2 0x1415 PUSH2 0x1380 JUMP JUMPDEST JUMPDEST PUSH1 0x20 DUP3 MUL SWAP1 POP SWAP2 SWAP1 POP JUMP JUMPDEST PUSH1 0x0 DUP1 REVERT JUMPDEST PUSH2 0x142F DUP2 PUSH2 0x1327 JUMP JUMPDEST DUP2 EQ PUSH2 0x143A JUMPI PUSH1 0x0 DUP1 REVERT JUMPDEST POP JUMP JUMPDEST PUSH1 0x0 DUP2 CALLDATALOAD SWAP1 POP PUSH2 0x144C DUP2 PUSH2 0x1426 JUMP JUMPDEST SWAP3 SWAP2 POP POP JUMP JUMPDEST PUSH1 0x0 PUSH2 0x1465 PUSH2 0x1460 DUP5 PUSH2 0x13FB JUMP JUMPDEST PUSH2 0x13E0 JUMP JUMPDEST SWAP1 POP DUP1 PUSH1 0x20 DUP5 MUL DUP4 ADD DUP6 DUP2 GT ISZERO PUSH2 0x147F JUMPI PUSH2 0x147E PUSH2 0x1421 JUMP JUMPDEST JUMPDEST DUP4 JUMPDEST DUP2 DUP2 LT ISZERO PUSH2 0x14A8 JUMPI DUP1 PUSH2 0x1494 DUP9 DUP3 PUSH2 0x143D JUMP JUMPDEST DUP5 MSTORE PUSH1 0x20 DUP5 ADD SWAP4 POP POP PUSH1 0x20 DUP2 ADD SWAP1 POP PUSH2 0x1481 JUMP JUMPDEST POP POP POP SWAP4 SWAP3 POP POP POP JUMP JUMPDEST PUSH1 0x0 DUP3 PUSH1 0x1F DUP4 ADD SLT PUSH2 0x14C7 JUMPI PUSH2 0x14C6 PUSH2 0x136A JUMP JUMPDEST JUMPDEST PUSH1 0x2 PUSH2 0x14D4 DUP5 DUP3 DUP6 PUSH2 0x1452 JUMP JUMPDEST SWAP2 POP POP SWAP3 SWAP2 POP POP JUMP JUMPDEST PUSH1 0x0 DUP1 PUSH1 0x80 DUP4 DUP6 SUB SLT ISZERO PUSH2 0x14F4 JUMPI PUSH2 0x14F3 PUSH2 0x1365 JUMP JUMPDEST JUMPDEST PUSH1 0x0 PUSH2 0x1502 DUP6 DUP3 DUP7 ADD PUSH2 0x14B2 JUMP JUMPDEST SWAP3 POP POP PUSH1 0x40 PUSH2 0x1513 DUP6 DUP3 DUP7 ADD PUSH2 0x14B2 JUMP JUMPDEST SWAP2 POP POP SWAP3 POP SWAP3 SWAP1 POP JUMP JUMPDEST PUSH1 0x0 PUSH1 0x2 SWAP1 POP SWAP2 SWAP1 POP JUMP JUMPDEST PUSH1 0x0 DUP2 SWAP1 POP SWAP3 SWAP2 POP POP JUMP JUMPDEST PUSH1 0x0 DUP2 SWAP1 POP SWAP2 SWAP1 POP JUMP JUMPDEST PUSH2 0x1546 DUP2 PUSH2 0x1327 JUMP JUMPDEST DUP3 MSTORE POP POP JUMP JUMPDEST PUSH1 0x0 PUSH2 0x1558 DUP4 DUP4 PUSH2 0x153D JUMP JUMPDEST PUSH1 0x20 DUP4 ADD SWAP1 POP SWAP3 SWAP2 POP POP JUMP JUMPDEST PUSH1 0x0 PUSH1 0x20 DUP3 ADD SWAP1 POP SWAP2 SWAP1 POP JUMP JUMPDEST PUSH2 0x157A DUP2 PUSH2 0x151D JUMP JUMPDEST PUSH2 0x1584 DUP2 DUP5 PUSH2 0x1528 JUMP JUMPDEST SWAP3 POP PUSH2 0x158F DUP3 PUSH2 0x1533 JUMP JUMPDEST DUP1 PUSH1 0x0 JUMPDEST DUP4 DUP2 LT ISZERO PUSH2 0x15C0 JUMPI DUP2 MLOAD PUSH2 0x15A7 DUP8 DUP3 PUSH2 0x154C JUMP JUMPDEST SWAP7 POP PUSH2 0x15B2 DUP4 PUSH2 0x1564 JUMP JUMPDEST SWAP3 POP POP PUSH1 0x1 DUP2 ADD SWAP1 POP PUSH2 0x1593 JUMP JUMPDEST POP POP POP POP POP POP JUMP JUMPDEST PUSH1 0x0 PUSH1 0x40 DUP3 ADD SWAP1 POP PUSH2 0x15DD PUSH1 0x0 DUP4 ADD DUP5 PUSH2 0x1571 JUMP JUMPDEST SWAP3 SWAP2 POP POP JUMP JUMPDEST PUSH1 0x0 PUSH1 0x20 DUP3 DUP5 SUB SLT ISZERO PUSH2 0x15F9 JUMPI PUSH2 0x15F8 PUSH2 0x1365 JUMP JUMPDEST JUMPDEST PUSH1 0x0 PUSH2 0x1607 DUP5 DUP3 DUP6 ADD PUSH2 0x143D JUMP JUMPDEST SWAP2 POP POP SWAP3 SWAP2 POP POP JUMP JUMPDEST PUSH1 0x0 DUP1 PUSH1 0x60 DUP4 DUP6 SUB SLT ISZERO PUSH2 0x1627 JUMPI PUSH2 0x1626 PUSH2 0x1365 JUMP JUMPDEST JUMPDEST PUSH1 0x0 PUSH2 0x1635 DUP6 DUP3 DUP7 ADD PUSH2 0x14B2 JUMP JUMPDEST SWAP3 POP POP PUSH1 0x40 PUSH2 0x1646 DUP6 DUP3 DUP7 ADD PUSH2 0x143D JUMP JUMPDEST SWAP2 POP POP SWAP3 POP SWAP3 SWAP1 POP JUMP JUMPDEST PUSH32 0x4E487B7100000000000000000000000000000000000000000000000000000000 PUSH1 0x0 MSTORE PUSH1 0x32 PUSH1 0x4 MSTORE PUSH1 0x24 PUSH1 0x0 REVERT JUMPDEST PUSH32 0x4E487B7100000000000000000000000000000000000000000000000000000000 PUSH1 0x0 MSTORE PUSH1 0x12 PUSH1 0x4 MSTORE PUSH1 0x24 PUSH1 0x0 REVERT JUMPDEST PUSH32 0x4E487B7100000000000000000000000000000000000000000000000000000000 PUSH1 0x0 MSTORE PUSH1 0x11 PUSH1 0x4 MSTORE PUSH1 0x24 PUSH1 0x0 REVERT JUMPDEST PUSH1 0x0 PUSH2 0x16E8 DUP3 PUSH2 0x1327 JUMP JUMPDEST SWAP2 POP PUSH2 0x16F3 DUP4 PUSH2 0x1327 JUMP JUMPDEST SWAP3 POP DUP3 DUP3 SUB SWAP1 POP DUP2 DUP2 GT ISZERO PUSH2 0x170B JUMPI PUSH2 0x170A PUSH2 0x16AE JUMP JUMPDEST JUMPDEST SWAP3 SWAP2 POP POP JUMP JUMPDEST PUSH1 0x0 DUP3 DUP3 MSTORE PUSH1 0x20 DUP3 ADD SWAP1 POP SWAP3 SWAP2 POP POP JUMP JUMPDEST PUSH32 0x557365206A6163446F75626C652066756E6374696F6E20696E73746561640000 PUSH1 0x0 DUP3 ADD MSTORE POP JUMP JUMPDEST PUSH1 0x0 PUSH2 0x1758 PUSH1 0x1E DUP4 PUSH2 0x1711 JUMP JUMPDEST SWAP2 POP PUSH2 0x1763 DUP3 PUSH2 0x1722 JUMP JUMPDEST PUSH1 0x20 DUP3 ADD SWAP1 POP SWAP2 SWAP1 POP JUMP JUMPDEST PUSH1 0x0 PUSH1 0x20 DUP3 ADD SWAP1 POP DUP2 DUP2 SUB PUSH1 0x0 DUP4 ADD MSTORE PUSH2 0x1787 DUP2 PUSH2 0x174B JUMP JUMPDEST SWAP1 POP SWAP2 SWAP1 POP JUMP JUMPDEST PUSH1 0x0 PUSH2 0x1799 DUP3 PUSH2 0x1327 JUMP JUMPDEST SWAP2 POP PUSH2 0x17A4 DUP4 PUSH2 0x1327 JUMP JUMPDEST SWAP3 POP DUP3 PUSH2 0x17B4 JUMPI PUSH2 0x17B3 PUSH2 0x167F JUMP JUMPDEST JUMPDEST DUP3 DUP3 MOD SWAP1 POP SWAP3 SWAP2 POP POP JUMP JUMPDEST PUSH1 0x0 PUSH2 0x17CA DUP3 PUSH2 0x1327 JUMP JUMPDEST SWAP2 POP PUSH2 0x17D5 DUP4 PUSH2 0x1327 JUMP JUMPDEST SWAP3 POP DUP3 PUSH2 0x17E5 JUMPI PUSH2 0x17E4 PUSH2 0x167F JUMP JUMPDEST JUMPDEST DUP3 DUP3 DIV SWAP1 POP SWAP3 SWAP2 POP POP JUMP JUMPDEST PUSH32 0x496E76616C6964206E756D626572000000000000000000000000000000000000 PUSH1 0x0 DUP3 ADD MSTORE POP JUMP JUMPDEST PUSH1 0x0 PUSH2 0x1826 PUSH1 0xE DUP4 PUSH2 0x1711 JUMP JUMPDEST SWAP2 POP PUSH2 0x1831 DUP3 PUSH2 0x17F0 JUMP JUMPDEST PUSH1 0x20 DUP3 ADD SWAP1 POP SWAP2 SWAP1 POP JUMP JUMPDEST PUSH1 0x0 PUSH1 0x20 DUP3 ADD SWAP1 POP DUP2 DUP2 SUB PUSH1 0x0 DUP4 ADD MSTORE PUSH2 0x1855 DUP2 PUSH2 0x1819 JUMP JUMPDEST SWAP1 POP SWAP2 SWAP1 POP JUMP JUMPDEST PUSH1 0x0 PUSH2 0x1867 DUP3 PUSH2 0x1327 JUMP JUMPDEST SWAP2 POP PUSH2 0x1872 DUP4 PUSH2 0x1327 JUMP JUMPDEST SWAP3 POP DUP3 DUP3 MUL PUSH2 0x1880 DUP2 PUSH2 0x1327 JUMP JUMPDEST SWAP2 POP DUP3 DUP3 DIV DUP5 EQ DUP4 ISZERO OR PUSH2 0x1897 JUMPI PUSH2 0x1896 PUSH2 0x16AE JUMP JUMPDEST JUMPDEST POP SWAP3 SWAP2 POP POP JUMP INVALID LOG2 PUSH5 0x6970667358 0x22 SLT KECCAK256 0xE4 DUP16 CALLDATALOAD 0xEE KECCAK256 0xBC 0x4D LOG0 0x2F 0xC6 SLT 0xE2 0x26 PUSH15 0x9501B7F05CC7E9F290541156CD38C9 MUL PUSH20 0x4A64736F6C634300081300330000000000000000 "
		},
		"gasEstimates": {
			"creation": {
				"codeDepositCost": "2153400",
				"executionCost": "infinite",
				"totalCost": "infinite"
			},
			"external": {
				"getInfo()": "infinite",
				"getTXoutputs()": "infinite",
				"receiveTransaction(uint256,uint256,uint256[2],uint256[4],uint256[2][2][2],uint256,uint256[2],uint16)": "infinite",
				"returnArr(uint256[])": "infinite",
				"returnMLSAG((uint256,uint256[2],uint256[4],uint256[2][2][2]))": "infinite",
				"returnNum(uint256)": "infinite",
				"returnStruct((uint256[]))": "infinite",
				"verifyTransaction(uint256,(uint256,uint256[2],uint256[4],uint256[2][2][2]))": "infinite"
			},
			"internal": {
				"hash2Hex(string memory)": "infinite",
				"hash2Point(string memory)": "infinite",
				"point2String(uint256[2] memory)": "infinite"
			}
		},
		"methodIdentifiers": {
			"getInfo()": "5a9b0b89",
			"getTXoutputs()": "c01da18b",
			"receiveTransaction(uint256,uint256,uint256[2],uint256[4],uint256[2][2][2],uint256,uint256[2],uint16)": "6cc42756",
			"returnArr(uint256[])": "07f51a9a",
			"returnMLSAG((uint256,uint256[2],uint256[4],uint256[2][2][2]))": "61df00b1",
			"returnNum(uint256)": "f80e3e00",
			"returnStruct((uint256[]))": "0d47535f",
			"verifyTransaction(uint256,(uint256,uint256[2],uint256[4],uint256[2][2][2]))": "a8660c1f"
		}
	},
	"abi": [
		{
			"inputs": [],
			"stateMutability": "nonpayable",
			"type": "constructor"
		},
		{
			"anonymous": false,
			"inputs": [
				{
					"components": [
						{
							"internalType": "uint256",
							"name": "rPubKey",
							"type": "uint256"
						},
						{
							"internalType": "uint256[2]",
							"name": "amountCommitment",
							"type": "uint256[2]"
						},
						{
							"internalType": "uint16",
							"name": "transactionIndex",
							"type": "uint16"
						}
					],
					"indexed": false,
					"internalType": "struct Meteora.TXoutput",
					"name": "_outputs",
					"type": "tuple"
				}
			],
			"name": "TransactionApproved",
			"type": "event"
		},
		{
			"inputs": [],
			"name": "getInfo",
			"outputs": [
				{
					"internalType": "string",
					"name": "",
					"type": "string"
				}
			],
			"stateMutability": "pure",
			"type": "function"
		},
		{
			"inputs": [],
			"name": "getTXoutputs",
			"outputs": [
				{
					"components": [
						{
							"internalType": "uint256",
							"name": "rPubKey",
							"type": "uint256"
						},
						{
							"internalType": "uint256[2]",
							"name": "amountCommitment",
							"type": "uint256[2]"
						},
						{
							"internalType": "uint16",
							"name": "transactionIndex",
							"type": "uint16"
						}
					],
					"internalType": "struct Meteora.TXoutput[]",
					"name": "",
					"type": "tuple[]"
				}
			],
			"stateMutability": "view",
			"type": "function"
		},
		{
			"inputs": [
				{
					"internalType": "uint256",
					"name": "_message",
					"type": "uint256"
				},
				{
					"internalType": "uint256",
					"name": "c1",
					"type": "uint256"
				},
				{
					"internalType": "uint256[2]",
					"name": "keyImage",
					"type": "uint256[2]"
				},
				{
					"internalType": "uint256[4]",
					"name": "rFactors",
					"type": "uint256[4]"
				},
				{
					"internalType": "uint256[2][2][2]",
					"name": "inputs",
					"type": "uint256[2][2][2]"
				},
				{
					"internalType": "uint256",
					"name": "rPubKey",
					"type": "uint256"
				},
				{
					"internalType": "uint256[2]",
					"name": "amountCommitment",
					"type": "uint256[2]"
				},
				{
					"internalType": "uint16",
					"name": "transactionIndex",
					"type": "uint16"
				}
			],
			"name": "receiveTransaction",
			"outputs": [
				{
					"internalType": "bool",
					"name": "",
					"type": "bool"
				}
			],
			"stateMutability": "nonpayable",
			"type": "function"
		},
		{
			"inputs": [
				{
					"internalType": "uint256[]",
					"name": "_arr",
					"type": "uint256[]"
				}
			],
			"name": "returnArr",
			"outputs": [
				{
					"internalType": "uint256[]",
					"name": "",
					"type": "uint256[]"
				}
			],
			"stateMutability": "pure",
			"type": "function"
		},
		{
			"inputs": [
				{
					"components": [
						{
							"internalType": "uint256",
							"name": "c1",
							"type": "uint256"
						},
						{
							"internalType": "uint256[2]",
							"name": "keyImage",
							"type": "uint256[2]"
						},
						{
							"internalType": "uint256[4]",
							"name": "rFactors",
							"type": "uint256[4]"
						},
						{
							"internalType": "uint256[2][2][2]",
							"name": "inputs",
							"type": "uint256[2][2][2]"
						}
					],
					"internalType": "struct Meteora.MLSAG",
					"name": "_mlsag",
					"type": "tuple"
				}
			],
			"name": "returnMLSAG",
			"outputs": [
				{
					"components": [
						{
							"internalType": "uint256",
							"name": "c1",
							"type": "uint256"
						},
						{
							"internalType": "uint256[2]",
							"name": "keyImage",
							"type": "uint256[2]"
						},
						{
							"internalType": "uint256[4]",
							"name": "rFactors",
							"type": "uint256[4]"
						},
						{
							"internalType": "uint256[2][2][2]",
							"name": "inputs",
							"type": "uint256[2][2][2]"
						}
					],
					"internalType": "struct Meteora.MLSAG",
					"name": "",
					"type": "tuple"
				}
			],
			"stateMutability": "pure",
			"type": "function"
		},
		{
			"inputs": [
				{
					"internalType": "uint256",
					"name": "_num",
					"type": "uint256"
				}
			],
			"name": "returnNum",
			"outputs": [
				{
					"internalType": "uint256",
					"name": "",
					"type": "uint256"
				}
			],
			"stateMutability": "pure",
			"type": "function"
		},
		{
			"inputs": [
				{
					"components": [
						{
							"internalType": "uint256[]",
							"name": "test",
							"type": "uint256[]"
						}
					],
					"internalType": "struct Meteora.TestStruct",
					"name": "_struct",
					"type": "tuple"
				}
			],
			"name": "returnStruct",
			"outputs": [
				{
					"components": [
						{
							"internalType": "uint256[]",
							"name": "test",
							"type": "uint256[]"
						}
					],
					"internalType": "struct Meteora.TestStruct",
					"name": "",
					"type": "tuple"
				}
			],
			"stateMutability": "pure",
			"type": "function"
		},
		{
			"inputs": [
				{
					"internalType": "uint256",
					"name": "_message",
					"type": "uint256"
				},
				{
					"components": [
						{
							"internalType": "uint256",
							"name": "c1",
							"type": "uint256"
						},
						{
							"internalType": "uint256[2]",
							"name": "keyImage",
							"type": "uint256[2]"
						},
						{
							"internalType": "uint256[4]",
							"name": "rFactors",
							"type": "uint256[4]"
						},
						{
							"internalType": "uint256[2][2][2]",
							"name": "inputs",
							"type": "uint256[2][2][2]"
						}
					],
					"internalType": "struct Meteora.MLSAG",
					"name": "_signature",
					"type": "tuple"
				}
			],
			"name": "verifyTransaction",
			"outputs": [
				{
					"internalType": "bool",
					"name": "",
					"type": "bool"
				}
			],
			"stateMutability": "nonpayable",
			"type": "function"
		}
	]
}